{
  "_format": "hh-sol-artifact-1",
  "contractName": "VestingContract",
  "sourceName": "contracts/VestingContract.sol",
  "abi": [
    {
      "inputs": [
        {
          "internalType": "string",
          "name": "_name",
          "type": "string"
        },
        {
          "internalType": "address",
          "name": "_saleContract",
          "type": "address"
        },
        {
          "internalType": "uint256",
          "name": "_tgePercent",
          "type": "uint256"
        },
        {
          "internalType": "uint256",
          "name": "_cliffDuration",
          "type": "uint256"
        },
        {
          "internalType": "uint256",
          "name": "_cliffPercent",
          "type": "uint256"
        },
        {
          "internalType": "uint256",
          "name": "_linearDuration",
          "type": "uint256"
        }
      ],
      "stateMutability": "nonpayable",
      "type": "constructor"
    },
    {
      "inputs": [
        {
          "internalType": "address",
          "name": "owner",
          "type": "address"
        }
      ],
      "name": "OwnableInvalidOwner",
      "type": "error"
    },
    {
      "inputs": [
        {
          "internalType": "address",
          "name": "account",
          "type": "address"
        }
      ],
      "name": "OwnableUnauthorizedAccount",
      "type": "error"
    },
    {
      "anonymous": false,
      "inputs": [
        {
          "indexed": false,
          "internalType": "address",
          "name": "account",
          "type": "address"
        },
        {
          "indexed": false,
          "internalType": "uint256",
          "name": "amount",
          "type": "uint256"
        }
      ],
      "name": "Added",
      "type": "event"
    },
    {
      "anonymous": false,
      "inputs": [
        {
          "indexed": false,
          "internalType": "address",
          "name": "account",
          "type": "address"
        },
        {
          "indexed": false,
          "internalType": "uint256",
          "name": "amount",
          "type": "uint256"
        }
      ],
      "name": "Claimed",
      "type": "event"
    },
    {
      "anonymous": false,
      "inputs": [
        {
          "indexed": true,
          "internalType": "address",
          "name": "previousOwner",
          "type": "address"
        },
        {
          "indexed": true,
          "internalType": "address",
          "name": "newOwner",
          "type": "address"
        }
      ],
      "name": "OwnershipTransferred",
      "type": "event"
    },
    {
      "anonymous": false,
      "inputs": [
        {
          "indexed": false,
          "internalType": "address",
          "name": "account",
          "type": "address"
        },
        {
          "indexed": false,
          "internalType": "uint256",
          "name": "amount",
          "type": "uint256"
        }
      ],
      "name": "Removed",
      "type": "event"
    },
    {
      "inputs": [
        {
          "internalType": "address[]",
          "name": "addrs",
          "type": "address[]"
        },
        {
          "internalType": "uint256[]",
          "name": "tokenAmounts",
          "type": "uint256[]"
        }
      ],
      "name": "addMembers",
      "outputs": [],
      "stateMutability": "nonpayable",
      "type": "function"
    },
    {
      "inputs": [],
      "name": "allocatedAmount",
      "outputs": [
        {
          "internalType": "uint256",
          "name": "",
          "type": "uint256"
        }
      ],
      "stateMutability": "view",
      "type": "function"
    },
    {
      "inputs": [],
      "name": "balance",
      "outputs": [
        {
          "internalType": "uint256",
          "name": "",
          "type": "uint256"
        }
      ],
      "stateMutability": "view",
      "type": "function"
    },
    {
      "inputs": [],
      "name": "claim",
      "outputs": [],
      "stateMutability": "nonpayable",
      "type": "function"
    },
    {
      "inputs": [],
      "name": "claimProxy",
      "outputs": [
        {
          "internalType": "address",
          "name": "",
          "type": "address"
        }
      ],
      "stateMutability": "view",
      "type": "function"
    },
    {
      "inputs": [
        {
          "internalType": "address",
          "name": "addr",
          "type": "address"
        }
      ],
      "name": "claimableAmount",
      "outputs": [
        {
          "internalType": "uint256",
          "name": "",
          "type": "uint256"
        }
      ],
      "stateMutability": "view",
      "type": "function"
    },
    {
      "inputs": [],
      "name": "cliffDuration",
      "outputs": [
        {
          "internalType": "uint256",
          "name": "",
          "type": "uint256"
        }
      ],
      "stateMutability": "view",
      "type": "function"
    },
    {
      "inputs": [],
      "name": "cliffPercent",
      "outputs": [
        {
          "internalType": "uint256",
          "name": "",
          "type": "uint256"
        }
      ],
      "stateMutability": "view",
      "type": "function"
    },
    {
      "inputs": [
        {
          "internalType": "address",
          "name": "_erc",
          "type": "address"
        },
        {
          "internalType": "address",
          "name": "account",
          "type": "address"
        },
        {
          "internalType": "uint256",
          "name": "amount",
          "type": "uint256"
        }
      ],
      "name": "emergencyWithdraw",
      "outputs": [],
      "stateMutability": "nonpayable",
      "type": "function"
    },
    {
      "inputs": [],
      "name": "linearDuration",
      "outputs": [
        {
          "internalType": "uint256",
          "name": "",
          "type": "uint256"
        }
      ],
      "stateMutability": "view",
      "type": "function"
    },
    {
      "inputs": [
        {
          "internalType": "address",
          "name": "",
          "type": "address"
        }
      ],
      "name": "members",
      "outputs": [
        {
          "internalType": "address",
          "name": "account",
          "type": "address"
        },
        {
          "internalType": "uint256",
          "name": "totalAmount",
          "type": "uint256"
        },
        {
          "internalType": "uint256",
          "name": "claimedAmount",
          "type": "uint256"
        },
        {
          "internalType": "uint256",
          "name": "startTime",
          "type": "uint256"
        },
        {
          "internalType": "uint256",
          "name": "endTime",
          "type": "uint256"
        }
      ],
      "stateMutability": "view",
      "type": "function"
    },
    {
      "inputs": [],
      "name": "name",
      "outputs": [
        {
          "internalType": "string",
          "name": "",
          "type": "string"
        }
      ],
      "stateMutability": "view",
      "type": "function"
    },
    {
      "inputs": [],
      "name": "owner",
      "outputs": [
        {
          "internalType": "address",
          "name": "",
          "type": "address"
        }
      ],
      "stateMutability": "view",
      "type": "function"
    },
    {
      "inputs": [
        {
          "internalType": "address",
          "name": "addr",
          "type": "address"
        }
      ],
      "name": "remainingAmount",
      "outputs": [
        {
          "internalType": "uint256",
          "name": "",
          "type": "uint256"
        }
      ],
      "stateMutability": "view",
      "type": "function"
    },
    {
      "inputs": [
        {
          "internalType": "address",
          "name": "addr",
          "type": "address"
        }
      ],
      "name": "removeMember",
      "outputs": [],
      "stateMutability": "nonpayable",
      "type": "function"
    },
    {
      "inputs": [],
      "name": "renounceOwnership",
      "outputs": [],
      "stateMutability": "nonpayable",
      "type": "function"
    },
    {
      "inputs": [
        {
          "internalType": "address",
          "name": "_erc",
          "type": "address"
        }
      ],
      "name": "setToken",
      "outputs": [],
      "stateMutability": "nonpayable",
      "type": "function"
    },
    {
      "inputs": [],
      "name": "tgePercent",
      "outputs": [
        {
          "internalType": "uint256",
          "name": "",
          "type": "uint256"
        }
      ],
      "stateMutability": "view",
      "type": "function"
    },
    {
      "inputs": [],
      "name": "tgeTime",
      "outputs": [
        {
          "internalType": "uint256",
          "name": "",
          "type": "uint256"
        }
      ],
      "stateMutability": "view",
      "type": "function"
    },
    {
      "inputs": [
        {
          "internalType": "address",
          "name": "addr",
          "type": "address"
        }
      ],
      "name": "totalAmount",
      "outputs": [
        {
          "internalType": "uint256",
          "name": "",
          "type": "uint256"
        }
      ],
      "stateMutability": "view",
      "type": "function"
    },
    {
      "inputs": [
        {
          "internalType": "address",
          "name": "newOwner",
          "type": "address"
        }
      ],
      "name": "transferOwnership",
      "outputs": [],
      "stateMutability": "nonpayable",
      "type": "function"
    },
    {
      "inputs": [
        {
          "internalType": "address",
          "name": "addr",
          "type": "address"
        }
      ],
      "name": "vestedAmount",
      "outputs": [
        {
          "internalType": "uint256",
          "name": "",
          "type": "uint256"
        }
      ],
      "stateMutability": "view",
      "type": "function"
    },
    {
      "inputs": [
        {
          "internalType": "address",
          "name": "_erc",
          "type": "address"
        },
        {
          "internalType": "address",
          "name": "account",
          "type": "address"
        }
      ],
      "name": "withdrawErc20",
      "outputs": [],
      "stateMutability": "nonpayable",
      "type": "function"
    },
    {
      "inputs": [
        {
          "internalType": "address payable",
          "name": "account",
          "type": "address"
        }
      ],
      "name": "withdrawEth",
      "outputs": [],
      "stateMutability": "nonpayable",
      "type": "function"
    }
  ],
  "bytecode": "0x608060405234620002e65762001764803803806200001d8162000300565b92833981019060c081830312620002e65780516001600160401b0390818111620002e657820190601f93808584011215620002e6578251928284116200028357602093601f1991620000758883018416870162000300565b93828552868383010111620002e657859060005b838110620002eb57505060009184010152848401516001600160a01b038082169390929091849003620002e65760408701519460608801519660a060808a0151990151993315620002cd576000549560018060a01b0319963388821617600055604051913391167f8be0079c531659141344cd1fd0a4f28419497f9722a3daafe3b4186f6b6457e0600080a38715620002995750845192831162000283576003948554926001938481811c9116801562000278575b82821014620002625783811162000217575b5080928511600114620001af575083945090839291600094620001a3575b50501b9160001990841b1c19161790555b600254161760025560065560075560085560095560405161143d9081620003278239f35b0151925038806200016e565b9294849081168760005284600020946000905b88838310620001fc5750505010620001e3575b505050811b0190556200017f565b015160001983861b60f8161c19169055388080620001d5565b858701518855909601959485019487935090810190620001c2565b87600052816000208480880160051c82019284891062000258575b0160051c019085905b8281106200024b57505062000150565b600081550185906200023b565b9250819262000232565b634e487b7160e01b600052602260045260246000fd5b90607f16906200013e565b634e487b7160e01b600052604160045260246000fd5b62461bcd60e51b815260048101839052600f60248201526e696e76616c69642074676554696d6560881b6044820152606490fd5b604051631e4fbdf760e01b815260006004820152602490fd5b600080fd5b81810183015186820184015287920162000089565b6040519190601f01601f191682016001600160401b03811183821017620002835760405256fe608080604052600436101561001357600080fd5b60003560e01c90816306fdde0314610e3b5750806308ae4b0c14610dd25780630b1ca49a14610ca3578063115425e414610c85578063144fa6d714610c4557806325e1606314610bf757806330b66cee14610bd05780633163e3a814610b50578063384711cc14610b2d5780633e72b2bb1461080e5780634e71d92d146105955780635a8494191461051f578063715018a6146104c6578063739656db146103d957806389885049146103b65780638da5cb5b1461038f5780639b78a07014610371578063b69ef8a81461034e578063d72b9da2146102da578063d85349f7146102bc578063e2f0f42d1461029e578063e63ea408146101e9578063e67e8aaf146101cb5763f2fde38b1461012757600080fd5b346101c65760203660031901126101c657610140610fd2565b6101486113c3565b6001600160a01b0380911690811561019557600054826001600160a01b0319821617600055167f8be0079c531659141344cd1fd0a4f28419497f9722a3daafe3b4186f6b6457e0600080a3005b60246040517f1e4fbdf700000000000000000000000000000000000000000000000000000000815260006004820152fd5b600080fd5b346101c65760003660031901126101c6576020600854604051908152f35b346101c65760603660031901126101c6576001600160a01b03602061025761020f610fd2565b610217610fe8565b61021f6113c3565b600060405195868095819463a9059cbb60e01b83526044359060048401602090939291936001600160a01b0360408201951681520152565b0393165af180156102925761026857005b6102899060203d60201161028b575b6102818183610fb0565b810190611274565b005b503d610277565b6040513d6000823e3d90fd5b346101c65760003660031901126101c6576020600654604051908152f35b346101c65760003660031901126101c6576020600754604051908152f35b346101c65760203660031901126101c65760206001600160a01b03806102fe610fd2565b16600052600482526040600020906040519061031982610f7e565b825416815260806004600184015493848685015260028101546040850152600381015460608501520154910152604051908152f35b346101c65760003660031901126101c65760206103696112ff565b604051908152f35b346101c65760003660031901126101c6576020600954604051908152f35b346101c65760003660031901126101c65760206001600160a01b0360005416604051908152f35b346101c65760203660031901126101c65760206103696103d4610fd2565b61128c565b346101c65760403660031901126101c6576103f2610fd2565b6001600160a01b03610402610fe8565b9161040b6113c3565b166040516370a0823160e01b81523060048201526020928382602481865afa908115610292578492600092610493575b5060405163a9059cbb60e01b81526001600160a01b039091166004820152602481019190915291829081600081604481015b03925af180156102925761047d57005b8161028992903d1061028b576102818183610fb0565b8381949293503d83116104bf575b6104ab8183610fb0565b810103126101c6579051839161046d61043b565b503d6104a1565b346101c65760003660031901126101c6576104df6113c3565b60006001600160a01b0381546001600160a01b031981168355167f8be0079c531659141344cd1fd0a4f28419497f9722a3daafe3b4186f6b6457e08280a3005b346101c65760203660031901126101c65760206103696001600160a01b0380610546610fd2565b16600052600483526040600020906040519061056182610f7e565b8254168152600182015490818582015260806004600285015494856040850152600381015460608501520154910152611052565b346101c65760003660031901126101c657336000526020600481526001600160a01b038060406000205416156107ca57336000526004825260406000206040516105de81610f7e565b8282541680825260018301549285830193845260028101546040840190815261061e6004600384015493606087019485520154936080860194855261128c565b95861561078657855161063288845161102f565b1161074257600154855160405163a9059cbb60e01b81529083166001600160a01b03166004820152602481018990529493929190899086908316816000816044810103925af18015610292577fd8138f8a3f377c5259ca548e70e4c2de94f129f5a11036a15b69513cba2b426a996004968792610725575b506106b68a855161102f565b84526106c48a600a54611052565b600a553360005252604060002095511695866001600160a01b03198754161786555160018601555160028501555160038401555191015561072060405192839283602090939291936001600160a01b0360408201951681520152565b0390a1005b61073b90823d841161028b576102818183610fb0565b508b6106aa565b6064886040519062461bcd60e51b82526004820152601460248201527f746f6b656e20706f6f6c206578686175737465640000000000000000000000006044820152fd5b6064886040519062461bcd60e51b82526004820152601360248201527f6e6f20746f6b656e7320636c61696d61626c65000000000000000000000000006044820152fd5b6064826040519062461bcd60e51b82526004820152601a60248201527f596f7520617265206e6f7420612076616c6964206d656d6265720000000000006044820152fd5b346101c65760403660031901126101c65767ffffffffffffffff6004358181116101c657610840903690600401610ffe565b91906024916024359081116101c65761085d903690600401610ffe565b9390916108686113c3565b60046108726112ff565b60206001600160a01b03600254166040519384809263062c7c7560e31b82525afa91821561029257600092610af9575b5060005b8481106108af57005b816108bb828a8961123a565b3511610a8f57806001600160a01b036108df6108da600194898961123a565b611260565b16600052600460205261098b604060002093604051946108fe86610f7e565b60046001600160a01b038254169182885286810154602089015260028101546040890152600381015460608901520154608087015215610a4c575b6000608086015261095961094e848d8c61123a565b35602087015161102f565b6020860152610969838c8b61123a565b35610977600a91825461102f565b9055610984838c8b61123a565b3590611052565b926001600160a01b036109a26108da848a8a61123a565b166000526004602052600460806040600020926001600160a01b038151166001600160a01b0319855416178455602081015186850155604081015160028501556060810151600385015501519101557f446e00ad56f9b887844f390c87a128507b991ea0499375f13ecb115288c2df7d610a206108da83898961123a565b610a2b838c8b61123a565b604080516001600160a01b039390931683529035602083015290a1016108a6565b6001600160a01b03610a626108da858b8b61123a565b168552854210600014610a7b5760006060860152610939565b610a858642611052565b6060860152610939565b60848760296040519162461bcd60e51b8352602060048401528201527f616c6c6f636174696f6e20776f756c64206578636565642072656d61696e696e60448201527f672062616c616e636500000000000000000000000000000000000000000000006064820152fd5b9091506020813d602011610b25575b81610b1560209383610fb0565b810103126101c6575190876108a2565b3d9150610b08565b346101c65760203660031901126101c6576020610369610b4b610fd2565b611072565b346101c65760003660031901126101c657600460206001600160a01b03600254166040519283809263062c7c7560e31b82525afa801561029257600090610b9d575b602090604051908152f35b506020813d602011610bc8575b81610bb760209383610fb0565b810103126101c65760209051610b92565b3d9150610baa565b346101c65760003660031901126101c65760206001600160a01b0360055416604051908152f35b346101c65760203660031901126101c6576004356001600160a01b0381168091036101c657600080808093610c2a6113c3565b4790828215610c3c575bf11561029257005b506108fc610c34565b346101c65760203660031901126101c6576001600160a01b03610c66610fd2565b610c6e6113c3565b166001600160a01b03196001541617600155600080f35b346101c65760003660031901126101c6576020600a54604051908152f35b346101c65760203660031901126101c6577fbe80a446a00b8794a7d05e8386915bdde937fe8b48da8d16175a5362b4c3f4f8610cdd610fd2565b610ce56113c3565b6001600160a01b039081811691826000526004602052600460406000209160405192610d1084610f7e565b818154168452600181015460208501818152600283015493610d666040880193868552610d5d8860038801549760608c0198895201549760808b01988952610d578c61128c565b9061102f565b90818552611052565b98610d738a600a54611052565b600a554286526000528560205260406000209651166001600160a01b03198754161786555160018601555160028501555160038401555191015561072060405192839283602090939291936001600160a01b0360408201951681520152565b346101c65760203660031901126101c65760a06001600160a01b0380610df6610fd2565b16600052600460205260406000209081541690600181015490600281015460046003830154920154926040519485526020850152604084015260608301526080820152f35b346101c65760003660031901126101c657600354906000600183811c90808516908115610f74575b6020958684108314610f5e578587938582529182600014610f3e575050600114610ee7575b50505081610e97910382610fb0565b604051828193825282519081818401526000935b828510610ece575050604092506000838284010152601f80199101168101030190f35b8481018201518686016040015293810193859350610eab565b9190925060036000527fc2575a0e9e593c00f959f8c92f12db2869c3395a3b0502d05e2516446f71f85b916000925b828410610f2b57505050820101818385610e88565b8054868501860152928401928101610f16565b60ff19168482015293151560051b84019092019350859150869050610e88565b634e487b7160e01b600052602260045260246000fd5b91607f1691610e63565b60a0810190811067ffffffffffffffff821117610f9a57604052565b634e487b7160e01b600052604160045260246000fd5b90601f8019910116810190811067ffffffffffffffff821117610f9a57604052565b600435906001600160a01b03821682036101c657565b602435906001600160a01b03821682036101c657565b9181601f840112156101c65782359167ffffffffffffffff83116101c6576020808501948460051b0101116101c657565b9190820180921161103c57565b634e487b7160e01b600052601160045260246000fd5b9190820391821161103c57565b8181029291811591840414171561103c57565b6001600160a01b038060015416156112335780600254169060405192839263062c7c7560e31b845283600460209687935afa92831561029257600093611201575b5082156111f857811660005260048352604060002090604051906110d682610f7e565b82541681526001820154938101938452600282015460408201526111118360038401546080600460608601968388520154940193845261102f565b42106111f85761114461113b611133948651620f42409687916006549061105f565b04945161102f565b6007549061102f565b908142106111f057516111e9576009549261115f848361102f565b4210156111e15761119e9061117886516008549061105f565b04916111986111918461118c878a51611052565b611052565b9142611052565b9061105f565b9083156111cb576111b9936111b492049261102f565b61102f565b90518082116111c6575090565b905090565b634e487b7160e01b600052601260045260246000fd5b505050505190565b5050505190565b505091505090565b50505050600090565b90928482813d831161122c575b6112188183610fb0565b8101031261122957505191386110b3565b80fd5b503d61120e565b5050600090565b919081101561124a5760051b0190565b634e487b7160e01b600052603260045260246000fd5b356001600160a01b03811681036101c65790565b908160209103126101c6575180151581036101c65790565b6112ea6001600160a01b03918281166000526004602052604060002092604051906112b682610f7e565b8454168152600184015460208201526080600460028601549560408401968752600381015460608501520154910152611072565b9051808210611233576112fc91611052565b90565b6001600160a01b0360015416801561137f576020602491604051928380926370a0823160e01b82523060048301525afa80156102925760009061134b575b6112fc9150600a5490611052565b506020813d602011611377575b8161136560209383610fb0565b810103126101c6576112fc905161133d565b3d9150611358565b606460405162461bcd60e51b815260206004820152601660248201527f746f6b656e20686173206e6f74206265656e20736574000000000000000000006044820152fd5b6001600160a01b036000541633036113d757565b60246040517f118cdaa7000000000000000000000000000000000000000000000000000000008152336004820152fdfea264697066735822122026b8b3862e65de33fd115860fae61c3fafc91ad3d67bdd11e346cf5fd858cef864736f6c63430008180033",
  "linkReferences": {},
  "deployedLinkReferences": {}
}