{
  "contracts/VestingContract.sol": {
    "VestingContract": {
      "abi": [
        {
          "inputs": [
            {
              "internalType": "string",
              "name": "_name",
              "type": "string"
            },
            {
              "internalType": "address",
              "name": "_saleContract",
              "type": "address"
            },
            {
              "internalType": "uint256",
              "name": "_tgePercent",
              "type": "uint256"
            },
            {
              "internalType": "uint256",
              "name": "_cliffDuration",
              "type": "uint256"
            },
            {
              "internalType": "uint256",
              "name": "_cliffPercent",
              "type": "uint256"
            },
            {
              "internalType": "uint256",
              "name": "_linearDuration",
              "type": "uint256"
            }
          ],
          "stateMutability": "nonpayable",
          "type": "constructor"
        },
        {
          "inputs": [
            {
              "internalType": "address",
              "name": "owner",
              "type": "address"
            }
          ],
          "name": "OwnableInvalidOwner",
          "type": "error"
        },
        {
          "inputs": [
            {
              "internalType": "address",
              "name": "account",
              "type": "address"
            }
          ],
          "name": "OwnableUnauthorizedAccount",
          "type": "error"
        },
        {
          "anonymous": false,
          "inputs": [
            {
              "indexed": false,
              "internalType": "address",
              "name": "account",
              "type": "address"
            },
            {
              "indexed": false,
              "internalType": "uint256",
              "name": "amount",
              "type": "uint256"
            }
          ],
          "name": "Added",
          "type": "event"
        },
        {
          "anonymous": false,
          "inputs": [
            {
              "indexed": false,
              "internalType": "address",
              "name": "account",
              "type": "address"
            },
            {
              "indexed": false,
              "internalType": "uint256",
              "name": "amount",
              "type": "uint256"
            }
          ],
          "name": "Claimed",
          "type": "event"
        },
        {
          "anonymous": false,
          "inputs": [
            {
              "indexed": true,
              "internalType": "address",
              "name": "previousOwner",
              "type": "address"
            },
            {
              "indexed": true,
              "internalType": "address",
              "name": "newOwner",
              "type": "address"
            }
          ],
          "name": "OwnershipTransferred",
          "type": "event"
        },
        {
          "anonymous": false,
          "inputs": [
            {
              "indexed": false,
              "internalType": "address",
              "name": "account",
              "type": "address"
            },
            {
              "indexed": false,
              "internalType": "uint256",
              "name": "amount",
              "type": "uint256"
            }
          ],
          "name": "Removed",
          "type": "event"
        },
        {
          "inputs": [
            {
              "internalType": "address[]",
              "name": "addrs",
              "type": "address[]"
            },
            {
              "internalType": "uint256[]",
              "name": "tokenAmounts",
              "type": "uint256[]"
            }
          ],
          "name": "addMembers",
          "outputs": [],
          "stateMutability": "nonpayable",
          "type": "function"
        },
        {
          "inputs": [],
          "name": "allocatedAmount",
          "outputs": [
            {
              "internalType": "uint256",
              "name": "",
              "type": "uint256"
            }
          ],
          "stateMutability": "view",
          "type": "function"
        },
        {
          "inputs": [],
          "name": "balance",
          "outputs": [
            {
              "internalType": "uint256",
              "name": "",
              "type": "uint256"
            }
          ],
          "stateMutability": "view",
          "type": "function"
        },
        {
          "inputs": [],
          "name": "claim",
          "outputs": [],
          "stateMutability": "nonpayable",
          "type": "function"
        },
        {
          "inputs": [],
          "name": "claimProxy",
          "outputs": [
            {
              "internalType": "address",
              "name": "",
              "type": "address"
            }
          ],
          "stateMutability": "view",
          "type": "function"
        },
        {
          "inputs": [
            {
              "internalType": "address",
              "name": "addr",
              "type": "address"
            }
          ],
          "name": "claimableAmount",
          "outputs": [
            {
              "internalType": "uint256",
              "name": "",
              "type": "uint256"
            }
          ],
          "stateMutability": "view",
          "type": "function"
        },
        {
          "inputs": [],
          "name": "cliffDuration",
          "outputs": [
            {
              "internalType": "uint256",
              "name": "",
              "type": "uint256"
            }
          ],
          "stateMutability": "view",
          "type": "function"
        },
        {
          "inputs": [],
          "name": "cliffPercent",
          "outputs": [
            {
              "internalType": "uint256",
              "name": "",
              "type": "uint256"
            }
          ],
          "stateMutability": "view",
          "type": "function"
        },
        {
          "inputs": [],
          "name": "linearDuration",
          "outputs": [
            {
              "internalType": "uint256",
              "name": "",
              "type": "uint256"
            }
          ],
          "stateMutability": "view",
          "type": "function"
        },
        {
          "inputs": [
            {
              "internalType": "address",
              "name": "",
              "type": "address"
            }
          ],
          "name": "members",
          "outputs": [
            {
              "internalType": "address",
              "name": "account",
              "type": "address"
            },
            {
              "internalType": "uint256",
              "name": "totalAmount",
              "type": "uint256"
            },
            {
              "internalType": "uint256",
              "name": "claimedAmount",
              "type": "uint256"
            },
            {
              "internalType": "uint256",
              "name": "startTime",
              "type": "uint256"
            },
            {
              "internalType": "uint256",
              "name": "endTime",
              "type": "uint256"
            }
          ],
          "stateMutability": "view",
          "type": "function"
        },
        {
          "inputs": [],
          "name": "name",
          "outputs": [
            {
              "internalType": "string",
              "name": "",
              "type": "string"
            }
          ],
          "stateMutability": "view",
          "type": "function"
        },
        {
          "inputs": [],
          "name": "owner",
          "outputs": [
            {
              "internalType": "address",
              "name": "",
              "type": "address"
            }
          ],
          "stateMutability": "view",
          "type": "function"
        },
        {
          "inputs": [
            {
              "internalType": "address",
              "name": "addr",
              "type": "address"
            }
          ],
          "name": "remainingAmount",
          "outputs": [
            {
              "internalType": "uint256",
              "name": "",
              "type": "uint256"
            }
          ],
          "stateMutability": "view",
          "type": "function"
        },
        {
          "inputs": [
            {
              "internalType": "address",
              "name": "addr",
              "type": "address"
            }
          ],
          "name": "removeMember",
          "outputs": [],
          "stateMutability": "nonpayable",
          "type": "function"
        },
        {
          "inputs": [],
          "name": "renounceOwnership",
          "outputs": [],
          "stateMutability": "nonpayable",
          "type": "function"
        },
        {
          "inputs": [
            {
              "internalType": "address",
              "name": "_erc",
              "type": "address"
            }
          ],
          "name": "setToken",
          "outputs": [],
          "stateMutability": "nonpayable",
          "type": "function"
        },
        {
          "inputs": [],
          "name": "tgePercent",
          "outputs": [
            {
              "internalType": "uint256",
              "name": "",
              "type": "uint256"
            }
          ],
          "stateMutability": "view",
          "type": "function"
        },
        {
          "inputs": [
            {
              "internalType": "address",
              "name": "addr",
              "type": "address"
            }
          ],
          "name": "totalAmount",
          "outputs": [
            {
              "internalType": "uint256",
              "name": "",
              "type": "uint256"
            }
          ],
          "stateMutability": "view",
          "type": "function"
        },
        {
          "inputs": [
            {
              "internalType": "address",
              "name": "newOwner",
              "type": "address"
            }
          ],
          "name": "transferOwnership",
          "outputs": [],
          "stateMutability": "nonpayable",
          "type": "function"
        },
        {
          "inputs": [
            {
              "internalType": "address",
              "name": "addr",
              "type": "address"
            }
          ],
          "name": "vestedAmount",
          "outputs": [
            {
              "internalType": "uint256",
              "name": "",
              "type": "uint256"
            }
          ],
          "stateMutability": "view",
          "type": "function"
        },
        {
          "inputs": [
            {
              "internalType": "address",
              "name": "_erc",
              "type": "address"
            },
            {
              "internalType": "address",
              "name": "account",
              "type": "address"
            }
          ],
          "name": "withdrawErc20",
          "outputs": [],
          "stateMutability": "nonpayable",
          "type": "function"
        },
        {
          "inputs": [
            {
              "internalType": "address payable",
              "name": "account",
              "type": "address"
            }
          ],
          "name": "withdrawEth",
          "outputs": [],
          "stateMutability": "nonpayable",
          "type": "function"
        }
      ],
      "evm": {
        "bytecode": {
          "linkReferences": {},
          "object": "608060405234620002e65762001618803803806200001d8162000300565b92833981019060c081830312620002e65780516001600160401b0390818111620002e657820190601f93808584011215620002e6578251928284116200028357602093601f1991620000758883018416870162000300565b93828552868383010111620002e657859060005b838110620002eb57505060009184010152848401516001600160a01b038082169390929091849003620002e65760408701519460608801519660a060808a0151990151993315620002cd576000549560018060a01b0319963388821617600055604051913391167f8be0079c531659141344cd1fd0a4f28419497f9722a3daafe3b4186f6b6457e0600080a38715620002995750845192831162000283576003948554926001938481811c9116801562000278575b82821014620002625783811162000217575b5080928511600114620001af575083945090839291600094620001a3575b50501b9160001990841b1c19161790555b60025416176002556006556007556008556009556040516112f19081620003278239f35b0151925038806200016e565b9294849081168760005284600020946000905b88838310620001fc5750505010620001e3575b505050811b0190556200017f565b015160001983861b60f8161c19169055388080620001d5565b858701518855909601959485019487935090810190620001c2565b87600052816000208480880160051c82019284891062000258575b0160051c019085905b8281106200024b57505062000150565b600081550185906200023b565b9250819262000232565b634e487b7160e01b600052602260045260246000fd5b90607f16906200013e565b634e487b7160e01b600052604160045260246000fd5b62461bcd60e51b815260048101839052600f60248201526e696e76616c69642074676554696d6560881b6044820152606490fd5b604051631e4fbdf760e01b815260006004820152602490fd5b600080fd5b81810183015186820184015287920162000089565b6040519190601f01601f191682016001600160401b03811183821017620002835760405256fe608080604052600436101561001357600080fd5b60003560e01c90816306fdde0314610d135750806308ae4b0c14610caa5780630b1ca49a14610b7b578063115425e414610b5d578063144fa6d714610b1d57806325e1606314610acf57806330b66cee14610aa8578063384711cc14610a855780633e72b2bb146107665780634e71d92d146104ed5780635a84941914610477578063715018a61461041e578063739656db1461030e57806389885049146102eb5780638da5cb5b146102c45780639b78a070146102a6578063b69ef8a814610283578063d72b9da21461020f578063d85349f7146101f1578063e2f0f42d146101d3578063e67e8aaf146101b55763f2fde38b1461011157600080fd5b346101b05760203660031901126101b05761012a610eaa565b610132611277565b6001600160a01b0380911690811561017f57600054826001600160a01b0319821617600055167f8be0079c531659141344cd1fd0a4f28419497f9722a3daafe3b4186f6b6457e0600080a3005b60246040517f1e4fbdf700000000000000000000000000000000000000000000000000000000815260006004820152fd5b600080fd5b346101b05760003660031901126101b0576020600854604051908152f35b346101b05760003660031901126101b0576020600654604051908152f35b346101b05760003660031901126101b0576020600754604051908152f35b346101b05760203660031901126101b05760206001600160a01b0380610233610eaa565b16600052600482526040600020906040519061024e82610e56565b825416815260806004600184015493848685015260028101546040850152600381015460608501520154910152604051908152f35b346101b05760003660031901126101b057602061029e6111b3565b604051908152f35b346101b05760003660031901126101b0576020600954604051908152f35b346101b05760003660031901126101b05760206001600160a01b0360005416604051908152f35b346101b05760203660031901126101b057602061029e610309610eaa565b611143565b346101b05760403660031901126101b057610327610eaa565b602435906001600160a01b039081831683036101b057610345611277565b166040516370a0823160e01b81523060048201526020928382602481865afa9081156103df5784926000926103eb575b5060405163a9059cbb60e01b81526001600160a01b039091166004820152602481019190915291829081600081604481015b03925af180156103df576103b757005b816103d692903d106103d8575b6103ce8183610e88565b81019061112b565b005b503d6103c4565b6040513d6000823e3d90fd5b8381949293503d8311610417575b6104038183610e88565b810103126101b057905183916103a7610375565b503d6103f9565b346101b05760003660031901126101b057610437611277565b60006001600160a01b0381546001600160a01b031981168355167f8be0079c531659141344cd1fd0a4f28419497f9722a3daafe3b4186f6b6457e08280a3005b346101b05760203660031901126101b057602061029e6001600160a01b038061049e610eaa565b1660005260048352604060002090604051906104b982610e56565b8254168152600182015490818582015260806004600285015494856040850152600381015460608501520154910152610f14565b346101b05760003660031901126101b057336000526020600481526001600160a01b03806040600020541615610722573360005260048252604060002060405161053681610e56565b8282541680825260018301549285830193845260028101546040840190815261057660046003840154936060870194855201549360808601948552611143565b9586156106de57855161058a888451610ef1565b1161069a57600154855160405163a9059cbb60e01b81529083166001600160a01b03166004820152602481018990529493929190899086908316816000816044810103925af180156103df577fd8138f8a3f377c5259ca548e70e4c2de94f129f5a11036a15b69513cba2b426a99600496879261067d575b5061060e8a8551610ef1565b845261061c8a600a54610f14565b600a553360005252604060002095511695866001600160a01b03198754161786555160018601555160028501555160038401555191015561067860405192839283602090939291936001600160a01b0360408201951681520152565b0390a1005b61069390823d84116103d8576103ce8183610e88565b508b610602565b6064886040519062461bcd60e51b82526004820152601460248201527f746f6b656e20706f6f6c206578686175737465640000000000000000000000006044820152fd5b6064886040519062461bcd60e51b82526004820152601360248201527f6e6f20746f6b656e7320636c61696d61626c65000000000000000000000000006044820152fd5b6064826040519062461bcd60e51b82526004820152601a60248201527f596f7520617265206e6f7420612076616c6964206d656d6265720000000000006044820152fd5b346101b05760403660031901126101b05767ffffffffffffffff6004358181116101b057610798903690600401610ec0565b91906024916024359081116101b0576107b5903690600401610ec0565b9390916107c0611277565b60046107ca6111b3565b60206001600160a01b03600254166040519384809263062c7c7560e31b82525afa9182156103df57600092610a51575b5060005b84811061080757005b81610813828a896110f1565b35116109e757806001600160a01b0361083761083260019489896110f1565b611117565b1660005260046020526108e36040600020936040519461085686610e56565b60046001600160a01b0382541691828852868101546020890152600281015460408901526003810154606089015201546080870152156109a4575b600060808601526108b16108a6848d8c6110f1565b356020870151610ef1565b60208601526108c1838c8b6110f1565b356108cf600a918254610ef1565b90556108dc838c8b6110f1565b3590610f14565b926001600160a01b036108fa610832848a8a6110f1565b166000526004602052600460806040600020926001600160a01b038151166001600160a01b0319855416178455602081015186850155604081015160028501556060810151600385015501519101557f446e00ad56f9b887844f390c87a128507b991ea0499375f13ecb115288c2df7d6109786108328389896110f1565b610983838c8b6110f1565b604080516001600160a01b039390931683529035602083015290a1016107fe565b6001600160a01b036109ba610832858b8b6110f1565b1685528542106000146109d35760006060860152610891565b6109dd8642610f14565b6060860152610891565b60848760296040519162461bcd60e51b8352602060048401528201527f616c6c6f636174696f6e20776f756c64206578636565642072656d61696e696e60448201527f672062616c616e636500000000000000000000000000000000000000000000006064820152fd5b9091506020813d602011610a7d575b81610a6d60209383610e88565b810103126101b0575190876107fa565b3d9150610a60565b346101b05760203660031901126101b057602061029e610aa3610eaa565b610f34565b346101b05760003660031901126101b05760206001600160a01b0360055416604051908152f35b346101b05760203660031901126101b0576004356001600160a01b0381168091036101b057600080808093610b02611277565b4790828215610b14575bf1156103df57005b506108fc610b0c565b346101b05760203660031901126101b0576001600160a01b03610b3e610eaa565b610b46611277565b166001600160a01b03196001541617600155600080f35b346101b05760003660031901126101b0576020600a54604051908152f35b346101b05760203660031901126101b0577fbe80a446a00b8794a7d05e8386915bdde937fe8b48da8d16175a5362b4c3f4f8610bb5610eaa565b610bbd611277565b6001600160a01b039081811691826000526004602052600460406000209160405192610be884610e56565b818154168452600181015460208501818152600283015493610c3e6040880193868552610c358860038801549760608c0198895201549760808b01988952610c2f8c611143565b90610ef1565b90818552610f14565b98610c4b8a600a54610f14565b600a554286526000528560205260406000209651166001600160a01b03198754161786555160018601555160028501555160038401555191015561067860405192839283602090939291936001600160a01b0360408201951681520152565b346101b05760203660031901126101b05760a06001600160a01b0380610cce610eaa565b16600052600460205260406000209081541690600181015490600281015460046003830154920154926040519485526020850152604084015260608301526080820152f35b346101b05760003660031901126101b057600354906000600183811c90808516908115610e4c575b6020958684108314610e36578587938582529182600014610e16575050600114610dbf575b50505081610d6f910382610e88565b604051828193825282519081818401526000935b828510610da6575050604092506000838284010152601f80199101168101030190f35b8481018201518686016040015293810193859350610d83565b9190925060036000527fc2575a0e9e593c00f959f8c92f12db2869c3395a3b0502d05e2516446f71f85b916000925b828410610e0357505050820101818385610d60565b8054868501860152928401928101610dee565b60ff19168482015293151560051b84019092019350859150869050610d60565b634e487b7160e01b600052602260045260246000fd5b91607f1691610d3b565b60a0810190811067ffffffffffffffff821117610e7257604052565b634e487b7160e01b600052604160045260246000fd5b90601f8019910116810190811067ffffffffffffffff821117610e7257604052565b600435906001600160a01b03821682036101b057565b9181601f840112156101b05782359167ffffffffffffffff83116101b0576020808501948460051b0101116101b057565b91908201809211610efe57565b634e487b7160e01b600052601160045260246000fd5b91908203918211610efe57565b81810292918115918404141715610efe57565b6001600160a01b038060015416156110ea5780600254169060405192839263062c7c7560e31b845283600460209586935afa9384156103df576000946110b8575b5083156110af5781166000526004825260406000209160405191610f9883610e56565b8354168252600183015490820190815260028301546040830152610fd384600385015460806004606087019783895201549501948552610ef1565b42106110af57611006610ffd610ff5958351620f424097889160065490610f21565b049551610ef1565b60075490610ef1565b918242106110a7575161109f57600954936110218584610ef1565b421015611096579161105c611055836110508796611046611062975160085490610f21565b0496879251610f14565b610f14565b9142610f14565b90610f21565b9083156110805761107d93611078920492610ef1565b610ef1565b90565b634e487b7160e01b600052601260045260246000fd5b50925050505190565b925050505190565b505050905090565b50505050600090565b90938382813d83116110e3575b6110cf8183610e88565b810103126110e05750519238610f75565b80fd5b503d6110c5565b5050600090565b91908110156111015760051b0190565b634e487b7160e01b600052603260045260246000fd5b356001600160a01b03811681036101b05790565b908160209103126101b0575180151581036101b05790565b6111a16001600160a01b039182811660005260046020526040600020926040519061116d82610e56565b8454168152600184015460208201526080600460028601549560408401968752600381015460608501520154910152610f34565b90518082106110ea5761107d91610f14565b6001600160a01b03600154168015611233576020602491604051928380926370a0823160e01b82523060048301525afa80156103df576000906111ff575b61107d9150600a5490610f14565b506020813d60201161122b575b8161121960209383610e88565b810103126101b05761107d90516111f1565b3d915061120c565b606460405162461bcd60e51b815260206004820152601660248201527f746f6b656e20686173206e6f74206265656e20736574000000000000000000006044820152fd5b6001600160a01b0360005416330361128b57565b60246040517f118cdaa7000000000000000000000000000000000000000000000000000000008152336004820152fdfea2646970667358221220f7171b01d70b166553f7fb2e637271079278671e053ce0b68b6b9c57c82823c664736f6c63430008180033",
          "opcodes": "PUSH1 0x80 PUSH1 0x40 MSTORE CALLVALUE PUSH3 0x2E6 JUMPI PUSH3 0x1618 DUP1 CODESIZE SUB DUP1 PUSH3 0x1D DUP2 PUSH3 0x300 JUMP JUMPDEST SWAP3 DUP4 CODECOPY DUP2 ADD SWAP1 PUSH1 0xC0 DUP2 DUP4 SUB SLT PUSH3 0x2E6 JUMPI DUP1 MLOAD PUSH1 0x1 PUSH1 0x1 PUSH1 0x40 SHL SUB SWAP1 DUP2 DUP2 GT PUSH3 0x2E6 JUMPI DUP3 ADD SWAP1 PUSH1 0x1F SWAP4 DUP1 DUP6 DUP5 ADD SLT ISZERO PUSH3 0x2E6 JUMPI DUP3 MLOAD SWAP3 DUP3 DUP5 GT PUSH3 0x283 JUMPI PUSH1 0x20 SWAP4 PUSH1 0x1F NOT SWAP2 PUSH3 0x75 DUP9 DUP4 ADD DUP5 AND DUP8 ADD PUSH3 0x300 JUMP JUMPDEST SWAP4 DUP3 DUP6 MSTORE DUP7 DUP4 DUP4 ADD ADD GT PUSH3 0x2E6 JUMPI DUP6 SWAP1 PUSH1 0x0 JUMPDEST DUP4 DUP2 LT PUSH3 0x2EB JUMPI POP POP PUSH1 0x0 SWAP2 DUP5 ADD ADD MSTORE DUP5 DUP5 ADD MLOAD PUSH1 0x1 PUSH1 0x1 PUSH1 0xA0 SHL SUB DUP1 DUP3 AND SWAP4 SWAP1 SWAP3 SWAP1 SWAP2 DUP5 SWAP1 SUB PUSH3 0x2E6 JUMPI PUSH1 0x40 DUP8 ADD MLOAD SWAP5 PUSH1 0x60 DUP9 ADD MLOAD SWAP7 PUSH1 0xA0 PUSH1 0x80 DUP11 ADD MLOAD SWAP10 ADD MLOAD SWAP10 CALLER ISZERO PUSH3 0x2CD JUMPI PUSH1 0x0 SLOAD SWAP6 PUSH1 0x1 DUP1 PUSH1 0xA0 SHL SUB NOT SWAP7 CALLER DUP9 DUP3 AND OR PUSH1 0x0 SSTORE PUSH1 0x40 MLOAD SWAP2 CALLER SWAP2 AND PUSH32 0x8BE0079C531659141344CD1FD0A4F28419497F9722A3DAAFE3B4186F6B6457E0 PUSH1 0x0 DUP1 LOG3 DUP8 ISZERO PUSH3 0x299 JUMPI POP DUP5 MLOAD SWAP3 DUP4 GT PUSH3 0x283 JUMPI PUSH1 0x3 SWAP5 DUP6 SLOAD SWAP3 PUSH1 0x1 SWAP4 DUP5 DUP2 DUP2 SHR SWAP2 AND DUP1 ISZERO PUSH3 0x278 JUMPI JUMPDEST DUP3 DUP3 LT EQ PUSH3 0x262 JUMPI DUP4 DUP2 GT PUSH3 0x217 JUMPI JUMPDEST POP DUP1 SWAP3 DUP6 GT PUSH1 0x1 EQ PUSH3 0x1AF JUMPI POP DUP4 SWAP5 POP SWAP1 DUP4 SWAP3 SWAP2 PUSH1 0x0 SWAP5 PUSH3 0x1A3 JUMPI JUMPDEST POP POP SHL SWAP2 PUSH1 0x0 NOT SWAP1 DUP5 SHL SHR NOT AND OR SWAP1 SSTORE JUMPDEST PUSH1 0x2 SLOAD AND OR PUSH1 0x2 SSTORE PUSH1 0x6 SSTORE PUSH1 0x7 SSTORE PUSH1 0x8 SSTORE PUSH1 0x9 SSTORE PUSH1 0x40 MLOAD PUSH2 0x12F1 SWAP1 DUP2 PUSH3 0x327 DUP3 CODECOPY RETURN JUMPDEST ADD MLOAD SWAP3 POP CODESIZE DUP1 PUSH3 0x16E JUMP JUMPDEST SWAP3 SWAP5 DUP5 SWAP1 DUP2 AND DUP8 PUSH1 0x0 MSTORE DUP5 PUSH1 0x0 KECCAK256 SWAP5 PUSH1 0x0 SWAP1 JUMPDEST DUP9 DUP4 DUP4 LT PUSH3 0x1FC JUMPI POP POP POP LT PUSH3 0x1E3 JUMPI JUMPDEST POP POP POP DUP2 SHL ADD SWAP1 SSTORE PUSH3 0x17F JUMP JUMPDEST ADD MLOAD PUSH1 0x0 NOT DUP4 DUP7 SHL PUSH1 0xF8 AND SHR NOT AND SWAP1 SSTORE CODESIZE DUP1 DUP1 PUSH3 0x1D5 JUMP JUMPDEST DUP6 DUP8 ADD MLOAD DUP9 SSTORE SWAP1 SWAP7 ADD SWAP6 SWAP5 DUP6 ADD SWAP5 DUP8 SWAP4 POP SWAP1 DUP2 ADD SWAP1 PUSH3 0x1C2 JUMP JUMPDEST DUP8 PUSH1 0x0 MSTORE DUP2 PUSH1 0x0 KECCAK256 DUP5 DUP1 DUP9 ADD PUSH1 0x5 SHR DUP3 ADD SWAP3 DUP5 DUP10 LT PUSH3 0x258 JUMPI JUMPDEST ADD PUSH1 0x5 SHR ADD SWAP1 DUP6 SWAP1 JUMPDEST DUP3 DUP2 LT PUSH3 0x24B JUMPI POP POP PUSH3 0x150 JUMP JUMPDEST PUSH1 0x0 DUP2 SSTORE ADD DUP6 SWAP1 PUSH3 0x23B JUMP JUMPDEST SWAP3 POP DUP2 SWAP3 PUSH3 0x232 JUMP JUMPDEST PUSH4 0x4E487B71 PUSH1 0xE0 SHL PUSH1 0x0 MSTORE PUSH1 0x22 PUSH1 0x4 MSTORE PUSH1 0x24 PUSH1 0x0 REVERT JUMPDEST SWAP1 PUSH1 0x7F AND SWAP1 PUSH3 0x13E JUMP JUMPDEST PUSH4 0x4E487B71 PUSH1 0xE0 SHL PUSH1 0x0 MSTORE PUSH1 0x41 PUSH1 0x4 MSTORE PUSH1 0x24 PUSH1 0x0 REVERT JUMPDEST PUSH3 0x461BCD PUSH1 0xE5 SHL DUP2 MSTORE PUSH1 0x4 DUP2 ADD DUP4 SWAP1 MSTORE PUSH1 0xF PUSH1 0x24 DUP3 ADD MSTORE PUSH15 0x696E76616C69642074676554696D65 PUSH1 0x88 SHL PUSH1 0x44 DUP3 ADD MSTORE PUSH1 0x64 SWAP1 REVERT JUMPDEST PUSH1 0x40 MLOAD PUSH4 0x1E4FBDF7 PUSH1 0xE0 SHL DUP2 MSTORE PUSH1 0x0 PUSH1 0x4 DUP3 ADD MSTORE PUSH1 0x24 SWAP1 REVERT JUMPDEST PUSH1 0x0 DUP1 REVERT JUMPDEST DUP2 DUP2 ADD DUP4 ADD MLOAD DUP7 DUP3 ADD DUP5 ADD MSTORE DUP8 SWAP3 ADD PUSH3 0x89 JUMP JUMPDEST PUSH1 0x40 MLOAD SWAP2 SWAP1 PUSH1 0x1F ADD PUSH1 0x1F NOT AND DUP3 ADD PUSH1 0x1 PUSH1 0x1 PUSH1 0x40 SHL SUB DUP2 GT DUP4 DUP3 LT OR PUSH3 0x283 JUMPI PUSH1 0x40 MSTORE JUMP INVALID PUSH1 0x80 DUP1 PUSH1 0x40 MSTORE PUSH1 0x4 CALLDATASIZE LT ISZERO PUSH2 0x13 JUMPI PUSH1 0x0 DUP1 REVERT JUMPDEST PUSH1 0x0 CALLDATALOAD PUSH1 0xE0 SHR SWAP1 DUP2 PUSH4 0x6FDDE03 EQ PUSH2 0xD13 JUMPI POP DUP1 PUSH4 0x8AE4B0C EQ PUSH2 0xCAA JUMPI DUP1 PUSH4 0xB1CA49A EQ PUSH2 0xB7B JUMPI DUP1 PUSH4 0x115425E4 EQ PUSH2 0xB5D JUMPI DUP1 PUSH4 0x144FA6D7 EQ PUSH2 0xB1D JUMPI DUP1 PUSH4 0x25E16063 EQ PUSH2 0xACF JUMPI DUP1 PUSH4 0x30B66CEE EQ PUSH2 0xAA8 JUMPI DUP1 PUSH4 0x384711CC EQ PUSH2 0xA85 JUMPI DUP1 PUSH4 0x3E72B2BB EQ PUSH2 0x766 JUMPI DUP1 PUSH4 0x4E71D92D EQ PUSH2 0x4ED JUMPI DUP1 PUSH4 0x5A849419 EQ PUSH2 0x477 JUMPI DUP1 PUSH4 0x715018A6 EQ PUSH2 0x41E JUMPI DUP1 PUSH4 0x739656DB EQ PUSH2 0x30E JUMPI DUP1 PUSH4 0x89885049 EQ PUSH2 0x2EB JUMPI DUP1 PUSH4 0x8DA5CB5B EQ PUSH2 0x2C4 JUMPI DUP1 PUSH4 0x9B78A070 EQ PUSH2 0x2A6 JUMPI DUP1 PUSH4 0xB69EF8A8 EQ PUSH2 0x283 JUMPI DUP1 PUSH4 0xD72B9DA2 EQ PUSH2 0x20F JUMPI DUP1 PUSH4 0xD85349F7 EQ PUSH2 0x1F1 JUMPI DUP1 PUSH4 0xE2F0F42D EQ PUSH2 0x1D3 JUMPI DUP1 PUSH4 0xE67E8AAF EQ PUSH2 0x1B5 JUMPI PUSH4 0xF2FDE38B EQ PUSH2 0x111 JUMPI PUSH1 0x0 DUP1 REVERT JUMPDEST CALLVALUE PUSH2 0x1B0 JUMPI PUSH1 0x20 CALLDATASIZE PUSH1 0x3 NOT ADD SLT PUSH2 0x1B0 JUMPI PUSH2 0x12A PUSH2 0xEAA JUMP JUMPDEST PUSH2 0x132 PUSH2 0x1277 JUMP JUMPDEST PUSH1 0x1 PUSH1 0x1 PUSH1 0xA0 SHL SUB DUP1 SWAP2 AND SWAP1 DUP2 ISZERO PUSH2 0x17F JUMPI PUSH1 0x0 SLOAD DUP3 PUSH1 0x1 PUSH1 0x1 PUSH1 0xA0 SHL SUB NOT DUP3 AND OR PUSH1 0x0 SSTORE AND PUSH32 0x8BE0079C531659141344CD1FD0A4F28419497F9722A3DAAFE3B4186F6B6457E0 PUSH1 0x0 DUP1 LOG3 STOP JUMPDEST PUSH1 0x24 PUSH1 0x40 MLOAD PUSH32 0x1E4FBDF700000000000000000000000000000000000000000000000000000000 DUP2 MSTORE PUSH1 0x0 PUSH1 0x4 DUP3 ADD MSTORE REVERT JUMPDEST PUSH1 0x0 DUP1 REVERT JUMPDEST CALLVALUE PUSH2 0x1B0 JUMPI PUSH1 0x0 CALLDATASIZE PUSH1 0x3 NOT ADD SLT PUSH2 0x1B0 JUMPI PUSH1 0x20 PUSH1 0x8 SLOAD PUSH1 0x40 MLOAD SWAP1 DUP2 MSTORE RETURN JUMPDEST CALLVALUE PUSH2 0x1B0 JUMPI PUSH1 0x0 CALLDATASIZE PUSH1 0x3 NOT ADD SLT PUSH2 0x1B0 JUMPI PUSH1 0x20 PUSH1 0x6 SLOAD PUSH1 0x40 MLOAD SWAP1 DUP2 MSTORE RETURN JUMPDEST CALLVALUE PUSH2 0x1B0 JUMPI PUSH1 0x0 CALLDATASIZE PUSH1 0x3 NOT ADD SLT PUSH2 0x1B0 JUMPI PUSH1 0x20 PUSH1 0x7 SLOAD PUSH1 0x40 MLOAD SWAP1 DUP2 MSTORE RETURN JUMPDEST CALLVALUE PUSH2 0x1B0 JUMPI PUSH1 0x20 CALLDATASIZE PUSH1 0x3 NOT ADD SLT PUSH2 0x1B0 JUMPI PUSH1 0x20 PUSH1 0x1 PUSH1 0x1 PUSH1 0xA0 SHL SUB DUP1 PUSH2 0x233 PUSH2 0xEAA JUMP JUMPDEST AND PUSH1 0x0 MSTORE PUSH1 0x4 DUP3 MSTORE PUSH1 0x40 PUSH1 0x0 KECCAK256 SWAP1 PUSH1 0x40 MLOAD SWAP1 PUSH2 0x24E DUP3 PUSH2 0xE56 JUMP JUMPDEST DUP3 SLOAD AND DUP2 MSTORE PUSH1 0x80 PUSH1 0x4 PUSH1 0x1 DUP5 ADD SLOAD SWAP4 DUP5 DUP7 DUP6 ADD MSTORE PUSH1 0x2 DUP2 ADD SLOAD PUSH1 0x40 DUP6 ADD MSTORE PUSH1 0x3 DUP2 ADD SLOAD PUSH1 0x60 DUP6 ADD MSTORE ADD SLOAD SWAP2 ADD MSTORE PUSH1 0x40 MLOAD SWAP1 DUP2 MSTORE RETURN JUMPDEST CALLVALUE PUSH2 0x1B0 JUMPI PUSH1 0x0 CALLDATASIZE PUSH1 0x3 NOT ADD SLT PUSH2 0x1B0 JUMPI PUSH1 0x20 PUSH2 0x29E PUSH2 0x11B3 JUMP JUMPDEST PUSH1 0x40 MLOAD SWAP1 DUP2 MSTORE RETURN JUMPDEST CALLVALUE PUSH2 0x1B0 JUMPI PUSH1 0x0 CALLDATASIZE PUSH1 0x3 NOT ADD SLT PUSH2 0x1B0 JUMPI PUSH1 0x20 PUSH1 0x9 SLOAD PUSH1 0x40 MLOAD SWAP1 DUP2 MSTORE RETURN JUMPDEST CALLVALUE PUSH2 0x1B0 JUMPI PUSH1 0x0 CALLDATASIZE PUSH1 0x3 NOT ADD SLT PUSH2 0x1B0 JUMPI PUSH1 0x20 PUSH1 0x1 PUSH1 0x1 PUSH1 0xA0 SHL SUB PUSH1 0x0 SLOAD AND PUSH1 0x40 MLOAD SWAP1 DUP2 MSTORE RETURN JUMPDEST CALLVALUE PUSH2 0x1B0 JUMPI PUSH1 0x20 CALLDATASIZE PUSH1 0x3 NOT ADD SLT PUSH2 0x1B0 JUMPI PUSH1 0x20 PUSH2 0x29E PUSH2 0x309 PUSH2 0xEAA JUMP JUMPDEST PUSH2 0x1143 JUMP JUMPDEST CALLVALUE PUSH2 0x1B0 JUMPI PUSH1 0x40 CALLDATASIZE PUSH1 0x3 NOT ADD SLT PUSH2 0x1B0 JUMPI PUSH2 0x327 PUSH2 0xEAA JUMP JUMPDEST PUSH1 0x24 CALLDATALOAD SWAP1 PUSH1 0x1 PUSH1 0x1 PUSH1 0xA0 SHL SUB SWAP1 DUP2 DUP4 AND DUP4 SUB PUSH2 0x1B0 JUMPI PUSH2 0x345 PUSH2 0x1277 JUMP JUMPDEST AND PUSH1 0x40 MLOAD PUSH4 0x70A08231 PUSH1 0xE0 SHL DUP2 MSTORE ADDRESS PUSH1 0x4 DUP3 ADD MSTORE PUSH1 0x20 SWAP3 DUP4 DUP3 PUSH1 0x24 DUP2 DUP7 GAS STATICCALL SWAP1 DUP2 ISZERO PUSH2 0x3DF JUMPI DUP5 SWAP3 PUSH1 0x0 SWAP3 PUSH2 0x3EB JUMPI JUMPDEST POP PUSH1 0x40 MLOAD PUSH4 0xA9059CBB PUSH1 0xE0 SHL DUP2 MSTORE PUSH1 0x1 PUSH1 0x1 PUSH1 0xA0 SHL SUB SWAP1 SWAP2 AND PUSH1 0x4 DUP3 ADD MSTORE PUSH1 0x24 DUP2 ADD SWAP2 SWAP1 SWAP2 MSTORE SWAP2 DUP3 SWAP1 DUP2 PUSH1 0x0 DUP2 PUSH1 0x44 DUP2 ADD JUMPDEST SUB SWAP3 GAS CALL DUP1 ISZERO PUSH2 0x3DF JUMPI PUSH2 0x3B7 JUMPI STOP JUMPDEST DUP2 PUSH2 0x3D6 SWAP3 SWAP1 RETURNDATASIZE LT PUSH2 0x3D8 JUMPI JUMPDEST PUSH2 0x3CE DUP2 DUP4 PUSH2 0xE88 JUMP JUMPDEST DUP2 ADD SWAP1 PUSH2 0x112B JUMP JUMPDEST STOP JUMPDEST POP RETURNDATASIZE PUSH2 0x3C4 JUMP JUMPDEST PUSH1 0x40 MLOAD RETURNDATASIZE PUSH1 0x0 DUP3 RETURNDATACOPY RETURNDATASIZE SWAP1 REVERT JUMPDEST DUP4 DUP2 SWAP5 SWAP3 SWAP4 POP RETURNDATASIZE DUP4 GT PUSH2 0x417 JUMPI JUMPDEST PUSH2 0x403 DUP2 DUP4 PUSH2 0xE88 JUMP JUMPDEST DUP2 ADD SUB SLT PUSH2 0x1B0 JUMPI SWAP1 MLOAD DUP4 SWAP2 PUSH2 0x3A7 PUSH2 0x375 JUMP JUMPDEST POP RETURNDATASIZE PUSH2 0x3F9 JUMP JUMPDEST CALLVALUE PUSH2 0x1B0 JUMPI PUSH1 0x0 CALLDATASIZE PUSH1 0x3 NOT ADD SLT PUSH2 0x1B0 JUMPI PUSH2 0x437 PUSH2 0x1277 JUMP JUMPDEST PUSH1 0x0 PUSH1 0x1 PUSH1 0x1 PUSH1 0xA0 SHL SUB DUP2 SLOAD PUSH1 0x1 PUSH1 0x1 PUSH1 0xA0 SHL SUB NOT DUP2 AND DUP4 SSTORE AND PUSH32 0x8BE0079C531659141344CD1FD0A4F28419497F9722A3DAAFE3B4186F6B6457E0 DUP3 DUP1 LOG3 STOP JUMPDEST CALLVALUE PUSH2 0x1B0 JUMPI PUSH1 0x20 CALLDATASIZE PUSH1 0x3 NOT ADD SLT PUSH2 0x1B0 JUMPI PUSH1 0x20 PUSH2 0x29E PUSH1 0x1 PUSH1 0x1 PUSH1 0xA0 SHL SUB DUP1 PUSH2 0x49E PUSH2 0xEAA JUMP JUMPDEST AND PUSH1 0x0 MSTORE PUSH1 0x4 DUP4 MSTORE PUSH1 0x40 PUSH1 0x0 KECCAK256 SWAP1 PUSH1 0x40 MLOAD SWAP1 PUSH2 0x4B9 DUP3 PUSH2 0xE56 JUMP JUMPDEST DUP3 SLOAD AND DUP2 MSTORE PUSH1 0x1 DUP3 ADD SLOAD SWAP1 DUP2 DUP6 DUP3 ADD MSTORE PUSH1 0x80 PUSH1 0x4 PUSH1 0x2 DUP6 ADD SLOAD SWAP5 DUP6 PUSH1 0x40 DUP6 ADD MSTORE PUSH1 0x3 DUP2 ADD SLOAD PUSH1 0x60 DUP6 ADD MSTORE ADD SLOAD SWAP2 ADD MSTORE PUSH2 0xF14 JUMP JUMPDEST CALLVALUE PUSH2 0x1B0 JUMPI PUSH1 0x0 CALLDATASIZE PUSH1 0x3 NOT ADD SLT PUSH2 0x1B0 JUMPI CALLER PUSH1 0x0 MSTORE PUSH1 0x20 PUSH1 0x4 DUP2 MSTORE PUSH1 0x1 PUSH1 0x1 PUSH1 0xA0 SHL SUB DUP1 PUSH1 0x40 PUSH1 0x0 KECCAK256 SLOAD AND ISZERO PUSH2 0x722 JUMPI CALLER PUSH1 0x0 MSTORE PUSH1 0x4 DUP3 MSTORE PUSH1 0x40 PUSH1 0x0 KECCAK256 PUSH1 0x40 MLOAD PUSH2 0x536 DUP2 PUSH2 0xE56 JUMP JUMPDEST DUP3 DUP3 SLOAD AND DUP1 DUP3 MSTORE PUSH1 0x1 DUP4 ADD SLOAD SWAP3 DUP6 DUP4 ADD SWAP4 DUP5 MSTORE PUSH1 0x2 DUP2 ADD SLOAD PUSH1 0x40 DUP5 ADD SWAP1 DUP2 MSTORE PUSH2 0x576 PUSH1 0x4 PUSH1 0x3 DUP5 ADD SLOAD SWAP4 PUSH1 0x60 DUP8 ADD SWAP5 DUP6 MSTORE ADD SLOAD SWAP4 PUSH1 0x80 DUP7 ADD SWAP5 DUP6 MSTORE PUSH2 0x1143 JUMP JUMPDEST SWAP6 DUP7 ISZERO PUSH2 0x6DE JUMPI DUP6 MLOAD PUSH2 0x58A DUP9 DUP5 MLOAD PUSH2 0xEF1 JUMP JUMPDEST GT PUSH2 0x69A JUMPI PUSH1 0x1 SLOAD DUP6 MLOAD PUSH1 0x40 MLOAD PUSH4 0xA9059CBB PUSH1 0xE0 SHL DUP2 MSTORE SWAP1 DUP4 AND PUSH1 0x1 PUSH1 0x1 PUSH1 0xA0 SHL SUB AND PUSH1 0x4 DUP3 ADD MSTORE PUSH1 0x24 DUP2 ADD DUP10 SWAP1 MSTORE SWAP5 SWAP4 SWAP3 SWAP2 SWAP1 DUP10 SWAP1 DUP7 SWAP1 DUP4 AND DUP2 PUSH1 0x0 DUP2 PUSH1 0x44 DUP2 ADD SUB SWAP3 GAS CALL DUP1 ISZERO PUSH2 0x3DF JUMPI PUSH32 0xD8138F8A3F377C5259CA548E70E4C2DE94F129F5A11036A15B69513CBA2B426A SWAP10 PUSH1 0x4 SWAP7 DUP8 SWAP3 PUSH2 0x67D JUMPI JUMPDEST POP PUSH2 0x60E DUP11 DUP6 MLOAD PUSH2 0xEF1 JUMP JUMPDEST DUP5 MSTORE PUSH2 0x61C DUP11 PUSH1 0xA SLOAD PUSH2 0xF14 JUMP JUMPDEST PUSH1 0xA SSTORE CALLER PUSH1 0x0 MSTORE MSTORE PUSH1 0x40 PUSH1 0x0 KECCAK256 SWAP6 MLOAD AND SWAP6 DUP7 PUSH1 0x1 PUSH1 0x1 PUSH1 0xA0 SHL SUB NOT DUP8 SLOAD AND OR DUP7 SSTORE MLOAD PUSH1 0x1 DUP7 ADD SSTORE MLOAD PUSH1 0x2 DUP6 ADD SSTORE MLOAD PUSH1 0x3 DUP5 ADD SSTORE MLOAD SWAP2 ADD SSTORE PUSH2 0x678 PUSH1 0x40 MLOAD SWAP3 DUP4 SWAP3 DUP4 PUSH1 0x20 SWAP1 SWAP4 SWAP3 SWAP2 SWAP4 PUSH1 0x1 PUSH1 0x1 PUSH1 0xA0 SHL SUB PUSH1 0x40 DUP3 ADD SWAP6 AND DUP2 MSTORE ADD MSTORE JUMP JUMPDEST SUB SWAP1 LOG1 STOP JUMPDEST PUSH2 0x693 SWAP1 DUP3 RETURNDATASIZE DUP5 GT PUSH2 0x3D8 JUMPI PUSH2 0x3CE DUP2 DUP4 PUSH2 0xE88 JUMP JUMPDEST POP DUP12 PUSH2 0x602 JUMP JUMPDEST PUSH1 0x64 DUP9 PUSH1 0x40 MLOAD SWAP1 PUSH3 0x461BCD PUSH1 0xE5 SHL DUP3 MSTORE PUSH1 0x4 DUP3 ADD MSTORE PUSH1 0x14 PUSH1 0x24 DUP3 ADD MSTORE PUSH32 0x746F6B656E20706F6F6C20657868617573746564000000000000000000000000 PUSH1 0x44 DUP3 ADD MSTORE REVERT JUMPDEST PUSH1 0x64 DUP9 PUSH1 0x40 MLOAD SWAP1 PUSH3 0x461BCD PUSH1 0xE5 SHL DUP3 MSTORE PUSH1 0x4 DUP3 ADD MSTORE PUSH1 0x13 PUSH1 0x24 DUP3 ADD MSTORE PUSH32 0x6E6F20746F6B656E7320636C61696D61626C6500000000000000000000000000 PUSH1 0x44 DUP3 ADD MSTORE REVERT JUMPDEST PUSH1 0x64 DUP3 PUSH1 0x40 MLOAD SWAP1 PUSH3 0x461BCD PUSH1 0xE5 SHL DUP3 MSTORE PUSH1 0x4 DUP3 ADD MSTORE PUSH1 0x1A PUSH1 0x24 DUP3 ADD MSTORE PUSH32 0x596F7520617265206E6F7420612076616C6964206D656D626572000000000000 PUSH1 0x44 DUP3 ADD MSTORE REVERT JUMPDEST CALLVALUE PUSH2 0x1B0 JUMPI PUSH1 0x40 CALLDATASIZE PUSH1 0x3 NOT ADD SLT PUSH2 0x1B0 JUMPI PUSH8 0xFFFFFFFFFFFFFFFF PUSH1 0x4 CALLDATALOAD DUP2 DUP2 GT PUSH2 0x1B0 JUMPI PUSH2 0x798 SWAP1 CALLDATASIZE SWAP1 PUSH1 0x4 ADD PUSH2 0xEC0 JUMP JUMPDEST SWAP2 SWAP1 PUSH1 0x24 SWAP2 PUSH1 0x24 CALLDATALOAD SWAP1 DUP2 GT PUSH2 0x1B0 JUMPI PUSH2 0x7B5 SWAP1 CALLDATASIZE SWAP1 PUSH1 0x4 ADD PUSH2 0xEC0 JUMP JUMPDEST SWAP4 SWAP1 SWAP2 PUSH2 0x7C0 PUSH2 0x1277 JUMP JUMPDEST PUSH1 0x4 PUSH2 0x7CA PUSH2 0x11B3 JUMP JUMPDEST PUSH1 0x20 PUSH1 0x1 PUSH1 0x1 PUSH1 0xA0 SHL SUB PUSH1 0x2 SLOAD AND PUSH1 0x40 MLOAD SWAP4 DUP5 DUP1 SWAP3 PUSH4 0x62C7C75 PUSH1 0xE3 SHL DUP3 MSTORE GAS STATICCALL SWAP2 DUP3 ISZERO PUSH2 0x3DF JUMPI PUSH1 0x0 SWAP3 PUSH2 0xA51 JUMPI JUMPDEST POP PUSH1 0x0 JUMPDEST DUP5 DUP2 LT PUSH2 0x807 JUMPI STOP JUMPDEST DUP2 PUSH2 0x813 DUP3 DUP11 DUP10 PUSH2 0x10F1 JUMP JUMPDEST CALLDATALOAD GT PUSH2 0x9E7 JUMPI DUP1 PUSH1 0x1 PUSH1 0x1 PUSH1 0xA0 SHL SUB PUSH2 0x837 PUSH2 0x832 PUSH1 0x1 SWAP5 DUP10 DUP10 PUSH2 0x10F1 JUMP JUMPDEST PUSH2 0x1117 JUMP JUMPDEST AND PUSH1 0x0 MSTORE PUSH1 0x4 PUSH1 0x20 MSTORE PUSH2 0x8E3 PUSH1 0x40 PUSH1 0x0 KECCAK256 SWAP4 PUSH1 0x40 MLOAD SWAP5 PUSH2 0x856 DUP7 PUSH2 0xE56 JUMP JUMPDEST PUSH1 0x4 PUSH1 0x1 PUSH1 0x1 PUSH1 0xA0 SHL SUB DUP3 SLOAD AND SWAP2 DUP3 DUP9 MSTORE DUP7 DUP2 ADD SLOAD PUSH1 0x20 DUP10 ADD MSTORE PUSH1 0x2 DUP2 ADD SLOAD PUSH1 0x40 DUP10 ADD MSTORE PUSH1 0x3 DUP2 ADD SLOAD PUSH1 0x60 DUP10 ADD MSTORE ADD SLOAD PUSH1 0x80 DUP8 ADD MSTORE ISZERO PUSH2 0x9A4 JUMPI JUMPDEST PUSH1 0x0 PUSH1 0x80 DUP7 ADD MSTORE PUSH2 0x8B1 PUSH2 0x8A6 DUP5 DUP14 DUP13 PUSH2 0x10F1 JUMP JUMPDEST CALLDATALOAD PUSH1 0x20 DUP8 ADD MLOAD PUSH2 0xEF1 JUMP JUMPDEST PUSH1 0x20 DUP7 ADD MSTORE PUSH2 0x8C1 DUP4 DUP13 DUP12 PUSH2 0x10F1 JUMP JUMPDEST CALLDATALOAD PUSH2 0x8CF PUSH1 0xA SWAP2 DUP3 SLOAD PUSH2 0xEF1 JUMP JUMPDEST SWAP1 SSTORE PUSH2 0x8DC DUP4 DUP13 DUP12 PUSH2 0x10F1 JUMP JUMPDEST CALLDATALOAD SWAP1 PUSH2 0xF14 JUMP JUMPDEST SWAP3 PUSH1 0x1 PUSH1 0x1 PUSH1 0xA0 SHL SUB PUSH2 0x8FA PUSH2 0x832 DUP5 DUP11 DUP11 PUSH2 0x10F1 JUMP JUMPDEST AND PUSH1 0x0 MSTORE PUSH1 0x4 PUSH1 0x20 MSTORE PUSH1 0x4 PUSH1 0x80 PUSH1 0x40 PUSH1 0x0 KECCAK256 SWAP3 PUSH1 0x1 PUSH1 0x1 PUSH1 0xA0 SHL SUB DUP2 MLOAD AND PUSH1 0x1 PUSH1 0x1 PUSH1 0xA0 SHL SUB NOT DUP6 SLOAD AND OR DUP5 SSTORE PUSH1 0x20 DUP2 ADD MLOAD DUP7 DUP6 ADD SSTORE PUSH1 0x40 DUP2 ADD MLOAD PUSH1 0x2 DUP6 ADD SSTORE PUSH1 0x60 DUP2 ADD MLOAD PUSH1 0x3 DUP6 ADD SSTORE ADD MLOAD SWAP2 ADD SSTORE PUSH32 0x446E00AD56F9B887844F390C87A128507B991EA0499375F13ECB115288C2DF7D PUSH2 0x978 PUSH2 0x832 DUP4 DUP10 DUP10 PUSH2 0x10F1 JUMP JUMPDEST PUSH2 0x983 DUP4 DUP13 DUP12 PUSH2 0x10F1 JUMP JUMPDEST PUSH1 0x40 DUP1 MLOAD PUSH1 0x1 PUSH1 0x1 PUSH1 0xA0 SHL SUB SWAP4 SWAP1 SWAP4 AND DUP4 MSTORE SWAP1 CALLDATALOAD PUSH1 0x20 DUP4 ADD MSTORE SWAP1 LOG1 ADD PUSH2 0x7FE JUMP JUMPDEST PUSH1 0x1 PUSH1 0x1 PUSH1 0xA0 SHL SUB PUSH2 0x9BA PUSH2 0x832 DUP6 DUP12 DUP12 PUSH2 0x10F1 JUMP JUMPDEST AND DUP6 MSTORE DUP6 TIMESTAMP LT PUSH1 0x0 EQ PUSH2 0x9D3 JUMPI PUSH1 0x0 PUSH1 0x60 DUP7 ADD MSTORE PUSH2 0x891 JUMP JUMPDEST PUSH2 0x9DD DUP7 TIMESTAMP PUSH2 0xF14 JUMP JUMPDEST PUSH1 0x60 DUP7 ADD MSTORE PUSH2 0x891 JUMP JUMPDEST PUSH1 0x84 DUP8 PUSH1 0x29 PUSH1 0x40 MLOAD SWAP2 PUSH3 0x461BCD PUSH1 0xE5 SHL DUP4 MSTORE PUSH1 0x20 PUSH1 0x4 DUP5 ADD MSTORE DUP3 ADD MSTORE PUSH32 0x616C6C6F636174696F6E20776F756C64206578636565642072656D61696E696E PUSH1 0x44 DUP3 ADD MSTORE PUSH32 0x672062616C616E63650000000000000000000000000000000000000000000000 PUSH1 0x64 DUP3 ADD MSTORE REVERT JUMPDEST SWAP1 SWAP2 POP PUSH1 0x20 DUP2 RETURNDATASIZE PUSH1 0x20 GT PUSH2 0xA7D JUMPI JUMPDEST DUP2 PUSH2 0xA6D PUSH1 0x20 SWAP4 DUP4 PUSH2 0xE88 JUMP JUMPDEST DUP2 ADD SUB SLT PUSH2 0x1B0 JUMPI MLOAD SWAP1 DUP8 PUSH2 0x7FA JUMP JUMPDEST RETURNDATASIZE SWAP2 POP PUSH2 0xA60 JUMP JUMPDEST CALLVALUE PUSH2 0x1B0 JUMPI PUSH1 0x20 CALLDATASIZE PUSH1 0x3 NOT ADD SLT PUSH2 0x1B0 JUMPI PUSH1 0x20 PUSH2 0x29E PUSH2 0xAA3 PUSH2 0xEAA JUMP JUMPDEST PUSH2 0xF34 JUMP JUMPDEST CALLVALUE PUSH2 0x1B0 JUMPI PUSH1 0x0 CALLDATASIZE PUSH1 0x3 NOT ADD SLT PUSH2 0x1B0 JUMPI PUSH1 0x20 PUSH1 0x1 PUSH1 0x1 PUSH1 0xA0 SHL SUB PUSH1 0x5 SLOAD AND PUSH1 0x40 MLOAD SWAP1 DUP2 MSTORE RETURN JUMPDEST CALLVALUE PUSH2 0x1B0 JUMPI PUSH1 0x20 CALLDATASIZE PUSH1 0x3 NOT ADD SLT PUSH2 0x1B0 JUMPI PUSH1 0x4 CALLDATALOAD PUSH1 0x1 PUSH1 0x1 PUSH1 0xA0 SHL SUB DUP2 AND DUP1 SWAP2 SUB PUSH2 0x1B0 JUMPI PUSH1 0x0 DUP1 DUP1 DUP1 SWAP4 PUSH2 0xB02 PUSH2 0x1277 JUMP JUMPDEST SELFBALANCE SWAP1 DUP3 DUP3 ISZERO PUSH2 0xB14 JUMPI JUMPDEST CALL ISZERO PUSH2 0x3DF JUMPI STOP JUMPDEST POP PUSH2 0x8FC PUSH2 0xB0C JUMP JUMPDEST CALLVALUE PUSH2 0x1B0 JUMPI PUSH1 0x20 CALLDATASIZE PUSH1 0x3 NOT ADD SLT PUSH2 0x1B0 JUMPI PUSH1 0x1 PUSH1 0x1 PUSH1 0xA0 SHL SUB PUSH2 0xB3E PUSH2 0xEAA JUMP JUMPDEST PUSH2 0xB46 PUSH2 0x1277 JUMP JUMPDEST AND PUSH1 0x1 PUSH1 0x1 PUSH1 0xA0 SHL SUB NOT PUSH1 0x1 SLOAD AND OR PUSH1 0x1 SSTORE PUSH1 0x0 DUP1 RETURN JUMPDEST CALLVALUE PUSH2 0x1B0 JUMPI PUSH1 0x0 CALLDATASIZE PUSH1 0x3 NOT ADD SLT PUSH2 0x1B0 JUMPI PUSH1 0x20 PUSH1 0xA SLOAD PUSH1 0x40 MLOAD SWAP1 DUP2 MSTORE RETURN JUMPDEST CALLVALUE PUSH2 0x1B0 JUMPI PUSH1 0x20 CALLDATASIZE PUSH1 0x3 NOT ADD SLT PUSH2 0x1B0 JUMPI PUSH32 0xBE80A446A00B8794A7D05E8386915BDDE937FE8B48DA8D16175A5362B4C3F4F8 PUSH2 0xBB5 PUSH2 0xEAA JUMP JUMPDEST PUSH2 0xBBD PUSH2 0x1277 JUMP JUMPDEST PUSH1 0x1 PUSH1 0x1 PUSH1 0xA0 SHL SUB SWAP1 DUP2 DUP2 AND SWAP2 DUP3 PUSH1 0x0 MSTORE PUSH1 0x4 PUSH1 0x20 MSTORE PUSH1 0x4 PUSH1 0x40 PUSH1 0x0 KECCAK256 SWAP2 PUSH1 0x40 MLOAD SWAP3 PUSH2 0xBE8 DUP5 PUSH2 0xE56 JUMP JUMPDEST DUP2 DUP2 SLOAD AND DUP5 MSTORE PUSH1 0x1 DUP2 ADD SLOAD PUSH1 0x20 DUP6 ADD DUP2 DUP2 MSTORE PUSH1 0x2 DUP4 ADD SLOAD SWAP4 PUSH2 0xC3E PUSH1 0x40 DUP9 ADD SWAP4 DUP7 DUP6 MSTORE PUSH2 0xC35 DUP9 PUSH1 0x3 DUP9 ADD SLOAD SWAP8 PUSH1 0x60 DUP13 ADD SWAP9 DUP10 MSTORE ADD SLOAD SWAP8 PUSH1 0x80 DUP12 ADD SWAP9 DUP10 MSTORE PUSH2 0xC2F DUP13 PUSH2 0x1143 JUMP JUMPDEST SWAP1 PUSH2 0xEF1 JUMP JUMPDEST SWAP1 DUP2 DUP6 MSTORE PUSH2 0xF14 JUMP JUMPDEST SWAP9 PUSH2 0xC4B DUP11 PUSH1 0xA SLOAD PUSH2 0xF14 JUMP JUMPDEST PUSH1 0xA SSTORE TIMESTAMP DUP7 MSTORE PUSH1 0x0 MSTORE DUP6 PUSH1 0x20 MSTORE PUSH1 0x40 PUSH1 0x0 KECCAK256 SWAP7 MLOAD AND PUSH1 0x1 PUSH1 0x1 PUSH1 0xA0 SHL SUB NOT DUP8 SLOAD AND OR DUP7 SSTORE MLOAD PUSH1 0x1 DUP7 ADD SSTORE MLOAD PUSH1 0x2 DUP6 ADD SSTORE MLOAD PUSH1 0x3 DUP5 ADD SSTORE MLOAD SWAP2 ADD SSTORE PUSH2 0x678 PUSH1 0x40 MLOAD SWAP3 DUP4 SWAP3 DUP4 PUSH1 0x20 SWAP1 SWAP4 SWAP3 SWAP2 SWAP4 PUSH1 0x1 PUSH1 0x1 PUSH1 0xA0 SHL SUB PUSH1 0x40 DUP3 ADD SWAP6 AND DUP2 MSTORE ADD MSTORE JUMP JUMPDEST CALLVALUE PUSH2 0x1B0 JUMPI PUSH1 0x20 CALLDATASIZE PUSH1 0x3 NOT ADD SLT PUSH2 0x1B0 JUMPI PUSH1 0xA0 PUSH1 0x1 PUSH1 0x1 PUSH1 0xA0 SHL SUB DUP1 PUSH2 0xCCE PUSH2 0xEAA JUMP JUMPDEST AND PUSH1 0x0 MSTORE PUSH1 0x4 PUSH1 0x20 MSTORE PUSH1 0x40 PUSH1 0x0 KECCAK256 SWAP1 DUP2 SLOAD AND SWAP1 PUSH1 0x1 DUP2 ADD SLOAD SWAP1 PUSH1 0x2 DUP2 ADD SLOAD PUSH1 0x4 PUSH1 0x3 DUP4 ADD SLOAD SWAP3 ADD SLOAD SWAP3 PUSH1 0x40 MLOAD SWAP5 DUP6 MSTORE PUSH1 0x20 DUP6 ADD MSTORE PUSH1 0x40 DUP5 ADD MSTORE PUSH1 0x60 DUP4 ADD MSTORE PUSH1 0x80 DUP3 ADD MSTORE RETURN JUMPDEST CALLVALUE PUSH2 0x1B0 JUMPI PUSH1 0x0 CALLDATASIZE PUSH1 0x3 NOT ADD SLT PUSH2 0x1B0 JUMPI PUSH1 0x3 SLOAD SWAP1 PUSH1 0x0 PUSH1 0x1 DUP4 DUP2 SHR SWAP1 DUP1 DUP6 AND SWAP1 DUP2 ISZERO PUSH2 0xE4C JUMPI JUMPDEST PUSH1 0x20 SWAP6 DUP7 DUP5 LT DUP4 EQ PUSH2 0xE36 JUMPI DUP6 DUP8 SWAP4 DUP6 DUP3 MSTORE SWAP2 DUP3 PUSH1 0x0 EQ PUSH2 0xE16 JUMPI POP POP PUSH1 0x1 EQ PUSH2 0xDBF JUMPI JUMPDEST POP POP POP DUP2 PUSH2 0xD6F SWAP2 SUB DUP3 PUSH2 0xE88 JUMP JUMPDEST PUSH1 0x40 MLOAD DUP3 DUP2 SWAP4 DUP3 MSTORE DUP3 MLOAD SWAP1 DUP2 DUP2 DUP5 ADD MSTORE PUSH1 0x0 SWAP4 JUMPDEST DUP3 DUP6 LT PUSH2 0xDA6 JUMPI POP POP PUSH1 0x40 SWAP3 POP PUSH1 0x0 DUP4 DUP3 DUP5 ADD ADD MSTORE PUSH1 0x1F DUP1 NOT SWAP2 ADD AND DUP2 ADD SUB ADD SWAP1 RETURN JUMPDEST DUP5 DUP2 ADD DUP3 ADD MLOAD DUP7 DUP7 ADD PUSH1 0x40 ADD MSTORE SWAP4 DUP2 ADD SWAP4 DUP6 SWAP4 POP PUSH2 0xD83 JUMP JUMPDEST SWAP2 SWAP1 SWAP3 POP PUSH1 0x3 PUSH1 0x0 MSTORE PUSH32 0xC2575A0E9E593C00F959F8C92F12DB2869C3395A3B0502D05E2516446F71F85B SWAP2 PUSH1 0x0 SWAP3 JUMPDEST DUP3 DUP5 LT PUSH2 0xE03 JUMPI POP POP POP DUP3 ADD ADD DUP2 DUP4 DUP6 PUSH2 0xD60 JUMP JUMPDEST DUP1 SLOAD DUP7 DUP6 ADD DUP7 ADD MSTORE SWAP3 DUP5 ADD SWAP3 DUP2 ADD PUSH2 0xDEE JUMP JUMPDEST PUSH1 0xFF NOT AND DUP5 DUP3 ADD MSTORE SWAP4 ISZERO ISZERO PUSH1 0x5 SHL DUP5 ADD SWAP1 SWAP3 ADD SWAP4 POP DUP6 SWAP2 POP DUP7 SWAP1 POP PUSH2 0xD60 JUMP JUMPDEST PUSH4 0x4E487B71 PUSH1 0xE0 SHL PUSH1 0x0 MSTORE PUSH1 0x22 PUSH1 0x4 MSTORE PUSH1 0x24 PUSH1 0x0 REVERT JUMPDEST SWAP2 PUSH1 0x7F AND SWAP2 PUSH2 0xD3B JUMP JUMPDEST PUSH1 0xA0 DUP2 ADD SWAP1 DUP2 LT PUSH8 0xFFFFFFFFFFFFFFFF DUP3 GT OR PUSH2 0xE72 JUMPI PUSH1 0x40 MSTORE JUMP JUMPDEST PUSH4 0x4E487B71 PUSH1 0xE0 SHL PUSH1 0x0 MSTORE PUSH1 0x41 PUSH1 0x4 MSTORE PUSH1 0x24 PUSH1 0x0 REVERT JUMPDEST SWAP1 PUSH1 0x1F DUP1 NOT SWAP2 ADD AND DUP2 ADD SWAP1 DUP2 LT PUSH8 0xFFFFFFFFFFFFFFFF DUP3 GT OR PUSH2 0xE72 JUMPI PUSH1 0x40 MSTORE JUMP JUMPDEST PUSH1 0x4 CALLDATALOAD SWAP1 PUSH1 0x1 PUSH1 0x1 PUSH1 0xA0 SHL SUB DUP3 AND DUP3 SUB PUSH2 0x1B0 JUMPI JUMP JUMPDEST SWAP2 DUP2 PUSH1 0x1F DUP5 ADD SLT ISZERO PUSH2 0x1B0 JUMPI DUP3 CALLDATALOAD SWAP2 PUSH8 0xFFFFFFFFFFFFFFFF DUP4 GT PUSH2 0x1B0 JUMPI PUSH1 0x20 DUP1 DUP6 ADD SWAP5 DUP5 PUSH1 0x5 SHL ADD ADD GT PUSH2 0x1B0 JUMPI JUMP JUMPDEST SWAP2 SWAP1 DUP3 ADD DUP1 SWAP3 GT PUSH2 0xEFE JUMPI JUMP JUMPDEST PUSH4 0x4E487B71 PUSH1 0xE0 SHL PUSH1 0x0 MSTORE PUSH1 0x11 PUSH1 0x4 MSTORE PUSH1 0x24 PUSH1 0x0 REVERT JUMPDEST SWAP2 SWAP1 DUP3 SUB SWAP2 DUP3 GT PUSH2 0xEFE JUMPI JUMP JUMPDEST DUP2 DUP2 MUL SWAP3 SWAP2 DUP2 ISZERO SWAP2 DUP5 DIV EQ OR ISZERO PUSH2 0xEFE JUMPI JUMP JUMPDEST PUSH1 0x1 PUSH1 0x1 PUSH1 0xA0 SHL SUB DUP1 PUSH1 0x1 SLOAD AND ISZERO PUSH2 0x10EA JUMPI DUP1 PUSH1 0x2 SLOAD AND SWAP1 PUSH1 0x40 MLOAD SWAP3 DUP4 SWAP3 PUSH4 0x62C7C75 PUSH1 0xE3 SHL DUP5 MSTORE DUP4 PUSH1 0x4 PUSH1 0x20 SWAP6 DUP7 SWAP4 GAS STATICCALL SWAP4 DUP5 ISZERO PUSH2 0x3DF JUMPI PUSH1 0x0 SWAP5 PUSH2 0x10B8 JUMPI JUMPDEST POP DUP4 ISZERO PUSH2 0x10AF JUMPI DUP2 AND PUSH1 0x0 MSTORE PUSH1 0x4 DUP3 MSTORE PUSH1 0x40 PUSH1 0x0 KECCAK256 SWAP2 PUSH1 0x40 MLOAD SWAP2 PUSH2 0xF98 DUP4 PUSH2 0xE56 JUMP JUMPDEST DUP4 SLOAD AND DUP3 MSTORE PUSH1 0x1 DUP4 ADD SLOAD SWAP1 DUP3 ADD SWAP1 DUP2 MSTORE PUSH1 0x2 DUP4 ADD SLOAD PUSH1 0x40 DUP4 ADD MSTORE PUSH2 0xFD3 DUP5 PUSH1 0x3 DUP6 ADD SLOAD PUSH1 0x80 PUSH1 0x4 PUSH1 0x60 DUP8 ADD SWAP8 DUP4 DUP10 MSTORE ADD SLOAD SWAP6 ADD SWAP5 DUP6 MSTORE PUSH2 0xEF1 JUMP JUMPDEST TIMESTAMP LT PUSH2 0x10AF JUMPI PUSH2 0x1006 PUSH2 0xFFD PUSH2 0xFF5 SWAP6 DUP4 MLOAD PUSH3 0xF4240 SWAP8 DUP9 SWAP2 PUSH1 0x6 SLOAD SWAP1 PUSH2 0xF21 JUMP JUMPDEST DIV SWAP6 MLOAD PUSH2 0xEF1 JUMP JUMPDEST PUSH1 0x7 SLOAD SWAP1 PUSH2 0xEF1 JUMP JUMPDEST SWAP2 DUP3 TIMESTAMP LT PUSH2 0x10A7 JUMPI MLOAD PUSH2 0x109F JUMPI PUSH1 0x9 SLOAD SWAP4 PUSH2 0x1021 DUP6 DUP5 PUSH2 0xEF1 JUMP JUMPDEST TIMESTAMP LT ISZERO PUSH2 0x1096 JUMPI SWAP2 PUSH2 0x105C PUSH2 0x1055 DUP4 PUSH2 0x1050 DUP8 SWAP7 PUSH2 0x1046 PUSH2 0x1062 SWAP8 MLOAD PUSH1 0x8 SLOAD SWAP1 PUSH2 0xF21 JUMP JUMPDEST DIV SWAP7 DUP8 SWAP3 MLOAD PUSH2 0xF14 JUMP JUMPDEST PUSH2 0xF14 JUMP JUMPDEST SWAP2 TIMESTAMP PUSH2 0xF14 JUMP JUMPDEST SWAP1 PUSH2 0xF21 JUMP JUMPDEST SWAP1 DUP4 ISZERO PUSH2 0x1080 JUMPI PUSH2 0x107D SWAP4 PUSH2 0x1078 SWAP3 DIV SWAP3 PUSH2 0xEF1 JUMP JUMPDEST PUSH2 0xEF1 JUMP JUMPDEST SWAP1 JUMP JUMPDEST PUSH4 0x4E487B71 PUSH1 0xE0 SHL PUSH1 0x0 MSTORE PUSH1 0x12 PUSH1 0x4 MSTORE PUSH1 0x24 PUSH1 0x0 REVERT JUMPDEST POP SWAP3 POP POP POP MLOAD SWAP1 JUMP JUMPDEST SWAP3 POP POP POP MLOAD SWAP1 JUMP JUMPDEST POP POP POP SWAP1 POP SWAP1 JUMP JUMPDEST POP POP POP POP PUSH1 0x0 SWAP1 JUMP JUMPDEST SWAP1 SWAP4 DUP4 DUP3 DUP2 RETURNDATASIZE DUP4 GT PUSH2 0x10E3 JUMPI JUMPDEST PUSH2 0x10CF DUP2 DUP4 PUSH2 0xE88 JUMP JUMPDEST DUP2 ADD SUB SLT PUSH2 0x10E0 JUMPI POP MLOAD SWAP3 CODESIZE PUSH2 0xF75 JUMP JUMPDEST DUP1 REVERT JUMPDEST POP RETURNDATASIZE PUSH2 0x10C5 JUMP JUMPDEST POP POP PUSH1 0x0 SWAP1 JUMP JUMPDEST SWAP2 SWAP1 DUP2 LT ISZERO PUSH2 0x1101 JUMPI PUSH1 0x5 SHL ADD SWAP1 JUMP JUMPDEST PUSH4 0x4E487B71 PUSH1 0xE0 SHL PUSH1 0x0 MSTORE PUSH1 0x32 PUSH1 0x4 MSTORE PUSH1 0x24 PUSH1 0x0 REVERT JUMPDEST CALLDATALOAD PUSH1 0x1 PUSH1 0x1 PUSH1 0xA0 SHL SUB DUP2 AND DUP2 SUB PUSH2 0x1B0 JUMPI SWAP1 JUMP JUMPDEST SWAP1 DUP2 PUSH1 0x20 SWAP2 SUB SLT PUSH2 0x1B0 JUMPI MLOAD DUP1 ISZERO ISZERO DUP2 SUB PUSH2 0x1B0 JUMPI SWAP1 JUMP JUMPDEST PUSH2 0x11A1 PUSH1 0x1 PUSH1 0x1 PUSH1 0xA0 SHL SUB SWAP2 DUP3 DUP2 AND PUSH1 0x0 MSTORE PUSH1 0x4 PUSH1 0x20 MSTORE PUSH1 0x40 PUSH1 0x0 KECCAK256 SWAP3 PUSH1 0x40 MLOAD SWAP1 PUSH2 0x116D DUP3 PUSH2 0xE56 JUMP JUMPDEST DUP5 SLOAD AND DUP2 MSTORE PUSH1 0x1 DUP5 ADD SLOAD PUSH1 0x20 DUP3 ADD MSTORE PUSH1 0x80 PUSH1 0x4 PUSH1 0x2 DUP7 ADD SLOAD SWAP6 PUSH1 0x40 DUP5 ADD SWAP7 DUP8 MSTORE PUSH1 0x3 DUP2 ADD SLOAD PUSH1 0x60 DUP6 ADD MSTORE ADD SLOAD SWAP2 ADD MSTORE PUSH2 0xF34 JUMP JUMPDEST SWAP1 MLOAD DUP1 DUP3 LT PUSH2 0x10EA JUMPI PUSH2 0x107D SWAP2 PUSH2 0xF14 JUMP JUMPDEST PUSH1 0x1 PUSH1 0x1 PUSH1 0xA0 SHL SUB PUSH1 0x1 SLOAD AND DUP1 ISZERO PUSH2 0x1233 JUMPI PUSH1 0x20 PUSH1 0x24 SWAP2 PUSH1 0x40 MLOAD SWAP3 DUP4 DUP1 SWAP3 PUSH4 0x70A08231 PUSH1 0xE0 SHL DUP3 MSTORE ADDRESS PUSH1 0x4 DUP4 ADD MSTORE GAS STATICCALL DUP1 ISZERO PUSH2 0x3DF JUMPI PUSH1 0x0 SWAP1 PUSH2 0x11FF JUMPI JUMPDEST PUSH2 0x107D SWAP2 POP PUSH1 0xA SLOAD SWAP1 PUSH2 0xF14 JUMP JUMPDEST POP PUSH1 0x20 DUP2 RETURNDATASIZE PUSH1 0x20 GT PUSH2 0x122B JUMPI JUMPDEST DUP2 PUSH2 0x1219 PUSH1 0x20 SWAP4 DUP4 PUSH2 0xE88 JUMP JUMPDEST DUP2 ADD SUB SLT PUSH2 0x1B0 JUMPI PUSH2 0x107D SWAP1 MLOAD PUSH2 0x11F1 JUMP JUMPDEST RETURNDATASIZE SWAP2 POP PUSH2 0x120C JUMP JUMPDEST PUSH1 0x64 PUSH1 0x40 MLOAD PUSH3 0x461BCD PUSH1 0xE5 SHL DUP2 MSTORE PUSH1 0x20 PUSH1 0x4 DUP3 ADD MSTORE PUSH1 0x16 PUSH1 0x24 DUP3 ADD MSTORE PUSH32 0x746F6B656E20686173206E6F74206265656E2073657400000000000000000000 PUSH1 0x44 DUP3 ADD MSTORE REVERT JUMPDEST PUSH1 0x1 PUSH1 0x1 PUSH1 0xA0 SHL SUB PUSH1 0x0 SLOAD AND CALLER SUB PUSH2 0x128B JUMPI JUMP JUMPDEST PUSH1 0x24 PUSH1 0x40 MLOAD PUSH32 0x118CDAA700000000000000000000000000000000000000000000000000000000 DUP2 MSTORE CALLER PUSH1 0x4 DUP3 ADD MSTORE REVERT INVALID LOG2 PUSH5 0x6970667358 0x22 SLT KECCAK256 0xF7 OR SHL ADD 0xD7 SIGNEXTEND AND PUSH6 0x53F7FB2E6372 PUSH18 0x79278671E053CE0B68B6B9C57C82823C664 PUSH20 0x6F6C634300081800330000000000000000000000 "
        },
        "methodIdentifiers": {
          "addMembers(address[],uint256[])": "3e72b2bb",
          "allocatedAmount()": "115425e4",
          "balance()": "b69ef8a8",
          "claim()": "4e71d92d",
          "claimProxy()": "30b66cee",
          "claimableAmount(address)": "89885049",
          "cliffDuration()": "d85349f7",
          "cliffPercent()": "e67e8aaf",
          "linearDuration()": "9b78a070",
          "members(address)": "08ae4b0c",
          "name()": "06fdde03",
          "owner()": "8da5cb5b",
          "remainingAmount(address)": "5a849419",
          "removeMember(address)": "0b1ca49a",
          "renounceOwnership()": "715018a6",
          "setToken(address)": "144fa6d7",
          "tgePercent()": "e2f0f42d",
          "totalAmount(address)": "d72b9da2",
          "transferOwnership(address)": "f2fde38b",
          "vestedAmount(address)": "384711cc",
          "withdrawErc20(address,address)": "739656db",
          "withdrawEth(address)": "25e16063"
        }
      }
    }
  }
}