{
  "contracts/SaleContract.sol": {
    "SaleContract": {
      "abi": [
        {
          "inputs": [
            {
              "internalType": "address",
              "name": "_liquidityRouter",
              "type": "address"
            },
            {
              "internalType": "uint256",
              "name": "_liquidityUSDTPercent",
              "type": "uint256"
            },
            {
              "internalType": "uint256",
              "name": "_liquidityToken",
              "type": "uint256"
            },
            {
              "components": [
                {
                  "internalType": "string",
                  "name": "name",
                  "type": "string"
                },
                {
                  "internalType": "uint256",
                  "name": "cooldownDuration",
                  "type": "uint256"
                },
                {
                  "internalType": "uint256",
                  "name": "saleStartTime",
                  "type": "uint256"
                },
                {
                  "internalType": "uint256",
                  "name": "salePrice",
                  "type": "uint256"
                },
                {
                  "internalType": "uint256",
                  "name": "saleTotalAmount",
                  "type": "uint256"
                },
                {
                  "internalType": "uint256",
                  "name": "saleBalance",
                  "type": "uint256"
                },
                {
                  "internalType": "uint256",
                  "name": "saleMinPerWallet",
                  "type": "uint256"
                },
                {
                  "internalType": "uint256",
                  "name": "saleMaxPerWallet",
                  "type": "uint256"
                },
                {
                  "internalType": "uint256",
                  "name": "affiliateTotalAmount",
                  "type": "uint256"
                },
                {
                  "internalType": "uint256",
                  "name": "affiliateBalance",
                  "type": "uint256"
                },
                {
                  "internalType": "uint256",
                  "name": "affiliatePercent",
                  "type": "uint256"
                },
                {
                  "internalType": "uint256",
                  "name": "tgePercent",
                  "type": "uint256"
                },
                {
                  "internalType": "uint256",
                  "name": "cliffDuration",
                  "type": "uint256"
                },
                {
                  "internalType": "uint256",
                  "name": "cliffPercent",
                  "type": "uint256"
                },
                {
                  "internalType": "uint256",
                  "name": "linearDuration",
                  "type": "uint256"
                }
              ],
              "internalType": "struct SaleContract.Tier[]",
              "name": "_tiers",
              "type": "tuple[]"
            }
          ],
          "stateMutability": "nonpayable",
          "type": "constructor"
        },
        {
          "inputs": [],
          "name": "EnforcedPause",
          "type": "error"
        },
        {
          "inputs": [],
          "name": "ExpectedPause",
          "type": "error"
        },
        {
          "inputs": [
            {
              "internalType": "address",
              "name": "owner",
              "type": "address"
            }
          ],
          "name": "OwnableInvalidOwner",
          "type": "error"
        },
        {
          "inputs": [
            {
              "internalType": "address",
              "name": "account",
              "type": "address"
            }
          ],
          "name": "OwnableUnauthorizedAccount",
          "type": "error"
        },
        {
          "anonymous": false,
          "inputs": [
            {
              "indexed": false,
              "internalType": "address",
              "name": "account",
              "type": "address"
            },
            {
              "indexed": false,
              "internalType": "uint256",
              "name": "amount",
              "type": "uint256"
            }
          ],
          "name": "Claimed",
          "type": "event"
        },
        {
          "anonymous": false,
          "inputs": [
            {
              "indexed": false,
              "internalType": "uint256",
              "name": "saleTier",
              "type": "uint256"
            }
          ],
          "name": "NextSaleTier",
          "type": "event"
        },
        {
          "anonymous": false,
          "inputs": [
            {
              "indexed": true,
              "internalType": "address",
              "name": "previousOwner",
              "type": "address"
            },
            {
              "indexed": true,
              "internalType": "address",
              "name": "newOwner",
              "type": "address"
            }
          ],
          "name": "OwnershipTransferred",
          "type": "event"
        },
        {
          "anonymous": false,
          "inputs": [
            {
              "indexed": false,
              "internalType": "address",
              "name": "account",
              "type": "address"
            }
          ],
          "name": "Paused",
          "type": "event"
        },
        {
          "anonymous": false,
          "inputs": [
            {
              "indexed": false,
              "internalType": "address",
              "name": "account",
              "type": "address"
            },
            {
              "indexed": false,
              "internalType": "uint256",
              "name": "tier",
              "type": "uint256"
            },
            {
              "indexed": false,
              "internalType": "uint256",
              "name": "amount",
              "type": "uint256"
            }
          ],
          "name": "Purchased",
          "type": "event"
        },
        {
          "anonymous": false,
          "inputs": [
            {
              "indexed": false,
              "internalType": "address",
              "name": "account",
              "type": "address"
            },
            {
              "indexed": false,
              "internalType": "uint256",
              "name": "tier",
              "type": "uint256"
            },
            {
              "indexed": false,
              "internalType": "uint256",
              "name": "amount",
              "type": "uint256"
            }
          ],
          "name": "Reward",
          "type": "event"
        },
        {
          "anonymous": false,
          "inputs": [
            {
              "indexed": false,
              "internalType": "address",
              "name": "account",
              "type": "address"
            }
          ],
          "name": "Unpaused",
          "type": "event"
        },
        {
          "inputs": [],
          "name": "balance",
          "outputs": [
            {
              "internalType": "uint256",
              "name": "",
              "type": "uint256"
            }
          ],
          "stateMutability": "view",
          "type": "function"
        },
        {
          "inputs": [],
          "name": "claim",
          "outputs": [],
          "stateMutability": "nonpayable",
          "type": "function"
        },
        {
          "inputs": [
            {
              "internalType": "uint256",
              "name": "tier",
              "type": "uint256"
            },
            {
              "internalType": "address",
              "name": "addr",
              "type": "address"
            }
          ],
          "name": "claimableAmount",
          "outputs": [
            {
              "internalType": "uint256",
              "name": "",
              "type": "uint256"
            }
          ],
          "stateMutability": "view",
          "type": "function"
        },
        {
          "inputs": [
            {
              "internalType": "address",
              "name": "addr",
              "type": "address"
            }
          ],
          "name": "claimableAmountAllTiers",
          "outputs": [
            {
              "internalType": "uint256",
              "name": "",
              "type": "uint256"
            }
          ],
          "stateMutability": "view",
          "type": "function"
        },
        {
          "inputs": [],
          "name": "countTiers",
          "outputs": [
            {
              "internalType": "uint256",
              "name": "",
              "type": "uint256"
            }
          ],
          "stateMutability": "view",
          "type": "function"
        },
        {
          "inputs": [],
          "name": "currentTier",
          "outputs": [
            {
              "internalType": "uint256",
              "name": "",
              "type": "uint256"
            }
          ],
          "stateMutability": "view",
          "type": "function"
        },
        {
          "inputs": [
            {
              "internalType": "address",
              "name": "account",
              "type": "address"
            },
            {
              "internalType": "uint256",
              "name": "tier",
              "type": "uint256"
            }
          ],
          "name": "getMember",
          "outputs": [
            {
              "components": [
                {
                  "internalType": "address",
                  "name": "account",
                  "type": "address"
                },
                {
                  "internalType": "uint256",
                  "name": "totalAmount",
                  "type": "uint256"
                },
                {
                  "internalType": "uint256",
                  "name": "claimedAmount",
                  "type": "uint256"
                },
                {
                  "internalType": "uint256",
                  "name": "totalPaid",
                  "type": "uint256"
                },
                {
                  "internalType": "uint256",
                  "name": "startTime",
                  "type": "uint256"
                },
                {
                  "internalType": "uint256",
                  "name": "endTime",
                  "type": "uint256"
                }
              ],
              "internalType": "struct SaleContract.Member",
              "name": "",
              "type": "tuple"
            }
          ],
          "stateMutability": "view",
          "type": "function"
        },
        {
          "inputs": [
            {
              "internalType": "uint256",
              "name": "tier",
              "type": "uint256"
            }
          ],
          "name": "getTier",
          "outputs": [
            {
              "components": [
                {
                  "internalType": "string",
                  "name": "name",
                  "type": "string"
                },
                {
                  "internalType": "uint256",
                  "name": "cooldownDuration",
                  "type": "uint256"
                },
                {
                  "internalType": "uint256",
                  "name": "saleStartTime",
                  "type": "uint256"
                },
                {
                  "internalType": "uint256",
                  "name": "salePrice",
                  "type": "uint256"
                },
                {
                  "internalType": "uint256",
                  "name": "saleTotalAmount",
                  "type": "uint256"
                },
                {
                  "internalType": "uint256",
                  "name": "saleBalance",
                  "type": "uint256"
                },
                {
                  "internalType": "uint256",
                  "name": "saleMinPerWallet",
                  "type": "uint256"
                },
                {
                  "internalType": "uint256",
                  "name": "saleMaxPerWallet",
                  "type": "uint256"
                },
                {
                  "internalType": "uint256",
                  "name": "affiliateTotalAmount",
                  "type": "uint256"
                },
                {
                  "internalType": "uint256",
                  "name": "affiliateBalance",
                  "type": "uint256"
                },
                {
                  "internalType": "uint256",
                  "name": "affiliatePercent",
                  "type": "uint256"
                },
                {
                  "internalType": "uint256",
                  "name": "tgePercent",
                  "type": "uint256"
                },
                {
                  "internalType": "uint256",
                  "name": "cliffDuration",
                  "type": "uint256"
                },
                {
                  "internalType": "uint256",
                  "name": "cliffPercent",
                  "type": "uint256"
                },
                {
                  "internalType": "uint256",
                  "name": "linearDuration",
                  "type": "uint256"
                }
              ],
              "internalType": "struct SaleContract.Tier",
              "name": "",
              "type": "tuple"
            }
          ],
          "stateMutability": "view",
          "type": "function"
        },
        {
          "inputs": [],
          "name": "liquidityFactory",
          "outputs": [
            {
              "internalType": "contract IUniswapV2Factory",
              "name": "",
              "type": "address"
            }
          ],
          "stateMutability": "view",
          "type": "function"
        },
        {
          "inputs": [],
          "name": "liquidityPair",
          "outputs": [
            {
              "internalType": "address",
              "name": "",
              "type": "address"
            }
          ],
          "stateMutability": "view",
          "type": "function"
        },
        {
          "inputs": [],
          "name": "liquidityRouter",
          "outputs": [
            {
              "internalType": "contract IUniswapV2Router02",
              "name": "",
              "type": "address"
            }
          ],
          "stateMutability": "view",
          "type": "function"
        },
        {
          "inputs": [],
          "name": "liquidityToken",
          "outputs": [
            {
              "internalType": "uint256",
              "name": "",
              "type": "uint256"
            }
          ],
          "stateMutability": "view",
          "type": "function"
        },
        {
          "inputs": [],
          "name": "liquidityUSDT",
          "outputs": [
            {
              "internalType": "uint256",
              "name": "",
              "type": "uint256"
            }
          ],
          "stateMutability": "view",
          "type": "function"
        },
        {
          "inputs": [],
          "name": "liquidityUSDTPercent",
          "outputs": [
            {
              "internalType": "uint256",
              "name": "",
              "type": "uint256"
            }
          ],
          "stateMutability": "view",
          "type": "function"
        },
        {
          "inputs": [
            {
              "internalType": "address",
              "name": "",
              "type": "address"
            },
            {
              "internalType": "uint256",
              "name": "",
              "type": "uint256"
            }
          ],
          "name": "members",
          "outputs": [
            {
              "internalType": "address",
              "name": "account",
              "type": "address"
            },
            {
              "internalType": "uint256",
              "name": "totalAmount",
              "type": "uint256"
            },
            {
              "internalType": "uint256",
              "name": "claimedAmount",
              "type": "uint256"
            },
            {
              "internalType": "uint256",
              "name": "totalPaid",
              "type": "uint256"
            },
            {
              "internalType": "uint256",
              "name": "startTime",
              "type": "uint256"
            },
            {
              "internalType": "uint256",
              "name": "endTime",
              "type": "uint256"
            }
          ],
          "stateMutability": "view",
          "type": "function"
        },
        {
          "inputs": [],
          "name": "name",
          "outputs": [
            {
              "internalType": "string",
              "name": "",
              "type": "string"
            }
          ],
          "stateMutability": "view",
          "type": "function"
        },
        {
          "inputs": [],
          "name": "owner",
          "outputs": [
            {
              "internalType": "address",
              "name": "",
              "type": "address"
            }
          ],
          "stateMutability": "view",
          "type": "function"
        },
        {
          "inputs": [],
          "name": "paused",
          "outputs": [
            {
              "internalType": "bool",
              "name": "",
              "type": "bool"
            }
          ],
          "stateMutability": "view",
          "type": "function"
        },
        {
          "inputs": [
            {
              "internalType": "address",
              "name": "affiliate",
              "type": "address"
            },
            {
              "internalType": "uint256",
              "name": "tokenAmount",
              "type": "uint256"
            }
          ],
          "name": "purchase",
          "outputs": [],
          "stateMutability": "nonpayable",
          "type": "function"
        },
        {
          "inputs": [
            {
              "internalType": "address",
              "name": "addr",
              "type": "address"
            }
          ],
          "name": "remainingAmount",
          "outputs": [
            {
              "internalType": "uint256",
              "name": "",
              "type": "uint256"
            }
          ],
          "stateMutability": "view",
          "type": "function"
        },
        {
          "inputs": [],
          "name": "renounceOwnership",
          "outputs": [],
          "stateMutability": "nonpayable",
          "type": "function"
        },
        {
          "inputs": [],
          "name": "saleBalance",
          "outputs": [
            {
              "internalType": "uint256",
              "name": "",
              "type": "uint256"
            }
          ],
          "stateMutability": "view",
          "type": "function"
        },
        {
          "inputs": [
            {
              "internalType": "address",
              "name": "_erc",
              "type": "address"
            }
          ],
          "name": "setToken",
          "outputs": [],
          "stateMutability": "nonpayable",
          "type": "function"
        },
        {
          "inputs": [
            {
              "internalType": "address",
              "name": "_erc",
              "type": "address"
            }
          ],
          "name": "setUSDT",
          "outputs": [],
          "stateMutability": "nonpayable",
          "type": "function"
        },
        {
          "inputs": [],
          "name": "surplusTokens",
          "outputs": [
            {
              "internalType": "uint256",
              "name": "",
              "type": "uint256"
            }
          ],
          "stateMutability": "view",
          "type": "function"
        },
        {
          "inputs": [],
          "name": "tgeTime",
          "outputs": [
            {
              "internalType": "uint256",
              "name": "",
              "type": "uint256"
            }
          ],
          "stateMutability": "view",
          "type": "function"
        },
        {
          "inputs": [
            {
              "internalType": "uint256",
              "name": "",
              "type": "uint256"
            }
          ],
          "name": "tiers",
          "outputs": [
            {
              "internalType": "string",
              "name": "name",
              "type": "string"
            },
            {
              "internalType": "uint256",
              "name": "cooldownDuration",
              "type": "uint256"
            },
            {
              "internalType": "uint256",
              "name": "saleStartTime",
              "type": "uint256"
            },
            {
              "internalType": "uint256",
              "name": "salePrice",
              "type": "uint256"
            },
            {
              "internalType": "uint256",
              "name": "saleTotalAmount",
              "type": "uint256"
            },
            {
              "internalType": "uint256",
              "name": "saleBalance",
              "type": "uint256"
            },
            {
              "internalType": "uint256",
              "name": "saleMinPerWallet",
              "type": "uint256"
            },
            {
              "internalType": "uint256",
              "name": "saleMaxPerWallet",
              "type": "uint256"
            },
            {
              "internalType": "uint256",
              "name": "affiliateTotalAmount",
              "type": "uint256"
            },
            {
              "internalType": "uint256",
              "name": "affiliateBalance",
              "type": "uint256"
            },
            {
              "internalType": "uint256",
              "name": "affiliatePercent",
              "type": "uint256"
            },
            {
              "internalType": "uint256",
              "name": "tgePercent",
              "type": "uint256"
            },
            {
              "internalType": "uint256",
              "name": "cliffDuration",
              "type": "uint256"
            },
            {
              "internalType": "uint256",
              "name": "cliffPercent",
              "type": "uint256"
            },
            {
              "internalType": "uint256",
              "name": "linearDuration",
              "type": "uint256"
            }
          ],
          "stateMutability": "view",
          "type": "function"
        },
        {
          "inputs": [
            {
              "internalType": "address",
              "name": "addr",
              "type": "address"
            }
          ],
          "name": "totalAmount",
          "outputs": [
            {
              "internalType": "uint256",
              "name": "",
              "type": "uint256"
            }
          ],
          "stateMutability": "view",
          "type": "function"
        },
        {
          "inputs": [
            {
              "internalType": "address",
              "name": "addr",
              "type": "address"
            }
          ],
          "name": "totalPaid",
          "outputs": [
            {
              "internalType": "uint256",
              "name": "",
              "type": "uint256"
            }
          ],
          "stateMutability": "view",
          "type": "function"
        },
        {
          "inputs": [
            {
              "internalType": "address",
              "name": "newOwner",
              "type": "address"
            }
          ],
          "name": "transferOwnership",
          "outputs": [],
          "stateMutability": "nonpayable",
          "type": "function"
        },
        {
          "inputs": [
            {
              "internalType": "uint256",
              "name": "tier",
              "type": "uint256"
            },
            {
              "internalType": "address",
              "name": "addr",
              "type": "address"
            }
          ],
          "name": "vestedAmount",
          "outputs": [
            {
              "internalType": "uint256",
              "name": "",
              "type": "uint256"
            }
          ],
          "stateMutability": "view",
          "type": "function"
        },
        {
          "inputs": [
            {
              "internalType": "address",
              "name": "_erc",
              "type": "address"
            },
            {
              "internalType": "address",
              "name": "account",
              "type": "address"
            }
          ],
          "name": "withdrawErc20",
          "outputs": [],
          "stateMutability": "nonpayable",
          "type": "function"
        },
        {
          "inputs": [
            {
              "internalType": "address payable",
              "name": "account",
              "type": "address"
            }
          ],
          "name": "withdrawEth",
          "outputs": [],
          "stateMutability": "nonpayable",
          "type": "function"
        },
        {
          "inputs": [
            {
              "internalType": "address",
              "name": "account",
              "type": "address"
            },
            {
              "internalType": "uint256",
              "name": "amount",
              "type": "uint256"
            }
          ],
          "name": "withdrawPartialSaleBalance",
          "outputs": [],
          "stateMutability": "nonpayable",
          "type": "function"
        },
        {
          "inputs": [
            {
              "internalType": "address",
              "name": "account",
              "type": "address"
            }
          ],
          "name": "withdrawSaleBalance",
          "outputs": [],
          "stateMutability": "nonpayable",
          "type": "function"
        },
        {
          "inputs": [
            {
              "internalType": "address",
              "name": "account",
              "type": "address"
            }
          ],
          "name": "withdrawSurplusTokens",
          "outputs": [],
          "stateMutability": "nonpayable",
          "type": "function"
        }
      ],
      "evm": {
        "bytecode": {
          "linkReferences": {},
          "object": "60808060405234620004255762002ec580380380916200002082856200067a565b8339608082828101031262000425576200003a826200069e565b60208301519060408401519260608501519460018060401b0386116200042557818101601f878301011215620004255780860151956001600160401b038711620003c6578660051b906040519762000096602084018a6200067a565b885260208801908484016020848387010101116200042557602081850101915b602084838701010183106200047d575050505050503315620004645760206004916000543360018060a01b0382167f8be0079c531659141344cd1fd0a4f28419497f9722a3daafe3b4186f6b6457e0600080a36001600160a81b0319163360ff60a01b1916176000556003546200012d90620006b3565b601f81116200043f575b507f5371756967676c652053616c6520436f6e74726163740000000000000000002c600355600a80546001600160a01b0319166001600160a01b0392909216918217905560405163c45a015560e01b815292839182905afa9081156200043357600091620003ec575b50600980546001600160a01b0319166001600160a01b0392909216919091179055600c55600e5560005b8151811015620003dc5760208160051b830101519060075460005260056020526040600020825180519060018060401b038211620003c6578190620002108454620006b3565b601f811162000384575b50602090601f83116001146200031a576000926200030e575b50508160011b916000199060031b1c19161781555b600e6101c060019460208101518685015560408101516002850155606081015160038501556080810151600485015560a0810151600585015560c0810151600685015560e0810151600785015561010081015160088501556101208101516009850155610140810151600a850155610160810151600b850155610180810151600c8501556101a0810151600d8501550151910155600754916000198314620002f8576001920160075501620001ca565b634e487b7160e01b600052601160045260246000fd5b01519050388062000233565b60008581526020812093505b601f19851681106200036b575083601f1981161062000351575b505050600190811b01815562000248565b015160001960f88460031b161c1916905538808062000340565b9192602060018192868501518155019401920162000326565b620003b490856000526020600020601f850160051c81019160208610620003bb575b601f0160051c0190620006f0565b386200021a565b9091508190620003a6565b634e487b7160e01b600052604160045260246000fd5b6040516127bb90816200070a8239f35b90506020813d6020116200042a575b816200040a602093836200067a565b8101031262000425576200041e906200069e565b38620001a0565b600080fd5b3d9150620003fb565b6040513d6000823e3d90fd5b6200045d906003600052601f84600020910160051c810190620006f0565b3862000137565b604051631e4fbdf760e01b815260006004820152602490fd5b82516001600160401b03811162000425576101e0868401820188880103601f1901126200042557604051906001600160401b036101e083019081119083111762000665576101e082016040528684018101602001516001600160401b0381116200042557888801603f8284888c01010101121562000425578785018201810160200151906001600160401b03821162000665578860408383868a8f62000532601f8601601f19166020016101e08d016200067a565b846101e08c01528601950101010101116200042557859291899160005b82811062000641575050600090850161020001526101e0848101855290830182016040818101516020878101919091526060808401519288019290925260809283015191870191909152938a01830160a0818101519287019290925260c0808201519287019290925260e08082015192870192909252610100808201519287019290925261012080820151928701929092526101408082015192870192909252610160808201519287019290925261018080820151928701929092526101a080820151928701929092526101c09081015191860191909152868a019092010151908301529082529283019201620000b6565b9490920183018201840160400151858501610200015286938a92906020016200054f565b60246000634e487b7160e01b81526041600452fd5b601f909101601f19168101906001600160401b03821190821017620003c657604052565b51906001600160a01b03821682036200042557565b90600182811c92168015620006e5575b6020831014620006cf57565b634e487b7160e01b600052602260045260246000fd5b91607f1691620006c3565b818110620006fc575050565b60008155600101620006f056fe6080604052600436101561001257600080fd5b60003560e01c8063039af9eb146120c157806305f2770c1461209a57806306fdde0314611fb3578063144fa6d714611f735780631afd1a4b14611f395780632470294414611f1257806325e1606314611ec4578063260edaaa14611ea95780633163e3a814611e8b5780633dd6d53314611e175780633e6c531114611df157806343cd8f7e14611dd35780634a2bfc8b14611d645780634e71d92d14611ade5780634f062c5a146118ea57806350c1b923146118aa57806352a87c6b1461182f5780635a849419146117bb5780635c975abb14611795578063715018a61461173c578063719ba034146116b9578063739656db1461157b578063808a5457146115545780638a0beaa1146115365780638da5cb5b1461150f5780638de93222146105ce5780639943d6ec14610578578063b090488214610492578063b0cd390e14610474578063b69ef8a814610344578063cdac5f7c14610326578063d679677a14610308578063d72b9da214610295578063f2fde38b146101f6578063f311df8e146101d05763fab14b36146101a857600080fd5b346101cb5760003660031901126101cb5760206101c3612680565b604051908152f35b600080fd5b346101cb5760403660031901126101cb5760206101c36101ee612333565b60043561261e565b346101cb5760203660031901126101cb5761020f61231d565b6102176126f9565b6001600160a01b0380911690811561026457600054826001600160a01b0319821617600055167f8be0079c531659141344cd1fd0a4f28419497f9722a3daafe3b4186f6b6457e0600080a3005b60246040517f1e4fbdf700000000000000000000000000000000000000000000000000000000815260006004820152fd5b346101cb576020806003193601126101cb576102af61231d565b60075460009283926001600160a01b03165b8285106102d357602084604051908152f35b9091926102fd60019183600052600885526040600020876000528552826040600020015490612361565b9401939291906102c1565b346101cb5760003660031901126101cb576020600654604051908152f35b346101cb5760003660031901126101cb576020600d54604051908152f35b346101cb5760003660031901126101cb5760016001600160a01b03600154169081156104305760405180926370a0823160e01b825230600483015281602460209586935afa8015610424576000906103f5575b6103a59150600e54906123d2565b906000906007545b8083106103bf57505050604051908152f35b906103ec83948294600052600587526103e6604060002060086004820154910154906123d2565b906123d2565b930191906103ad565b508281813d831161041d575b61040b8183612216565b810103126101cb576103a59051610397565b503d610401565b6040513d6000823e3d90fd5b606460405162461bcd60e51b815260206004820152601660248201527f746f6b656e20686173206e6f74206265656e20736574000000000000000000006044820152fd5b346101cb5760003660031901126101cb576020600754604051908152f35b346101cb5760403660031901126101cb5760c06104ad61231d565b600060a06040516104bd816121dd565b82815282602082015282604082015282606082015282608082015201526001600160a01b03809116600052600860205260406000206024356000526020526040600020906040519061050e826121dd565b825416918282526001810154602083019081526002820154604084019081526003830154916060850192835260a0600560048601549560808801968752015495019485526040519586525160208601525160408501525160608401525160808301525160a0820152f35b346101cb5760203660031901126101cb5761059161231d565b60008091600754905b8184106105ac57602083604051908152f35b90916105c46001916105be848761261e565b90612361565b930192919061059a565b346101cb5760403660031901126101cb576105e761231d565b6105ef61273d565b600654908160005260056020526040600020916040519261060f846121f9565b61061881612238565b84526001810154602085015260028101548060408601526003820154606086015260048201546080860152600e6005830154928360a0880152600681015460c0880152600781015460e088015260088101546101008801526009810154610120880152600a810154610140880152600b810154610160880152600c810154610180880152600d8101546101a088015201546101c086015242106114cb57600454611487576001600160a01b036002541690811561144357602435116113d9576001600160a01b0383161591821592836113c6575b15611382576040517fdd62ed3e000000000000000000000000000000000000000000000000000000008152336004820152306024820152602081604481865afa90811561042457600091611350575b50670de0b6b3a764000061075560608801516024356123bf565b04116112e6573360005260086020526040600020906000526020526040600020906107cf60405192610786846121dd565b6001600160a01b0381541684526005600182015491826020870152600281015460408701526003810154606087015260048101546080870152015460a085015260243590612361565b60e08601511061127c576107e96024356020840151612361565b60c086015111611212576001600160a01b0382511615611203575b60006020670de0b6b3a764000061082160608901516024356123bf565b04926064604051809481937f23b872dd0000000000000000000000000000000000000000000000000000000083523360048401523060248401528760448401525af1908115610424576000916111e4575b50156111a057620f42406108d06108d992600060a086015261089a6024356020870151612361565b60208601526108ad816060870151612361565b60608601526108c260243560a08a01516123d2565b60a0890152600c54906123bf565b04600d54612361565b600d553360005260086020526040600020600654600052602052600560a06040600020926001600160a01b038151166001600160a01b0319855416178455602081015160018501556040810151600285015560608101516003850155608081015160048501550151910155611006575b506006546000526005602052604060002090805191825167ffffffffffffffff8111610ff05761097982546121a3565b601f8111610fac575b506020601f8211600114610f445781929394600092610f39575b50508160011b916000199060031b1c19161781555b6020820151600182015560408201516002820155606082015160038201556080820151600482015560a0820151600582015560c0820151600682015560e0820151600782015561010082015160088201556101208201516009820155610140820151600a820155610160820151600b820155610180820151600c8201556101a0820151600d820155600e6101c0830151910155600654907ff761777482b4b40d2bcc0d050cfba6829900a2d8b3484bd0244ec0feeb3db50460405180610a956024358633846040919493926001600160a01b03606083019616825260208201520152565b0390a160c060a08201519101511015610aaa57005b610ab261273d565b60018101808211610baf576007541115610bc55750600654806000526005602052610ae560016040600020015442612361565b9060018101809111610baf576000526005602052600260406000200155600654806000526005604060002001549060018101809111610baf576000526005602052610b396004604060002001918254612361565b9055600654600052600560205260006005604082200155600654806000526009604060002001549060018101809111610baf576000526005602052610b876008604060002001918254612361565b9055600654600052600560205260006009604082200155610ba9600654612776565b6006555b005b634e487b7160e01b600052601160045260246000fd5b80610bec916000526005602052610be460016040600020015442612361565b600455612776565b600655600254600a54600d546040517f095ea7b3000000000000000000000000000000000000000000000000000000008082526001600160a01b039384166004830152602482019290925292909160209184916044918391600091165af190811561042457610ca792602092610f1c575b506001600160a01b03600154166001600160a01b03600a54166000600e549360405196879586948593845260048401602090939291936001600160a01b0360408201951681520152565b03925af1801561042457610efd575b506001600160a01b03600a541660606001600160a01b03600254166101046001600160a01b0360015416916000600d5495600e5460405197889687957fe8e3370000000000000000000000000000000000000000000000000000000000875260048701526024860152806044860152816064860152608485015260a48401523060c48401524260e48401525af1801561042457610ed2575b506009546002546001546040517fe6a439050000000000000000000000000000000000000000000000000000000081526001600160a01b03928316600482015290821660248201529160209183916044918391165afa801561042457600090610e89575b6001600160a01b03915016806001600160a01b0319600b541617600b556040516370a0823160e01b8152306004820152602081602481855afa90811561042457600091610e56575b506000916044602092604051948593849263a9059cbb60e01b845282600485015260248401525af1801561042457610e2e57005b610bad9060203d602011610e4f575b610e478183612216565b810190612349565b503d610e3d565b90506020813d602011610e81575b81610e7160209383612216565b810103126101cb57516000610dfa565b3d9150610e64565b506020813d602011610eca575b81610ea360209383612216565b810103126101cb57516001600160a01b03811681036101cb576001600160a01b0390610db2565b3d9150610e96565b606090813d8311610ef6575b610ee88183612216565b810103126101cb5780610d4e565b503d610ede565b610f159060203d602011610e4f57610e478183612216565b5080610cb6565b610f3290833d8511610e4f57610e478183612216565b5083610c5d565b01519050848061099c565b8260005260206000209060005b601f1984168110610f945750600193949583601f19811610610f7b575b505050811b0181556109b1565b015160001960f88460031b161c19169055848080610f6e565b9091602060018192858a015181550193019101610f51565b826000526020600020601f830160051c810160208410610fe9575b601f830160051c82018110610fdd575050610982565b60008155600101610fc7565b5080610fc7565b634e487b7160e01b600052604160045260246000fd5b6001600160a01b0381166000526008602052604060002060065490816000526020526001600160a01b0360406000209260405193611043856121dd565b60048382541691828752600181015460208801526002810154604088015260038101546060880152015460808601521561118f575b600060a08501527f02a6a2be713fedf52f113c0a759f1c1a23a113476d9b1b1a2a453c910660de4e611118620f42406110b86101408901516024356123bf565b04610120880151818110611187575b506110d6816020890151612361565b60208801526110ea816101208a01516123d2565b6101208901526040519182918786846040919493926001600160a01b03606083019616825260208201520152565b0390a1166000526008602052604060002090600052602052600560a06040600020926001600160a01b038151166001600160a01b031985541617845560208101516001850155604081015160028501556060810151600385015560808101516004850155015191015581610949565b9050886110c7565b818116845260006080850152611078565b606460405162461bcd60e51b815260206004820152600f60248201527f7472616e73666572206661696c656400000000000000000000000000000000006044820152fd5b6111fd915060203d602011610e4f57610e478183612216565b86610872565b33825260006080830152610804565b608460405162461bcd60e51b815260206004820152602960248201527f616c6c6f636174696f6e20646f6573206e6f74206d6565742073616c654d696e60448201527f50657257616c6c657400000000000000000000000000000000000000000000006064820152fd5b608460405162461bcd60e51b815260206004820152602860248201527f616c6c6f636174696f6e20776f756c64206578636565642073616c654d61785060448201527f657257616c6c65740000000000000000000000000000000000000000000000006064820152fd5b608460405162461bcd60e51b815260206004820152602160248201527f73616c652070726963652065786365656473207573647420616c6c6f77616e6360448201527f65000000000000000000000000000000000000000000000000000000000000006064820152fd5b90506020813d60201161137a575b8161136b60209383612216565b810103126101cb57518661073b565b3d915061135e565b606460405162461bcd60e51b815260206004820152601e60248201527f616666696c696174652063616e6e6f74206265206d73672e73656e64657200006044820152fd5b50336001600160a01b03851614156106ec565b608460405162461bcd60e51b815260206004820152602960248201527f616c6c6f636174696f6e20776f756c64206578636565642072656d61696e696e60448201527f672062616c616e636500000000000000000000000000000000000000000000006064820152fd5b606460405162461bcd60e51b815260206004820152601460248201527f75736474206e6f7420696e697469616c697a65640000000000000000000000006044820152fd5b606460405162461bcd60e51b815260206004820152601160248201527f73616c65206861732066696e69736865640000000000000000000000000000006044820152fd5b606460405162461bcd60e51b815260206004820152601860248201527f73616c6520686173206e6f7420796574207374617274656400000000000000006044820152fd5b346101cb5760003660031901126101cb5760206001600160a01b0360005416604051908152f35b346101cb5760003660031901126101cb576020600c54604051908152f35b346101cb5760003660031901126101cb5760206001600160a01b03600b5416604051908152f35b346101cb5760403660031901126101cb5761159461231d565b61159c612333565b906115a56126f9565b6001600160a01b0380600154169116908114611675576040516370a0823160e01b81523060048201526020928382602481865afa908115610424578492600092611642575b5060405163a9059cbb60e01b81526001600160a01b039091166004820152602481019190915291829081600081604481015b03925af180156104245761162c57005b81610bad92903d10610e4f57610e478183612216565b8381949293503d831161166e575b61165a8183612216565b810103126101cb579051839161161c6115ea565b503d611650565b606460405162461bcd60e51b815260206004820152601560248201527f63616e6e6f7420776974686472617720746f6b656e00000000000000000000006044820152fd5b346101cb5760403660031901126101cb5760c06116d461231d565b6001600160a01b03809116600052600860205260406000206024356000526020526040600020908154169060018101549060028101546003820154906005600484015493015493604051958652602086015260408501526060840152608083015260a0820152f35b346101cb5760003660031901126101cb576117556126f9565b60006001600160a01b0381546001600160a01b031981168355167f8be0079c531659141344cd1fd0a4f28419497f9722a3daafe3b4186f6b6457e08280a3005b346101cb5760003660031901126101cb57602060ff60005460a01c166040519015158152f35b346101cb576020806003193601126101cb576117d561231d565b60075460009283926001600160a01b03165b8285106117f957602084604051908152f35b9091926118246001918360005260088552604060002087600052855260026040600020015490612361565b9401939291906117e7565b346101cb5760403660031901126101cb5761184861231d565b602435906118546126f9565b61185c612680565b8210156101cb5760025460405163a9059cbb60e01b81526001600160a01b039283166004820152602481019390935260209183911681600081604481015b03925af1801561042457610e2e57005b346101cb5760203660031901126101cb576001600160a01b036118cb61231d565b6118d36126f9565b166001600160a01b03196002541617600255600080f35b346101cb5760203660031901126101cb5760006101c060405161190c816121f9565b606081528260208201528260408201528260608201528260808201528260a08201528260c08201528260e08201528261010082015282610120820152826101408201528261016082015282610180820152826101a0820152015260043560005260056020526040600020600e60405191611985836121f9565b61198e81612238565b835260018101546020840152600281015460408401526003810154606084015260048101546080840152600581015460a0840152600681015460c0840152600781015460e084015260088101546101008401526009810154610120840152600a810154610140840152600b810154610160840152600c810154610180840152600d8101546101a084015201546101c08201526040518091602082526101c0611a4482516101e060208601526102008501906122dd565b91602081015160408501526040810151606085015260608101516080850152608081015160a085015260a081015160c085015260c081015160e085015260e08101516101008501526101008101516101208501526101208101516101408501526101408101516101608501526101608101516101808501526101808101516101a08501526101a08101518285015201516101e08301520390f35b346101cb5760003660031901126101cb5760045415611d20576000805b600754811015611cec573360005260086020526040600020816000526020526040600020611b7560405191611b2f836121dd565b60056001600160a01b038254169182855260018101546020860152600281015460408601526003810154606086015260048101546080860152015460a08401528361261e565b6020820151611b88826040850151612361565b11611ca85780611b9d575b5050600101611afb565b600154825160405163a9059cbb60e01b81526001600160a01b0391821660048201526024810184905294959160209186916044918391600091165af192831561042457600194611c7694611c89575b50611bfb836040830151612361565b806040830152602082015114611c7e575b336000526008602052604060002086600052602052600560a06040600020926001600160a01b038151166001600160a01b03198554161784556020810151888501556040810151600285015560608101516003850155608081015160048501550151910155612361565b919083611b93565b4260a0820152611c0c565b611ca19060203d602011610e4f57610e478183612216565b5086611bec565b606460405162461bcd60e51b815260206004820152601460248201527f746f6b656e20706f6f6c206578686175737465640000000000000000000000006044820152fd5b60408051338152602081018490527fd8138f8a3f377c5259ca548e70e4c2de94f129f5a11036a15b69513cba2b426a9190a1005b606460405162461bcd60e51b815260206004820152601c60248201527f74676554696d6520686173206e6f74206265656e2072656163686564000000006044820152fd5b346101cb5760203660031901126101cb5761189a6020611d8261231d565b611d8a6126f9565b6001600160a01b0360025416611d9e612680565b91600060405180968195829463a9059cbb60e01b845260048401602090939291936001600160a01b0360408201951681520152565b346101cb5760003660031901126101cb576020600e54604051908152f35b346101cb5760403660031901126101cb5760206101c3611e0f612333565b6004356123df565b346101cb576020806003193601126101cb57611e3161231d565b60075460009283926001600160a01b03165b828510611e5557602084604051908152f35b909192611e806001918360005260088552604060002087600052855260036040600020015490612361565b940193929190611e43565b346101cb5760003660031901126101cb576020600454604051908152f35b346101cb5760003660031901126101cb5760206101c361236e565b346101cb5760203660031901126101cb576004356001600160a01b0381168091036101cb57600080808093611ef76126f9565b4790828215611f09575bf11561042457005b506108fc611f01565b346101cb5760003660031901126101cb5760206001600160a01b03600a5416604051908152f35b346101cb5760203660031901126101cb5761189a6020611f5761231d565b611f5f6126f9565b6001600160a01b0360015416611d9e61236e565b346101cb5760203660031901126101cb576001600160a01b03611f9461231d565b611f9c6126f9565b166001600160a01b03196001541617600155600080f35b346101cb5760003660031901126101cb57604051600354600082611fd6836121a3565b918282526020936001908560018216918260001461207a57505060011461201d575b5061200592500383612216565b6120196040519282849384528301906122dd565b0390f35b84915060036000527fc2575a0e9e593c00f959f8c92f12db2869c3395a3b0502d05e2516446f71f85b906000915b858310612062575050612005935082010185611ff8565b8054838901850152879450869390920191810161204b565b60ff19168582015261200595151560051b8501019250879150611ff89050565b346101cb5760003660031901126101cb5760206001600160a01b0360095416604051908152f35b346101cb5760203660031901126101cb57600435600052600560205260406000206120eb81612238565b90600181015460028201549160038101549060048101546005820154600683015460078401546008850154600986015491600a87015493600b88015495600c89015497600d8a015499600e01549a6040519e8f9e8f916101e08084528301612152916122dd565b9e602083015260408201526060015260808d015260a08c015260c08b015260e08a01526101008901526101208801526101408701526101608601526101808501526101a08401526101c08301520390f35b90600182811c921680156121d3575b60208310146121bd57565b634e487b7160e01b600052602260045260246000fd5b91607f16916121b2565b60c0810190811067ffffffffffffffff821117610ff057604052565b6101e0810190811067ffffffffffffffff821117610ff057604052565b90601f8019910116810190811067ffffffffffffffff821117610ff057604052565b9060405191826000825461224b816121a3565b908184526020946001916001811690816000146122bb575060011461227c575b50505061227a92500383612216565b565b600090815285812095935091905b8183106122a357505061227a935082010138808061226b565b8554888401850152948501948794509183019161228a565b9250505061227a94925060ff191682840152151560051b82010138808061226b565b919082519283825260005b848110612309575050826000602080949584010152601f8019910116010190565b6020818301810151848301820152016122e8565b600435906001600160a01b03821682036101cb57565b602435906001600160a01b03821682036101cb57565b908160209103126101cb575180151581036101cb5790565b91908201809211610baf57565b600454156123ba576000806007545b80821061238957505090565b90916123b2600191846000526105be600580602052600960406000209182015491015490612361565b92019061237d565b600090565b81810292918115918404141715610baf57565b91908203918211610baf57565b906001600160a01b03908160015416156126165760045491821561260d5780600092168252600860205260409081832085845260205281832093825191612425836121dd565b8554168252600185015495602083019687526002860154848401526003860154606084015260a06005600488015497608086019889520154930192835284526005602052828420835193612478856121f9565b61248182612238565b8552600182015460208601526002820154908501526003810154606085015260048101546080850152600581015460a0850152600681015460c0850152600781015460e085015260088101546101008501526009810154610120850152600a810154610140850152600b810154916101608501928352600c8201549061018086019182526101c0600e600d850154946101a089019586520154960195865261252a818951612361565b4210612601579061255461255c928a519561254c620f424097889251906123bf565b049951612361565b905190612361565b928342106125f657516125ec57612574845184612361565b4210156125ec576125a8876125a36125b595946125996125af958b9c519051906123bf565b04988992516123d2565b6123d2565b91426123d2565b906123bf565b90519182156125d85750916125d0916125d594930492612361565b612361565b90565b80634e487b7160e01b602492526012600452fd5b5050505050505190565b505050505050905090565b50505050505091505090565b50505050600090565b505050600090565b906001600160a01b0361263182846123df565b9116916000928084526008602052604084208285526020526002604085200154831061267a57836002926040926125d596526008602052828220908252602052200154906123d2565b50505090565b602460206001600160a01b0360025416604051928380926370a0823160e01b82523060048301525afa8015610424576000906126c5575b6125d59150600d54906123d2565b506020813d6020116126f1575b816126df60209383612216565b810103126101cb576125d590516126b7565b3d91506126d2565b6001600160a01b0360005416330361270d57565b60246040517f118cdaa7000000000000000000000000000000000000000000000000000000008152336004820152fd5b60ff60005460a01c1661274c57565b60046040517fd93c0665000000000000000000000000000000000000000000000000000000008152fd5b6000198114610baf576001019056fea2646970667358221220accb6da89cb23bbf2c274e3b537f4586540cef8363c6eb6786c3cb0351c23f9664736f6c63430008180033",
          "opcodes": "PUSH1 0x80 DUP1 PUSH1 0x40 MSTORE CALLVALUE PUSH3 0x425 JUMPI PUSH3 0x2EC5 DUP1 CODESIZE SUB DUP1 SWAP2 PUSH3 0x20 DUP3 DUP6 PUSH3 0x67A JUMP JUMPDEST DUP4 CODECOPY PUSH1 0x80 DUP3 DUP3 DUP2 ADD SUB SLT PUSH3 0x425 JUMPI PUSH3 0x3A DUP3 PUSH3 0x69E JUMP JUMPDEST PUSH1 0x20 DUP4 ADD MLOAD SWAP1 PUSH1 0x40 DUP5 ADD MLOAD SWAP3 PUSH1 0x60 DUP6 ADD MLOAD SWAP5 PUSH1 0x1 DUP1 PUSH1 0x40 SHL SUB DUP7 GT PUSH3 0x425 JUMPI DUP2 DUP2 ADD PUSH1 0x1F DUP8 DUP4 ADD ADD SLT ISZERO PUSH3 0x425 JUMPI DUP1 DUP7 ADD MLOAD SWAP6 PUSH1 0x1 PUSH1 0x1 PUSH1 0x40 SHL SUB DUP8 GT PUSH3 0x3C6 JUMPI DUP7 PUSH1 0x5 SHL SWAP1 PUSH1 0x40 MLOAD SWAP8 PUSH3 0x96 PUSH1 0x20 DUP5 ADD DUP11 PUSH3 0x67A JUMP JUMPDEST DUP9 MSTORE PUSH1 0x20 DUP9 ADD SWAP1 DUP5 DUP5 ADD PUSH1 0x20 DUP5 DUP4 DUP8 ADD ADD ADD GT PUSH3 0x425 JUMPI PUSH1 0x20 DUP2 DUP6 ADD ADD SWAP2 JUMPDEST PUSH1 0x20 DUP5 DUP4 DUP8 ADD ADD ADD DUP4 LT PUSH3 0x47D JUMPI POP POP POP POP POP POP CALLER ISZERO PUSH3 0x464 JUMPI PUSH1 0x20 PUSH1 0x4 SWAP2 PUSH1 0x0 SLOAD CALLER PUSH1 0x1 DUP1 PUSH1 0xA0 SHL SUB DUP3 AND PUSH32 0x8BE0079C531659141344CD1FD0A4F28419497F9722A3DAAFE3B4186F6B6457E0 PUSH1 0x0 DUP1 LOG3 PUSH1 0x1 PUSH1 0x1 PUSH1 0xA8 SHL SUB NOT AND CALLER PUSH1 0xFF PUSH1 0xA0 SHL NOT AND OR PUSH1 0x0 SSTORE PUSH1 0x3 SLOAD PUSH3 0x12D SWAP1 PUSH3 0x6B3 JUMP JUMPDEST PUSH1 0x1F DUP2 GT PUSH3 0x43F JUMPI JUMPDEST POP PUSH32 0x5371756967676C652053616C6520436F6E74726163740000000000000000002C PUSH1 0x3 SSTORE PUSH1 0xA DUP1 SLOAD PUSH1 0x1 PUSH1 0x1 PUSH1 0xA0 SHL SUB NOT AND PUSH1 0x1 PUSH1 0x1 PUSH1 0xA0 SHL SUB SWAP3 SWAP1 SWAP3 AND SWAP2 DUP3 OR SWAP1 SSTORE PUSH1 0x40 MLOAD PUSH4 0xC45A0155 PUSH1 0xE0 SHL DUP2 MSTORE SWAP3 DUP4 SWAP2 DUP3 SWAP1 GAS STATICCALL SWAP1 DUP2 ISZERO PUSH3 0x433 JUMPI PUSH1 0x0 SWAP2 PUSH3 0x3EC JUMPI JUMPDEST POP PUSH1 0x9 DUP1 SLOAD PUSH1 0x1 PUSH1 0x1 PUSH1 0xA0 SHL SUB NOT AND PUSH1 0x1 PUSH1 0x1 PUSH1 0xA0 SHL SUB SWAP3 SWAP1 SWAP3 AND SWAP2 SWAP1 SWAP2 OR SWAP1 SSTORE PUSH1 0xC SSTORE PUSH1 0xE SSTORE PUSH1 0x0 JUMPDEST DUP2 MLOAD DUP2 LT ISZERO PUSH3 0x3DC JUMPI PUSH1 0x20 DUP2 PUSH1 0x5 SHL DUP4 ADD ADD MLOAD SWAP1 PUSH1 0x7 SLOAD PUSH1 0x0 MSTORE PUSH1 0x5 PUSH1 0x20 MSTORE PUSH1 0x40 PUSH1 0x0 KECCAK256 DUP3 MLOAD DUP1 MLOAD SWAP1 PUSH1 0x1 DUP1 PUSH1 0x40 SHL SUB DUP3 GT PUSH3 0x3C6 JUMPI DUP2 SWAP1 PUSH3 0x210 DUP5 SLOAD PUSH3 0x6B3 JUMP JUMPDEST PUSH1 0x1F DUP2 GT PUSH3 0x384 JUMPI JUMPDEST POP PUSH1 0x20 SWAP1 PUSH1 0x1F DUP4 GT PUSH1 0x1 EQ PUSH3 0x31A JUMPI PUSH1 0x0 SWAP3 PUSH3 0x30E JUMPI JUMPDEST POP POP DUP2 PUSH1 0x1 SHL SWAP2 PUSH1 0x0 NOT SWAP1 PUSH1 0x3 SHL SHR NOT AND OR DUP2 SSTORE JUMPDEST PUSH1 0xE PUSH2 0x1C0 PUSH1 0x1 SWAP5 PUSH1 0x20 DUP2 ADD MLOAD DUP7 DUP6 ADD SSTORE PUSH1 0x40 DUP2 ADD MLOAD PUSH1 0x2 DUP6 ADD SSTORE PUSH1 0x60 DUP2 ADD MLOAD PUSH1 0x3 DUP6 ADD SSTORE PUSH1 0x80 DUP2 ADD MLOAD PUSH1 0x4 DUP6 ADD SSTORE PUSH1 0xA0 DUP2 ADD MLOAD PUSH1 0x5 DUP6 ADD SSTORE PUSH1 0xC0 DUP2 ADD MLOAD PUSH1 0x6 DUP6 ADD SSTORE PUSH1 0xE0 DUP2 ADD MLOAD PUSH1 0x7 DUP6 ADD SSTORE PUSH2 0x100 DUP2 ADD MLOAD PUSH1 0x8 DUP6 ADD SSTORE PUSH2 0x120 DUP2 ADD MLOAD PUSH1 0x9 DUP6 ADD SSTORE PUSH2 0x140 DUP2 ADD MLOAD PUSH1 0xA DUP6 ADD SSTORE PUSH2 0x160 DUP2 ADD MLOAD PUSH1 0xB DUP6 ADD SSTORE PUSH2 0x180 DUP2 ADD MLOAD PUSH1 0xC DUP6 ADD SSTORE PUSH2 0x1A0 DUP2 ADD MLOAD PUSH1 0xD DUP6 ADD SSTORE ADD MLOAD SWAP2 ADD SSTORE PUSH1 0x7 SLOAD SWAP2 PUSH1 0x0 NOT DUP4 EQ PUSH3 0x2F8 JUMPI PUSH1 0x1 SWAP3 ADD PUSH1 0x7 SSTORE ADD PUSH3 0x1CA JUMP JUMPDEST PUSH4 0x4E487B71 PUSH1 0xE0 SHL PUSH1 0x0 MSTORE PUSH1 0x11 PUSH1 0x4 MSTORE PUSH1 0x24 PUSH1 0x0 REVERT JUMPDEST ADD MLOAD SWAP1 POP CODESIZE DUP1 PUSH3 0x233 JUMP JUMPDEST PUSH1 0x0 DUP6 DUP2 MSTORE PUSH1 0x20 DUP2 KECCAK256 SWAP4 POP JUMPDEST PUSH1 0x1F NOT DUP6 AND DUP2 LT PUSH3 0x36B JUMPI POP DUP4 PUSH1 0x1F NOT DUP2 AND LT PUSH3 0x351 JUMPI JUMPDEST POP POP POP PUSH1 0x1 SWAP1 DUP2 SHL ADD DUP2 SSTORE PUSH3 0x248 JUMP JUMPDEST ADD MLOAD PUSH1 0x0 NOT PUSH1 0xF8 DUP5 PUSH1 0x3 SHL AND SHR NOT AND SWAP1 SSTORE CODESIZE DUP1 DUP1 PUSH3 0x340 JUMP JUMPDEST SWAP2 SWAP3 PUSH1 0x20 PUSH1 0x1 DUP2 SWAP3 DUP7 DUP6 ADD MLOAD DUP2 SSTORE ADD SWAP5 ADD SWAP3 ADD PUSH3 0x326 JUMP JUMPDEST PUSH3 0x3B4 SWAP1 DUP6 PUSH1 0x0 MSTORE PUSH1 0x20 PUSH1 0x0 KECCAK256 PUSH1 0x1F DUP6 ADD PUSH1 0x5 SHR DUP2 ADD SWAP2 PUSH1 0x20 DUP7 LT PUSH3 0x3BB JUMPI JUMPDEST PUSH1 0x1F ADD PUSH1 0x5 SHR ADD SWAP1 PUSH3 0x6F0 JUMP JUMPDEST CODESIZE PUSH3 0x21A JUMP JUMPDEST SWAP1 SWAP2 POP DUP2 SWAP1 PUSH3 0x3A6 JUMP JUMPDEST PUSH4 0x4E487B71 PUSH1 0xE0 SHL PUSH1 0x0 MSTORE PUSH1 0x41 PUSH1 0x4 MSTORE PUSH1 0x24 PUSH1 0x0 REVERT JUMPDEST PUSH1 0x40 MLOAD PUSH2 0x27BB SWAP1 DUP2 PUSH3 0x70A DUP3 CODECOPY RETURN JUMPDEST SWAP1 POP PUSH1 0x20 DUP2 RETURNDATASIZE PUSH1 0x20 GT PUSH3 0x42A JUMPI JUMPDEST DUP2 PUSH3 0x40A PUSH1 0x20 SWAP4 DUP4 PUSH3 0x67A JUMP JUMPDEST DUP2 ADD SUB SLT PUSH3 0x425 JUMPI PUSH3 0x41E SWAP1 PUSH3 0x69E JUMP JUMPDEST CODESIZE PUSH3 0x1A0 JUMP JUMPDEST PUSH1 0x0 DUP1 REVERT JUMPDEST RETURNDATASIZE SWAP2 POP PUSH3 0x3FB JUMP JUMPDEST PUSH1 0x40 MLOAD RETURNDATASIZE PUSH1 0x0 DUP3 RETURNDATACOPY RETURNDATASIZE SWAP1 REVERT JUMPDEST PUSH3 0x45D SWAP1 PUSH1 0x3 PUSH1 0x0 MSTORE PUSH1 0x1F DUP5 PUSH1 0x0 KECCAK256 SWAP2 ADD PUSH1 0x5 SHR DUP2 ADD SWAP1 PUSH3 0x6F0 JUMP JUMPDEST CODESIZE PUSH3 0x137 JUMP JUMPDEST PUSH1 0x40 MLOAD PUSH4 0x1E4FBDF7 PUSH1 0xE0 SHL DUP2 MSTORE PUSH1 0x0 PUSH1 0x4 DUP3 ADD MSTORE PUSH1 0x24 SWAP1 REVERT JUMPDEST DUP3 MLOAD PUSH1 0x1 PUSH1 0x1 PUSH1 0x40 SHL SUB DUP2 GT PUSH3 0x425 JUMPI PUSH2 0x1E0 DUP7 DUP5 ADD DUP3 ADD DUP9 DUP9 ADD SUB PUSH1 0x1F NOT ADD SLT PUSH3 0x425 JUMPI PUSH1 0x40 MLOAD SWAP1 PUSH1 0x1 PUSH1 0x1 PUSH1 0x40 SHL SUB PUSH2 0x1E0 DUP4 ADD SWAP1 DUP2 GT SWAP1 DUP4 GT OR PUSH3 0x665 JUMPI PUSH2 0x1E0 DUP3 ADD PUSH1 0x40 MSTORE DUP7 DUP5 ADD DUP2 ADD PUSH1 0x20 ADD MLOAD PUSH1 0x1 PUSH1 0x1 PUSH1 0x40 SHL SUB DUP2 GT PUSH3 0x425 JUMPI DUP9 DUP9 ADD PUSH1 0x3F DUP3 DUP5 DUP9 DUP13 ADD ADD ADD ADD SLT ISZERO PUSH3 0x425 JUMPI DUP8 DUP6 ADD DUP3 ADD DUP2 ADD PUSH1 0x20 ADD MLOAD SWAP1 PUSH1 0x1 PUSH1 0x1 PUSH1 0x40 SHL SUB DUP3 GT PUSH3 0x665 JUMPI DUP9 PUSH1 0x40 DUP4 DUP4 DUP7 DUP11 DUP16 PUSH3 0x532 PUSH1 0x1F DUP7 ADD PUSH1 0x1F NOT AND PUSH1 0x20 ADD PUSH2 0x1E0 DUP14 ADD PUSH3 0x67A JUMP JUMPDEST DUP5 PUSH2 0x1E0 DUP13 ADD MSTORE DUP7 ADD SWAP6 ADD ADD ADD ADD ADD GT PUSH3 0x425 JUMPI DUP6 SWAP3 SWAP2 DUP10 SWAP2 PUSH1 0x0 JUMPDEST DUP3 DUP2 LT PUSH3 0x641 JUMPI POP POP PUSH1 0x0 SWAP1 DUP6 ADD PUSH2 0x200 ADD MSTORE PUSH2 0x1E0 DUP5 DUP2 ADD DUP6 MSTORE SWAP1 DUP4 ADD DUP3 ADD PUSH1 0x40 DUP2 DUP2 ADD MLOAD PUSH1 0x20 DUP8 DUP2 ADD SWAP2 SWAP1 SWAP2 MSTORE PUSH1 0x60 DUP1 DUP5 ADD MLOAD SWAP3 DUP9 ADD SWAP3 SWAP1 SWAP3 MSTORE PUSH1 0x80 SWAP3 DUP4 ADD MLOAD SWAP2 DUP8 ADD SWAP2 SWAP1 SWAP2 MSTORE SWAP4 DUP11 ADD DUP4 ADD PUSH1 0xA0 DUP2 DUP2 ADD MLOAD SWAP3 DUP8 ADD SWAP3 SWAP1 SWAP3 MSTORE PUSH1 0xC0 DUP1 DUP3 ADD MLOAD SWAP3 DUP8 ADD SWAP3 SWAP1 SWAP3 MSTORE PUSH1 0xE0 DUP1 DUP3 ADD MLOAD SWAP3 DUP8 ADD SWAP3 SWAP1 SWAP3 MSTORE PUSH2 0x100 DUP1 DUP3 ADD MLOAD SWAP3 DUP8 ADD SWAP3 SWAP1 SWAP3 MSTORE PUSH2 0x120 DUP1 DUP3 ADD MLOAD SWAP3 DUP8 ADD SWAP3 SWAP1 SWAP3 MSTORE PUSH2 0x140 DUP1 DUP3 ADD MLOAD SWAP3 DUP8 ADD SWAP3 SWAP1 SWAP3 MSTORE PUSH2 0x160 DUP1 DUP3 ADD MLOAD SWAP3 DUP8 ADD SWAP3 SWAP1 SWAP3 MSTORE PUSH2 0x180 DUP1 DUP3 ADD MLOAD SWAP3 DUP8 ADD SWAP3 SWAP1 SWAP3 MSTORE PUSH2 0x1A0 DUP1 DUP3 ADD MLOAD SWAP3 DUP8 ADD SWAP3 SWAP1 SWAP3 MSTORE PUSH2 0x1C0 SWAP1 DUP2 ADD MLOAD SWAP2 DUP7 ADD SWAP2 SWAP1 SWAP2 MSTORE DUP7 DUP11 ADD SWAP1 SWAP3 ADD ADD MLOAD SWAP1 DUP4 ADD MSTORE SWAP1 DUP3 MSTORE SWAP3 DUP4 ADD SWAP3 ADD PUSH3 0xB6 JUMP JUMPDEST SWAP5 SWAP1 SWAP3 ADD DUP4 ADD DUP3 ADD DUP5 ADD PUSH1 0x40 ADD MLOAD DUP6 DUP6 ADD PUSH2 0x200 ADD MSTORE DUP7 SWAP4 DUP11 SWAP3 SWAP1 PUSH1 0x20 ADD PUSH3 0x54F JUMP JUMPDEST PUSH1 0x24 PUSH1 0x0 PUSH4 0x4E487B71 PUSH1 0xE0 SHL DUP2 MSTORE PUSH1 0x41 PUSH1 0x4 MSTORE REVERT JUMPDEST PUSH1 0x1F SWAP1 SWAP2 ADD PUSH1 0x1F NOT AND DUP2 ADD SWAP1 PUSH1 0x1 PUSH1 0x1 PUSH1 0x40 SHL SUB DUP3 GT SWAP1 DUP3 LT OR PUSH3 0x3C6 JUMPI PUSH1 0x40 MSTORE JUMP JUMPDEST MLOAD SWAP1 PUSH1 0x1 PUSH1 0x1 PUSH1 0xA0 SHL SUB DUP3 AND DUP3 SUB PUSH3 0x425 JUMPI JUMP JUMPDEST SWAP1 PUSH1 0x1 DUP3 DUP2 SHR SWAP3 AND DUP1 ISZERO PUSH3 0x6E5 JUMPI JUMPDEST PUSH1 0x20 DUP4 LT EQ PUSH3 0x6CF JUMPI JUMP JUMPDEST PUSH4 0x4E487B71 PUSH1 0xE0 SHL PUSH1 0x0 MSTORE PUSH1 0x22 PUSH1 0x4 MSTORE PUSH1 0x24 PUSH1 0x0 REVERT JUMPDEST SWAP2 PUSH1 0x7F AND SWAP2 PUSH3 0x6C3 JUMP JUMPDEST DUP2 DUP2 LT PUSH3 0x6FC JUMPI POP POP JUMP JUMPDEST PUSH1 0x0 DUP2 SSTORE PUSH1 0x1 ADD PUSH3 0x6F0 JUMP INVALID PUSH1 0x80 PUSH1 0x40 MSTORE PUSH1 0x4 CALLDATASIZE LT ISZERO PUSH2 0x12 JUMPI PUSH1 0x0 DUP1 REVERT JUMPDEST PUSH1 0x0 CALLDATALOAD PUSH1 0xE0 SHR DUP1 PUSH4 0x39AF9EB EQ PUSH2 0x20C1 JUMPI DUP1 PUSH4 0x5F2770C EQ PUSH2 0x209A JUMPI DUP1 PUSH4 0x6FDDE03 EQ PUSH2 0x1FB3 JUMPI DUP1 PUSH4 0x144FA6D7 EQ PUSH2 0x1F73 JUMPI DUP1 PUSH4 0x1AFD1A4B EQ PUSH2 0x1F39 JUMPI DUP1 PUSH4 0x24702944 EQ PUSH2 0x1F12 JUMPI DUP1 PUSH4 0x25E16063 EQ PUSH2 0x1EC4 JUMPI DUP1 PUSH4 0x260EDAAA EQ PUSH2 0x1EA9 JUMPI DUP1 PUSH4 0x3163E3A8 EQ PUSH2 0x1E8B JUMPI DUP1 PUSH4 0x3DD6D533 EQ PUSH2 0x1E17 JUMPI DUP1 PUSH4 0x3E6C5311 EQ PUSH2 0x1DF1 JUMPI DUP1 PUSH4 0x43CD8F7E EQ PUSH2 0x1DD3 JUMPI DUP1 PUSH4 0x4A2BFC8B EQ PUSH2 0x1D64 JUMPI DUP1 PUSH4 0x4E71D92D EQ PUSH2 0x1ADE JUMPI DUP1 PUSH4 0x4F062C5A EQ PUSH2 0x18EA JUMPI DUP1 PUSH4 0x50C1B923 EQ PUSH2 0x18AA JUMPI DUP1 PUSH4 0x52A87C6B EQ PUSH2 0x182F JUMPI DUP1 PUSH4 0x5A849419 EQ PUSH2 0x17BB JUMPI DUP1 PUSH4 0x5C975ABB EQ PUSH2 0x1795 JUMPI DUP1 PUSH4 0x715018A6 EQ PUSH2 0x173C JUMPI DUP1 PUSH4 0x719BA034 EQ PUSH2 0x16B9 JUMPI DUP1 PUSH4 0x739656DB EQ PUSH2 0x157B JUMPI DUP1 PUSH4 0x808A5457 EQ PUSH2 0x1554 JUMPI DUP1 PUSH4 0x8A0BEAA1 EQ PUSH2 0x1536 JUMPI DUP1 PUSH4 0x8DA5CB5B EQ PUSH2 0x150F JUMPI DUP1 PUSH4 0x8DE93222 EQ PUSH2 0x5CE JUMPI DUP1 PUSH4 0x9943D6EC EQ PUSH2 0x578 JUMPI DUP1 PUSH4 0xB0904882 EQ PUSH2 0x492 JUMPI DUP1 PUSH4 0xB0CD390E EQ PUSH2 0x474 JUMPI DUP1 PUSH4 0xB69EF8A8 EQ PUSH2 0x344 JUMPI DUP1 PUSH4 0xCDAC5F7C EQ PUSH2 0x326 JUMPI DUP1 PUSH4 0xD679677A EQ PUSH2 0x308 JUMPI DUP1 PUSH4 0xD72B9DA2 EQ PUSH2 0x295 JUMPI DUP1 PUSH4 0xF2FDE38B EQ PUSH2 0x1F6 JUMPI DUP1 PUSH4 0xF311DF8E EQ PUSH2 0x1D0 JUMPI PUSH4 0xFAB14B36 EQ PUSH2 0x1A8 JUMPI PUSH1 0x0 DUP1 REVERT JUMPDEST CALLVALUE PUSH2 0x1CB JUMPI PUSH1 0x0 CALLDATASIZE PUSH1 0x3 NOT ADD SLT PUSH2 0x1CB JUMPI PUSH1 0x20 PUSH2 0x1C3 PUSH2 0x2680 JUMP JUMPDEST PUSH1 0x40 MLOAD SWAP1 DUP2 MSTORE RETURN JUMPDEST PUSH1 0x0 DUP1 REVERT JUMPDEST CALLVALUE PUSH2 0x1CB JUMPI PUSH1 0x40 CALLDATASIZE PUSH1 0x3 NOT ADD SLT PUSH2 0x1CB JUMPI PUSH1 0x20 PUSH2 0x1C3 PUSH2 0x1EE PUSH2 0x2333 JUMP JUMPDEST PUSH1 0x4 CALLDATALOAD PUSH2 0x261E JUMP JUMPDEST CALLVALUE PUSH2 0x1CB JUMPI PUSH1 0x20 CALLDATASIZE PUSH1 0x3 NOT ADD SLT PUSH2 0x1CB JUMPI PUSH2 0x20F PUSH2 0x231D JUMP JUMPDEST PUSH2 0x217 PUSH2 0x26F9 JUMP JUMPDEST PUSH1 0x1 PUSH1 0x1 PUSH1 0xA0 SHL SUB DUP1 SWAP2 AND SWAP1 DUP2 ISZERO PUSH2 0x264 JUMPI PUSH1 0x0 SLOAD DUP3 PUSH1 0x1 PUSH1 0x1 PUSH1 0xA0 SHL SUB NOT DUP3 AND OR PUSH1 0x0 SSTORE AND PUSH32 0x8BE0079C531659141344CD1FD0A4F28419497F9722A3DAAFE3B4186F6B6457E0 PUSH1 0x0 DUP1 LOG3 STOP JUMPDEST PUSH1 0x24 PUSH1 0x40 MLOAD PUSH32 0x1E4FBDF700000000000000000000000000000000000000000000000000000000 DUP2 MSTORE PUSH1 0x0 PUSH1 0x4 DUP3 ADD MSTORE REVERT JUMPDEST CALLVALUE PUSH2 0x1CB JUMPI PUSH1 0x20 DUP1 PUSH1 0x3 NOT CALLDATASIZE ADD SLT PUSH2 0x1CB JUMPI PUSH2 0x2AF PUSH2 0x231D JUMP JUMPDEST PUSH1 0x7 SLOAD PUSH1 0x0 SWAP3 DUP4 SWAP3 PUSH1 0x1 PUSH1 0x1 PUSH1 0xA0 SHL SUB AND JUMPDEST DUP3 DUP6 LT PUSH2 0x2D3 JUMPI PUSH1 0x20 DUP5 PUSH1 0x40 MLOAD SWAP1 DUP2 MSTORE RETURN JUMPDEST SWAP1 SWAP2 SWAP3 PUSH2 0x2FD PUSH1 0x1 SWAP2 DUP4 PUSH1 0x0 MSTORE PUSH1 0x8 DUP6 MSTORE PUSH1 0x40 PUSH1 0x0 KECCAK256 DUP8 PUSH1 0x0 MSTORE DUP6 MSTORE DUP3 PUSH1 0x40 PUSH1 0x0 KECCAK256 ADD SLOAD SWAP1 PUSH2 0x2361 JUMP JUMPDEST SWAP5 ADD SWAP4 SWAP3 SWAP2 SWAP1 PUSH2 0x2C1 JUMP JUMPDEST CALLVALUE PUSH2 0x1CB JUMPI PUSH1 0x0 CALLDATASIZE PUSH1 0x3 NOT ADD SLT PUSH2 0x1CB JUMPI PUSH1 0x20 PUSH1 0x6 SLOAD PUSH1 0x40 MLOAD SWAP1 DUP2 MSTORE RETURN JUMPDEST CALLVALUE PUSH2 0x1CB JUMPI PUSH1 0x0 CALLDATASIZE PUSH1 0x3 NOT ADD SLT PUSH2 0x1CB JUMPI PUSH1 0x20 PUSH1 0xD SLOAD PUSH1 0x40 MLOAD SWAP1 DUP2 MSTORE RETURN JUMPDEST CALLVALUE PUSH2 0x1CB JUMPI PUSH1 0x0 CALLDATASIZE PUSH1 0x3 NOT ADD SLT PUSH2 0x1CB JUMPI PUSH1 0x1 PUSH1 0x1 PUSH1 0x1 PUSH1 0xA0 SHL SUB PUSH1 0x1 SLOAD AND SWAP1 DUP2 ISZERO PUSH2 0x430 JUMPI PUSH1 0x40 MLOAD DUP1 SWAP3 PUSH4 0x70A08231 PUSH1 0xE0 SHL DUP3 MSTORE ADDRESS PUSH1 0x4 DUP4 ADD MSTORE DUP2 PUSH1 0x24 PUSH1 0x20 SWAP6 DUP7 SWAP4 GAS STATICCALL DUP1 ISZERO PUSH2 0x424 JUMPI PUSH1 0x0 SWAP1 PUSH2 0x3F5 JUMPI JUMPDEST PUSH2 0x3A5 SWAP2 POP PUSH1 0xE SLOAD SWAP1 PUSH2 0x23D2 JUMP JUMPDEST SWAP1 PUSH1 0x0 SWAP1 PUSH1 0x7 SLOAD JUMPDEST DUP1 DUP4 LT PUSH2 0x3BF JUMPI POP POP POP PUSH1 0x40 MLOAD SWAP1 DUP2 MSTORE RETURN JUMPDEST SWAP1 PUSH2 0x3EC DUP4 SWAP5 DUP3 SWAP5 PUSH1 0x0 MSTORE PUSH1 0x5 DUP8 MSTORE PUSH2 0x3E6 PUSH1 0x40 PUSH1 0x0 KECCAK256 PUSH1 0x8 PUSH1 0x4 DUP3 ADD SLOAD SWAP2 ADD SLOAD SWAP1 PUSH2 0x23D2 JUMP JUMPDEST SWAP1 PUSH2 0x23D2 JUMP JUMPDEST SWAP4 ADD SWAP2 SWAP1 PUSH2 0x3AD JUMP JUMPDEST POP DUP3 DUP2 DUP2 RETURNDATASIZE DUP4 GT PUSH2 0x41D JUMPI JUMPDEST PUSH2 0x40B DUP2 DUP4 PUSH2 0x2216 JUMP JUMPDEST DUP2 ADD SUB SLT PUSH2 0x1CB JUMPI PUSH2 0x3A5 SWAP1 MLOAD PUSH2 0x397 JUMP JUMPDEST POP RETURNDATASIZE PUSH2 0x401 JUMP JUMPDEST PUSH1 0x40 MLOAD RETURNDATASIZE PUSH1 0x0 DUP3 RETURNDATACOPY RETURNDATASIZE SWAP1 REVERT JUMPDEST PUSH1 0x64 PUSH1 0x40 MLOAD PUSH3 0x461BCD PUSH1 0xE5 SHL DUP2 MSTORE PUSH1 0x20 PUSH1 0x4 DUP3 ADD MSTORE PUSH1 0x16 PUSH1 0x24 DUP3 ADD MSTORE PUSH32 0x746F6B656E20686173206E6F74206265656E2073657400000000000000000000 PUSH1 0x44 DUP3 ADD MSTORE REVERT JUMPDEST CALLVALUE PUSH2 0x1CB JUMPI PUSH1 0x0 CALLDATASIZE PUSH1 0x3 NOT ADD SLT PUSH2 0x1CB JUMPI PUSH1 0x20 PUSH1 0x7 SLOAD PUSH1 0x40 MLOAD SWAP1 DUP2 MSTORE RETURN JUMPDEST CALLVALUE PUSH2 0x1CB JUMPI PUSH1 0x40 CALLDATASIZE PUSH1 0x3 NOT ADD SLT PUSH2 0x1CB JUMPI PUSH1 0xC0 PUSH2 0x4AD PUSH2 0x231D JUMP JUMPDEST PUSH1 0x0 PUSH1 0xA0 PUSH1 0x40 MLOAD PUSH2 0x4BD DUP2 PUSH2 0x21DD JUMP JUMPDEST DUP3 DUP2 MSTORE DUP3 PUSH1 0x20 DUP3 ADD MSTORE DUP3 PUSH1 0x40 DUP3 ADD MSTORE DUP3 PUSH1 0x60 DUP3 ADD MSTORE DUP3 PUSH1 0x80 DUP3 ADD MSTORE ADD MSTORE PUSH1 0x1 PUSH1 0x1 PUSH1 0xA0 SHL SUB DUP1 SWAP2 AND PUSH1 0x0 MSTORE PUSH1 0x8 PUSH1 0x20 MSTORE PUSH1 0x40 PUSH1 0x0 KECCAK256 PUSH1 0x24 CALLDATALOAD PUSH1 0x0 MSTORE PUSH1 0x20 MSTORE PUSH1 0x40 PUSH1 0x0 KECCAK256 SWAP1 PUSH1 0x40 MLOAD SWAP1 PUSH2 0x50E DUP3 PUSH2 0x21DD JUMP JUMPDEST DUP3 SLOAD AND SWAP2 DUP3 DUP3 MSTORE PUSH1 0x1 DUP2 ADD SLOAD PUSH1 0x20 DUP4 ADD SWAP1 DUP2 MSTORE PUSH1 0x2 DUP3 ADD SLOAD PUSH1 0x40 DUP5 ADD SWAP1 DUP2 MSTORE PUSH1 0x3 DUP4 ADD SLOAD SWAP2 PUSH1 0x60 DUP6 ADD SWAP3 DUP4 MSTORE PUSH1 0xA0 PUSH1 0x5 PUSH1 0x4 DUP7 ADD SLOAD SWAP6 PUSH1 0x80 DUP9 ADD SWAP7 DUP8 MSTORE ADD SLOAD SWAP6 ADD SWAP5 DUP6 MSTORE PUSH1 0x40 MLOAD SWAP6 DUP7 MSTORE MLOAD PUSH1 0x20 DUP7 ADD MSTORE MLOAD PUSH1 0x40 DUP6 ADD MSTORE MLOAD PUSH1 0x60 DUP5 ADD MSTORE MLOAD PUSH1 0x80 DUP4 ADD MSTORE MLOAD PUSH1 0xA0 DUP3 ADD MSTORE RETURN JUMPDEST CALLVALUE PUSH2 0x1CB JUMPI PUSH1 0x20 CALLDATASIZE PUSH1 0x3 NOT ADD SLT PUSH2 0x1CB JUMPI PUSH2 0x591 PUSH2 0x231D JUMP JUMPDEST PUSH1 0x0 DUP1 SWAP2 PUSH1 0x7 SLOAD SWAP1 JUMPDEST DUP2 DUP5 LT PUSH2 0x5AC JUMPI PUSH1 0x20 DUP4 PUSH1 0x40 MLOAD SWAP1 DUP2 MSTORE RETURN JUMPDEST SWAP1 SWAP2 PUSH2 0x5C4 PUSH1 0x1 SWAP2 PUSH2 0x5BE DUP5 DUP8 PUSH2 0x261E JUMP JUMPDEST SWAP1 PUSH2 0x2361 JUMP JUMPDEST SWAP4 ADD SWAP3 SWAP2 SWAP1 PUSH2 0x59A JUMP JUMPDEST CALLVALUE PUSH2 0x1CB JUMPI PUSH1 0x40 CALLDATASIZE PUSH1 0x3 NOT ADD SLT PUSH2 0x1CB JUMPI PUSH2 0x5E7 PUSH2 0x231D JUMP JUMPDEST PUSH2 0x5EF PUSH2 0x273D JUMP JUMPDEST PUSH1 0x6 SLOAD SWAP1 DUP2 PUSH1 0x0 MSTORE PUSH1 0x5 PUSH1 0x20 MSTORE PUSH1 0x40 PUSH1 0x0 KECCAK256 SWAP2 PUSH1 0x40 MLOAD SWAP3 PUSH2 0x60F DUP5 PUSH2 0x21F9 JUMP JUMPDEST PUSH2 0x618 DUP2 PUSH2 0x2238 JUMP JUMPDEST DUP5 MSTORE PUSH1 0x1 DUP2 ADD SLOAD PUSH1 0x20 DUP6 ADD MSTORE PUSH1 0x2 DUP2 ADD SLOAD DUP1 PUSH1 0x40 DUP7 ADD MSTORE PUSH1 0x3 DUP3 ADD SLOAD PUSH1 0x60 DUP7 ADD MSTORE PUSH1 0x4 DUP3 ADD SLOAD PUSH1 0x80 DUP7 ADD MSTORE PUSH1 0xE PUSH1 0x5 DUP4 ADD SLOAD SWAP3 DUP4 PUSH1 0xA0 DUP9 ADD MSTORE PUSH1 0x6 DUP2 ADD SLOAD PUSH1 0xC0 DUP9 ADD MSTORE PUSH1 0x7 DUP2 ADD SLOAD PUSH1 0xE0 DUP9 ADD MSTORE PUSH1 0x8 DUP2 ADD SLOAD PUSH2 0x100 DUP9 ADD MSTORE PUSH1 0x9 DUP2 ADD SLOAD PUSH2 0x120 DUP9 ADD MSTORE PUSH1 0xA DUP2 ADD SLOAD PUSH2 0x140 DUP9 ADD MSTORE PUSH1 0xB DUP2 ADD SLOAD PUSH2 0x160 DUP9 ADD MSTORE PUSH1 0xC DUP2 ADD SLOAD PUSH2 0x180 DUP9 ADD MSTORE PUSH1 0xD DUP2 ADD SLOAD PUSH2 0x1A0 DUP9 ADD MSTORE ADD SLOAD PUSH2 0x1C0 DUP7 ADD MSTORE TIMESTAMP LT PUSH2 0x14CB JUMPI PUSH1 0x4 SLOAD PUSH2 0x1487 JUMPI PUSH1 0x1 PUSH1 0x1 PUSH1 0xA0 SHL SUB PUSH1 0x2 SLOAD AND SWAP1 DUP2 ISZERO PUSH2 0x1443 JUMPI PUSH1 0x24 CALLDATALOAD GT PUSH2 0x13D9 JUMPI PUSH1 0x1 PUSH1 0x1 PUSH1 0xA0 SHL SUB DUP4 AND ISZERO SWAP2 DUP3 ISZERO SWAP3 DUP4 PUSH2 0x13C6 JUMPI JUMPDEST ISZERO PUSH2 0x1382 JUMPI PUSH1 0x40 MLOAD PUSH32 0xDD62ED3E00000000000000000000000000000000000000000000000000000000 DUP2 MSTORE CALLER PUSH1 0x4 DUP3 ADD MSTORE ADDRESS PUSH1 0x24 DUP3 ADD MSTORE PUSH1 0x20 DUP2 PUSH1 0x44 DUP2 DUP7 GAS STATICCALL SWAP1 DUP2 ISZERO PUSH2 0x424 JUMPI PUSH1 0x0 SWAP2 PUSH2 0x1350 JUMPI JUMPDEST POP PUSH8 0xDE0B6B3A7640000 PUSH2 0x755 PUSH1 0x60 DUP9 ADD MLOAD PUSH1 0x24 CALLDATALOAD PUSH2 0x23BF JUMP JUMPDEST DIV GT PUSH2 0x12E6 JUMPI CALLER PUSH1 0x0 MSTORE PUSH1 0x8 PUSH1 0x20 MSTORE PUSH1 0x40 PUSH1 0x0 KECCAK256 SWAP1 PUSH1 0x0 MSTORE PUSH1 0x20 MSTORE PUSH1 0x40 PUSH1 0x0 KECCAK256 SWAP1 PUSH2 0x7CF PUSH1 0x40 MLOAD SWAP3 PUSH2 0x786 DUP5 PUSH2 0x21DD JUMP JUMPDEST PUSH1 0x1 PUSH1 0x1 PUSH1 0xA0 SHL SUB DUP2 SLOAD AND DUP5 MSTORE PUSH1 0x5 PUSH1 0x1 DUP3 ADD SLOAD SWAP2 DUP3 PUSH1 0x20 DUP8 ADD MSTORE PUSH1 0x2 DUP2 ADD SLOAD PUSH1 0x40 DUP8 ADD MSTORE PUSH1 0x3 DUP2 ADD SLOAD PUSH1 0x60 DUP8 ADD MSTORE PUSH1 0x4 DUP2 ADD SLOAD PUSH1 0x80 DUP8 ADD MSTORE ADD SLOAD PUSH1 0xA0 DUP6 ADD MSTORE PUSH1 0x24 CALLDATALOAD SWAP1 PUSH2 0x2361 JUMP JUMPDEST PUSH1 0xE0 DUP7 ADD MLOAD LT PUSH2 0x127C JUMPI PUSH2 0x7E9 PUSH1 0x24 CALLDATALOAD PUSH1 0x20 DUP5 ADD MLOAD PUSH2 0x2361 JUMP JUMPDEST PUSH1 0xC0 DUP7 ADD MLOAD GT PUSH2 0x1212 JUMPI PUSH1 0x1 PUSH1 0x1 PUSH1 0xA0 SHL SUB DUP3 MLOAD AND ISZERO PUSH2 0x1203 JUMPI JUMPDEST PUSH1 0x0 PUSH1 0x20 PUSH8 0xDE0B6B3A7640000 PUSH2 0x821 PUSH1 0x60 DUP10 ADD MLOAD PUSH1 0x24 CALLDATALOAD PUSH2 0x23BF JUMP JUMPDEST DIV SWAP3 PUSH1 0x64 PUSH1 0x40 MLOAD DUP1 SWAP5 DUP2 SWAP4 PUSH32 0x23B872DD00000000000000000000000000000000000000000000000000000000 DUP4 MSTORE CALLER PUSH1 0x4 DUP5 ADD MSTORE ADDRESS PUSH1 0x24 DUP5 ADD MSTORE DUP8 PUSH1 0x44 DUP5 ADD MSTORE GAS CALL SWAP1 DUP2 ISZERO PUSH2 0x424 JUMPI PUSH1 0x0 SWAP2 PUSH2 0x11E4 JUMPI JUMPDEST POP ISZERO PUSH2 0x11A0 JUMPI PUSH3 0xF4240 PUSH2 0x8D0 PUSH2 0x8D9 SWAP3 PUSH1 0x0 PUSH1 0xA0 DUP7 ADD MSTORE PUSH2 0x89A PUSH1 0x24 CALLDATALOAD PUSH1 0x20 DUP8 ADD MLOAD PUSH2 0x2361 JUMP JUMPDEST PUSH1 0x20 DUP7 ADD MSTORE PUSH2 0x8AD DUP2 PUSH1 0x60 DUP8 ADD MLOAD PUSH2 0x2361 JUMP JUMPDEST PUSH1 0x60 DUP7 ADD MSTORE PUSH2 0x8C2 PUSH1 0x24 CALLDATALOAD PUSH1 0xA0 DUP11 ADD MLOAD PUSH2 0x23D2 JUMP JUMPDEST PUSH1 0xA0 DUP10 ADD MSTORE PUSH1 0xC SLOAD SWAP1 PUSH2 0x23BF JUMP JUMPDEST DIV PUSH1 0xD SLOAD PUSH2 0x2361 JUMP JUMPDEST PUSH1 0xD SSTORE CALLER PUSH1 0x0 MSTORE PUSH1 0x8 PUSH1 0x20 MSTORE PUSH1 0x40 PUSH1 0x0 KECCAK256 PUSH1 0x6 SLOAD PUSH1 0x0 MSTORE PUSH1 0x20 MSTORE PUSH1 0x5 PUSH1 0xA0 PUSH1 0x40 PUSH1 0x0 KECCAK256 SWAP3 PUSH1 0x1 PUSH1 0x1 PUSH1 0xA0 SHL SUB DUP2 MLOAD AND PUSH1 0x1 PUSH1 0x1 PUSH1 0xA0 SHL SUB NOT DUP6 SLOAD AND OR DUP5 SSTORE PUSH1 0x20 DUP2 ADD MLOAD PUSH1 0x1 DUP6 ADD SSTORE PUSH1 0x40 DUP2 ADD MLOAD PUSH1 0x2 DUP6 ADD SSTORE PUSH1 0x60 DUP2 ADD MLOAD PUSH1 0x3 DUP6 ADD SSTORE PUSH1 0x80 DUP2 ADD MLOAD PUSH1 0x4 DUP6 ADD SSTORE ADD MLOAD SWAP2 ADD SSTORE PUSH2 0x1006 JUMPI JUMPDEST POP PUSH1 0x6 SLOAD PUSH1 0x0 MSTORE PUSH1 0x5 PUSH1 0x20 MSTORE PUSH1 0x40 PUSH1 0x0 KECCAK256 SWAP1 DUP1 MLOAD SWAP2 DUP3 MLOAD PUSH8 0xFFFFFFFFFFFFFFFF DUP2 GT PUSH2 0xFF0 JUMPI PUSH2 0x979 DUP3 SLOAD PUSH2 0x21A3 JUMP JUMPDEST PUSH1 0x1F DUP2 GT PUSH2 0xFAC JUMPI JUMPDEST POP PUSH1 0x20 PUSH1 0x1F DUP3 GT PUSH1 0x1 EQ PUSH2 0xF44 JUMPI DUP2 SWAP3 SWAP4 SWAP5 PUSH1 0x0 SWAP3 PUSH2 0xF39 JUMPI JUMPDEST POP POP DUP2 PUSH1 0x1 SHL SWAP2 PUSH1 0x0 NOT SWAP1 PUSH1 0x3 SHL SHR NOT AND OR DUP2 SSTORE JUMPDEST PUSH1 0x20 DUP3 ADD MLOAD PUSH1 0x1 DUP3 ADD SSTORE PUSH1 0x40 DUP3 ADD MLOAD PUSH1 0x2 DUP3 ADD SSTORE PUSH1 0x60 DUP3 ADD MLOAD PUSH1 0x3 DUP3 ADD SSTORE PUSH1 0x80 DUP3 ADD MLOAD PUSH1 0x4 DUP3 ADD SSTORE PUSH1 0xA0 DUP3 ADD MLOAD PUSH1 0x5 DUP3 ADD SSTORE PUSH1 0xC0 DUP3 ADD MLOAD PUSH1 0x6 DUP3 ADD SSTORE PUSH1 0xE0 DUP3 ADD MLOAD PUSH1 0x7 DUP3 ADD SSTORE PUSH2 0x100 DUP3 ADD MLOAD PUSH1 0x8 DUP3 ADD SSTORE PUSH2 0x120 DUP3 ADD MLOAD PUSH1 0x9 DUP3 ADD SSTORE PUSH2 0x140 DUP3 ADD MLOAD PUSH1 0xA DUP3 ADD SSTORE PUSH2 0x160 DUP3 ADD MLOAD PUSH1 0xB DUP3 ADD SSTORE PUSH2 0x180 DUP3 ADD MLOAD PUSH1 0xC DUP3 ADD SSTORE PUSH2 0x1A0 DUP3 ADD MLOAD PUSH1 0xD DUP3 ADD SSTORE PUSH1 0xE PUSH2 0x1C0 DUP4 ADD MLOAD SWAP2 ADD SSTORE PUSH1 0x6 SLOAD SWAP1 PUSH32 0xF761777482B4B40D2BCC0D050CFBA6829900A2D8B3484BD0244EC0FEEB3DB504 PUSH1 0x40 MLOAD DUP1 PUSH2 0xA95 PUSH1 0x24 CALLDATALOAD DUP7 CALLER DUP5 PUSH1 0x40 SWAP2 SWAP5 SWAP4 SWAP3 PUSH1 0x1 PUSH1 0x1 PUSH1 0xA0 SHL SUB PUSH1 0x60 DUP4 ADD SWAP7 AND DUP3 MSTORE PUSH1 0x20 DUP3 ADD MSTORE ADD MSTORE JUMP JUMPDEST SUB SWAP1 LOG1 PUSH1 0xC0 PUSH1 0xA0 DUP3 ADD MLOAD SWAP2 ADD MLOAD LT ISZERO PUSH2 0xAAA JUMPI STOP JUMPDEST PUSH2 0xAB2 PUSH2 0x273D JUMP JUMPDEST PUSH1 0x1 DUP2 ADD DUP1 DUP3 GT PUSH2 0xBAF JUMPI PUSH1 0x7 SLOAD GT ISZERO PUSH2 0xBC5 JUMPI POP PUSH1 0x6 SLOAD DUP1 PUSH1 0x0 MSTORE PUSH1 0x5 PUSH1 0x20 MSTORE PUSH2 0xAE5 PUSH1 0x1 PUSH1 0x40 PUSH1 0x0 KECCAK256 ADD SLOAD TIMESTAMP PUSH2 0x2361 JUMP JUMPDEST SWAP1 PUSH1 0x1 DUP2 ADD DUP1 SWAP2 GT PUSH2 0xBAF JUMPI PUSH1 0x0 MSTORE PUSH1 0x5 PUSH1 0x20 MSTORE PUSH1 0x2 PUSH1 0x40 PUSH1 0x0 KECCAK256 ADD SSTORE PUSH1 0x6 SLOAD DUP1 PUSH1 0x0 MSTORE PUSH1 0x5 PUSH1 0x40 PUSH1 0x0 KECCAK256 ADD SLOAD SWAP1 PUSH1 0x1 DUP2 ADD DUP1 SWAP2 GT PUSH2 0xBAF JUMPI PUSH1 0x0 MSTORE PUSH1 0x5 PUSH1 0x20 MSTORE PUSH2 0xB39 PUSH1 0x4 PUSH1 0x40 PUSH1 0x0 KECCAK256 ADD SWAP2 DUP3 SLOAD PUSH2 0x2361 JUMP JUMPDEST SWAP1 SSTORE PUSH1 0x6 SLOAD PUSH1 0x0 MSTORE PUSH1 0x5 PUSH1 0x20 MSTORE PUSH1 0x0 PUSH1 0x5 PUSH1 0x40 DUP3 KECCAK256 ADD SSTORE PUSH1 0x6 SLOAD DUP1 PUSH1 0x0 MSTORE PUSH1 0x9 PUSH1 0x40 PUSH1 0x0 KECCAK256 ADD SLOAD SWAP1 PUSH1 0x1 DUP2 ADD DUP1 SWAP2 GT PUSH2 0xBAF JUMPI PUSH1 0x0 MSTORE PUSH1 0x5 PUSH1 0x20 MSTORE PUSH2 0xB87 PUSH1 0x8 PUSH1 0x40 PUSH1 0x0 KECCAK256 ADD SWAP2 DUP3 SLOAD PUSH2 0x2361 JUMP JUMPDEST SWAP1 SSTORE PUSH1 0x6 SLOAD PUSH1 0x0 MSTORE PUSH1 0x5 PUSH1 0x20 MSTORE PUSH1 0x0 PUSH1 0x9 PUSH1 0x40 DUP3 KECCAK256 ADD SSTORE PUSH2 0xBA9 PUSH1 0x6 SLOAD PUSH2 0x2776 JUMP JUMPDEST PUSH1 0x6 SSTORE JUMPDEST STOP JUMPDEST PUSH4 0x4E487B71 PUSH1 0xE0 SHL PUSH1 0x0 MSTORE PUSH1 0x11 PUSH1 0x4 MSTORE PUSH1 0x24 PUSH1 0x0 REVERT JUMPDEST DUP1 PUSH2 0xBEC SWAP2 PUSH1 0x0 MSTORE PUSH1 0x5 PUSH1 0x20 MSTORE PUSH2 0xBE4 PUSH1 0x1 PUSH1 0x40 PUSH1 0x0 KECCAK256 ADD SLOAD TIMESTAMP PUSH2 0x2361 JUMP JUMPDEST PUSH1 0x4 SSTORE PUSH2 0x2776 JUMP JUMPDEST PUSH1 0x6 SSTORE PUSH1 0x2 SLOAD PUSH1 0xA SLOAD PUSH1 0xD SLOAD PUSH1 0x40 MLOAD PUSH32 0x95EA7B300000000000000000000000000000000000000000000000000000000 DUP1 DUP3 MSTORE PUSH1 0x1 PUSH1 0x1 PUSH1 0xA0 SHL SUB SWAP4 DUP5 AND PUSH1 0x4 DUP4 ADD MSTORE PUSH1 0x24 DUP3 ADD SWAP3 SWAP1 SWAP3 MSTORE SWAP3 SWAP1 SWAP2 PUSH1 0x20 SWAP2 DUP5 SWAP2 PUSH1 0x44 SWAP2 DUP4 SWAP2 PUSH1 0x0 SWAP2 AND GAS CALL SWAP1 DUP2 ISZERO PUSH2 0x424 JUMPI PUSH2 0xCA7 SWAP3 PUSH1 0x20 SWAP3 PUSH2 0xF1C JUMPI JUMPDEST POP PUSH1 0x1 PUSH1 0x1 PUSH1 0xA0 SHL SUB PUSH1 0x1 SLOAD AND PUSH1 0x1 PUSH1 0x1 PUSH1 0xA0 SHL SUB PUSH1 0xA SLOAD AND PUSH1 0x0 PUSH1 0xE SLOAD SWAP4 PUSH1 0x40 MLOAD SWAP7 DUP8 SWAP6 DUP7 SWAP5 DUP6 SWAP4 DUP5 MSTORE PUSH1 0x4 DUP5 ADD PUSH1 0x20 SWAP1 SWAP4 SWAP3 SWAP2 SWAP4 PUSH1 0x1 PUSH1 0x1 PUSH1 0xA0 SHL SUB PUSH1 0x40 DUP3 ADD SWAP6 AND DUP2 MSTORE ADD MSTORE JUMP JUMPDEST SUB SWAP3 GAS CALL DUP1 ISZERO PUSH2 0x424 JUMPI PUSH2 0xEFD JUMPI JUMPDEST POP PUSH1 0x1 PUSH1 0x1 PUSH1 0xA0 SHL SUB PUSH1 0xA SLOAD AND PUSH1 0x60 PUSH1 0x1 PUSH1 0x1 PUSH1 0xA0 SHL SUB PUSH1 0x2 SLOAD AND PUSH2 0x104 PUSH1 0x1 PUSH1 0x1 PUSH1 0xA0 SHL SUB PUSH1 0x1 SLOAD AND SWAP2 PUSH1 0x0 PUSH1 0xD SLOAD SWAP6 PUSH1 0xE SLOAD PUSH1 0x40 MLOAD SWAP8 DUP9 SWAP7 DUP8 SWAP6 PUSH32 0xE8E3370000000000000000000000000000000000000000000000000000000000 DUP8 MSTORE PUSH1 0x4 DUP8 ADD MSTORE PUSH1 0x24 DUP7 ADD MSTORE DUP1 PUSH1 0x44 DUP7 ADD MSTORE DUP2 PUSH1 0x64 DUP7 ADD MSTORE PUSH1 0x84 DUP6 ADD MSTORE PUSH1 0xA4 DUP5 ADD MSTORE ADDRESS PUSH1 0xC4 DUP5 ADD MSTORE TIMESTAMP PUSH1 0xE4 DUP5 ADD MSTORE GAS CALL DUP1 ISZERO PUSH2 0x424 JUMPI PUSH2 0xED2 JUMPI JUMPDEST POP PUSH1 0x9 SLOAD PUSH1 0x2 SLOAD PUSH1 0x1 SLOAD PUSH1 0x40 MLOAD PUSH32 0xE6A4390500000000000000000000000000000000000000000000000000000000 DUP2 MSTORE PUSH1 0x1 PUSH1 0x1 PUSH1 0xA0 SHL SUB SWAP3 DUP4 AND PUSH1 0x4 DUP3 ADD MSTORE SWAP1 DUP3 AND PUSH1 0x24 DUP3 ADD MSTORE SWAP2 PUSH1 0x20 SWAP2 DUP4 SWAP2 PUSH1 0x44 SWAP2 DUP4 SWAP2 AND GAS STATICCALL DUP1 ISZERO PUSH2 0x424 JUMPI PUSH1 0x0 SWAP1 PUSH2 0xE89 JUMPI JUMPDEST PUSH1 0x1 PUSH1 0x1 PUSH1 0xA0 SHL SUB SWAP2 POP AND DUP1 PUSH1 0x1 PUSH1 0x1 PUSH1 0xA0 SHL SUB NOT PUSH1 0xB SLOAD AND OR PUSH1 0xB SSTORE PUSH1 0x40 MLOAD PUSH4 0x70A08231 PUSH1 0xE0 SHL DUP2 MSTORE ADDRESS PUSH1 0x4 DUP3 ADD MSTORE PUSH1 0x20 DUP2 PUSH1 0x24 DUP2 DUP6 GAS STATICCALL SWAP1 DUP2 ISZERO PUSH2 0x424 JUMPI PUSH1 0x0 SWAP2 PUSH2 0xE56 JUMPI JUMPDEST POP PUSH1 0x0 SWAP2 PUSH1 0x44 PUSH1 0x20 SWAP3 PUSH1 0x40 MLOAD SWAP5 DUP6 SWAP4 DUP5 SWAP3 PUSH4 0xA9059CBB PUSH1 0xE0 SHL DUP5 MSTORE DUP3 PUSH1 0x4 DUP6 ADD MSTORE PUSH1 0x24 DUP5 ADD MSTORE GAS CALL DUP1 ISZERO PUSH2 0x424 JUMPI PUSH2 0xE2E JUMPI STOP JUMPDEST PUSH2 0xBAD SWAP1 PUSH1 0x20 RETURNDATASIZE PUSH1 0x20 GT PUSH2 0xE4F JUMPI JUMPDEST PUSH2 0xE47 DUP2 DUP4 PUSH2 0x2216 JUMP JUMPDEST DUP2 ADD SWAP1 PUSH2 0x2349 JUMP JUMPDEST POP RETURNDATASIZE PUSH2 0xE3D JUMP JUMPDEST SWAP1 POP PUSH1 0x20 DUP2 RETURNDATASIZE PUSH1 0x20 GT PUSH2 0xE81 JUMPI JUMPDEST DUP2 PUSH2 0xE71 PUSH1 0x20 SWAP4 DUP4 PUSH2 0x2216 JUMP JUMPDEST DUP2 ADD SUB SLT PUSH2 0x1CB JUMPI MLOAD PUSH1 0x0 PUSH2 0xDFA JUMP JUMPDEST RETURNDATASIZE SWAP2 POP PUSH2 0xE64 JUMP JUMPDEST POP PUSH1 0x20 DUP2 RETURNDATASIZE PUSH1 0x20 GT PUSH2 0xECA JUMPI JUMPDEST DUP2 PUSH2 0xEA3 PUSH1 0x20 SWAP4 DUP4 PUSH2 0x2216 JUMP JUMPDEST DUP2 ADD SUB SLT PUSH2 0x1CB JUMPI MLOAD PUSH1 0x1 PUSH1 0x1 PUSH1 0xA0 SHL SUB DUP2 AND DUP2 SUB PUSH2 0x1CB JUMPI PUSH1 0x1 PUSH1 0x1 PUSH1 0xA0 SHL SUB SWAP1 PUSH2 0xDB2 JUMP JUMPDEST RETURNDATASIZE SWAP2 POP PUSH2 0xE96 JUMP JUMPDEST PUSH1 0x60 SWAP1 DUP2 RETURNDATASIZE DUP4 GT PUSH2 0xEF6 JUMPI JUMPDEST PUSH2 0xEE8 DUP2 DUP4 PUSH2 0x2216 JUMP JUMPDEST DUP2 ADD SUB SLT PUSH2 0x1CB JUMPI DUP1 PUSH2 0xD4E JUMP JUMPDEST POP RETURNDATASIZE PUSH2 0xEDE JUMP JUMPDEST PUSH2 0xF15 SWAP1 PUSH1 0x20 RETURNDATASIZE PUSH1 0x20 GT PUSH2 0xE4F JUMPI PUSH2 0xE47 DUP2 DUP4 PUSH2 0x2216 JUMP JUMPDEST POP DUP1 PUSH2 0xCB6 JUMP JUMPDEST PUSH2 0xF32 SWAP1 DUP4 RETURNDATASIZE DUP6 GT PUSH2 0xE4F JUMPI PUSH2 0xE47 DUP2 DUP4 PUSH2 0x2216 JUMP JUMPDEST POP DUP4 PUSH2 0xC5D JUMP JUMPDEST ADD MLOAD SWAP1 POP DUP5 DUP1 PUSH2 0x99C JUMP JUMPDEST DUP3 PUSH1 0x0 MSTORE PUSH1 0x20 PUSH1 0x0 KECCAK256 SWAP1 PUSH1 0x0 JUMPDEST PUSH1 0x1F NOT DUP5 AND DUP2 LT PUSH2 0xF94 JUMPI POP PUSH1 0x1 SWAP4 SWAP5 SWAP6 DUP4 PUSH1 0x1F NOT DUP2 AND LT PUSH2 0xF7B JUMPI JUMPDEST POP POP POP DUP2 SHL ADD DUP2 SSTORE PUSH2 0x9B1 JUMP JUMPDEST ADD MLOAD PUSH1 0x0 NOT PUSH1 0xF8 DUP5 PUSH1 0x3 SHL AND SHR NOT AND SWAP1 SSTORE DUP5 DUP1 DUP1 PUSH2 0xF6E JUMP JUMPDEST SWAP1 SWAP2 PUSH1 0x20 PUSH1 0x1 DUP2 SWAP3 DUP6 DUP11 ADD MLOAD DUP2 SSTORE ADD SWAP4 ADD SWAP2 ADD PUSH2 0xF51 JUMP JUMPDEST DUP3 PUSH1 0x0 MSTORE PUSH1 0x20 PUSH1 0x0 KECCAK256 PUSH1 0x1F DUP4 ADD PUSH1 0x5 SHR DUP2 ADD PUSH1 0x20 DUP5 LT PUSH2 0xFE9 JUMPI JUMPDEST PUSH1 0x1F DUP4 ADD PUSH1 0x5 SHR DUP3 ADD DUP2 LT PUSH2 0xFDD JUMPI POP POP PUSH2 0x982 JUMP JUMPDEST PUSH1 0x0 DUP2 SSTORE PUSH1 0x1 ADD PUSH2 0xFC7 JUMP JUMPDEST POP DUP1 PUSH2 0xFC7 JUMP JUMPDEST PUSH4 0x4E487B71 PUSH1 0xE0 SHL PUSH1 0x0 MSTORE PUSH1 0x41 PUSH1 0x4 MSTORE PUSH1 0x24 PUSH1 0x0 REVERT JUMPDEST PUSH1 0x1 PUSH1 0x1 PUSH1 0xA0 SHL SUB DUP2 AND PUSH1 0x0 MSTORE PUSH1 0x8 PUSH1 0x20 MSTORE PUSH1 0x40 PUSH1 0x0 KECCAK256 PUSH1 0x6 SLOAD SWAP1 DUP2 PUSH1 0x0 MSTORE PUSH1 0x20 MSTORE PUSH1 0x1 PUSH1 0x1 PUSH1 0xA0 SHL SUB PUSH1 0x40 PUSH1 0x0 KECCAK256 SWAP3 PUSH1 0x40 MLOAD SWAP4 PUSH2 0x1043 DUP6 PUSH2 0x21DD JUMP JUMPDEST PUSH1 0x4 DUP4 DUP3 SLOAD AND SWAP2 DUP3 DUP8 MSTORE PUSH1 0x1 DUP2 ADD SLOAD PUSH1 0x20 DUP9 ADD MSTORE PUSH1 0x2 DUP2 ADD SLOAD PUSH1 0x40 DUP9 ADD MSTORE PUSH1 0x3 DUP2 ADD SLOAD PUSH1 0x60 DUP9 ADD MSTORE ADD SLOAD PUSH1 0x80 DUP7 ADD MSTORE ISZERO PUSH2 0x118F JUMPI JUMPDEST PUSH1 0x0 PUSH1 0xA0 DUP6 ADD MSTORE PUSH32 0x2A6A2BE713FEDF52F113C0A759F1C1A23A113476D9B1B1A2A453C910660DE4E PUSH2 0x1118 PUSH3 0xF4240 PUSH2 0x10B8 PUSH2 0x140 DUP10 ADD MLOAD PUSH1 0x24 CALLDATALOAD PUSH2 0x23BF JUMP JUMPDEST DIV PUSH2 0x120 DUP9 ADD MLOAD DUP2 DUP2 LT PUSH2 0x1187 JUMPI JUMPDEST POP PUSH2 0x10D6 DUP2 PUSH1 0x20 DUP10 ADD MLOAD PUSH2 0x2361 JUMP JUMPDEST PUSH1 0x20 DUP9 ADD MSTORE PUSH2 0x10EA DUP2 PUSH2 0x120 DUP11 ADD MLOAD PUSH2 0x23D2 JUMP JUMPDEST PUSH2 0x120 DUP10 ADD MSTORE PUSH1 0x40 MLOAD SWAP2 DUP3 SWAP2 DUP8 DUP7 DUP5 PUSH1 0x40 SWAP2 SWAP5 SWAP4 SWAP3 PUSH1 0x1 PUSH1 0x1 PUSH1 0xA0 SHL SUB PUSH1 0x60 DUP4 ADD SWAP7 AND DUP3 MSTORE PUSH1 0x20 DUP3 ADD MSTORE ADD MSTORE JUMP JUMPDEST SUB SWAP1 LOG1 AND PUSH1 0x0 MSTORE PUSH1 0x8 PUSH1 0x20 MSTORE PUSH1 0x40 PUSH1 0x0 KECCAK256 SWAP1 PUSH1 0x0 MSTORE PUSH1 0x20 MSTORE PUSH1 0x5 PUSH1 0xA0 PUSH1 0x40 PUSH1 0x0 KECCAK256 SWAP3 PUSH1 0x1 PUSH1 0x1 PUSH1 0xA0 SHL SUB DUP2 MLOAD AND PUSH1 0x1 PUSH1 0x1 PUSH1 0xA0 SHL SUB NOT DUP6 SLOAD AND OR DUP5 SSTORE PUSH1 0x20 DUP2 ADD MLOAD PUSH1 0x1 DUP6 ADD SSTORE PUSH1 0x40 DUP2 ADD MLOAD PUSH1 0x2 DUP6 ADD SSTORE PUSH1 0x60 DUP2 ADD MLOAD PUSH1 0x3 DUP6 ADD SSTORE PUSH1 0x80 DUP2 ADD MLOAD PUSH1 0x4 DUP6 ADD SSTORE ADD MLOAD SWAP2 ADD SSTORE DUP2 PUSH2 0x949 JUMP JUMPDEST SWAP1 POP DUP9 PUSH2 0x10C7 JUMP JUMPDEST DUP2 DUP2 AND DUP5 MSTORE PUSH1 0x0 PUSH1 0x80 DUP6 ADD MSTORE PUSH2 0x1078 JUMP JUMPDEST PUSH1 0x64 PUSH1 0x40 MLOAD PUSH3 0x461BCD PUSH1 0xE5 SHL DUP2 MSTORE PUSH1 0x20 PUSH1 0x4 DUP3 ADD MSTORE PUSH1 0xF PUSH1 0x24 DUP3 ADD MSTORE PUSH32 0x7472616E73666572206661696C65640000000000000000000000000000000000 PUSH1 0x44 DUP3 ADD MSTORE REVERT JUMPDEST PUSH2 0x11FD SWAP2 POP PUSH1 0x20 RETURNDATASIZE PUSH1 0x20 GT PUSH2 0xE4F JUMPI PUSH2 0xE47 DUP2 DUP4 PUSH2 0x2216 JUMP JUMPDEST DUP7 PUSH2 0x872 JUMP JUMPDEST CALLER DUP3 MSTORE PUSH1 0x0 PUSH1 0x80 DUP4 ADD MSTORE PUSH2 0x804 JUMP JUMPDEST PUSH1 0x84 PUSH1 0x40 MLOAD PUSH3 0x461BCD PUSH1 0xE5 SHL DUP2 MSTORE PUSH1 0x20 PUSH1 0x4 DUP3 ADD MSTORE PUSH1 0x29 PUSH1 0x24 DUP3 ADD MSTORE PUSH32 0x616C6C6F636174696F6E20646F6573206E6F74206D6565742073616C654D696E PUSH1 0x44 DUP3 ADD MSTORE PUSH32 0x50657257616C6C65740000000000000000000000000000000000000000000000 PUSH1 0x64 DUP3 ADD MSTORE REVERT JUMPDEST PUSH1 0x84 PUSH1 0x40 MLOAD PUSH3 0x461BCD PUSH1 0xE5 SHL DUP2 MSTORE PUSH1 0x20 PUSH1 0x4 DUP3 ADD MSTORE PUSH1 0x28 PUSH1 0x24 DUP3 ADD MSTORE PUSH32 0x616C6C6F636174696F6E20776F756C64206578636565642073616C654D617850 PUSH1 0x44 DUP3 ADD MSTORE PUSH32 0x657257616C6C6574000000000000000000000000000000000000000000000000 PUSH1 0x64 DUP3 ADD MSTORE REVERT JUMPDEST PUSH1 0x84 PUSH1 0x40 MLOAD PUSH3 0x461BCD PUSH1 0xE5 SHL DUP2 MSTORE PUSH1 0x20 PUSH1 0x4 DUP3 ADD MSTORE PUSH1 0x21 PUSH1 0x24 DUP3 ADD MSTORE PUSH32 0x73616C652070726963652065786365656473207573647420616C6C6F77616E63 PUSH1 0x44 DUP3 ADD MSTORE PUSH32 0x6500000000000000000000000000000000000000000000000000000000000000 PUSH1 0x64 DUP3 ADD MSTORE REVERT JUMPDEST SWAP1 POP PUSH1 0x20 DUP2 RETURNDATASIZE PUSH1 0x20 GT PUSH2 0x137A JUMPI JUMPDEST DUP2 PUSH2 0x136B PUSH1 0x20 SWAP4 DUP4 PUSH2 0x2216 JUMP JUMPDEST DUP2 ADD SUB SLT PUSH2 0x1CB JUMPI MLOAD DUP7 PUSH2 0x73B JUMP JUMPDEST RETURNDATASIZE SWAP2 POP PUSH2 0x135E JUMP JUMPDEST PUSH1 0x64 PUSH1 0x40 MLOAD PUSH3 0x461BCD PUSH1 0xE5 SHL DUP2 MSTORE PUSH1 0x20 PUSH1 0x4 DUP3 ADD MSTORE PUSH1 0x1E PUSH1 0x24 DUP3 ADD MSTORE PUSH32 0x616666696C696174652063616E6E6F74206265206D73672E73656E6465720000 PUSH1 0x44 DUP3 ADD MSTORE REVERT JUMPDEST POP CALLER PUSH1 0x1 PUSH1 0x1 PUSH1 0xA0 SHL SUB DUP6 AND EQ ISZERO PUSH2 0x6EC JUMP JUMPDEST PUSH1 0x84 PUSH1 0x40 MLOAD PUSH3 0x461BCD PUSH1 0xE5 SHL DUP2 MSTORE PUSH1 0x20 PUSH1 0x4 DUP3 ADD MSTORE PUSH1 0x29 PUSH1 0x24 DUP3 ADD MSTORE PUSH32 0x616C6C6F636174696F6E20776F756C64206578636565642072656D61696E696E PUSH1 0x44 DUP3 ADD MSTORE PUSH32 0x672062616C616E63650000000000000000000000000000000000000000000000 PUSH1 0x64 DUP3 ADD MSTORE REVERT JUMPDEST PUSH1 0x64 PUSH1 0x40 MLOAD PUSH3 0x461BCD PUSH1 0xE5 SHL DUP2 MSTORE PUSH1 0x20 PUSH1 0x4 DUP3 ADD MSTORE PUSH1 0x14 PUSH1 0x24 DUP3 ADD MSTORE PUSH32 0x75736474206E6F7420696E697469616C697A6564000000000000000000000000 PUSH1 0x44 DUP3 ADD MSTORE REVERT JUMPDEST PUSH1 0x64 PUSH1 0x40 MLOAD PUSH3 0x461BCD PUSH1 0xE5 SHL DUP2 MSTORE PUSH1 0x20 PUSH1 0x4 DUP3 ADD MSTORE PUSH1 0x11 PUSH1 0x24 DUP3 ADD MSTORE PUSH32 0x73616C65206861732066696E6973686564000000000000000000000000000000 PUSH1 0x44 DUP3 ADD MSTORE REVERT JUMPDEST PUSH1 0x64 PUSH1 0x40 MLOAD PUSH3 0x461BCD PUSH1 0xE5 SHL DUP2 MSTORE PUSH1 0x20 PUSH1 0x4 DUP3 ADD MSTORE PUSH1 0x18 PUSH1 0x24 DUP3 ADD MSTORE PUSH32 0x73616C6520686173206E6F742079657420737461727465640000000000000000 PUSH1 0x44 DUP3 ADD MSTORE REVERT JUMPDEST CALLVALUE PUSH2 0x1CB JUMPI PUSH1 0x0 CALLDATASIZE PUSH1 0x3 NOT ADD SLT PUSH2 0x1CB JUMPI PUSH1 0x20 PUSH1 0x1 PUSH1 0x1 PUSH1 0xA0 SHL SUB PUSH1 0x0 SLOAD AND PUSH1 0x40 MLOAD SWAP1 DUP2 MSTORE RETURN JUMPDEST CALLVALUE PUSH2 0x1CB JUMPI PUSH1 0x0 CALLDATASIZE PUSH1 0x3 NOT ADD SLT PUSH2 0x1CB JUMPI PUSH1 0x20 PUSH1 0xC SLOAD PUSH1 0x40 MLOAD SWAP1 DUP2 MSTORE RETURN JUMPDEST CALLVALUE PUSH2 0x1CB JUMPI PUSH1 0x0 CALLDATASIZE PUSH1 0x3 NOT ADD SLT PUSH2 0x1CB JUMPI PUSH1 0x20 PUSH1 0x1 PUSH1 0x1 PUSH1 0xA0 SHL SUB PUSH1 0xB SLOAD AND PUSH1 0x40 MLOAD SWAP1 DUP2 MSTORE RETURN JUMPDEST CALLVALUE PUSH2 0x1CB JUMPI PUSH1 0x40 CALLDATASIZE PUSH1 0x3 NOT ADD SLT PUSH2 0x1CB JUMPI PUSH2 0x1594 PUSH2 0x231D JUMP JUMPDEST PUSH2 0x159C PUSH2 0x2333 JUMP JUMPDEST SWAP1 PUSH2 0x15A5 PUSH2 0x26F9 JUMP JUMPDEST PUSH1 0x1 PUSH1 0x1 PUSH1 0xA0 SHL SUB DUP1 PUSH1 0x1 SLOAD AND SWAP2 AND SWAP1 DUP2 EQ PUSH2 0x1675 JUMPI PUSH1 0x40 MLOAD PUSH4 0x70A08231 PUSH1 0xE0 SHL DUP2 MSTORE ADDRESS PUSH1 0x4 DUP3 ADD MSTORE PUSH1 0x20 SWAP3 DUP4 DUP3 PUSH1 0x24 DUP2 DUP7 GAS STATICCALL SWAP1 DUP2 ISZERO PUSH2 0x424 JUMPI DUP5 SWAP3 PUSH1 0x0 SWAP3 PUSH2 0x1642 JUMPI JUMPDEST POP PUSH1 0x40 MLOAD PUSH4 0xA9059CBB PUSH1 0xE0 SHL DUP2 MSTORE PUSH1 0x1 PUSH1 0x1 PUSH1 0xA0 SHL SUB SWAP1 SWAP2 AND PUSH1 0x4 DUP3 ADD MSTORE PUSH1 0x24 DUP2 ADD SWAP2 SWAP1 SWAP2 MSTORE SWAP2 DUP3 SWAP1 DUP2 PUSH1 0x0 DUP2 PUSH1 0x44 DUP2 ADD JUMPDEST SUB SWAP3 GAS CALL DUP1 ISZERO PUSH2 0x424 JUMPI PUSH2 0x162C JUMPI STOP JUMPDEST DUP2 PUSH2 0xBAD SWAP3 SWAP1 RETURNDATASIZE LT PUSH2 0xE4F JUMPI PUSH2 0xE47 DUP2 DUP4 PUSH2 0x2216 JUMP JUMPDEST DUP4 DUP2 SWAP5 SWAP3 SWAP4 POP RETURNDATASIZE DUP4 GT PUSH2 0x166E JUMPI JUMPDEST PUSH2 0x165A DUP2 DUP4 PUSH2 0x2216 JUMP JUMPDEST DUP2 ADD SUB SLT PUSH2 0x1CB JUMPI SWAP1 MLOAD DUP4 SWAP2 PUSH2 0x161C PUSH2 0x15EA JUMP JUMPDEST POP RETURNDATASIZE PUSH2 0x1650 JUMP JUMPDEST PUSH1 0x64 PUSH1 0x40 MLOAD PUSH3 0x461BCD PUSH1 0xE5 SHL DUP2 MSTORE PUSH1 0x20 PUSH1 0x4 DUP3 ADD MSTORE PUSH1 0x15 PUSH1 0x24 DUP3 ADD MSTORE PUSH32 0x63616E6E6F7420776974686472617720746F6B656E0000000000000000000000 PUSH1 0x44 DUP3 ADD MSTORE REVERT JUMPDEST CALLVALUE PUSH2 0x1CB JUMPI PUSH1 0x40 CALLDATASIZE PUSH1 0x3 NOT ADD SLT PUSH2 0x1CB JUMPI PUSH1 0xC0 PUSH2 0x16D4 PUSH2 0x231D JUMP JUMPDEST PUSH1 0x1 PUSH1 0x1 PUSH1 0xA0 SHL SUB DUP1 SWAP2 AND PUSH1 0x0 MSTORE PUSH1 0x8 PUSH1 0x20 MSTORE PUSH1 0x40 PUSH1 0x0 KECCAK256 PUSH1 0x24 CALLDATALOAD PUSH1 0x0 MSTORE PUSH1 0x20 MSTORE PUSH1 0x40 PUSH1 0x0 KECCAK256 SWAP1 DUP2 SLOAD AND SWAP1 PUSH1 0x1 DUP2 ADD SLOAD SWAP1 PUSH1 0x2 DUP2 ADD SLOAD PUSH1 0x3 DUP3 ADD SLOAD SWAP1 PUSH1 0x5 PUSH1 0x4 DUP5 ADD SLOAD SWAP4 ADD SLOAD SWAP4 PUSH1 0x40 MLOAD SWAP6 DUP7 MSTORE PUSH1 0x20 DUP7 ADD MSTORE PUSH1 0x40 DUP6 ADD MSTORE PUSH1 0x60 DUP5 ADD MSTORE PUSH1 0x80 DUP4 ADD MSTORE PUSH1 0xA0 DUP3 ADD MSTORE RETURN JUMPDEST CALLVALUE PUSH2 0x1CB JUMPI PUSH1 0x0 CALLDATASIZE PUSH1 0x3 NOT ADD SLT PUSH2 0x1CB JUMPI PUSH2 0x1755 PUSH2 0x26F9 JUMP JUMPDEST PUSH1 0x0 PUSH1 0x1 PUSH1 0x1 PUSH1 0xA0 SHL SUB DUP2 SLOAD PUSH1 0x1 PUSH1 0x1 PUSH1 0xA0 SHL SUB NOT DUP2 AND DUP4 SSTORE AND PUSH32 0x8BE0079C531659141344CD1FD0A4F28419497F9722A3DAAFE3B4186F6B6457E0 DUP3 DUP1 LOG3 STOP JUMPDEST CALLVALUE PUSH2 0x1CB JUMPI PUSH1 0x0 CALLDATASIZE PUSH1 0x3 NOT ADD SLT PUSH2 0x1CB JUMPI PUSH1 0x20 PUSH1 0xFF PUSH1 0x0 SLOAD PUSH1 0xA0 SHR AND PUSH1 0x40 MLOAD SWAP1 ISZERO ISZERO DUP2 MSTORE RETURN JUMPDEST CALLVALUE PUSH2 0x1CB JUMPI PUSH1 0x20 DUP1 PUSH1 0x3 NOT CALLDATASIZE ADD SLT PUSH2 0x1CB JUMPI PUSH2 0x17D5 PUSH2 0x231D JUMP JUMPDEST PUSH1 0x7 SLOAD PUSH1 0x0 SWAP3 DUP4 SWAP3 PUSH1 0x1 PUSH1 0x1 PUSH1 0xA0 SHL SUB AND JUMPDEST DUP3 DUP6 LT PUSH2 0x17F9 JUMPI PUSH1 0x20 DUP5 PUSH1 0x40 MLOAD SWAP1 DUP2 MSTORE RETURN JUMPDEST SWAP1 SWAP2 SWAP3 PUSH2 0x1824 PUSH1 0x1 SWAP2 DUP4 PUSH1 0x0 MSTORE PUSH1 0x8 DUP6 MSTORE PUSH1 0x40 PUSH1 0x0 KECCAK256 DUP8 PUSH1 0x0 MSTORE DUP6 MSTORE PUSH1 0x2 PUSH1 0x40 PUSH1 0x0 KECCAK256 ADD SLOAD SWAP1 PUSH2 0x2361 JUMP JUMPDEST SWAP5 ADD SWAP4 SWAP3 SWAP2 SWAP1 PUSH2 0x17E7 JUMP JUMPDEST CALLVALUE PUSH2 0x1CB JUMPI PUSH1 0x40 CALLDATASIZE PUSH1 0x3 NOT ADD SLT PUSH2 0x1CB JUMPI PUSH2 0x1848 PUSH2 0x231D JUMP JUMPDEST PUSH1 0x24 CALLDATALOAD SWAP1 PUSH2 0x1854 PUSH2 0x26F9 JUMP JUMPDEST PUSH2 0x185C PUSH2 0x2680 JUMP JUMPDEST DUP3 LT ISZERO PUSH2 0x1CB JUMPI PUSH1 0x2 SLOAD PUSH1 0x40 MLOAD PUSH4 0xA9059CBB PUSH1 0xE0 SHL DUP2 MSTORE PUSH1 0x1 PUSH1 0x1 PUSH1 0xA0 SHL SUB SWAP3 DUP4 AND PUSH1 0x4 DUP3 ADD MSTORE PUSH1 0x24 DUP2 ADD SWAP4 SWAP1 SWAP4 MSTORE PUSH1 0x20 SWAP2 DUP4 SWAP2 AND DUP2 PUSH1 0x0 DUP2 PUSH1 0x44 DUP2 ADD JUMPDEST SUB SWAP3 GAS CALL DUP1 ISZERO PUSH2 0x424 JUMPI PUSH2 0xE2E JUMPI STOP JUMPDEST CALLVALUE PUSH2 0x1CB JUMPI PUSH1 0x20 CALLDATASIZE PUSH1 0x3 NOT ADD SLT PUSH2 0x1CB JUMPI PUSH1 0x1 PUSH1 0x1 PUSH1 0xA0 SHL SUB PUSH2 0x18CB PUSH2 0x231D JUMP JUMPDEST PUSH2 0x18D3 PUSH2 0x26F9 JUMP JUMPDEST AND PUSH1 0x1 PUSH1 0x1 PUSH1 0xA0 SHL SUB NOT PUSH1 0x2 SLOAD AND OR PUSH1 0x2 SSTORE PUSH1 0x0 DUP1 RETURN JUMPDEST CALLVALUE PUSH2 0x1CB JUMPI PUSH1 0x20 CALLDATASIZE PUSH1 0x3 NOT ADD SLT PUSH2 0x1CB JUMPI PUSH1 0x0 PUSH2 0x1C0 PUSH1 0x40 MLOAD PUSH2 0x190C DUP2 PUSH2 0x21F9 JUMP JUMPDEST PUSH1 0x60 DUP2 MSTORE DUP3 PUSH1 0x20 DUP3 ADD MSTORE DUP3 PUSH1 0x40 DUP3 ADD MSTORE DUP3 PUSH1 0x60 DUP3 ADD MSTORE DUP3 PUSH1 0x80 DUP3 ADD MSTORE DUP3 PUSH1 0xA0 DUP3 ADD MSTORE DUP3 PUSH1 0xC0 DUP3 ADD MSTORE DUP3 PUSH1 0xE0 DUP3 ADD MSTORE DUP3 PUSH2 0x100 DUP3 ADD MSTORE DUP3 PUSH2 0x120 DUP3 ADD MSTORE DUP3 PUSH2 0x140 DUP3 ADD MSTORE DUP3 PUSH2 0x160 DUP3 ADD MSTORE DUP3 PUSH2 0x180 DUP3 ADD MSTORE DUP3 PUSH2 0x1A0 DUP3 ADD MSTORE ADD MSTORE PUSH1 0x4 CALLDATALOAD PUSH1 0x0 MSTORE PUSH1 0x5 PUSH1 0x20 MSTORE PUSH1 0x40 PUSH1 0x0 KECCAK256 PUSH1 0xE PUSH1 0x40 MLOAD SWAP2 PUSH2 0x1985 DUP4 PUSH2 0x21F9 JUMP JUMPDEST PUSH2 0x198E DUP2 PUSH2 0x2238 JUMP JUMPDEST DUP4 MSTORE PUSH1 0x1 DUP2 ADD SLOAD PUSH1 0x20 DUP5 ADD MSTORE PUSH1 0x2 DUP2 ADD SLOAD PUSH1 0x40 DUP5 ADD MSTORE PUSH1 0x3 DUP2 ADD SLOAD PUSH1 0x60 DUP5 ADD MSTORE PUSH1 0x4 DUP2 ADD SLOAD PUSH1 0x80 DUP5 ADD MSTORE PUSH1 0x5 DUP2 ADD SLOAD PUSH1 0xA0 DUP5 ADD MSTORE PUSH1 0x6 DUP2 ADD SLOAD PUSH1 0xC0 DUP5 ADD MSTORE PUSH1 0x7 DUP2 ADD SLOAD PUSH1 0xE0 DUP5 ADD MSTORE PUSH1 0x8 DUP2 ADD SLOAD PUSH2 0x100 DUP5 ADD MSTORE PUSH1 0x9 DUP2 ADD SLOAD PUSH2 0x120 DUP5 ADD MSTORE PUSH1 0xA DUP2 ADD SLOAD PUSH2 0x140 DUP5 ADD MSTORE PUSH1 0xB DUP2 ADD SLOAD PUSH2 0x160 DUP5 ADD MSTORE PUSH1 0xC DUP2 ADD SLOAD PUSH2 0x180 DUP5 ADD MSTORE PUSH1 0xD DUP2 ADD SLOAD PUSH2 0x1A0 DUP5 ADD MSTORE ADD SLOAD PUSH2 0x1C0 DUP3 ADD MSTORE PUSH1 0x40 MLOAD DUP1 SWAP2 PUSH1 0x20 DUP3 MSTORE PUSH2 0x1C0 PUSH2 0x1A44 DUP3 MLOAD PUSH2 0x1E0 PUSH1 0x20 DUP7 ADD MSTORE PUSH2 0x200 DUP6 ADD SWAP1 PUSH2 0x22DD JUMP JUMPDEST SWAP2 PUSH1 0x20 DUP2 ADD MLOAD PUSH1 0x40 DUP6 ADD MSTORE PUSH1 0x40 DUP2 ADD MLOAD PUSH1 0x60 DUP6 ADD MSTORE PUSH1 0x60 DUP2 ADD MLOAD PUSH1 0x80 DUP6 ADD MSTORE PUSH1 0x80 DUP2 ADD MLOAD PUSH1 0xA0 DUP6 ADD MSTORE PUSH1 0xA0 DUP2 ADD MLOAD PUSH1 0xC0 DUP6 ADD MSTORE PUSH1 0xC0 DUP2 ADD MLOAD PUSH1 0xE0 DUP6 ADD MSTORE PUSH1 0xE0 DUP2 ADD MLOAD PUSH2 0x100 DUP6 ADD MSTORE PUSH2 0x100 DUP2 ADD MLOAD PUSH2 0x120 DUP6 ADD MSTORE PUSH2 0x120 DUP2 ADD MLOAD PUSH2 0x140 DUP6 ADD MSTORE PUSH2 0x140 DUP2 ADD MLOAD PUSH2 0x160 DUP6 ADD MSTORE PUSH2 0x160 DUP2 ADD MLOAD PUSH2 0x180 DUP6 ADD MSTORE PUSH2 0x180 DUP2 ADD MLOAD PUSH2 0x1A0 DUP6 ADD MSTORE PUSH2 0x1A0 DUP2 ADD MLOAD DUP3 DUP6 ADD MSTORE ADD MLOAD PUSH2 0x1E0 DUP4 ADD MSTORE SUB SWAP1 RETURN JUMPDEST CALLVALUE PUSH2 0x1CB JUMPI PUSH1 0x0 CALLDATASIZE PUSH1 0x3 NOT ADD SLT PUSH2 0x1CB JUMPI PUSH1 0x4 SLOAD ISZERO PUSH2 0x1D20 JUMPI PUSH1 0x0 DUP1 JUMPDEST PUSH1 0x7 SLOAD DUP2 LT ISZERO PUSH2 0x1CEC JUMPI CALLER PUSH1 0x0 MSTORE PUSH1 0x8 PUSH1 0x20 MSTORE PUSH1 0x40 PUSH1 0x0 KECCAK256 DUP2 PUSH1 0x0 MSTORE PUSH1 0x20 MSTORE PUSH1 0x40 PUSH1 0x0 KECCAK256 PUSH2 0x1B75 PUSH1 0x40 MLOAD SWAP2 PUSH2 0x1B2F DUP4 PUSH2 0x21DD JUMP JUMPDEST PUSH1 0x5 PUSH1 0x1 PUSH1 0x1 PUSH1 0xA0 SHL SUB DUP3 SLOAD AND SWAP2 DUP3 DUP6 MSTORE PUSH1 0x1 DUP2 ADD SLOAD PUSH1 0x20 DUP7 ADD MSTORE PUSH1 0x2 DUP2 ADD SLOAD PUSH1 0x40 DUP7 ADD MSTORE PUSH1 0x3 DUP2 ADD SLOAD PUSH1 0x60 DUP7 ADD MSTORE PUSH1 0x4 DUP2 ADD SLOAD PUSH1 0x80 DUP7 ADD MSTORE ADD SLOAD PUSH1 0xA0 DUP5 ADD MSTORE DUP4 PUSH2 0x261E JUMP JUMPDEST PUSH1 0x20 DUP3 ADD MLOAD PUSH2 0x1B88 DUP3 PUSH1 0x40 DUP6 ADD MLOAD PUSH2 0x2361 JUMP JUMPDEST GT PUSH2 0x1CA8 JUMPI DUP1 PUSH2 0x1B9D JUMPI JUMPDEST POP POP PUSH1 0x1 ADD PUSH2 0x1AFB JUMP JUMPDEST PUSH1 0x1 SLOAD DUP3 MLOAD PUSH1 0x40 MLOAD PUSH4 0xA9059CBB PUSH1 0xE0 SHL DUP2 MSTORE PUSH1 0x1 PUSH1 0x1 PUSH1 0xA0 SHL SUB SWAP2 DUP3 AND PUSH1 0x4 DUP3 ADD MSTORE PUSH1 0x24 DUP2 ADD DUP5 SWAP1 MSTORE SWAP5 SWAP6 SWAP2 PUSH1 0x20 SWAP2 DUP7 SWAP2 PUSH1 0x44 SWAP2 DUP4 SWAP2 PUSH1 0x0 SWAP2 AND GAS CALL SWAP3 DUP4 ISZERO PUSH2 0x424 JUMPI PUSH1 0x1 SWAP5 PUSH2 0x1C76 SWAP5 PUSH2 0x1C89 JUMPI JUMPDEST POP PUSH2 0x1BFB DUP4 PUSH1 0x40 DUP4 ADD MLOAD PUSH2 0x2361 JUMP JUMPDEST DUP1 PUSH1 0x40 DUP4 ADD MSTORE PUSH1 0x20 DUP3 ADD MLOAD EQ PUSH2 0x1C7E JUMPI JUMPDEST CALLER PUSH1 0x0 MSTORE PUSH1 0x8 PUSH1 0x20 MSTORE PUSH1 0x40 PUSH1 0x0 KECCAK256 DUP7 PUSH1 0x0 MSTORE PUSH1 0x20 MSTORE PUSH1 0x5 PUSH1 0xA0 PUSH1 0x40 PUSH1 0x0 KECCAK256 SWAP3 PUSH1 0x1 PUSH1 0x1 PUSH1 0xA0 SHL SUB DUP2 MLOAD AND PUSH1 0x1 PUSH1 0x1 PUSH1 0xA0 SHL SUB NOT DUP6 SLOAD AND OR DUP5 SSTORE PUSH1 0x20 DUP2 ADD MLOAD DUP9 DUP6 ADD SSTORE PUSH1 0x40 DUP2 ADD MLOAD PUSH1 0x2 DUP6 ADD SSTORE PUSH1 0x60 DUP2 ADD MLOAD PUSH1 0x3 DUP6 ADD SSTORE PUSH1 0x80 DUP2 ADD MLOAD PUSH1 0x4 DUP6 ADD SSTORE ADD MLOAD SWAP2 ADD SSTORE PUSH2 0x2361 JUMP JUMPDEST SWAP2 SWAP1 DUP4 PUSH2 0x1B93 JUMP JUMPDEST TIMESTAMP PUSH1 0xA0 DUP3 ADD MSTORE PUSH2 0x1C0C JUMP JUMPDEST PUSH2 0x1CA1 SWAP1 PUSH1 0x20 RETURNDATASIZE PUSH1 0x20 GT PUSH2 0xE4F JUMPI PUSH2 0xE47 DUP2 DUP4 PUSH2 0x2216 JUMP JUMPDEST POP DUP7 PUSH2 0x1BEC JUMP JUMPDEST PUSH1 0x64 PUSH1 0x40 MLOAD PUSH3 0x461BCD PUSH1 0xE5 SHL DUP2 MSTORE PUSH1 0x20 PUSH1 0x4 DUP3 ADD MSTORE PUSH1 0x14 PUSH1 0x24 DUP3 ADD MSTORE PUSH32 0x746F6B656E20706F6F6C20657868617573746564000000000000000000000000 PUSH1 0x44 DUP3 ADD MSTORE REVERT JUMPDEST PUSH1 0x40 DUP1 MLOAD CALLER DUP2 MSTORE PUSH1 0x20 DUP2 ADD DUP5 SWAP1 MSTORE PUSH32 0xD8138F8A3F377C5259CA548E70E4C2DE94F129F5A11036A15B69513CBA2B426A SWAP2 SWAP1 LOG1 STOP JUMPDEST PUSH1 0x64 PUSH1 0x40 MLOAD PUSH3 0x461BCD PUSH1 0xE5 SHL DUP2 MSTORE PUSH1 0x20 PUSH1 0x4 DUP3 ADD MSTORE PUSH1 0x1C PUSH1 0x24 DUP3 ADD MSTORE PUSH32 0x74676554696D6520686173206E6F74206265656E207265616368656400000000 PUSH1 0x44 DUP3 ADD MSTORE REVERT JUMPDEST CALLVALUE PUSH2 0x1CB JUMPI PUSH1 0x20 CALLDATASIZE PUSH1 0x3 NOT ADD SLT PUSH2 0x1CB JUMPI PUSH2 0x189A PUSH1 0x20 PUSH2 0x1D82 PUSH2 0x231D JUMP JUMPDEST PUSH2 0x1D8A PUSH2 0x26F9 JUMP JUMPDEST PUSH1 0x1 PUSH1 0x1 PUSH1 0xA0 SHL SUB PUSH1 0x2 SLOAD AND PUSH2 0x1D9E PUSH2 0x2680 JUMP JUMPDEST SWAP2 PUSH1 0x0 PUSH1 0x40 MLOAD DUP1 SWAP7 DUP2 SWAP6 DUP3 SWAP5 PUSH4 0xA9059CBB PUSH1 0xE0 SHL DUP5 MSTORE PUSH1 0x4 DUP5 ADD PUSH1 0x20 SWAP1 SWAP4 SWAP3 SWAP2 SWAP4 PUSH1 0x1 PUSH1 0x1 PUSH1 0xA0 SHL SUB PUSH1 0x40 DUP3 ADD SWAP6 AND DUP2 MSTORE ADD MSTORE JUMP JUMPDEST CALLVALUE PUSH2 0x1CB JUMPI PUSH1 0x0 CALLDATASIZE PUSH1 0x3 NOT ADD SLT PUSH2 0x1CB JUMPI PUSH1 0x20 PUSH1 0xE SLOAD PUSH1 0x40 MLOAD SWAP1 DUP2 MSTORE RETURN JUMPDEST CALLVALUE PUSH2 0x1CB JUMPI PUSH1 0x40 CALLDATASIZE PUSH1 0x3 NOT ADD SLT PUSH2 0x1CB JUMPI PUSH1 0x20 PUSH2 0x1C3 PUSH2 0x1E0F PUSH2 0x2333 JUMP JUMPDEST PUSH1 0x4 CALLDATALOAD PUSH2 0x23DF JUMP JUMPDEST CALLVALUE PUSH2 0x1CB JUMPI PUSH1 0x20 DUP1 PUSH1 0x3 NOT CALLDATASIZE ADD SLT PUSH2 0x1CB JUMPI PUSH2 0x1E31 PUSH2 0x231D JUMP JUMPDEST PUSH1 0x7 SLOAD PUSH1 0x0 SWAP3 DUP4 SWAP3 PUSH1 0x1 PUSH1 0x1 PUSH1 0xA0 SHL SUB AND JUMPDEST DUP3 DUP6 LT PUSH2 0x1E55 JUMPI PUSH1 0x20 DUP5 PUSH1 0x40 MLOAD SWAP1 DUP2 MSTORE RETURN JUMPDEST SWAP1 SWAP2 SWAP3 PUSH2 0x1E80 PUSH1 0x1 SWAP2 DUP4 PUSH1 0x0 MSTORE PUSH1 0x8 DUP6 MSTORE PUSH1 0x40 PUSH1 0x0 KECCAK256 DUP8 PUSH1 0x0 MSTORE DUP6 MSTORE PUSH1 0x3 PUSH1 0x40 PUSH1 0x0 KECCAK256 ADD SLOAD SWAP1 PUSH2 0x2361 JUMP JUMPDEST SWAP5 ADD SWAP4 SWAP3 SWAP2 SWAP1 PUSH2 0x1E43 JUMP JUMPDEST CALLVALUE PUSH2 0x1CB JUMPI PUSH1 0x0 CALLDATASIZE PUSH1 0x3 NOT ADD SLT PUSH2 0x1CB JUMPI PUSH1 0x20 PUSH1 0x4 SLOAD PUSH1 0x40 MLOAD SWAP1 DUP2 MSTORE RETURN JUMPDEST CALLVALUE PUSH2 0x1CB JUMPI PUSH1 0x0 CALLDATASIZE PUSH1 0x3 NOT ADD SLT PUSH2 0x1CB JUMPI PUSH1 0x20 PUSH2 0x1C3 PUSH2 0x236E JUMP JUMPDEST CALLVALUE PUSH2 0x1CB JUMPI PUSH1 0x20 CALLDATASIZE PUSH1 0x3 NOT ADD SLT PUSH2 0x1CB JUMPI PUSH1 0x4 CALLDATALOAD PUSH1 0x1 PUSH1 0x1 PUSH1 0xA0 SHL SUB DUP2 AND DUP1 SWAP2 SUB PUSH2 0x1CB JUMPI PUSH1 0x0 DUP1 DUP1 DUP1 SWAP4 PUSH2 0x1EF7 PUSH2 0x26F9 JUMP JUMPDEST SELFBALANCE SWAP1 DUP3 DUP3 ISZERO PUSH2 0x1F09 JUMPI JUMPDEST CALL ISZERO PUSH2 0x424 JUMPI STOP JUMPDEST POP PUSH2 0x8FC PUSH2 0x1F01 JUMP JUMPDEST CALLVALUE PUSH2 0x1CB JUMPI PUSH1 0x0 CALLDATASIZE PUSH1 0x3 NOT ADD SLT PUSH2 0x1CB JUMPI PUSH1 0x20 PUSH1 0x1 PUSH1 0x1 PUSH1 0xA0 SHL SUB PUSH1 0xA SLOAD AND PUSH1 0x40 MLOAD SWAP1 DUP2 MSTORE RETURN JUMPDEST CALLVALUE PUSH2 0x1CB JUMPI PUSH1 0x20 CALLDATASIZE PUSH1 0x3 NOT ADD SLT PUSH2 0x1CB JUMPI PUSH2 0x189A PUSH1 0x20 PUSH2 0x1F57 PUSH2 0x231D JUMP JUMPDEST PUSH2 0x1F5F PUSH2 0x26F9 JUMP JUMPDEST PUSH1 0x1 PUSH1 0x1 PUSH1 0xA0 SHL SUB PUSH1 0x1 SLOAD AND PUSH2 0x1D9E PUSH2 0x236E JUMP JUMPDEST CALLVALUE PUSH2 0x1CB JUMPI PUSH1 0x20 CALLDATASIZE PUSH1 0x3 NOT ADD SLT PUSH2 0x1CB JUMPI PUSH1 0x1 PUSH1 0x1 PUSH1 0xA0 SHL SUB PUSH2 0x1F94 PUSH2 0x231D JUMP JUMPDEST PUSH2 0x1F9C PUSH2 0x26F9 JUMP JUMPDEST AND PUSH1 0x1 PUSH1 0x1 PUSH1 0xA0 SHL SUB NOT PUSH1 0x1 SLOAD AND OR PUSH1 0x1 SSTORE PUSH1 0x0 DUP1 RETURN JUMPDEST CALLVALUE PUSH2 0x1CB JUMPI PUSH1 0x0 CALLDATASIZE PUSH1 0x3 NOT ADD SLT PUSH2 0x1CB JUMPI PUSH1 0x40 MLOAD PUSH1 0x3 SLOAD PUSH1 0x0 DUP3 PUSH2 0x1FD6 DUP4 PUSH2 0x21A3 JUMP JUMPDEST SWAP2 DUP3 DUP3 MSTORE PUSH1 0x20 SWAP4 PUSH1 0x1 SWAP1 DUP6 PUSH1 0x1 DUP3 AND SWAP2 DUP3 PUSH1 0x0 EQ PUSH2 0x207A JUMPI POP POP PUSH1 0x1 EQ PUSH2 0x201D JUMPI JUMPDEST POP PUSH2 0x2005 SWAP3 POP SUB DUP4 PUSH2 0x2216 JUMP JUMPDEST PUSH2 0x2019 PUSH1 0x40 MLOAD SWAP3 DUP3 DUP5 SWAP4 DUP5 MSTORE DUP4 ADD SWAP1 PUSH2 0x22DD JUMP JUMPDEST SUB SWAP1 RETURN JUMPDEST DUP5 SWAP2 POP PUSH1 0x3 PUSH1 0x0 MSTORE PUSH32 0xC2575A0E9E593C00F959F8C92F12DB2869C3395A3B0502D05E2516446F71F85B SWAP1 PUSH1 0x0 SWAP2 JUMPDEST DUP6 DUP4 LT PUSH2 0x2062 JUMPI POP POP PUSH2 0x2005 SWAP4 POP DUP3 ADD ADD DUP6 PUSH2 0x1FF8 JUMP JUMPDEST DUP1 SLOAD DUP4 DUP10 ADD DUP6 ADD MSTORE DUP8 SWAP5 POP DUP7 SWAP4 SWAP1 SWAP3 ADD SWAP2 DUP2 ADD PUSH2 0x204B JUMP JUMPDEST PUSH1 0xFF NOT AND DUP6 DUP3 ADD MSTORE PUSH2 0x2005 SWAP6 ISZERO ISZERO PUSH1 0x5 SHL DUP6 ADD ADD SWAP3 POP DUP8 SWAP2 POP PUSH2 0x1FF8 SWAP1 POP JUMP JUMPDEST CALLVALUE PUSH2 0x1CB JUMPI PUSH1 0x0 CALLDATASIZE PUSH1 0x3 NOT ADD SLT PUSH2 0x1CB JUMPI PUSH1 0x20 PUSH1 0x1 PUSH1 0x1 PUSH1 0xA0 SHL SUB PUSH1 0x9 SLOAD AND PUSH1 0x40 MLOAD SWAP1 DUP2 MSTORE RETURN JUMPDEST CALLVALUE PUSH2 0x1CB JUMPI PUSH1 0x20 CALLDATASIZE PUSH1 0x3 NOT ADD SLT PUSH2 0x1CB JUMPI PUSH1 0x4 CALLDATALOAD PUSH1 0x0 MSTORE PUSH1 0x5 PUSH1 0x20 MSTORE PUSH1 0x40 PUSH1 0x0 KECCAK256 PUSH2 0x20EB DUP2 PUSH2 0x2238 JUMP JUMPDEST SWAP1 PUSH1 0x1 DUP2 ADD SLOAD PUSH1 0x2 DUP3 ADD SLOAD SWAP2 PUSH1 0x3 DUP2 ADD SLOAD SWAP1 PUSH1 0x4 DUP2 ADD SLOAD PUSH1 0x5 DUP3 ADD SLOAD PUSH1 0x6 DUP4 ADD SLOAD PUSH1 0x7 DUP5 ADD SLOAD PUSH1 0x8 DUP6 ADD SLOAD PUSH1 0x9 DUP7 ADD SLOAD SWAP2 PUSH1 0xA DUP8 ADD SLOAD SWAP4 PUSH1 0xB DUP9 ADD SLOAD SWAP6 PUSH1 0xC DUP10 ADD SLOAD SWAP8 PUSH1 0xD DUP11 ADD SLOAD SWAP10 PUSH1 0xE ADD SLOAD SWAP11 PUSH1 0x40 MLOAD SWAP15 DUP16 SWAP15 DUP16 SWAP2 PUSH2 0x1E0 DUP1 DUP5 MSTORE DUP4 ADD PUSH2 0x2152 SWAP2 PUSH2 0x22DD JUMP JUMPDEST SWAP15 PUSH1 0x20 DUP4 ADD MSTORE PUSH1 0x40 DUP3 ADD MSTORE PUSH1 0x60 ADD MSTORE PUSH1 0x80 DUP14 ADD MSTORE PUSH1 0xA0 DUP13 ADD MSTORE PUSH1 0xC0 DUP12 ADD MSTORE PUSH1 0xE0 DUP11 ADD MSTORE PUSH2 0x100 DUP10 ADD MSTORE PUSH2 0x120 DUP9 ADD MSTORE PUSH2 0x140 DUP8 ADD MSTORE PUSH2 0x160 DUP7 ADD MSTORE PUSH2 0x180 DUP6 ADD MSTORE PUSH2 0x1A0 DUP5 ADD MSTORE PUSH2 0x1C0 DUP4 ADD MSTORE SUB SWAP1 RETURN JUMPDEST SWAP1 PUSH1 0x1 DUP3 DUP2 SHR SWAP3 AND DUP1 ISZERO PUSH2 0x21D3 JUMPI JUMPDEST PUSH1 0x20 DUP4 LT EQ PUSH2 0x21BD JUMPI JUMP JUMPDEST PUSH4 0x4E487B71 PUSH1 0xE0 SHL PUSH1 0x0 MSTORE PUSH1 0x22 PUSH1 0x4 MSTORE PUSH1 0x24 PUSH1 0x0 REVERT JUMPDEST SWAP2 PUSH1 0x7F AND SWAP2 PUSH2 0x21B2 JUMP JUMPDEST PUSH1 0xC0 DUP2 ADD SWAP1 DUP2 LT PUSH8 0xFFFFFFFFFFFFFFFF DUP3 GT OR PUSH2 0xFF0 JUMPI PUSH1 0x40 MSTORE JUMP JUMPDEST PUSH2 0x1E0 DUP2 ADD SWAP1 DUP2 LT PUSH8 0xFFFFFFFFFFFFFFFF DUP3 GT OR PUSH2 0xFF0 JUMPI PUSH1 0x40 MSTORE JUMP JUMPDEST SWAP1 PUSH1 0x1F DUP1 NOT SWAP2 ADD AND DUP2 ADD SWAP1 DUP2 LT PUSH8 0xFFFFFFFFFFFFFFFF DUP3 GT OR PUSH2 0xFF0 JUMPI PUSH1 0x40 MSTORE JUMP JUMPDEST SWAP1 PUSH1 0x40 MLOAD SWAP2 DUP3 PUSH1 0x0 DUP3 SLOAD PUSH2 0x224B DUP2 PUSH2 0x21A3 JUMP JUMPDEST SWAP1 DUP2 DUP5 MSTORE PUSH1 0x20 SWAP5 PUSH1 0x1 SWAP2 PUSH1 0x1 DUP2 AND SWAP1 DUP2 PUSH1 0x0 EQ PUSH2 0x22BB JUMPI POP PUSH1 0x1 EQ PUSH2 0x227C JUMPI JUMPDEST POP POP POP PUSH2 0x227A SWAP3 POP SUB DUP4 PUSH2 0x2216 JUMP JUMPDEST JUMP JUMPDEST PUSH1 0x0 SWAP1 DUP2 MSTORE DUP6 DUP2 KECCAK256 SWAP6 SWAP4 POP SWAP2 SWAP1 JUMPDEST DUP2 DUP4 LT PUSH2 0x22A3 JUMPI POP POP PUSH2 0x227A SWAP4 POP DUP3 ADD ADD CODESIZE DUP1 DUP1 PUSH2 0x226B JUMP JUMPDEST DUP6 SLOAD DUP9 DUP5 ADD DUP6 ADD MSTORE SWAP5 DUP6 ADD SWAP5 DUP8 SWAP5 POP SWAP2 DUP4 ADD SWAP2 PUSH2 0x228A JUMP JUMPDEST SWAP3 POP POP POP PUSH2 0x227A SWAP5 SWAP3 POP PUSH1 0xFF NOT AND DUP3 DUP5 ADD MSTORE ISZERO ISZERO PUSH1 0x5 SHL DUP3 ADD ADD CODESIZE DUP1 DUP1 PUSH2 0x226B JUMP JUMPDEST SWAP2 SWAP1 DUP3 MLOAD SWAP3 DUP4 DUP3 MSTORE PUSH1 0x0 JUMPDEST DUP5 DUP2 LT PUSH2 0x2309 JUMPI POP POP DUP3 PUSH1 0x0 PUSH1 0x20 DUP1 SWAP5 SWAP6 DUP5 ADD ADD MSTORE PUSH1 0x1F DUP1 NOT SWAP2 ADD AND ADD ADD SWAP1 JUMP JUMPDEST PUSH1 0x20 DUP2 DUP4 ADD DUP2 ADD MLOAD DUP5 DUP4 ADD DUP3 ADD MSTORE ADD PUSH2 0x22E8 JUMP JUMPDEST PUSH1 0x4 CALLDATALOAD SWAP1 PUSH1 0x1 PUSH1 0x1 PUSH1 0xA0 SHL SUB DUP3 AND DUP3 SUB PUSH2 0x1CB JUMPI JUMP JUMPDEST PUSH1 0x24 CALLDATALOAD SWAP1 PUSH1 0x1 PUSH1 0x1 PUSH1 0xA0 SHL SUB DUP3 AND DUP3 SUB PUSH2 0x1CB JUMPI JUMP JUMPDEST SWAP1 DUP2 PUSH1 0x20 SWAP2 SUB SLT PUSH2 0x1CB JUMPI MLOAD DUP1 ISZERO ISZERO DUP2 SUB PUSH2 0x1CB JUMPI SWAP1 JUMP JUMPDEST SWAP2 SWAP1 DUP3 ADD DUP1 SWAP3 GT PUSH2 0xBAF JUMPI JUMP JUMPDEST PUSH1 0x4 SLOAD ISZERO PUSH2 0x23BA JUMPI PUSH1 0x0 DUP1 PUSH1 0x7 SLOAD JUMPDEST DUP1 DUP3 LT PUSH2 0x2389 JUMPI POP POP SWAP1 JUMP JUMPDEST SWAP1 SWAP2 PUSH2 0x23B2 PUSH1 0x1 SWAP2 DUP5 PUSH1 0x0 MSTORE PUSH2 0x5BE PUSH1 0x5 DUP1 PUSH1 0x20 MSTORE PUSH1 0x9 PUSH1 0x40 PUSH1 0x0 KECCAK256 SWAP2 DUP3 ADD SLOAD SWAP2 ADD SLOAD SWAP1 PUSH2 0x2361 JUMP JUMPDEST SWAP3 ADD SWAP1 PUSH2 0x237D JUMP JUMPDEST PUSH1 0x0 SWAP1 JUMP JUMPDEST DUP2 DUP2 MUL SWAP3 SWAP2 DUP2 ISZERO SWAP2 DUP5 DIV EQ OR ISZERO PUSH2 0xBAF JUMPI JUMP JUMPDEST SWAP2 SWAP1 DUP3 SUB SWAP2 DUP3 GT PUSH2 0xBAF JUMPI JUMP JUMPDEST SWAP1 PUSH1 0x1 PUSH1 0x1 PUSH1 0xA0 SHL SUB SWAP1 DUP2 PUSH1 0x1 SLOAD AND ISZERO PUSH2 0x2616 JUMPI PUSH1 0x4 SLOAD SWAP2 DUP3 ISZERO PUSH2 0x260D JUMPI DUP1 PUSH1 0x0 SWAP3 AND DUP3 MSTORE PUSH1 0x8 PUSH1 0x20 MSTORE PUSH1 0x40 SWAP1 DUP2 DUP4 KECCAK256 DUP6 DUP5 MSTORE PUSH1 0x20 MSTORE DUP2 DUP4 KECCAK256 SWAP4 DUP3 MLOAD SWAP2 PUSH2 0x2425 DUP4 PUSH2 0x21DD JUMP JUMPDEST DUP6 SLOAD AND DUP3 MSTORE PUSH1 0x1 DUP6 ADD SLOAD SWAP6 PUSH1 0x20 DUP4 ADD SWAP7 DUP8 MSTORE PUSH1 0x2 DUP7 ADD SLOAD DUP5 DUP5 ADD MSTORE PUSH1 0x3 DUP7 ADD SLOAD PUSH1 0x60 DUP5 ADD MSTORE PUSH1 0xA0 PUSH1 0x5 PUSH1 0x4 DUP9 ADD SLOAD SWAP8 PUSH1 0x80 DUP7 ADD SWAP9 DUP10 MSTORE ADD SLOAD SWAP4 ADD SWAP3 DUP4 MSTORE DUP5 MSTORE PUSH1 0x5 PUSH1 0x20 MSTORE DUP3 DUP5 KECCAK256 DUP4 MLOAD SWAP4 PUSH2 0x2478 DUP6 PUSH2 0x21F9 JUMP JUMPDEST PUSH2 0x2481 DUP3 PUSH2 0x2238 JUMP JUMPDEST DUP6 MSTORE PUSH1 0x1 DUP3 ADD SLOAD PUSH1 0x20 DUP7 ADD MSTORE PUSH1 0x2 DUP3 ADD SLOAD SWAP1 DUP6 ADD MSTORE PUSH1 0x3 DUP2 ADD SLOAD PUSH1 0x60 DUP6 ADD MSTORE PUSH1 0x4 DUP2 ADD SLOAD PUSH1 0x80 DUP6 ADD MSTORE PUSH1 0x5 DUP2 ADD SLOAD PUSH1 0xA0 DUP6 ADD MSTORE PUSH1 0x6 DUP2 ADD SLOAD PUSH1 0xC0 DUP6 ADD MSTORE PUSH1 0x7 DUP2 ADD SLOAD PUSH1 0xE0 DUP6 ADD MSTORE PUSH1 0x8 DUP2 ADD SLOAD PUSH2 0x100 DUP6 ADD MSTORE PUSH1 0x9 DUP2 ADD SLOAD PUSH2 0x120 DUP6 ADD MSTORE PUSH1 0xA DUP2 ADD SLOAD PUSH2 0x140 DUP6 ADD MSTORE PUSH1 0xB DUP2 ADD SLOAD SWAP2 PUSH2 0x160 DUP6 ADD SWAP3 DUP4 MSTORE PUSH1 0xC DUP3 ADD SLOAD SWAP1 PUSH2 0x180 DUP7 ADD SWAP2 DUP3 MSTORE PUSH2 0x1C0 PUSH1 0xE PUSH1 0xD DUP6 ADD SLOAD SWAP5 PUSH2 0x1A0 DUP10 ADD SWAP6 DUP7 MSTORE ADD SLOAD SWAP7 ADD SWAP6 DUP7 MSTORE PUSH2 0x252A DUP2 DUP10 MLOAD PUSH2 0x2361 JUMP JUMPDEST TIMESTAMP LT PUSH2 0x2601 JUMPI SWAP1 PUSH2 0x2554 PUSH2 0x255C SWAP3 DUP11 MLOAD SWAP6 PUSH2 0x254C PUSH3 0xF4240 SWAP8 DUP9 SWAP3 MLOAD SWAP1 PUSH2 0x23BF JUMP JUMPDEST DIV SWAP10 MLOAD PUSH2 0x2361 JUMP JUMPDEST SWAP1 MLOAD SWAP1 PUSH2 0x2361 JUMP JUMPDEST SWAP3 DUP4 TIMESTAMP LT PUSH2 0x25F6 JUMPI MLOAD PUSH2 0x25EC JUMPI PUSH2 0x2574 DUP5 MLOAD DUP5 PUSH2 0x2361 JUMP JUMPDEST TIMESTAMP LT ISZERO PUSH2 0x25EC JUMPI PUSH2 0x25A8 DUP8 PUSH2 0x25A3 PUSH2 0x25B5 SWAP6 SWAP5 PUSH2 0x2599 PUSH2 0x25AF SWAP6 DUP12 SWAP13 MLOAD SWAP1 MLOAD SWAP1 PUSH2 0x23BF JUMP JUMPDEST DIV SWAP9 DUP10 SWAP3 MLOAD PUSH2 0x23D2 JUMP JUMPDEST PUSH2 0x23D2 JUMP JUMPDEST SWAP2 TIMESTAMP PUSH2 0x23D2 JUMP JUMPDEST SWAP1 PUSH2 0x23BF JUMP JUMPDEST SWAP1 MLOAD SWAP2 DUP3 ISZERO PUSH2 0x25D8 JUMPI POP SWAP2 PUSH2 0x25D0 SWAP2 PUSH2 0x25D5 SWAP5 SWAP4 DIV SWAP3 PUSH2 0x2361 JUMP JUMPDEST PUSH2 0x2361 JUMP JUMPDEST SWAP1 JUMP JUMPDEST DUP1 PUSH4 0x4E487B71 PUSH1 0xE0 SHL PUSH1 0x24 SWAP3 MSTORE PUSH1 0x12 PUSH1 0x4 MSTORE REVERT JUMPDEST POP POP POP POP POP POP MLOAD SWAP1 JUMP JUMPDEST POP POP POP POP POP POP SWAP1 POP SWAP1 JUMP JUMPDEST POP POP POP POP POP POP SWAP2 POP POP SWAP1 JUMP JUMPDEST POP POP POP POP PUSH1 0x0 SWAP1 JUMP JUMPDEST POP POP POP PUSH1 0x0 SWAP1 JUMP JUMPDEST SWAP1 PUSH1 0x1 PUSH1 0x1 PUSH1 0xA0 SHL SUB PUSH2 0x2631 DUP3 DUP5 PUSH2 0x23DF JUMP JUMPDEST SWAP2 AND SWAP2 PUSH1 0x0 SWAP3 DUP1 DUP5 MSTORE PUSH1 0x8 PUSH1 0x20 MSTORE PUSH1 0x40 DUP5 KECCAK256 DUP3 DUP6 MSTORE PUSH1 0x20 MSTORE PUSH1 0x2 PUSH1 0x40 DUP6 KECCAK256 ADD SLOAD DUP4 LT PUSH2 0x267A JUMPI DUP4 PUSH1 0x2 SWAP3 PUSH1 0x40 SWAP3 PUSH2 0x25D5 SWAP7 MSTORE PUSH1 0x8 PUSH1 0x20 MSTORE DUP3 DUP3 KECCAK256 SWAP1 DUP3 MSTORE PUSH1 0x20 MSTORE KECCAK256 ADD SLOAD SWAP1 PUSH2 0x23D2 JUMP JUMPDEST POP POP POP SWAP1 JUMP JUMPDEST PUSH1 0x24 PUSH1 0x20 PUSH1 0x1 PUSH1 0x1 PUSH1 0xA0 SHL SUB PUSH1 0x2 SLOAD AND PUSH1 0x40 MLOAD SWAP3 DUP4 DUP1 SWAP3 PUSH4 0x70A08231 PUSH1 0xE0 SHL DUP3 MSTORE ADDRESS PUSH1 0x4 DUP4 ADD MSTORE GAS STATICCALL DUP1 ISZERO PUSH2 0x424 JUMPI PUSH1 0x0 SWAP1 PUSH2 0x26C5 JUMPI JUMPDEST PUSH2 0x25D5 SWAP2 POP PUSH1 0xD SLOAD SWAP1 PUSH2 0x23D2 JUMP JUMPDEST POP PUSH1 0x20 DUP2 RETURNDATASIZE PUSH1 0x20 GT PUSH2 0x26F1 JUMPI JUMPDEST DUP2 PUSH2 0x26DF PUSH1 0x20 SWAP4 DUP4 PUSH2 0x2216 JUMP JUMPDEST DUP2 ADD SUB SLT PUSH2 0x1CB JUMPI PUSH2 0x25D5 SWAP1 MLOAD PUSH2 0x26B7 JUMP JUMPDEST RETURNDATASIZE SWAP2 POP PUSH2 0x26D2 JUMP JUMPDEST PUSH1 0x1 PUSH1 0x1 PUSH1 0xA0 SHL SUB PUSH1 0x0 SLOAD AND CALLER SUB PUSH2 0x270D JUMPI JUMP JUMPDEST PUSH1 0x24 PUSH1 0x40 MLOAD PUSH32 0x118CDAA700000000000000000000000000000000000000000000000000000000 DUP2 MSTORE CALLER PUSH1 0x4 DUP3 ADD MSTORE REVERT JUMPDEST PUSH1 0xFF PUSH1 0x0 SLOAD PUSH1 0xA0 SHR AND PUSH2 0x274C JUMPI JUMP JUMPDEST PUSH1 0x4 PUSH1 0x40 MLOAD PUSH32 0xD93C066500000000000000000000000000000000000000000000000000000000 DUP2 MSTORE REVERT JUMPDEST PUSH1 0x0 NOT DUP2 EQ PUSH2 0xBAF JUMPI PUSH1 0x1 ADD SWAP1 JUMP INVALID LOG2 PUSH5 0x6970667358 0x22 SLT KECCAK256 0xAC 0xCB PUSH14 0xA89CB23BBF2C274E3B537F458654 0xC 0xEF DUP4 PUSH4 0xC6EB6786 0xC3 0xCB SUB MLOAD 0xC2 EXTCODEHASH SWAP7 PUSH5 0x736F6C6343 STOP ADDMOD XOR STOP CALLER "
        },
        "methodIdentifiers": {
          "balance()": "b69ef8a8",
          "claim()": "4e71d92d",
          "claimableAmount(uint256,address)": "f311df8e",
          "claimableAmountAllTiers(address)": "9943d6ec",
          "countTiers()": "b0cd390e",
          "currentTier()": "d679677a",
          "getMember(address,uint256)": "b0904882",
          "getTier(uint256)": "4f062c5a",
          "liquidityFactory()": "05f2770c",
          "liquidityPair()": "808a5457",
          "liquidityRouter()": "24702944",
          "liquidityToken()": "43cd8f7e",
          "liquidityUSDT()": "cdac5f7c",
          "liquidityUSDTPercent()": "8a0beaa1",
          "members(address,uint256)": "719ba034",
          "name()": "06fdde03",
          "owner()": "8da5cb5b",
          "paused()": "5c975abb",
          "purchase(address,uint256)": "8de93222",
          "remainingAmount(address)": "5a849419",
          "renounceOwnership()": "715018a6",
          "saleBalance()": "fab14b36",
          "setToken(address)": "144fa6d7",
          "setUSDT(address)": "50c1b923",
          "surplusTokens()": "260edaaa",
          "tgeTime()": "3163e3a8",
          "tiers(uint256)": "039af9eb",
          "totalAmount(address)": "d72b9da2",
          "totalPaid(address)": "3dd6d533",
          "transferOwnership(address)": "f2fde38b",
          "vestedAmount(uint256,address)": "3e6c5311",
          "withdrawErc20(address,address)": "739656db",
          "withdrawEth(address)": "25e16063",
          "withdrawPartialSaleBalance(address,uint256)": "52a87c6b",
          "withdrawSaleBalance(address)": "4a2bfc8b",
          "withdrawSurplusTokens(address)": "1afd1a4b"
        }
      }
    }
  }
}