{
  "contracts/VestingContract.sol": {
    "VestingContract": {
      "abi": [
        {
          "inputs": [
            {
              "internalType": "string",
              "name": "_name",
              "type": "string"
            },
            {
              "internalType": "address",
              "name": "_saleContract",
              "type": "address"
            },
            {
              "internalType": "uint256",
              "name": "_tgePercent",
              "type": "uint256"
            },
            {
              "internalType": "uint256",
              "name": "_cliffDuration",
              "type": "uint256"
            },
            {
              "internalType": "uint256",
              "name": "_cliffPercent",
              "type": "uint256"
            },
            {
              "internalType": "uint256",
              "name": "_linearDuration",
              "type": "uint256"
            }
          ],
          "stateMutability": "nonpayable",
          "type": "constructor"
        },
        {
          "inputs": [
            {
              "internalType": "address",
              "name": "owner",
              "type": "address"
            }
          ],
          "name": "OwnableInvalidOwner",
          "type": "error"
        },
        {
          "inputs": [
            {
              "internalType": "address",
              "name": "account",
              "type": "address"
            }
          ],
          "name": "OwnableUnauthorizedAccount",
          "type": "error"
        },
        {
          "anonymous": false,
          "inputs": [
            {
              "indexed": false,
              "internalType": "address",
              "name": "account",
              "type": "address"
            },
            {
              "indexed": false,
              "internalType": "uint256",
              "name": "amount",
              "type": "uint256"
            }
          ],
          "name": "Added",
          "type": "event"
        },
        {
          "anonymous": false,
          "inputs": [
            {
              "indexed": false,
              "internalType": "address",
              "name": "account",
              "type": "address"
            },
            {
              "indexed": false,
              "internalType": "uint256",
              "name": "amount",
              "type": "uint256"
            }
          ],
          "name": "Claimed",
          "type": "event"
        },
        {
          "anonymous": false,
          "inputs": [
            {
              "indexed": true,
              "internalType": "address",
              "name": "previousOwner",
              "type": "address"
            },
            {
              "indexed": true,
              "internalType": "address",
              "name": "newOwner",
              "type": "address"
            }
          ],
          "name": "OwnershipTransferred",
          "type": "event"
        },
        {
          "anonymous": false,
          "inputs": [
            {
              "indexed": false,
              "internalType": "address",
              "name": "account",
              "type": "address"
            },
            {
              "indexed": false,
              "internalType": "uint256",
              "name": "amount",
              "type": "uint256"
            }
          ],
          "name": "Removed",
          "type": "event"
        },
        {
          "inputs": [
            {
              "internalType": "address[]",
              "name": "addrs",
              "type": "address[]"
            },
            {
              "internalType": "uint256[]",
              "name": "tokenAmounts",
              "type": "uint256[]"
            }
          ],
          "name": "addMembers",
          "outputs": [],
          "stateMutability": "nonpayable",
          "type": "function"
        },
        {
          "inputs": [],
          "name": "allocatedAmount",
          "outputs": [
            {
              "internalType": "uint256",
              "name": "",
              "type": "uint256"
            }
          ],
          "stateMutability": "view",
          "type": "function"
        },
        {
          "inputs": [],
          "name": "balance",
          "outputs": [
            {
              "internalType": "uint256",
              "name": "",
              "type": "uint256"
            }
          ],
          "stateMutability": "view",
          "type": "function"
        },
        {
          "inputs": [],
          "name": "claim",
          "outputs": [],
          "stateMutability": "nonpayable",
          "type": "function"
        },
        {
          "inputs": [],
          "name": "claimProxy",
          "outputs": [
            {
              "internalType": "address",
              "name": "",
              "type": "address"
            }
          ],
          "stateMutability": "view",
          "type": "function"
        },
        {
          "inputs": [
            {
              "internalType": "address",
              "name": "addr",
              "type": "address"
            }
          ],
          "name": "claimableAmount",
          "outputs": [
            {
              "internalType": "uint256",
              "name": "",
              "type": "uint256"
            }
          ],
          "stateMutability": "view",
          "type": "function"
        },
        {
          "inputs": [],
          "name": "cliffDuration",
          "outputs": [
            {
              "internalType": "uint256",
              "name": "",
              "type": "uint256"
            }
          ],
          "stateMutability": "view",
          "type": "function"
        },
        {
          "inputs": [],
          "name": "cliffPercent",
          "outputs": [
            {
              "internalType": "uint256",
              "name": "",
              "type": "uint256"
            }
          ],
          "stateMutability": "view",
          "type": "function"
        },
        {
          "inputs": [
            {
              "internalType": "address",
              "name": "_erc",
              "type": "address"
            },
            {
              "internalType": "address",
              "name": "account",
              "type": "address"
            },
            {
              "internalType": "uint256",
              "name": "amount",
              "type": "uint256"
            }
          ],
          "name": "emergencyWithdraw",
          "outputs": [],
          "stateMutability": "nonpayable",
          "type": "function"
        },
        {
          "inputs": [],
          "name": "linearDuration",
          "outputs": [
            {
              "internalType": "uint256",
              "name": "",
              "type": "uint256"
            }
          ],
          "stateMutability": "view",
          "type": "function"
        },
        {
          "inputs": [
            {
              "internalType": "address",
              "name": "",
              "type": "address"
            }
          ],
          "name": "members",
          "outputs": [
            {
              "internalType": "address",
              "name": "account",
              "type": "address"
            },
            {
              "internalType": "uint256",
              "name": "totalAmount",
              "type": "uint256"
            },
            {
              "internalType": "uint256",
              "name": "claimedAmount",
              "type": "uint256"
            },
            {
              "internalType": "uint256",
              "name": "startTime",
              "type": "uint256"
            },
            {
              "internalType": "uint256",
              "name": "endTime",
              "type": "uint256"
            }
          ],
          "stateMutability": "view",
          "type": "function"
        },
        {
          "inputs": [],
          "name": "name",
          "outputs": [
            {
              "internalType": "string",
              "name": "",
              "type": "string"
            }
          ],
          "stateMutability": "view",
          "type": "function"
        },
        {
          "inputs": [],
          "name": "owner",
          "outputs": [
            {
              "internalType": "address",
              "name": "",
              "type": "address"
            }
          ],
          "stateMutability": "view",
          "type": "function"
        },
        {
          "inputs": [
            {
              "internalType": "address",
              "name": "addr",
              "type": "address"
            }
          ],
          "name": "remainingAmount",
          "outputs": [
            {
              "internalType": "uint256",
              "name": "",
              "type": "uint256"
            }
          ],
          "stateMutability": "view",
          "type": "function"
        },
        {
          "inputs": [
            {
              "internalType": "address",
              "name": "addr",
              "type": "address"
            }
          ],
          "name": "removeMember",
          "outputs": [],
          "stateMutability": "nonpayable",
          "type": "function"
        },
        {
          "inputs": [],
          "name": "renounceOwnership",
          "outputs": [],
          "stateMutability": "nonpayable",
          "type": "function"
        },
        {
          "inputs": [
            {
              "internalType": "address",
              "name": "_erc",
              "type": "address"
            }
          ],
          "name": "setToken",
          "outputs": [],
          "stateMutability": "nonpayable",
          "type": "function"
        },
        {
          "inputs": [],
          "name": "tgePercent",
          "outputs": [
            {
              "internalType": "uint256",
              "name": "",
              "type": "uint256"
            }
          ],
          "stateMutability": "view",
          "type": "function"
        },
        {
          "inputs": [],
          "name": "tgeTime",
          "outputs": [
            {
              "internalType": "uint256",
              "name": "",
              "type": "uint256"
            }
          ],
          "stateMutability": "view",
          "type": "function"
        },
        {
          "inputs": [
            {
              "internalType": "address",
              "name": "addr",
              "type": "address"
            }
          ],
          "name": "totalAmount",
          "outputs": [
            {
              "internalType": "uint256",
              "name": "",
              "type": "uint256"
            }
          ],
          "stateMutability": "view",
          "type": "function"
        },
        {
          "inputs": [
            {
              "internalType": "address",
              "name": "newOwner",
              "type": "address"
            }
          ],
          "name": "transferOwnership",
          "outputs": [],
          "stateMutability": "nonpayable",
          "type": "function"
        },
        {
          "inputs": [
            {
              "internalType": "address",
              "name": "addr",
              "type": "address"
            }
          ],
          "name": "vestedAmount",
          "outputs": [
            {
              "internalType": "uint256",
              "name": "",
              "type": "uint256"
            }
          ],
          "stateMutability": "view",
          "type": "function"
        },
        {
          "inputs": [
            {
              "internalType": "address",
              "name": "_erc",
              "type": "address"
            },
            {
              "internalType": "address",
              "name": "account",
              "type": "address"
            }
          ],
          "name": "withdrawErc20",
          "outputs": [],
          "stateMutability": "nonpayable",
          "type": "function"
        },
        {
          "inputs": [
            {
              "internalType": "address payable",
              "name": "account",
              "type": "address"
            }
          ],
          "name": "withdrawEth",
          "outputs": [],
          "stateMutability": "nonpayable",
          "type": "function"
        }
      ],
      "evm": {
        "bytecode": {
          "linkReferences": {},
          "object": "608060405234620002e65762001764803803806200001d8162000300565b92833981019060c081830312620002e65780516001600160401b0390818111620002e657820190601f93808584011215620002e6578251928284116200028357602093601f1991620000758883018416870162000300565b93828552868383010111620002e657859060005b838110620002eb57505060009184010152848401516001600160a01b038082169390929091849003620002e65760408701519460608801519660a060808a0151990151993315620002cd576000549560018060a01b0319963388821617600055604051913391167f8be0079c531659141344cd1fd0a4f28419497f9722a3daafe3b4186f6b6457e0600080a38715620002995750845192831162000283576003948554926001938481811c9116801562000278575b82821014620002625783811162000217575b5080928511600114620001af575083945090839291600094620001a3575b50501b9160001990841b1c19161790555b600254161760025560065560075560085560095560405161143d9081620003278239f35b0151925038806200016e565b9294849081168760005284600020946000905b88838310620001fc5750505010620001e3575b505050811b0190556200017f565b015160001983861b60f8161c19169055388080620001d5565b858701518855909601959485019487935090810190620001c2565b87600052816000208480880160051c82019284891062000258575b0160051c019085905b8281106200024b57505062000150565b600081550185906200023b565b9250819262000232565b634e487b7160e01b600052602260045260246000fd5b90607f16906200013e565b634e487b7160e01b600052604160045260246000fd5b62461bcd60e51b815260048101839052600f60248201526e696e76616c69642074676554696d6560881b6044820152606490fd5b604051631e4fbdf760e01b815260006004820152602490fd5b600080fd5b81810183015186820184015287920162000089565b6040519190601f01601f191682016001600160401b03811183821017620002835760405256fe608080604052600436101561001357600080fd5b60003560e01c90816306fdde0314610e3b5750806308ae4b0c14610dd25780630b1ca49a14610ca3578063115425e414610c85578063144fa6d714610c4557806325e1606314610bf757806330b66cee14610bd05780633163e3a814610b50578063384711cc14610b2d5780633e72b2bb1461080e5780634e71d92d146105955780635a8494191461051f578063715018a6146104c6578063739656db146103d957806389885049146103b65780638da5cb5b1461038f5780639b78a07014610371578063b69ef8a81461034e578063d72b9da2146102da578063d85349f7146102bc578063e2f0f42d1461029e578063e63ea408146101e9578063e67e8aaf146101cb5763f2fde38b1461012757600080fd5b346101c65760203660031901126101c657610140610fd2565b6101486113c3565b6001600160a01b0380911690811561019557600054826001600160a01b0319821617600055167f8be0079c531659141344cd1fd0a4f28419497f9722a3daafe3b4186f6b6457e0600080a3005b60246040517f1e4fbdf700000000000000000000000000000000000000000000000000000000815260006004820152fd5b600080fd5b346101c65760003660031901126101c6576020600854604051908152f35b346101c65760603660031901126101c6576001600160a01b03602061025761020f610fd2565b610217610fe8565b61021f6113c3565b600060405195868095819463a9059cbb60e01b83526044359060048401602090939291936001600160a01b0360408201951681520152565b0393165af180156102925761026857005b6102899060203d60201161028b575b6102818183610fb0565b810190611274565b005b503d610277565b6040513d6000823e3d90fd5b346101c65760003660031901126101c6576020600654604051908152f35b346101c65760003660031901126101c6576020600754604051908152f35b346101c65760203660031901126101c65760206001600160a01b03806102fe610fd2565b16600052600482526040600020906040519061031982610f7e565b825416815260806004600184015493848685015260028101546040850152600381015460608501520154910152604051908152f35b346101c65760003660031901126101c65760206103696112ff565b604051908152f35b346101c65760003660031901126101c6576020600954604051908152f35b346101c65760003660031901126101c65760206001600160a01b0360005416604051908152f35b346101c65760203660031901126101c65760206103696103d4610fd2565b61128c565b346101c65760403660031901126101c6576103f2610fd2565b6001600160a01b03610402610fe8565b9161040b6113c3565b166040516370a0823160e01b81523060048201526020928382602481865afa908115610292578492600092610493575b5060405163a9059cbb60e01b81526001600160a01b039091166004820152602481019190915291829081600081604481015b03925af180156102925761047d57005b8161028992903d1061028b576102818183610fb0565b8381949293503d83116104bf575b6104ab8183610fb0565b810103126101c6579051839161046d61043b565b503d6104a1565b346101c65760003660031901126101c6576104df6113c3565b60006001600160a01b0381546001600160a01b031981168355167f8be0079c531659141344cd1fd0a4f28419497f9722a3daafe3b4186f6b6457e08280a3005b346101c65760203660031901126101c65760206103696001600160a01b0380610546610fd2565b16600052600483526040600020906040519061056182610f7e565b8254168152600182015490818582015260806004600285015494856040850152600381015460608501520154910152611052565b346101c65760003660031901126101c657336000526020600481526001600160a01b038060406000205416156107ca57336000526004825260406000206040516105de81610f7e565b8282541680825260018301549285830193845260028101546040840190815261061e6004600384015493606087019485520154936080860194855261128c565b95861561078657855161063288845161102f565b1161074257600154855160405163a9059cbb60e01b81529083166001600160a01b03166004820152602481018990529493929190899086908316816000816044810103925af18015610292577fd8138f8a3f377c5259ca548e70e4c2de94f129f5a11036a15b69513cba2b426a996004968792610725575b506106b68a855161102f565b84526106c48a600a54611052565b600a553360005252604060002095511695866001600160a01b03198754161786555160018601555160028501555160038401555191015561072060405192839283602090939291936001600160a01b0360408201951681520152565b0390a1005b61073b90823d841161028b576102818183610fb0565b508b6106aa565b6064886040519062461bcd60e51b82526004820152601460248201527f746f6b656e20706f6f6c206578686175737465640000000000000000000000006044820152fd5b6064886040519062461bcd60e51b82526004820152601360248201527f6e6f20746f6b656e7320636c61696d61626c65000000000000000000000000006044820152fd5b6064826040519062461bcd60e51b82526004820152601a60248201527f596f7520617265206e6f7420612076616c6964206d656d6265720000000000006044820152fd5b346101c65760403660031901126101c65767ffffffffffffffff6004358181116101c657610840903690600401610ffe565b91906024916024359081116101c65761085d903690600401610ffe565b9390916108686113c3565b60046108726112ff565b60206001600160a01b03600254166040519384809263062c7c7560e31b82525afa91821561029257600092610af9575b5060005b8481106108af57005b816108bb828a8961123a565b3511610a8f57806001600160a01b036108df6108da600194898961123a565b611260565b16600052600460205261098b604060002093604051946108fe86610f7e565b60046001600160a01b038254169182885286810154602089015260028101546040890152600381015460608901520154608087015215610a4c575b6000608086015261095961094e848d8c61123a565b35602087015161102f565b6020860152610969838c8b61123a565b35610977600a91825461102f565b9055610984838c8b61123a565b3590611052565b926001600160a01b036109a26108da848a8a61123a565b166000526004602052600460806040600020926001600160a01b038151166001600160a01b0319855416178455602081015186850155604081015160028501556060810151600385015501519101557f446e00ad56f9b887844f390c87a128507b991ea0499375f13ecb115288c2df7d610a206108da83898961123a565b610a2b838c8b61123a565b604080516001600160a01b039390931683529035602083015290a1016108a6565b6001600160a01b03610a626108da858b8b61123a565b168552854210600014610a7b5760006060860152610939565b610a858642611052565b6060860152610939565b60848760296040519162461bcd60e51b8352602060048401528201527f616c6c6f636174696f6e20776f756c64206578636565642072656d61696e696e60448201527f672062616c616e636500000000000000000000000000000000000000000000006064820152fd5b9091506020813d602011610b25575b81610b1560209383610fb0565b810103126101c6575190876108a2565b3d9150610b08565b346101c65760203660031901126101c6576020610369610b4b610fd2565b611072565b346101c65760003660031901126101c657600460206001600160a01b03600254166040519283809263062c7c7560e31b82525afa801561029257600090610b9d575b602090604051908152f35b506020813d602011610bc8575b81610bb760209383610fb0565b810103126101c65760209051610b92565b3d9150610baa565b346101c65760003660031901126101c65760206001600160a01b0360055416604051908152f35b346101c65760203660031901126101c6576004356001600160a01b0381168091036101c657600080808093610c2a6113c3565b4790828215610c3c575bf11561029257005b506108fc610c34565b346101c65760203660031901126101c6576001600160a01b03610c66610fd2565b610c6e6113c3565b166001600160a01b03196001541617600155600080f35b346101c65760003660031901126101c6576020600a54604051908152f35b346101c65760203660031901126101c6577fbe80a446a00b8794a7d05e8386915bdde937fe8b48da8d16175a5362b4c3f4f8610cdd610fd2565b610ce56113c3565b6001600160a01b039081811691826000526004602052600460406000209160405192610d1084610f7e565b818154168452600181015460208501818152600283015493610d666040880193868552610d5d8860038801549760608c0198895201549760808b01988952610d578c61128c565b9061102f565b90818552611052565b98610d738a600a54611052565b600a554286526000528560205260406000209651166001600160a01b03198754161786555160018601555160028501555160038401555191015561072060405192839283602090939291936001600160a01b0360408201951681520152565b346101c65760203660031901126101c65760a06001600160a01b0380610df6610fd2565b16600052600460205260406000209081541690600181015490600281015460046003830154920154926040519485526020850152604084015260608301526080820152f35b346101c65760003660031901126101c657600354906000600183811c90808516908115610f74575b6020958684108314610f5e578587938582529182600014610f3e575050600114610ee7575b50505081610e97910382610fb0565b604051828193825282519081818401526000935b828510610ece575050604092506000838284010152601f80199101168101030190f35b8481018201518686016040015293810193859350610eab565b9190925060036000527fc2575a0e9e593c00f959f8c92f12db2869c3395a3b0502d05e2516446f71f85b916000925b828410610f2b57505050820101818385610e88565b8054868501860152928401928101610f16565b60ff19168482015293151560051b84019092019350859150869050610e88565b634e487b7160e01b600052602260045260246000fd5b91607f1691610e63565b60a0810190811067ffffffffffffffff821117610f9a57604052565b634e487b7160e01b600052604160045260246000fd5b90601f8019910116810190811067ffffffffffffffff821117610f9a57604052565b600435906001600160a01b03821682036101c657565b602435906001600160a01b03821682036101c657565b9181601f840112156101c65782359167ffffffffffffffff83116101c6576020808501948460051b0101116101c657565b9190820180921161103c57565b634e487b7160e01b600052601160045260246000fd5b9190820391821161103c57565b8181029291811591840414171561103c57565b6001600160a01b038060015416156112335780600254169060405192839263062c7c7560e31b845283600460209687935afa92831561029257600093611201575b5082156111f857811660005260048352604060002090604051906110d682610f7e565b82541681526001820154938101938452600282015460408201526111118360038401546080600460608601968388520154940193845261102f565b42106111f85761114461113b611133948651620f42409687916006549061105f565b04945161102f565b6007549061102f565b908142106111f057516111e9576009549261115f848361102f565b4210156111e15761119e9061117886516008549061105f565b04916111986111918461118c878a51611052565b611052565b9142611052565b9061105f565b9083156111cb576111b9936111b492049261102f565b61102f565b90518082116111c6575090565b905090565b634e487b7160e01b600052601260045260246000fd5b505050505190565b5050505190565b505091505090565b50505050600090565b90928482813d831161122c575b6112188183610fb0565b8101031261122957505191386110b3565b80fd5b503d61120e565b5050600090565b919081101561124a5760051b0190565b634e487b7160e01b600052603260045260246000fd5b356001600160a01b03811681036101c65790565b908160209103126101c6575180151581036101c65790565b6112ea6001600160a01b03918281166000526004602052604060002092604051906112b682610f7e565b8454168152600184015460208201526080600460028601549560408401968752600381015460608501520154910152611072565b9051808210611233576112fc91611052565b90565b6001600160a01b0360015416801561137f576020602491604051928380926370a0823160e01b82523060048301525afa80156102925760009061134b575b6112fc9150600a5490611052565b506020813d602011611377575b8161136560209383610fb0565b810103126101c6576112fc905161133d565b3d9150611358565b606460405162461bcd60e51b815260206004820152601660248201527f746f6b656e20686173206e6f74206265656e20736574000000000000000000006044820152fd5b6001600160a01b036000541633036113d757565b60246040517f118cdaa7000000000000000000000000000000000000000000000000000000008152336004820152fdfea264697066735822122026b8b3862e65de33fd115860fae61c3fafc91ad3d67bdd11e346cf5fd858cef864736f6c63430008180033",
          "opcodes": "PUSH1 0x80 PUSH1 0x40 MSTORE CALLVALUE PUSH3 0x2E6 JUMPI PUSH3 0x1764 DUP1 CODESIZE SUB DUP1 PUSH3 0x1D DUP2 PUSH3 0x300 JUMP JUMPDEST SWAP3 DUP4 CODECOPY DUP2 ADD SWAP1 PUSH1 0xC0 DUP2 DUP4 SUB SLT PUSH3 0x2E6 JUMPI DUP1 MLOAD PUSH1 0x1 PUSH1 0x1 PUSH1 0x40 SHL SUB SWAP1 DUP2 DUP2 GT PUSH3 0x2E6 JUMPI DUP3 ADD SWAP1 PUSH1 0x1F SWAP4 DUP1 DUP6 DUP5 ADD SLT ISZERO PUSH3 0x2E6 JUMPI DUP3 MLOAD SWAP3 DUP3 DUP5 GT PUSH3 0x283 JUMPI PUSH1 0x20 SWAP4 PUSH1 0x1F NOT SWAP2 PUSH3 0x75 DUP9 DUP4 ADD DUP5 AND DUP8 ADD PUSH3 0x300 JUMP JUMPDEST SWAP4 DUP3 DUP6 MSTORE DUP7 DUP4 DUP4 ADD ADD GT PUSH3 0x2E6 JUMPI DUP6 SWAP1 PUSH1 0x0 JUMPDEST DUP4 DUP2 LT PUSH3 0x2EB JUMPI POP POP PUSH1 0x0 SWAP2 DUP5 ADD ADD MSTORE DUP5 DUP5 ADD MLOAD PUSH1 0x1 PUSH1 0x1 PUSH1 0xA0 SHL SUB DUP1 DUP3 AND SWAP4 SWAP1 SWAP3 SWAP1 SWAP2 DUP5 SWAP1 SUB PUSH3 0x2E6 JUMPI PUSH1 0x40 DUP8 ADD MLOAD SWAP5 PUSH1 0x60 DUP9 ADD MLOAD SWAP7 PUSH1 0xA0 PUSH1 0x80 DUP11 ADD MLOAD SWAP10 ADD MLOAD SWAP10 CALLER ISZERO PUSH3 0x2CD JUMPI PUSH1 0x0 SLOAD SWAP6 PUSH1 0x1 DUP1 PUSH1 0xA0 SHL SUB NOT SWAP7 CALLER DUP9 DUP3 AND OR PUSH1 0x0 SSTORE PUSH1 0x40 MLOAD SWAP2 CALLER SWAP2 AND PUSH32 0x8BE0079C531659141344CD1FD0A4F28419497F9722A3DAAFE3B4186F6B6457E0 PUSH1 0x0 DUP1 LOG3 DUP8 ISZERO PUSH3 0x299 JUMPI POP DUP5 MLOAD SWAP3 DUP4 GT PUSH3 0x283 JUMPI PUSH1 0x3 SWAP5 DUP6 SLOAD SWAP3 PUSH1 0x1 SWAP4 DUP5 DUP2 DUP2 SHR SWAP2 AND DUP1 ISZERO PUSH3 0x278 JUMPI JUMPDEST DUP3 DUP3 LT EQ PUSH3 0x262 JUMPI DUP4 DUP2 GT PUSH3 0x217 JUMPI JUMPDEST POP DUP1 SWAP3 DUP6 GT PUSH1 0x1 EQ PUSH3 0x1AF JUMPI POP DUP4 SWAP5 POP SWAP1 DUP4 SWAP3 SWAP2 PUSH1 0x0 SWAP5 PUSH3 0x1A3 JUMPI JUMPDEST POP POP SHL SWAP2 PUSH1 0x0 NOT SWAP1 DUP5 SHL SHR NOT AND OR SWAP1 SSTORE JUMPDEST PUSH1 0x2 SLOAD AND OR PUSH1 0x2 SSTORE PUSH1 0x6 SSTORE PUSH1 0x7 SSTORE PUSH1 0x8 SSTORE PUSH1 0x9 SSTORE PUSH1 0x40 MLOAD PUSH2 0x143D SWAP1 DUP2 PUSH3 0x327 DUP3 CODECOPY RETURN JUMPDEST ADD MLOAD SWAP3 POP CODESIZE DUP1 PUSH3 0x16E JUMP JUMPDEST SWAP3 SWAP5 DUP5 SWAP1 DUP2 AND DUP8 PUSH1 0x0 MSTORE DUP5 PUSH1 0x0 KECCAK256 SWAP5 PUSH1 0x0 SWAP1 JUMPDEST DUP9 DUP4 DUP4 LT PUSH3 0x1FC JUMPI POP POP POP LT PUSH3 0x1E3 JUMPI JUMPDEST POP POP POP DUP2 SHL ADD SWAP1 SSTORE PUSH3 0x17F JUMP JUMPDEST ADD MLOAD PUSH1 0x0 NOT DUP4 DUP7 SHL PUSH1 0xF8 AND SHR NOT AND SWAP1 SSTORE CODESIZE DUP1 DUP1 PUSH3 0x1D5 JUMP JUMPDEST DUP6 DUP8 ADD MLOAD DUP9 SSTORE SWAP1 SWAP7 ADD SWAP6 SWAP5 DUP6 ADD SWAP5 DUP8 SWAP4 POP SWAP1 DUP2 ADD SWAP1 PUSH3 0x1C2 JUMP JUMPDEST DUP8 PUSH1 0x0 MSTORE DUP2 PUSH1 0x0 KECCAK256 DUP5 DUP1 DUP9 ADD PUSH1 0x5 SHR DUP3 ADD SWAP3 DUP5 DUP10 LT PUSH3 0x258 JUMPI JUMPDEST ADD PUSH1 0x5 SHR ADD SWAP1 DUP6 SWAP1 JUMPDEST DUP3 DUP2 LT PUSH3 0x24B JUMPI POP POP PUSH3 0x150 JUMP JUMPDEST PUSH1 0x0 DUP2 SSTORE ADD DUP6 SWAP1 PUSH3 0x23B JUMP JUMPDEST SWAP3 POP DUP2 SWAP3 PUSH3 0x232 JUMP JUMPDEST PUSH4 0x4E487B71 PUSH1 0xE0 SHL PUSH1 0x0 MSTORE PUSH1 0x22 PUSH1 0x4 MSTORE PUSH1 0x24 PUSH1 0x0 REVERT JUMPDEST SWAP1 PUSH1 0x7F AND SWAP1 PUSH3 0x13E JUMP JUMPDEST PUSH4 0x4E487B71 PUSH1 0xE0 SHL PUSH1 0x0 MSTORE PUSH1 0x41 PUSH1 0x4 MSTORE PUSH1 0x24 PUSH1 0x0 REVERT JUMPDEST PUSH3 0x461BCD PUSH1 0xE5 SHL DUP2 MSTORE PUSH1 0x4 DUP2 ADD DUP4 SWAP1 MSTORE PUSH1 0xF PUSH1 0x24 DUP3 ADD MSTORE PUSH15 0x696E76616C69642074676554696D65 PUSH1 0x88 SHL PUSH1 0x44 DUP3 ADD MSTORE PUSH1 0x64 SWAP1 REVERT JUMPDEST PUSH1 0x40 MLOAD PUSH4 0x1E4FBDF7 PUSH1 0xE0 SHL DUP2 MSTORE PUSH1 0x0 PUSH1 0x4 DUP3 ADD MSTORE PUSH1 0x24 SWAP1 REVERT JUMPDEST PUSH1 0x0 DUP1 REVERT JUMPDEST DUP2 DUP2 ADD DUP4 ADD MLOAD DUP7 DUP3 ADD DUP5 ADD MSTORE DUP8 SWAP3 ADD PUSH3 0x89 JUMP JUMPDEST PUSH1 0x40 MLOAD SWAP2 SWAP1 PUSH1 0x1F ADD PUSH1 0x1F NOT AND DUP3 ADD PUSH1 0x1 PUSH1 0x1 PUSH1 0x40 SHL SUB DUP2 GT DUP4 DUP3 LT OR PUSH3 0x283 JUMPI PUSH1 0x40 MSTORE JUMP INVALID PUSH1 0x80 DUP1 PUSH1 0x40 MSTORE PUSH1 0x4 CALLDATASIZE LT ISZERO PUSH2 0x13 JUMPI PUSH1 0x0 DUP1 REVERT JUMPDEST PUSH1 0x0 CALLDATALOAD PUSH1 0xE0 SHR SWAP1 DUP2 PUSH4 0x6FDDE03 EQ PUSH2 0xE3B JUMPI POP DUP1 PUSH4 0x8AE4B0C EQ PUSH2 0xDD2 JUMPI DUP1 PUSH4 0xB1CA49A EQ PUSH2 0xCA3 JUMPI DUP1 PUSH4 0x115425E4 EQ PUSH2 0xC85 JUMPI DUP1 PUSH4 0x144FA6D7 EQ PUSH2 0xC45 JUMPI DUP1 PUSH4 0x25E16063 EQ PUSH2 0xBF7 JUMPI DUP1 PUSH4 0x30B66CEE EQ PUSH2 0xBD0 JUMPI DUP1 PUSH4 0x3163E3A8 EQ PUSH2 0xB50 JUMPI DUP1 PUSH4 0x384711CC EQ PUSH2 0xB2D JUMPI DUP1 PUSH4 0x3E72B2BB EQ PUSH2 0x80E JUMPI DUP1 PUSH4 0x4E71D92D EQ PUSH2 0x595 JUMPI DUP1 PUSH4 0x5A849419 EQ PUSH2 0x51F JUMPI DUP1 PUSH4 0x715018A6 EQ PUSH2 0x4C6 JUMPI DUP1 PUSH4 0x739656DB EQ PUSH2 0x3D9 JUMPI DUP1 PUSH4 0x89885049 EQ PUSH2 0x3B6 JUMPI DUP1 PUSH4 0x8DA5CB5B EQ PUSH2 0x38F JUMPI DUP1 PUSH4 0x9B78A070 EQ PUSH2 0x371 JUMPI DUP1 PUSH4 0xB69EF8A8 EQ PUSH2 0x34E JUMPI DUP1 PUSH4 0xD72B9DA2 EQ PUSH2 0x2DA JUMPI DUP1 PUSH4 0xD85349F7 EQ PUSH2 0x2BC JUMPI DUP1 PUSH4 0xE2F0F42D EQ PUSH2 0x29E JUMPI DUP1 PUSH4 0xE63EA408 EQ PUSH2 0x1E9 JUMPI DUP1 PUSH4 0xE67E8AAF EQ PUSH2 0x1CB JUMPI PUSH4 0xF2FDE38B EQ PUSH2 0x127 JUMPI PUSH1 0x0 DUP1 REVERT JUMPDEST CALLVALUE PUSH2 0x1C6 JUMPI PUSH1 0x20 CALLDATASIZE PUSH1 0x3 NOT ADD SLT PUSH2 0x1C6 JUMPI PUSH2 0x140 PUSH2 0xFD2 JUMP JUMPDEST PUSH2 0x148 PUSH2 0x13C3 JUMP JUMPDEST PUSH1 0x1 PUSH1 0x1 PUSH1 0xA0 SHL SUB DUP1 SWAP2 AND SWAP1 DUP2 ISZERO PUSH2 0x195 JUMPI PUSH1 0x0 SLOAD DUP3 PUSH1 0x1 PUSH1 0x1 PUSH1 0xA0 SHL SUB NOT DUP3 AND OR PUSH1 0x0 SSTORE AND PUSH32 0x8BE0079C531659141344CD1FD0A4F28419497F9722A3DAAFE3B4186F6B6457E0 PUSH1 0x0 DUP1 LOG3 STOP JUMPDEST PUSH1 0x24 PUSH1 0x40 MLOAD PUSH32 0x1E4FBDF700000000000000000000000000000000000000000000000000000000 DUP2 MSTORE PUSH1 0x0 PUSH1 0x4 DUP3 ADD MSTORE REVERT JUMPDEST PUSH1 0x0 DUP1 REVERT JUMPDEST CALLVALUE PUSH2 0x1C6 JUMPI PUSH1 0x0 CALLDATASIZE PUSH1 0x3 NOT ADD SLT PUSH2 0x1C6 JUMPI PUSH1 0x20 PUSH1 0x8 SLOAD PUSH1 0x40 MLOAD SWAP1 DUP2 MSTORE RETURN JUMPDEST CALLVALUE PUSH2 0x1C6 JUMPI PUSH1 0x60 CALLDATASIZE PUSH1 0x3 NOT ADD SLT PUSH2 0x1C6 JUMPI PUSH1 0x1 PUSH1 0x1 PUSH1 0xA0 SHL SUB PUSH1 0x20 PUSH2 0x257 PUSH2 0x20F PUSH2 0xFD2 JUMP JUMPDEST PUSH2 0x217 PUSH2 0xFE8 JUMP JUMPDEST PUSH2 0x21F PUSH2 0x13C3 JUMP JUMPDEST PUSH1 0x0 PUSH1 0x40 MLOAD SWAP6 DUP7 DUP1 SWAP6 DUP2 SWAP5 PUSH4 0xA9059CBB PUSH1 0xE0 SHL DUP4 MSTORE PUSH1 0x44 CALLDATALOAD SWAP1 PUSH1 0x4 DUP5 ADD PUSH1 0x20 SWAP1 SWAP4 SWAP3 SWAP2 SWAP4 PUSH1 0x1 PUSH1 0x1 PUSH1 0xA0 SHL SUB PUSH1 0x40 DUP3 ADD SWAP6 AND DUP2 MSTORE ADD MSTORE JUMP JUMPDEST SUB SWAP4 AND GAS CALL DUP1 ISZERO PUSH2 0x292 JUMPI PUSH2 0x268 JUMPI STOP JUMPDEST PUSH2 0x289 SWAP1 PUSH1 0x20 RETURNDATASIZE PUSH1 0x20 GT PUSH2 0x28B JUMPI JUMPDEST PUSH2 0x281 DUP2 DUP4 PUSH2 0xFB0 JUMP JUMPDEST DUP2 ADD SWAP1 PUSH2 0x1274 JUMP JUMPDEST STOP JUMPDEST POP RETURNDATASIZE PUSH2 0x277 JUMP JUMPDEST PUSH1 0x40 MLOAD RETURNDATASIZE PUSH1 0x0 DUP3 RETURNDATACOPY RETURNDATASIZE SWAP1 REVERT JUMPDEST CALLVALUE PUSH2 0x1C6 JUMPI PUSH1 0x0 CALLDATASIZE PUSH1 0x3 NOT ADD SLT PUSH2 0x1C6 JUMPI PUSH1 0x20 PUSH1 0x6 SLOAD PUSH1 0x40 MLOAD SWAP1 DUP2 MSTORE RETURN JUMPDEST CALLVALUE PUSH2 0x1C6 JUMPI PUSH1 0x0 CALLDATASIZE PUSH1 0x3 NOT ADD SLT PUSH2 0x1C6 JUMPI PUSH1 0x20 PUSH1 0x7 SLOAD PUSH1 0x40 MLOAD SWAP1 DUP2 MSTORE RETURN JUMPDEST CALLVALUE PUSH2 0x1C6 JUMPI PUSH1 0x20 CALLDATASIZE PUSH1 0x3 NOT ADD SLT PUSH2 0x1C6 JUMPI PUSH1 0x20 PUSH1 0x1 PUSH1 0x1 PUSH1 0xA0 SHL SUB DUP1 PUSH2 0x2FE PUSH2 0xFD2 JUMP JUMPDEST AND PUSH1 0x0 MSTORE PUSH1 0x4 DUP3 MSTORE PUSH1 0x40 PUSH1 0x0 KECCAK256 SWAP1 PUSH1 0x40 MLOAD SWAP1 PUSH2 0x319 DUP3 PUSH2 0xF7E JUMP JUMPDEST DUP3 SLOAD AND DUP2 MSTORE PUSH1 0x80 PUSH1 0x4 PUSH1 0x1 DUP5 ADD SLOAD SWAP4 DUP5 DUP7 DUP6 ADD MSTORE PUSH1 0x2 DUP2 ADD SLOAD PUSH1 0x40 DUP6 ADD MSTORE PUSH1 0x3 DUP2 ADD SLOAD PUSH1 0x60 DUP6 ADD MSTORE ADD SLOAD SWAP2 ADD MSTORE PUSH1 0x40 MLOAD SWAP1 DUP2 MSTORE RETURN JUMPDEST CALLVALUE PUSH2 0x1C6 JUMPI PUSH1 0x0 CALLDATASIZE PUSH1 0x3 NOT ADD SLT PUSH2 0x1C6 JUMPI PUSH1 0x20 PUSH2 0x369 PUSH2 0x12FF JUMP JUMPDEST PUSH1 0x40 MLOAD SWAP1 DUP2 MSTORE RETURN JUMPDEST CALLVALUE PUSH2 0x1C6 JUMPI PUSH1 0x0 CALLDATASIZE PUSH1 0x3 NOT ADD SLT PUSH2 0x1C6 JUMPI PUSH1 0x20 PUSH1 0x9 SLOAD PUSH1 0x40 MLOAD SWAP1 DUP2 MSTORE RETURN JUMPDEST CALLVALUE PUSH2 0x1C6 JUMPI PUSH1 0x0 CALLDATASIZE PUSH1 0x3 NOT ADD SLT PUSH2 0x1C6 JUMPI PUSH1 0x20 PUSH1 0x1 PUSH1 0x1 PUSH1 0xA0 SHL SUB PUSH1 0x0 SLOAD AND PUSH1 0x40 MLOAD SWAP1 DUP2 MSTORE RETURN JUMPDEST CALLVALUE PUSH2 0x1C6 JUMPI PUSH1 0x20 CALLDATASIZE PUSH1 0x3 NOT ADD SLT PUSH2 0x1C6 JUMPI PUSH1 0x20 PUSH2 0x369 PUSH2 0x3D4 PUSH2 0xFD2 JUMP JUMPDEST PUSH2 0x128C JUMP JUMPDEST CALLVALUE PUSH2 0x1C6 JUMPI PUSH1 0x40 CALLDATASIZE PUSH1 0x3 NOT ADD SLT PUSH2 0x1C6 JUMPI PUSH2 0x3F2 PUSH2 0xFD2 JUMP JUMPDEST PUSH1 0x1 PUSH1 0x1 PUSH1 0xA0 SHL SUB PUSH2 0x402 PUSH2 0xFE8 JUMP JUMPDEST SWAP2 PUSH2 0x40B PUSH2 0x13C3 JUMP JUMPDEST AND PUSH1 0x40 MLOAD PUSH4 0x70A08231 PUSH1 0xE0 SHL DUP2 MSTORE ADDRESS PUSH1 0x4 DUP3 ADD MSTORE PUSH1 0x20 SWAP3 DUP4 DUP3 PUSH1 0x24 DUP2 DUP7 GAS STATICCALL SWAP1 DUP2 ISZERO PUSH2 0x292 JUMPI DUP5 SWAP3 PUSH1 0x0 SWAP3 PUSH2 0x493 JUMPI JUMPDEST POP PUSH1 0x40 MLOAD PUSH4 0xA9059CBB PUSH1 0xE0 SHL DUP2 MSTORE PUSH1 0x1 PUSH1 0x1 PUSH1 0xA0 SHL SUB SWAP1 SWAP2 AND PUSH1 0x4 DUP3 ADD MSTORE PUSH1 0x24 DUP2 ADD SWAP2 SWAP1 SWAP2 MSTORE SWAP2 DUP3 SWAP1 DUP2 PUSH1 0x0 DUP2 PUSH1 0x44 DUP2 ADD JUMPDEST SUB SWAP3 GAS CALL DUP1 ISZERO PUSH2 0x292 JUMPI PUSH2 0x47D JUMPI STOP JUMPDEST DUP2 PUSH2 0x289 SWAP3 SWAP1 RETURNDATASIZE LT PUSH2 0x28B JUMPI PUSH2 0x281 DUP2 DUP4 PUSH2 0xFB0 JUMP JUMPDEST DUP4 DUP2 SWAP5 SWAP3 SWAP4 POP RETURNDATASIZE DUP4 GT PUSH2 0x4BF JUMPI JUMPDEST PUSH2 0x4AB DUP2 DUP4 PUSH2 0xFB0 JUMP JUMPDEST DUP2 ADD SUB SLT PUSH2 0x1C6 JUMPI SWAP1 MLOAD DUP4 SWAP2 PUSH2 0x46D PUSH2 0x43B JUMP JUMPDEST POP RETURNDATASIZE PUSH2 0x4A1 JUMP JUMPDEST CALLVALUE PUSH2 0x1C6 JUMPI PUSH1 0x0 CALLDATASIZE PUSH1 0x3 NOT ADD SLT PUSH2 0x1C6 JUMPI PUSH2 0x4DF PUSH2 0x13C3 JUMP JUMPDEST PUSH1 0x0 PUSH1 0x1 PUSH1 0x1 PUSH1 0xA0 SHL SUB DUP2 SLOAD PUSH1 0x1 PUSH1 0x1 PUSH1 0xA0 SHL SUB NOT DUP2 AND DUP4 SSTORE AND PUSH32 0x8BE0079C531659141344CD1FD0A4F28419497F9722A3DAAFE3B4186F6B6457E0 DUP3 DUP1 LOG3 STOP JUMPDEST CALLVALUE PUSH2 0x1C6 JUMPI PUSH1 0x20 CALLDATASIZE PUSH1 0x3 NOT ADD SLT PUSH2 0x1C6 JUMPI PUSH1 0x20 PUSH2 0x369 PUSH1 0x1 PUSH1 0x1 PUSH1 0xA0 SHL SUB DUP1 PUSH2 0x546 PUSH2 0xFD2 JUMP JUMPDEST AND PUSH1 0x0 MSTORE PUSH1 0x4 DUP4 MSTORE PUSH1 0x40 PUSH1 0x0 KECCAK256 SWAP1 PUSH1 0x40 MLOAD SWAP1 PUSH2 0x561 DUP3 PUSH2 0xF7E JUMP JUMPDEST DUP3 SLOAD AND DUP2 MSTORE PUSH1 0x1 DUP3 ADD SLOAD SWAP1 DUP2 DUP6 DUP3 ADD MSTORE PUSH1 0x80 PUSH1 0x4 PUSH1 0x2 DUP6 ADD SLOAD SWAP5 DUP6 PUSH1 0x40 DUP6 ADD MSTORE PUSH1 0x3 DUP2 ADD SLOAD PUSH1 0x60 DUP6 ADD MSTORE ADD SLOAD SWAP2 ADD MSTORE PUSH2 0x1052 JUMP JUMPDEST CALLVALUE PUSH2 0x1C6 JUMPI PUSH1 0x0 CALLDATASIZE PUSH1 0x3 NOT ADD SLT PUSH2 0x1C6 JUMPI CALLER PUSH1 0x0 MSTORE PUSH1 0x20 PUSH1 0x4 DUP2 MSTORE PUSH1 0x1 PUSH1 0x1 PUSH1 0xA0 SHL SUB DUP1 PUSH1 0x40 PUSH1 0x0 KECCAK256 SLOAD AND ISZERO PUSH2 0x7CA JUMPI CALLER PUSH1 0x0 MSTORE PUSH1 0x4 DUP3 MSTORE PUSH1 0x40 PUSH1 0x0 KECCAK256 PUSH1 0x40 MLOAD PUSH2 0x5DE DUP2 PUSH2 0xF7E JUMP JUMPDEST DUP3 DUP3 SLOAD AND DUP1 DUP3 MSTORE PUSH1 0x1 DUP4 ADD SLOAD SWAP3 DUP6 DUP4 ADD SWAP4 DUP5 MSTORE PUSH1 0x2 DUP2 ADD SLOAD PUSH1 0x40 DUP5 ADD SWAP1 DUP2 MSTORE PUSH2 0x61E PUSH1 0x4 PUSH1 0x3 DUP5 ADD SLOAD SWAP4 PUSH1 0x60 DUP8 ADD SWAP5 DUP6 MSTORE ADD SLOAD SWAP4 PUSH1 0x80 DUP7 ADD SWAP5 DUP6 MSTORE PUSH2 0x128C JUMP JUMPDEST SWAP6 DUP7 ISZERO PUSH2 0x786 JUMPI DUP6 MLOAD PUSH2 0x632 DUP9 DUP5 MLOAD PUSH2 0x102F JUMP JUMPDEST GT PUSH2 0x742 JUMPI PUSH1 0x1 SLOAD DUP6 MLOAD PUSH1 0x40 MLOAD PUSH4 0xA9059CBB PUSH1 0xE0 SHL DUP2 MSTORE SWAP1 DUP4 AND PUSH1 0x1 PUSH1 0x1 PUSH1 0xA0 SHL SUB AND PUSH1 0x4 DUP3 ADD MSTORE PUSH1 0x24 DUP2 ADD DUP10 SWAP1 MSTORE SWAP5 SWAP4 SWAP3 SWAP2 SWAP1 DUP10 SWAP1 DUP7 SWAP1 DUP4 AND DUP2 PUSH1 0x0 DUP2 PUSH1 0x44 DUP2 ADD SUB SWAP3 GAS CALL DUP1 ISZERO PUSH2 0x292 JUMPI PUSH32 0xD8138F8A3F377C5259CA548E70E4C2DE94F129F5A11036A15B69513CBA2B426A SWAP10 PUSH1 0x4 SWAP7 DUP8 SWAP3 PUSH2 0x725 JUMPI JUMPDEST POP PUSH2 0x6B6 DUP11 DUP6 MLOAD PUSH2 0x102F JUMP JUMPDEST DUP5 MSTORE PUSH2 0x6C4 DUP11 PUSH1 0xA SLOAD PUSH2 0x1052 JUMP JUMPDEST PUSH1 0xA SSTORE CALLER PUSH1 0x0 MSTORE MSTORE PUSH1 0x40 PUSH1 0x0 KECCAK256 SWAP6 MLOAD AND SWAP6 DUP7 PUSH1 0x1 PUSH1 0x1 PUSH1 0xA0 SHL SUB NOT DUP8 SLOAD AND OR DUP7 SSTORE MLOAD PUSH1 0x1 DUP7 ADD SSTORE MLOAD PUSH1 0x2 DUP6 ADD SSTORE MLOAD PUSH1 0x3 DUP5 ADD SSTORE MLOAD SWAP2 ADD SSTORE PUSH2 0x720 PUSH1 0x40 MLOAD SWAP3 DUP4 SWAP3 DUP4 PUSH1 0x20 SWAP1 SWAP4 SWAP3 SWAP2 SWAP4 PUSH1 0x1 PUSH1 0x1 PUSH1 0xA0 SHL SUB PUSH1 0x40 DUP3 ADD SWAP6 AND DUP2 MSTORE ADD MSTORE JUMP JUMPDEST SUB SWAP1 LOG1 STOP JUMPDEST PUSH2 0x73B SWAP1 DUP3 RETURNDATASIZE DUP5 GT PUSH2 0x28B JUMPI PUSH2 0x281 DUP2 DUP4 PUSH2 0xFB0 JUMP JUMPDEST POP DUP12 PUSH2 0x6AA JUMP JUMPDEST PUSH1 0x64 DUP9 PUSH1 0x40 MLOAD SWAP1 PUSH3 0x461BCD PUSH1 0xE5 SHL DUP3 MSTORE PUSH1 0x4 DUP3 ADD MSTORE PUSH1 0x14 PUSH1 0x24 DUP3 ADD MSTORE PUSH32 0x746F6B656E20706F6F6C20657868617573746564000000000000000000000000 PUSH1 0x44 DUP3 ADD MSTORE REVERT JUMPDEST PUSH1 0x64 DUP9 PUSH1 0x40 MLOAD SWAP1 PUSH3 0x461BCD PUSH1 0xE5 SHL DUP3 MSTORE PUSH1 0x4 DUP3 ADD MSTORE PUSH1 0x13 PUSH1 0x24 DUP3 ADD MSTORE PUSH32 0x6E6F20746F6B656E7320636C61696D61626C6500000000000000000000000000 PUSH1 0x44 DUP3 ADD MSTORE REVERT JUMPDEST PUSH1 0x64 DUP3 PUSH1 0x40 MLOAD SWAP1 PUSH3 0x461BCD PUSH1 0xE5 SHL DUP3 MSTORE PUSH1 0x4 DUP3 ADD MSTORE PUSH1 0x1A PUSH1 0x24 DUP3 ADD MSTORE PUSH32 0x596F7520617265206E6F7420612076616C6964206D656D626572000000000000 PUSH1 0x44 DUP3 ADD MSTORE REVERT JUMPDEST CALLVALUE PUSH2 0x1C6 JUMPI PUSH1 0x40 CALLDATASIZE PUSH1 0x3 NOT ADD SLT PUSH2 0x1C6 JUMPI PUSH8 0xFFFFFFFFFFFFFFFF PUSH1 0x4 CALLDATALOAD DUP2 DUP2 GT PUSH2 0x1C6 JUMPI PUSH2 0x840 SWAP1 CALLDATASIZE SWAP1 PUSH1 0x4 ADD PUSH2 0xFFE JUMP JUMPDEST SWAP2 SWAP1 PUSH1 0x24 SWAP2 PUSH1 0x24 CALLDATALOAD SWAP1 DUP2 GT PUSH2 0x1C6 JUMPI PUSH2 0x85D SWAP1 CALLDATASIZE SWAP1 PUSH1 0x4 ADD PUSH2 0xFFE JUMP JUMPDEST SWAP4 SWAP1 SWAP2 PUSH2 0x868 PUSH2 0x13C3 JUMP JUMPDEST PUSH1 0x4 PUSH2 0x872 PUSH2 0x12FF JUMP JUMPDEST PUSH1 0x20 PUSH1 0x1 PUSH1 0x1 PUSH1 0xA0 SHL SUB PUSH1 0x2 SLOAD AND PUSH1 0x40 MLOAD SWAP4 DUP5 DUP1 SWAP3 PUSH4 0x62C7C75 PUSH1 0xE3 SHL DUP3 MSTORE GAS STATICCALL SWAP2 DUP3 ISZERO PUSH2 0x292 JUMPI PUSH1 0x0 SWAP3 PUSH2 0xAF9 JUMPI JUMPDEST POP PUSH1 0x0 JUMPDEST DUP5 DUP2 LT PUSH2 0x8AF JUMPI STOP JUMPDEST DUP2 PUSH2 0x8BB DUP3 DUP11 DUP10 PUSH2 0x123A JUMP JUMPDEST CALLDATALOAD GT PUSH2 0xA8F JUMPI DUP1 PUSH1 0x1 PUSH1 0x1 PUSH1 0xA0 SHL SUB PUSH2 0x8DF PUSH2 0x8DA PUSH1 0x1 SWAP5 DUP10 DUP10 PUSH2 0x123A JUMP JUMPDEST PUSH2 0x1260 JUMP JUMPDEST AND PUSH1 0x0 MSTORE PUSH1 0x4 PUSH1 0x20 MSTORE PUSH2 0x98B PUSH1 0x40 PUSH1 0x0 KECCAK256 SWAP4 PUSH1 0x40 MLOAD SWAP5 PUSH2 0x8FE DUP7 PUSH2 0xF7E JUMP JUMPDEST PUSH1 0x4 PUSH1 0x1 PUSH1 0x1 PUSH1 0xA0 SHL SUB DUP3 SLOAD AND SWAP2 DUP3 DUP9 MSTORE DUP7 DUP2 ADD SLOAD PUSH1 0x20 DUP10 ADD MSTORE PUSH1 0x2 DUP2 ADD SLOAD PUSH1 0x40 DUP10 ADD MSTORE PUSH1 0x3 DUP2 ADD SLOAD PUSH1 0x60 DUP10 ADD MSTORE ADD SLOAD PUSH1 0x80 DUP8 ADD MSTORE ISZERO PUSH2 0xA4C JUMPI JUMPDEST PUSH1 0x0 PUSH1 0x80 DUP7 ADD MSTORE PUSH2 0x959 PUSH2 0x94E DUP5 DUP14 DUP13 PUSH2 0x123A JUMP JUMPDEST CALLDATALOAD PUSH1 0x20 DUP8 ADD MLOAD PUSH2 0x102F JUMP JUMPDEST PUSH1 0x20 DUP7 ADD MSTORE PUSH2 0x969 DUP4 DUP13 DUP12 PUSH2 0x123A JUMP JUMPDEST CALLDATALOAD PUSH2 0x977 PUSH1 0xA SWAP2 DUP3 SLOAD PUSH2 0x102F JUMP JUMPDEST SWAP1 SSTORE PUSH2 0x984 DUP4 DUP13 DUP12 PUSH2 0x123A JUMP JUMPDEST CALLDATALOAD SWAP1 PUSH2 0x1052 JUMP JUMPDEST SWAP3 PUSH1 0x1 PUSH1 0x1 PUSH1 0xA0 SHL SUB PUSH2 0x9A2 PUSH2 0x8DA DUP5 DUP11 DUP11 PUSH2 0x123A JUMP JUMPDEST AND PUSH1 0x0 MSTORE PUSH1 0x4 PUSH1 0x20 MSTORE PUSH1 0x4 PUSH1 0x80 PUSH1 0x40 PUSH1 0x0 KECCAK256 SWAP3 PUSH1 0x1 PUSH1 0x1 PUSH1 0xA0 SHL SUB DUP2 MLOAD AND PUSH1 0x1 PUSH1 0x1 PUSH1 0xA0 SHL SUB NOT DUP6 SLOAD AND OR DUP5 SSTORE PUSH1 0x20 DUP2 ADD MLOAD DUP7 DUP6 ADD SSTORE PUSH1 0x40 DUP2 ADD MLOAD PUSH1 0x2 DUP6 ADD SSTORE PUSH1 0x60 DUP2 ADD MLOAD PUSH1 0x3 DUP6 ADD SSTORE ADD MLOAD SWAP2 ADD SSTORE PUSH32 0x446E00AD56F9B887844F390C87A128507B991EA0499375F13ECB115288C2DF7D PUSH2 0xA20 PUSH2 0x8DA DUP4 DUP10 DUP10 PUSH2 0x123A JUMP JUMPDEST PUSH2 0xA2B DUP4 DUP13 DUP12 PUSH2 0x123A JUMP JUMPDEST PUSH1 0x40 DUP1 MLOAD PUSH1 0x1 PUSH1 0x1 PUSH1 0xA0 SHL SUB SWAP4 SWAP1 SWAP4 AND DUP4 MSTORE SWAP1 CALLDATALOAD PUSH1 0x20 DUP4 ADD MSTORE SWAP1 LOG1 ADD PUSH2 0x8A6 JUMP JUMPDEST PUSH1 0x1 PUSH1 0x1 PUSH1 0xA0 SHL SUB PUSH2 0xA62 PUSH2 0x8DA DUP6 DUP12 DUP12 PUSH2 0x123A JUMP JUMPDEST AND DUP6 MSTORE DUP6 TIMESTAMP LT PUSH1 0x0 EQ PUSH2 0xA7B JUMPI PUSH1 0x0 PUSH1 0x60 DUP7 ADD MSTORE PUSH2 0x939 JUMP JUMPDEST PUSH2 0xA85 DUP7 TIMESTAMP PUSH2 0x1052 JUMP JUMPDEST PUSH1 0x60 DUP7 ADD MSTORE PUSH2 0x939 JUMP JUMPDEST PUSH1 0x84 DUP8 PUSH1 0x29 PUSH1 0x40 MLOAD SWAP2 PUSH3 0x461BCD PUSH1 0xE5 SHL DUP4 MSTORE PUSH1 0x20 PUSH1 0x4 DUP5 ADD MSTORE DUP3 ADD MSTORE PUSH32 0x616C6C6F636174696F6E20776F756C64206578636565642072656D61696E696E PUSH1 0x44 DUP3 ADD MSTORE PUSH32 0x672062616C616E63650000000000000000000000000000000000000000000000 PUSH1 0x64 DUP3 ADD MSTORE REVERT JUMPDEST SWAP1 SWAP2 POP PUSH1 0x20 DUP2 RETURNDATASIZE PUSH1 0x20 GT PUSH2 0xB25 JUMPI JUMPDEST DUP2 PUSH2 0xB15 PUSH1 0x20 SWAP4 DUP4 PUSH2 0xFB0 JUMP JUMPDEST DUP2 ADD SUB SLT PUSH2 0x1C6 JUMPI MLOAD SWAP1 DUP8 PUSH2 0x8A2 JUMP JUMPDEST RETURNDATASIZE SWAP2 POP PUSH2 0xB08 JUMP JUMPDEST CALLVALUE PUSH2 0x1C6 JUMPI PUSH1 0x20 CALLDATASIZE PUSH1 0x3 NOT ADD SLT PUSH2 0x1C6 JUMPI PUSH1 0x20 PUSH2 0x369 PUSH2 0xB4B PUSH2 0xFD2 JUMP JUMPDEST PUSH2 0x1072 JUMP JUMPDEST CALLVALUE PUSH2 0x1C6 JUMPI PUSH1 0x0 CALLDATASIZE PUSH1 0x3 NOT ADD SLT PUSH2 0x1C6 JUMPI PUSH1 0x4 PUSH1 0x20 PUSH1 0x1 PUSH1 0x1 PUSH1 0xA0 SHL SUB PUSH1 0x2 SLOAD AND PUSH1 0x40 MLOAD SWAP3 DUP4 DUP1 SWAP3 PUSH4 0x62C7C75 PUSH1 0xE3 SHL DUP3 MSTORE GAS STATICCALL DUP1 ISZERO PUSH2 0x292 JUMPI PUSH1 0x0 SWAP1 PUSH2 0xB9D JUMPI JUMPDEST PUSH1 0x20 SWAP1 PUSH1 0x40 MLOAD SWAP1 DUP2 MSTORE RETURN JUMPDEST POP PUSH1 0x20 DUP2 RETURNDATASIZE PUSH1 0x20 GT PUSH2 0xBC8 JUMPI JUMPDEST DUP2 PUSH2 0xBB7 PUSH1 0x20 SWAP4 DUP4 PUSH2 0xFB0 JUMP JUMPDEST DUP2 ADD SUB SLT PUSH2 0x1C6 JUMPI PUSH1 0x20 SWAP1 MLOAD PUSH2 0xB92 JUMP JUMPDEST RETURNDATASIZE SWAP2 POP PUSH2 0xBAA JUMP JUMPDEST CALLVALUE PUSH2 0x1C6 JUMPI PUSH1 0x0 CALLDATASIZE PUSH1 0x3 NOT ADD SLT PUSH2 0x1C6 JUMPI PUSH1 0x20 PUSH1 0x1 PUSH1 0x1 PUSH1 0xA0 SHL SUB PUSH1 0x5 SLOAD AND PUSH1 0x40 MLOAD SWAP1 DUP2 MSTORE RETURN JUMPDEST CALLVALUE PUSH2 0x1C6 JUMPI PUSH1 0x20 CALLDATASIZE PUSH1 0x3 NOT ADD SLT PUSH2 0x1C6 JUMPI PUSH1 0x4 CALLDATALOAD PUSH1 0x1 PUSH1 0x1 PUSH1 0xA0 SHL SUB DUP2 AND DUP1 SWAP2 SUB PUSH2 0x1C6 JUMPI PUSH1 0x0 DUP1 DUP1 DUP1 SWAP4 PUSH2 0xC2A PUSH2 0x13C3 JUMP JUMPDEST SELFBALANCE SWAP1 DUP3 DUP3 ISZERO PUSH2 0xC3C JUMPI JUMPDEST CALL ISZERO PUSH2 0x292 JUMPI STOP JUMPDEST POP PUSH2 0x8FC PUSH2 0xC34 JUMP JUMPDEST CALLVALUE PUSH2 0x1C6 JUMPI PUSH1 0x20 CALLDATASIZE PUSH1 0x3 NOT ADD SLT PUSH2 0x1C6 JUMPI PUSH1 0x1 PUSH1 0x1 PUSH1 0xA0 SHL SUB PUSH2 0xC66 PUSH2 0xFD2 JUMP JUMPDEST PUSH2 0xC6E PUSH2 0x13C3 JUMP JUMPDEST AND PUSH1 0x1 PUSH1 0x1 PUSH1 0xA0 SHL SUB NOT PUSH1 0x1 SLOAD AND OR PUSH1 0x1 SSTORE PUSH1 0x0 DUP1 RETURN JUMPDEST CALLVALUE PUSH2 0x1C6 JUMPI PUSH1 0x0 CALLDATASIZE PUSH1 0x3 NOT ADD SLT PUSH2 0x1C6 JUMPI PUSH1 0x20 PUSH1 0xA SLOAD PUSH1 0x40 MLOAD SWAP1 DUP2 MSTORE RETURN JUMPDEST CALLVALUE PUSH2 0x1C6 JUMPI PUSH1 0x20 CALLDATASIZE PUSH1 0x3 NOT ADD SLT PUSH2 0x1C6 JUMPI PUSH32 0xBE80A446A00B8794A7D05E8386915BDDE937FE8B48DA8D16175A5362B4C3F4F8 PUSH2 0xCDD PUSH2 0xFD2 JUMP JUMPDEST PUSH2 0xCE5 PUSH2 0x13C3 JUMP JUMPDEST PUSH1 0x1 PUSH1 0x1 PUSH1 0xA0 SHL SUB SWAP1 DUP2 DUP2 AND SWAP2 DUP3 PUSH1 0x0 MSTORE PUSH1 0x4 PUSH1 0x20 MSTORE PUSH1 0x4 PUSH1 0x40 PUSH1 0x0 KECCAK256 SWAP2 PUSH1 0x40 MLOAD SWAP3 PUSH2 0xD10 DUP5 PUSH2 0xF7E JUMP JUMPDEST DUP2 DUP2 SLOAD AND DUP5 MSTORE PUSH1 0x1 DUP2 ADD SLOAD PUSH1 0x20 DUP6 ADD DUP2 DUP2 MSTORE PUSH1 0x2 DUP4 ADD SLOAD SWAP4 PUSH2 0xD66 PUSH1 0x40 DUP9 ADD SWAP4 DUP7 DUP6 MSTORE PUSH2 0xD5D DUP9 PUSH1 0x3 DUP9 ADD SLOAD SWAP8 PUSH1 0x60 DUP13 ADD SWAP9 DUP10 MSTORE ADD SLOAD SWAP8 PUSH1 0x80 DUP12 ADD SWAP9 DUP10 MSTORE PUSH2 0xD57 DUP13 PUSH2 0x128C JUMP JUMPDEST SWAP1 PUSH2 0x102F JUMP JUMPDEST SWAP1 DUP2 DUP6 MSTORE PUSH2 0x1052 JUMP JUMPDEST SWAP9 PUSH2 0xD73 DUP11 PUSH1 0xA SLOAD PUSH2 0x1052 JUMP JUMPDEST PUSH1 0xA SSTORE TIMESTAMP DUP7 MSTORE PUSH1 0x0 MSTORE DUP6 PUSH1 0x20 MSTORE PUSH1 0x40 PUSH1 0x0 KECCAK256 SWAP7 MLOAD AND PUSH1 0x1 PUSH1 0x1 PUSH1 0xA0 SHL SUB NOT DUP8 SLOAD AND OR DUP7 SSTORE MLOAD PUSH1 0x1 DUP7 ADD SSTORE MLOAD PUSH1 0x2 DUP6 ADD SSTORE MLOAD PUSH1 0x3 DUP5 ADD SSTORE MLOAD SWAP2 ADD SSTORE PUSH2 0x720 PUSH1 0x40 MLOAD SWAP3 DUP4 SWAP3 DUP4 PUSH1 0x20 SWAP1 SWAP4 SWAP3 SWAP2 SWAP4 PUSH1 0x1 PUSH1 0x1 PUSH1 0xA0 SHL SUB PUSH1 0x40 DUP3 ADD SWAP6 AND DUP2 MSTORE ADD MSTORE JUMP JUMPDEST CALLVALUE PUSH2 0x1C6 JUMPI PUSH1 0x20 CALLDATASIZE PUSH1 0x3 NOT ADD SLT PUSH2 0x1C6 JUMPI PUSH1 0xA0 PUSH1 0x1 PUSH1 0x1 PUSH1 0xA0 SHL SUB DUP1 PUSH2 0xDF6 PUSH2 0xFD2 JUMP JUMPDEST AND PUSH1 0x0 MSTORE PUSH1 0x4 PUSH1 0x20 MSTORE PUSH1 0x40 PUSH1 0x0 KECCAK256 SWAP1 DUP2 SLOAD AND SWAP1 PUSH1 0x1 DUP2 ADD SLOAD SWAP1 PUSH1 0x2 DUP2 ADD SLOAD PUSH1 0x4 PUSH1 0x3 DUP4 ADD SLOAD SWAP3 ADD SLOAD SWAP3 PUSH1 0x40 MLOAD SWAP5 DUP6 MSTORE PUSH1 0x20 DUP6 ADD MSTORE PUSH1 0x40 DUP5 ADD MSTORE PUSH1 0x60 DUP4 ADD MSTORE PUSH1 0x80 DUP3 ADD MSTORE RETURN JUMPDEST CALLVALUE PUSH2 0x1C6 JUMPI PUSH1 0x0 CALLDATASIZE PUSH1 0x3 NOT ADD SLT PUSH2 0x1C6 JUMPI PUSH1 0x3 SLOAD SWAP1 PUSH1 0x0 PUSH1 0x1 DUP4 DUP2 SHR SWAP1 DUP1 DUP6 AND SWAP1 DUP2 ISZERO PUSH2 0xF74 JUMPI JUMPDEST PUSH1 0x20 SWAP6 DUP7 DUP5 LT DUP4 EQ PUSH2 0xF5E JUMPI DUP6 DUP8 SWAP4 DUP6 DUP3 MSTORE SWAP2 DUP3 PUSH1 0x0 EQ PUSH2 0xF3E JUMPI POP POP PUSH1 0x1 EQ PUSH2 0xEE7 JUMPI JUMPDEST POP POP POP DUP2 PUSH2 0xE97 SWAP2 SUB DUP3 PUSH2 0xFB0 JUMP JUMPDEST PUSH1 0x40 MLOAD DUP3 DUP2 SWAP4 DUP3 MSTORE DUP3 MLOAD SWAP1 DUP2 DUP2 DUP5 ADD MSTORE PUSH1 0x0 SWAP4 JUMPDEST DUP3 DUP6 LT PUSH2 0xECE JUMPI POP POP PUSH1 0x40 SWAP3 POP PUSH1 0x0 DUP4 DUP3 DUP5 ADD ADD MSTORE PUSH1 0x1F DUP1 NOT SWAP2 ADD AND DUP2 ADD SUB ADD SWAP1 RETURN JUMPDEST DUP5 DUP2 ADD DUP3 ADD MLOAD DUP7 DUP7 ADD PUSH1 0x40 ADD MSTORE SWAP4 DUP2 ADD SWAP4 DUP6 SWAP4 POP PUSH2 0xEAB JUMP JUMPDEST SWAP2 SWAP1 SWAP3 POP PUSH1 0x3 PUSH1 0x0 MSTORE PUSH32 0xC2575A0E9E593C00F959F8C92F12DB2869C3395A3B0502D05E2516446F71F85B SWAP2 PUSH1 0x0 SWAP3 JUMPDEST DUP3 DUP5 LT PUSH2 0xF2B JUMPI POP POP POP DUP3 ADD ADD DUP2 DUP4 DUP6 PUSH2 0xE88 JUMP JUMPDEST DUP1 SLOAD DUP7 DUP6 ADD DUP7 ADD MSTORE SWAP3 DUP5 ADD SWAP3 DUP2 ADD PUSH2 0xF16 JUMP JUMPDEST PUSH1 0xFF NOT AND DUP5 DUP3 ADD MSTORE SWAP4 ISZERO ISZERO PUSH1 0x5 SHL DUP5 ADD SWAP1 SWAP3 ADD SWAP4 POP DUP6 SWAP2 POP DUP7 SWAP1 POP PUSH2 0xE88 JUMP JUMPDEST PUSH4 0x4E487B71 PUSH1 0xE0 SHL PUSH1 0x0 MSTORE PUSH1 0x22 PUSH1 0x4 MSTORE PUSH1 0x24 PUSH1 0x0 REVERT JUMPDEST SWAP2 PUSH1 0x7F AND SWAP2 PUSH2 0xE63 JUMP JUMPDEST PUSH1 0xA0 DUP2 ADD SWAP1 DUP2 LT PUSH8 0xFFFFFFFFFFFFFFFF DUP3 GT OR PUSH2 0xF9A JUMPI PUSH1 0x40 MSTORE JUMP JUMPDEST PUSH4 0x4E487B71 PUSH1 0xE0 SHL PUSH1 0x0 MSTORE PUSH1 0x41 PUSH1 0x4 MSTORE PUSH1 0x24 PUSH1 0x0 REVERT JUMPDEST SWAP1 PUSH1 0x1F DUP1 NOT SWAP2 ADD AND DUP2 ADD SWAP1 DUP2 LT PUSH8 0xFFFFFFFFFFFFFFFF DUP3 GT OR PUSH2 0xF9A JUMPI PUSH1 0x40 MSTORE JUMP JUMPDEST PUSH1 0x4 CALLDATALOAD SWAP1 PUSH1 0x1 PUSH1 0x1 PUSH1 0xA0 SHL SUB DUP3 AND DUP3 SUB PUSH2 0x1C6 JUMPI JUMP JUMPDEST PUSH1 0x24 CALLDATALOAD SWAP1 PUSH1 0x1 PUSH1 0x1 PUSH1 0xA0 SHL SUB DUP3 AND DUP3 SUB PUSH2 0x1C6 JUMPI JUMP JUMPDEST SWAP2 DUP2 PUSH1 0x1F DUP5 ADD SLT ISZERO PUSH2 0x1C6 JUMPI DUP3 CALLDATALOAD SWAP2 PUSH8 0xFFFFFFFFFFFFFFFF DUP4 GT PUSH2 0x1C6 JUMPI PUSH1 0x20 DUP1 DUP6 ADD SWAP5 DUP5 PUSH1 0x5 SHL ADD ADD GT PUSH2 0x1C6 JUMPI JUMP JUMPDEST SWAP2 SWAP1 DUP3 ADD DUP1 SWAP3 GT PUSH2 0x103C JUMPI JUMP JUMPDEST PUSH4 0x4E487B71 PUSH1 0xE0 SHL PUSH1 0x0 MSTORE PUSH1 0x11 PUSH1 0x4 MSTORE PUSH1 0x24 PUSH1 0x0 REVERT JUMPDEST SWAP2 SWAP1 DUP3 SUB SWAP2 DUP3 GT PUSH2 0x103C JUMPI JUMP JUMPDEST DUP2 DUP2 MUL SWAP3 SWAP2 DUP2 ISZERO SWAP2 DUP5 DIV EQ OR ISZERO PUSH2 0x103C JUMPI JUMP JUMPDEST PUSH1 0x1 PUSH1 0x1 PUSH1 0xA0 SHL SUB DUP1 PUSH1 0x1 SLOAD AND ISZERO PUSH2 0x1233 JUMPI DUP1 PUSH1 0x2 SLOAD AND SWAP1 PUSH1 0x40 MLOAD SWAP3 DUP4 SWAP3 PUSH4 0x62C7C75 PUSH1 0xE3 SHL DUP5 MSTORE DUP4 PUSH1 0x4 PUSH1 0x20 SWAP7 DUP8 SWAP4 GAS STATICCALL SWAP3 DUP4 ISZERO PUSH2 0x292 JUMPI PUSH1 0x0 SWAP4 PUSH2 0x1201 JUMPI JUMPDEST POP DUP3 ISZERO PUSH2 0x11F8 JUMPI DUP2 AND PUSH1 0x0 MSTORE PUSH1 0x4 DUP4 MSTORE PUSH1 0x40 PUSH1 0x0 KECCAK256 SWAP1 PUSH1 0x40 MLOAD SWAP1 PUSH2 0x10D6 DUP3 PUSH2 0xF7E JUMP JUMPDEST DUP3 SLOAD AND DUP2 MSTORE PUSH1 0x1 DUP3 ADD SLOAD SWAP4 DUP2 ADD SWAP4 DUP5 MSTORE PUSH1 0x2 DUP3 ADD SLOAD PUSH1 0x40 DUP3 ADD MSTORE PUSH2 0x1111 DUP4 PUSH1 0x3 DUP5 ADD SLOAD PUSH1 0x80 PUSH1 0x4 PUSH1 0x60 DUP7 ADD SWAP7 DUP4 DUP9 MSTORE ADD SLOAD SWAP5 ADD SWAP4 DUP5 MSTORE PUSH2 0x102F JUMP JUMPDEST TIMESTAMP LT PUSH2 0x11F8 JUMPI PUSH2 0x1144 PUSH2 0x113B PUSH2 0x1133 SWAP5 DUP7 MLOAD PUSH3 0xF4240 SWAP7 DUP8 SWAP2 PUSH1 0x6 SLOAD SWAP1 PUSH2 0x105F JUMP JUMPDEST DIV SWAP5 MLOAD PUSH2 0x102F JUMP JUMPDEST PUSH1 0x7 SLOAD SWAP1 PUSH2 0x102F JUMP JUMPDEST SWAP1 DUP2 TIMESTAMP LT PUSH2 0x11F0 JUMPI MLOAD PUSH2 0x11E9 JUMPI PUSH1 0x9 SLOAD SWAP3 PUSH2 0x115F DUP5 DUP4 PUSH2 0x102F JUMP JUMPDEST TIMESTAMP LT ISZERO PUSH2 0x11E1 JUMPI PUSH2 0x119E SWAP1 PUSH2 0x1178 DUP7 MLOAD PUSH1 0x8 SLOAD SWAP1 PUSH2 0x105F JUMP JUMPDEST DIV SWAP2 PUSH2 0x1198 PUSH2 0x1191 DUP5 PUSH2 0x118C DUP8 DUP11 MLOAD PUSH2 0x1052 JUMP JUMPDEST PUSH2 0x1052 JUMP JUMPDEST SWAP2 TIMESTAMP PUSH2 0x1052 JUMP JUMPDEST SWAP1 PUSH2 0x105F JUMP JUMPDEST SWAP1 DUP4 ISZERO PUSH2 0x11CB JUMPI PUSH2 0x11B9 SWAP4 PUSH2 0x11B4 SWAP3 DIV SWAP3 PUSH2 0x102F JUMP JUMPDEST PUSH2 0x102F JUMP JUMPDEST SWAP1 MLOAD DUP1 DUP3 GT PUSH2 0x11C6 JUMPI POP SWAP1 JUMP JUMPDEST SWAP1 POP SWAP1 JUMP JUMPDEST PUSH4 0x4E487B71 PUSH1 0xE0 SHL PUSH1 0x0 MSTORE PUSH1 0x12 PUSH1 0x4 MSTORE PUSH1 0x24 PUSH1 0x0 REVERT JUMPDEST POP POP POP POP MLOAD SWAP1 JUMP JUMPDEST POP POP POP MLOAD SWAP1 JUMP JUMPDEST POP POP SWAP2 POP POP SWAP1 JUMP JUMPDEST POP POP POP POP PUSH1 0x0 SWAP1 JUMP JUMPDEST SWAP1 SWAP3 DUP5 DUP3 DUP2 RETURNDATASIZE DUP4 GT PUSH2 0x122C JUMPI JUMPDEST PUSH2 0x1218 DUP2 DUP4 PUSH2 0xFB0 JUMP JUMPDEST DUP2 ADD SUB SLT PUSH2 0x1229 JUMPI POP MLOAD SWAP2 CODESIZE PUSH2 0x10B3 JUMP JUMPDEST DUP1 REVERT JUMPDEST POP RETURNDATASIZE PUSH2 0x120E JUMP JUMPDEST POP POP PUSH1 0x0 SWAP1 JUMP JUMPDEST SWAP2 SWAP1 DUP2 LT ISZERO PUSH2 0x124A JUMPI PUSH1 0x5 SHL ADD SWAP1 JUMP JUMPDEST PUSH4 0x4E487B71 PUSH1 0xE0 SHL PUSH1 0x0 MSTORE PUSH1 0x32 PUSH1 0x4 MSTORE PUSH1 0x24 PUSH1 0x0 REVERT JUMPDEST CALLDATALOAD PUSH1 0x1 PUSH1 0x1 PUSH1 0xA0 SHL SUB DUP2 AND DUP2 SUB PUSH2 0x1C6 JUMPI SWAP1 JUMP JUMPDEST SWAP1 DUP2 PUSH1 0x20 SWAP2 SUB SLT PUSH2 0x1C6 JUMPI MLOAD DUP1 ISZERO ISZERO DUP2 SUB PUSH2 0x1C6 JUMPI SWAP1 JUMP JUMPDEST PUSH2 0x12EA PUSH1 0x1 PUSH1 0x1 PUSH1 0xA0 SHL SUB SWAP2 DUP3 DUP2 AND PUSH1 0x0 MSTORE PUSH1 0x4 PUSH1 0x20 MSTORE PUSH1 0x40 PUSH1 0x0 KECCAK256 SWAP3 PUSH1 0x40 MLOAD SWAP1 PUSH2 0x12B6 DUP3 PUSH2 0xF7E JUMP JUMPDEST DUP5 SLOAD AND DUP2 MSTORE PUSH1 0x1 DUP5 ADD SLOAD PUSH1 0x20 DUP3 ADD MSTORE PUSH1 0x80 PUSH1 0x4 PUSH1 0x2 DUP7 ADD SLOAD SWAP6 PUSH1 0x40 DUP5 ADD SWAP7 DUP8 MSTORE PUSH1 0x3 DUP2 ADD SLOAD PUSH1 0x60 DUP6 ADD MSTORE ADD SLOAD SWAP2 ADD MSTORE PUSH2 0x1072 JUMP JUMPDEST SWAP1 MLOAD DUP1 DUP3 LT PUSH2 0x1233 JUMPI PUSH2 0x12FC SWAP2 PUSH2 0x1052 JUMP JUMPDEST SWAP1 JUMP JUMPDEST PUSH1 0x1 PUSH1 0x1 PUSH1 0xA0 SHL SUB PUSH1 0x1 SLOAD AND DUP1 ISZERO PUSH2 0x137F JUMPI PUSH1 0x20 PUSH1 0x24 SWAP2 PUSH1 0x40 MLOAD SWAP3 DUP4 DUP1 SWAP3 PUSH4 0x70A08231 PUSH1 0xE0 SHL DUP3 MSTORE ADDRESS PUSH1 0x4 DUP4 ADD MSTORE GAS STATICCALL DUP1 ISZERO PUSH2 0x292 JUMPI PUSH1 0x0 SWAP1 PUSH2 0x134B JUMPI JUMPDEST PUSH2 0x12FC SWAP2 POP PUSH1 0xA SLOAD SWAP1 PUSH2 0x1052 JUMP JUMPDEST POP PUSH1 0x20 DUP2 RETURNDATASIZE PUSH1 0x20 GT PUSH2 0x1377 JUMPI JUMPDEST DUP2 PUSH2 0x1365 PUSH1 0x20 SWAP4 DUP4 PUSH2 0xFB0 JUMP JUMPDEST DUP2 ADD SUB SLT PUSH2 0x1C6 JUMPI PUSH2 0x12FC SWAP1 MLOAD PUSH2 0x133D JUMP JUMPDEST RETURNDATASIZE SWAP2 POP PUSH2 0x1358 JUMP JUMPDEST PUSH1 0x64 PUSH1 0x40 MLOAD PUSH3 0x461BCD PUSH1 0xE5 SHL DUP2 MSTORE PUSH1 0x20 PUSH1 0x4 DUP3 ADD MSTORE PUSH1 0x16 PUSH1 0x24 DUP3 ADD MSTORE PUSH32 0x746F6B656E20686173206E6F74206265656E2073657400000000000000000000 PUSH1 0x44 DUP3 ADD MSTORE REVERT JUMPDEST PUSH1 0x1 PUSH1 0x1 PUSH1 0xA0 SHL SUB PUSH1 0x0 SLOAD AND CALLER SUB PUSH2 0x13D7 JUMPI JUMP JUMPDEST PUSH1 0x24 PUSH1 0x40 MLOAD PUSH32 0x118CDAA700000000000000000000000000000000000000000000000000000000 DUP2 MSTORE CALLER PUSH1 0x4 DUP3 ADD MSTORE REVERT INVALID LOG2 PUSH5 0x6970667358 0x22 SLT KECCAK256 0x26 0xB8 0xB3 DUP7 0x2E PUSH6 0xDE33FD115860 STATICCALL 0xE6 SHR EXTCODEHASH 0xAF 0xC9 BYTE 0xD3 0xD6 PUSH28 0xDD11E346CF5FD858CEF864736F6C6343000818003300000000000000 "
        },
        "methodIdentifiers": {
          "addMembers(address[],uint256[])": "3e72b2bb",
          "allocatedAmount()": "115425e4",
          "balance()": "b69ef8a8",
          "claim()": "4e71d92d",
          "claimProxy()": "30b66cee",
          "claimableAmount(address)": "89885049",
          "cliffDuration()": "d85349f7",
          "cliffPercent()": "e67e8aaf",
          "emergencyWithdraw(address,address,uint256)": "e63ea408",
          "linearDuration()": "9b78a070",
          "members(address)": "08ae4b0c",
          "name()": "06fdde03",
          "owner()": "8da5cb5b",
          "remainingAmount(address)": "5a849419",
          "removeMember(address)": "0b1ca49a",
          "renounceOwnership()": "715018a6",
          "setToken(address)": "144fa6d7",
          "tgePercent()": "e2f0f42d",
          "tgeTime()": "3163e3a8",
          "totalAmount(address)": "d72b9da2",
          "transferOwnership(address)": "f2fde38b",
          "vestedAmount(address)": "384711cc",
          "withdrawErc20(address,address)": "739656db",
          "withdrawEth(address)": "25e16063"
        }
      }
    }
  }
}