{
  "contracts/SaleContract.sol": {
    "SaleContract": {
      "abi": [
        {
          "inputs": [
            {
              "internalType": "address",
              "name": "_liquidityRouter",
              "type": "address"
            },
            {
              "internalType": "uint256",
              "name": "_liquidityUSDTPercent",
              "type": "uint256"
            },
            {
              "internalType": "uint256",
              "name": "_liquidityToken",
              "type": "uint256"
            },
            {
              "components": [
                {
                  "internalType": "string",
                  "name": "name",
                  "type": "string"
                },
                {
                  "internalType": "uint256",
                  "name": "cooldownDuration",
                  "type": "uint256"
                },
                {
                  "internalType": "uint256",
                  "name": "saleStartTime",
                  "type": "uint256"
                },
                {
                  "internalType": "uint256",
                  "name": "salePrice",
                  "type": "uint256"
                },
                {
                  "internalType": "uint256",
                  "name": "saleTotalAmount",
                  "type": "uint256"
                },
                {
                  "internalType": "uint256",
                  "name": "saleBalance",
                  "type": "uint256"
                },
                {
                  "internalType": "uint256",
                  "name": "saleMinPerWallet",
                  "type": "uint256"
                },
                {
                  "internalType": "uint256",
                  "name": "saleMaxPerWallet",
                  "type": "uint256"
                },
                {
                  "internalType": "uint256",
                  "name": "affiliateTotalAmount",
                  "type": "uint256"
                },
                {
                  "internalType": "uint256",
                  "name": "affiliateBalance",
                  "type": "uint256"
                },
                {
                  "internalType": "uint256",
                  "name": "affiliatePercent",
                  "type": "uint256"
                },
                {
                  "internalType": "uint256",
                  "name": "tgePercent",
                  "type": "uint256"
                },
                {
                  "internalType": "uint256",
                  "name": "cliffDuration",
                  "type": "uint256"
                },
                {
                  "internalType": "uint256",
                  "name": "cliffPercent",
                  "type": "uint256"
                },
                {
                  "internalType": "uint256",
                  "name": "linearDuration",
                  "type": "uint256"
                }
              ],
              "internalType": "struct SaleContract.Tier[]",
              "name": "_tiers",
              "type": "tuple[]"
            }
          ],
          "stateMutability": "nonpayable",
          "type": "constructor"
        },
        {
          "inputs": [],
          "name": "EnforcedPause",
          "type": "error"
        },
        {
          "inputs": [],
          "name": "ExpectedPause",
          "type": "error"
        },
        {
          "inputs": [
            {
              "internalType": "address",
              "name": "owner",
              "type": "address"
            }
          ],
          "name": "OwnableInvalidOwner",
          "type": "error"
        },
        {
          "inputs": [
            {
              "internalType": "address",
              "name": "account",
              "type": "address"
            }
          ],
          "name": "OwnableUnauthorizedAccount",
          "type": "error"
        },
        {
          "anonymous": false,
          "inputs": [
            {
              "indexed": false,
              "internalType": "address",
              "name": "account",
              "type": "address"
            },
            {
              "indexed": false,
              "internalType": "uint256",
              "name": "amount",
              "type": "uint256"
            }
          ],
          "name": "Claimed",
          "type": "event"
        },
        {
          "anonymous": false,
          "inputs": [
            {
              "indexed": false,
              "internalType": "uint256",
              "name": "saleTier",
              "type": "uint256"
            },
            {
              "indexed": false,
              "internalType": "uint256",
              "name": "startTime",
              "type": "uint256"
            }
          ],
          "name": "NextSaleTier",
          "type": "event"
        },
        {
          "anonymous": false,
          "inputs": [
            {
              "indexed": true,
              "internalType": "address",
              "name": "previousOwner",
              "type": "address"
            },
            {
              "indexed": true,
              "internalType": "address",
              "name": "newOwner",
              "type": "address"
            }
          ],
          "name": "OwnershipTransferred",
          "type": "event"
        },
        {
          "anonymous": false,
          "inputs": [
            {
              "indexed": false,
              "internalType": "address",
              "name": "account",
              "type": "address"
            }
          ],
          "name": "Paused",
          "type": "event"
        },
        {
          "anonymous": false,
          "inputs": [
            {
              "indexed": false,
              "internalType": "address",
              "name": "account",
              "type": "address"
            },
            {
              "indexed": false,
              "internalType": "uint256",
              "name": "tier",
              "type": "uint256"
            },
            {
              "indexed": false,
              "internalType": "uint256",
              "name": "amount",
              "type": "uint256"
            },
            {
              "indexed": false,
              "internalType": "uint256",
              "name": "totalPaid",
              "type": "uint256"
            },
            {
              "indexed": false,
              "internalType": "uint256",
              "name": "salePrice",
              "type": "uint256"
            }
          ],
          "name": "Purchased",
          "type": "event"
        },
        {
          "anonymous": false,
          "inputs": [
            {
              "indexed": false,
              "internalType": "address",
              "name": "account",
              "type": "address"
            },
            {
              "indexed": false,
              "internalType": "uint256",
              "name": "tier",
              "type": "uint256"
            },
            {
              "indexed": false,
              "internalType": "uint256",
              "name": "amount",
              "type": "uint256"
            }
          ],
          "name": "Reward",
          "type": "event"
        },
        {
          "anonymous": false,
          "inputs": [
            {
              "indexed": false,
              "internalType": "uint256",
              "name": "tgeTime",
              "type": "uint256"
            }
          ],
          "name": "SaleComplete",
          "type": "event"
        },
        {
          "anonymous": false,
          "inputs": [
            {
              "indexed": false,
              "internalType": "address",
              "name": "account",
              "type": "address"
            }
          ],
          "name": "Unpaused",
          "type": "event"
        },
        {
          "inputs": [],
          "name": "claim",
          "outputs": [],
          "stateMutability": "nonpayable",
          "type": "function"
        },
        {
          "inputs": [
            {
              "internalType": "uint256",
              "name": "tier",
              "type": "uint256"
            },
            {
              "internalType": "address",
              "name": "addr",
              "type": "address"
            }
          ],
          "name": "claimableAmount",
          "outputs": [
            {
              "internalType": "uint256",
              "name": "",
              "type": "uint256"
            }
          ],
          "stateMutability": "view",
          "type": "function"
        },
        {
          "inputs": [
            {
              "internalType": "address",
              "name": "addr",
              "type": "address"
            }
          ],
          "name": "claimableAmountAllTiers",
          "outputs": [
            {
              "internalType": "uint256",
              "name": "",
              "type": "uint256"
            }
          ],
          "stateMutability": "view",
          "type": "function"
        },
        {
          "inputs": [],
          "name": "countTiers",
          "outputs": [
            {
              "internalType": "uint256",
              "name": "",
              "type": "uint256"
            }
          ],
          "stateMutability": "view",
          "type": "function"
        },
        {
          "inputs": [],
          "name": "currentTier",
          "outputs": [
            {
              "internalType": "uint256",
              "name": "",
              "type": "uint256"
            }
          ],
          "stateMutability": "view",
          "type": "function"
        },
        {
          "inputs": [
            {
              "internalType": "address",
              "name": "_erc",
              "type": "address"
            },
            {
              "internalType": "address",
              "name": "account",
              "type": "address"
            },
            {
              "internalType": "uint256",
              "name": "amount",
              "type": "uint256"
            }
          ],
          "name": "emergencyWithdraw",
          "outputs": [],
          "stateMutability": "nonpayable",
          "type": "function"
        },
        {
          "inputs": [
            {
              "internalType": "address",
              "name": "account",
              "type": "address"
            },
            {
              "internalType": "uint256",
              "name": "tier",
              "type": "uint256"
            }
          ],
          "name": "getMember",
          "outputs": [
            {
              "components": [
                {
                  "internalType": "address",
                  "name": "account",
                  "type": "address"
                },
                {
                  "internalType": "uint256",
                  "name": "totalAmount",
                  "type": "uint256"
                },
                {
                  "internalType": "uint256",
                  "name": "claimedAmount",
                  "type": "uint256"
                },
                {
                  "internalType": "uint256",
                  "name": "totalPaid",
                  "type": "uint256"
                },
                {
                  "internalType": "uint256",
                  "name": "startTime",
                  "type": "uint256"
                },
                {
                  "internalType": "uint256",
                  "name": "endTime",
                  "type": "uint256"
                }
              ],
              "internalType": "struct SaleContract.Member",
              "name": "",
              "type": "tuple"
            }
          ],
          "stateMutability": "view",
          "type": "function"
        },
        {
          "inputs": [
            {
              "internalType": "uint256",
              "name": "tier",
              "type": "uint256"
            }
          ],
          "name": "getTier",
          "outputs": [
            {
              "components": [
                {
                  "internalType": "string",
                  "name": "name",
                  "type": "string"
                },
                {
                  "internalType": "uint256",
                  "name": "cooldownDuration",
                  "type": "uint256"
                },
                {
                  "internalType": "uint256",
                  "name": "saleStartTime",
                  "type": "uint256"
                },
                {
                  "internalType": "uint256",
                  "name": "salePrice",
                  "type": "uint256"
                },
                {
                  "internalType": "uint256",
                  "name": "saleTotalAmount",
                  "type": "uint256"
                },
                {
                  "internalType": "uint256",
                  "name": "saleBalance",
                  "type": "uint256"
                },
                {
                  "internalType": "uint256",
                  "name": "saleMinPerWallet",
                  "type": "uint256"
                },
                {
                  "internalType": "uint256",
                  "name": "saleMaxPerWallet",
                  "type": "uint256"
                },
                {
                  "internalType": "uint256",
                  "name": "affiliateTotalAmount",
                  "type": "uint256"
                },
                {
                  "internalType": "uint256",
                  "name": "affiliateBalance",
                  "type": "uint256"
                },
                {
                  "internalType": "uint256",
                  "name": "affiliatePercent",
                  "type": "uint256"
                },
                {
                  "internalType": "uint256",
                  "name": "tgePercent",
                  "type": "uint256"
                },
                {
                  "internalType": "uint256",
                  "name": "cliffDuration",
                  "type": "uint256"
                },
                {
                  "internalType": "uint256",
                  "name": "cliffPercent",
                  "type": "uint256"
                },
                {
                  "internalType": "uint256",
                  "name": "linearDuration",
                  "type": "uint256"
                }
              ],
              "internalType": "struct SaleContract.Tier",
              "name": "",
              "type": "tuple"
            }
          ],
          "stateMutability": "view",
          "type": "function"
        },
        {
          "inputs": [],
          "name": "liquidityFactory",
          "outputs": [
            {
              "internalType": "contract IUniswapV2Factory",
              "name": "",
              "type": "address"
            }
          ],
          "stateMutability": "view",
          "type": "function"
        },
        {
          "inputs": [],
          "name": "liquidityPair",
          "outputs": [
            {
              "internalType": "address",
              "name": "",
              "type": "address"
            }
          ],
          "stateMutability": "view",
          "type": "function"
        },
        {
          "inputs": [],
          "name": "liquidityRouter",
          "outputs": [
            {
              "internalType": "contract IUniswapV2Router02",
              "name": "",
              "type": "address"
            }
          ],
          "stateMutability": "view",
          "type": "function"
        },
        {
          "inputs": [],
          "name": "liquidityToken",
          "outputs": [
            {
              "internalType": "uint256",
              "name": "",
              "type": "uint256"
            }
          ],
          "stateMutability": "view",
          "type": "function"
        },
        {
          "inputs": [],
          "name": "liquidityUSDT",
          "outputs": [
            {
              "internalType": "uint256",
              "name": "",
              "type": "uint256"
            }
          ],
          "stateMutability": "view",
          "type": "function"
        },
        {
          "inputs": [],
          "name": "liquidityUSDTPercent",
          "outputs": [
            {
              "internalType": "uint256",
              "name": "",
              "type": "uint256"
            }
          ],
          "stateMutability": "view",
          "type": "function"
        },
        {
          "inputs": [
            {
              "internalType": "address",
              "name": "",
              "type": "address"
            },
            {
              "internalType": "uint256",
              "name": "",
              "type": "uint256"
            }
          ],
          "name": "members",
          "outputs": [
            {
              "internalType": "address",
              "name": "account",
              "type": "address"
            },
            {
              "internalType": "uint256",
              "name": "totalAmount",
              "type": "uint256"
            },
            {
              "internalType": "uint256",
              "name": "claimedAmount",
              "type": "uint256"
            },
            {
              "internalType": "uint256",
              "name": "totalPaid",
              "type": "uint256"
            },
            {
              "internalType": "uint256",
              "name": "startTime",
              "type": "uint256"
            },
            {
              "internalType": "uint256",
              "name": "endTime",
              "type": "uint256"
            }
          ],
          "stateMutability": "view",
          "type": "function"
        },
        {
          "inputs": [],
          "name": "name",
          "outputs": [
            {
              "internalType": "string",
              "name": "",
              "type": "string"
            }
          ],
          "stateMutability": "view",
          "type": "function"
        },
        {
          "inputs": [],
          "name": "owner",
          "outputs": [
            {
              "internalType": "address",
              "name": "",
              "type": "address"
            }
          ],
          "stateMutability": "view",
          "type": "function"
        },
        {
          "inputs": [],
          "name": "paused",
          "outputs": [
            {
              "internalType": "bool",
              "name": "",
              "type": "bool"
            }
          ],
          "stateMutability": "view",
          "type": "function"
        },
        {
          "inputs": [
            {
              "internalType": "address",
              "name": "affiliate",
              "type": "address"
            },
            {
              "internalType": "uint256",
              "name": "tokenAmount",
              "type": "uint256"
            }
          ],
          "name": "purchase",
          "outputs": [],
          "stateMutability": "nonpayable",
          "type": "function"
        },
        {
          "inputs": [
            {
              "internalType": "address",
              "name": "addr",
              "type": "address"
            }
          ],
          "name": "remainingAmount",
          "outputs": [
            {
              "internalType": "uint256",
              "name": "",
              "type": "uint256"
            }
          ],
          "stateMutability": "view",
          "type": "function"
        },
        {
          "inputs": [],
          "name": "renounceOwnership",
          "outputs": [],
          "stateMutability": "nonpayable",
          "type": "function"
        },
        {
          "inputs": [],
          "name": "saleBalance",
          "outputs": [
            {
              "internalType": "uint256",
              "name": "",
              "type": "uint256"
            }
          ],
          "stateMutability": "view",
          "type": "function"
        },
        {
          "inputs": [
            {
              "internalType": "address",
              "name": "_erc",
              "type": "address"
            }
          ],
          "name": "setToken",
          "outputs": [],
          "stateMutability": "nonpayable",
          "type": "function"
        },
        {
          "inputs": [
            {
              "internalType": "address",
              "name": "_erc",
              "type": "address"
            }
          ],
          "name": "setUSDT",
          "outputs": [],
          "stateMutability": "nonpayable",
          "type": "function"
        },
        {
          "inputs": [],
          "name": "surplusTokens",
          "outputs": [
            {
              "internalType": "uint256",
              "name": "",
              "type": "uint256"
            }
          ],
          "stateMutability": "view",
          "type": "function"
        },
        {
          "inputs": [],
          "name": "tgeTime",
          "outputs": [
            {
              "internalType": "uint256",
              "name": "",
              "type": "uint256"
            }
          ],
          "stateMutability": "view",
          "type": "function"
        },
        {
          "inputs": [
            {
              "internalType": "uint256",
              "name": "",
              "type": "uint256"
            }
          ],
          "name": "tiers",
          "outputs": [
            {
              "internalType": "string",
              "name": "name",
              "type": "string"
            },
            {
              "internalType": "uint256",
              "name": "cooldownDuration",
              "type": "uint256"
            },
            {
              "internalType": "uint256",
              "name": "saleStartTime",
              "type": "uint256"
            },
            {
              "internalType": "uint256",
              "name": "salePrice",
              "type": "uint256"
            },
            {
              "internalType": "uint256",
              "name": "saleTotalAmount",
              "type": "uint256"
            },
            {
              "internalType": "uint256",
              "name": "saleBalance",
              "type": "uint256"
            },
            {
              "internalType": "uint256",
              "name": "saleMinPerWallet",
              "type": "uint256"
            },
            {
              "internalType": "uint256",
              "name": "saleMaxPerWallet",
              "type": "uint256"
            },
            {
              "internalType": "uint256",
              "name": "affiliateTotalAmount",
              "type": "uint256"
            },
            {
              "internalType": "uint256",
              "name": "affiliateBalance",
              "type": "uint256"
            },
            {
              "internalType": "uint256",
              "name": "affiliatePercent",
              "type": "uint256"
            },
            {
              "internalType": "uint256",
              "name": "tgePercent",
              "type": "uint256"
            },
            {
              "internalType": "uint256",
              "name": "cliffDuration",
              "type": "uint256"
            },
            {
              "internalType": "uint256",
              "name": "cliffPercent",
              "type": "uint256"
            },
            {
              "internalType": "uint256",
              "name": "linearDuration",
              "type": "uint256"
            }
          ],
          "stateMutability": "view",
          "type": "function"
        },
        {
          "inputs": [
            {
              "internalType": "address",
              "name": "addr",
              "type": "address"
            }
          ],
          "name": "totalAmount",
          "outputs": [
            {
              "internalType": "uint256",
              "name": "",
              "type": "uint256"
            }
          ],
          "stateMutability": "view",
          "type": "function"
        },
        {
          "inputs": [
            {
              "internalType": "address",
              "name": "addr",
              "type": "address"
            }
          ],
          "name": "totalPaid",
          "outputs": [
            {
              "internalType": "uint256",
              "name": "",
              "type": "uint256"
            }
          ],
          "stateMutability": "view",
          "type": "function"
        },
        {
          "inputs": [
            {
              "internalType": "address",
              "name": "newOwner",
              "type": "address"
            }
          ],
          "name": "transferOwnership",
          "outputs": [],
          "stateMutability": "nonpayable",
          "type": "function"
        },
        {
          "inputs": [
            {
              "internalType": "uint256",
              "name": "tier",
              "type": "uint256"
            },
            {
              "internalType": "address",
              "name": "addr",
              "type": "address"
            }
          ],
          "name": "vestedAmount",
          "outputs": [
            {
              "internalType": "uint256",
              "name": "",
              "type": "uint256"
            }
          ],
          "stateMutability": "view",
          "type": "function"
        },
        {
          "inputs": [
            {
              "internalType": "address",
              "name": "_erc",
              "type": "address"
            },
            {
              "internalType": "address",
              "name": "account",
              "type": "address"
            }
          ],
          "name": "withdrawErc20",
          "outputs": [],
          "stateMutability": "nonpayable",
          "type": "function"
        },
        {
          "inputs": [
            {
              "internalType": "address payable",
              "name": "account",
              "type": "address"
            }
          ],
          "name": "withdrawEth",
          "outputs": [],
          "stateMutability": "nonpayable",
          "type": "function"
        },
        {
          "inputs": [
            {
              "internalType": "address",
              "name": "account",
              "type": "address"
            },
            {
              "internalType": "uint256",
              "name": "amount",
              "type": "uint256"
            }
          ],
          "name": "withdrawPartialSaleBalance",
          "outputs": [],
          "stateMutability": "nonpayable",
          "type": "function"
        },
        {
          "inputs": [
            {
              "internalType": "address",
              "name": "account",
              "type": "address"
            }
          ],
          "name": "withdrawSaleBalance",
          "outputs": [],
          "stateMutability": "nonpayable",
          "type": "function"
        },
        {
          "inputs": [
            {
              "internalType": "address",
              "name": "account",
              "type": "address"
            }
          ],
          "name": "withdrawSurplusTokens",
          "outputs": [],
          "stateMutability": "nonpayable",
          "type": "function"
        }
      ],
      "evm": {
        "bytecode": {
          "linkReferences": {},
          "object": "6080806040523462000425576200309580380380916200002082856200067a565b8339608082828101031262000425576200003a826200069e565b60208301519060408401519260608501519460018060401b0386116200042557818101601f878301011215620004255780860151956001600160401b038711620003c6578660051b906040519762000096602084018a6200067a565b885260208801908484016020848387010101116200042557602081850101915b602084838701010183106200047d575050505050503315620004645760206004916000543360018060a01b0382167f8be0079c531659141344cd1fd0a4f28419497f9722a3daafe3b4186f6b6457e0600080a36001600160a81b0319163360ff60a01b1916176000556003546200012d90620006b3565b601f81116200043f575b507f5371756967676c652053616c6520436f6e74726163740000000000000000002c600355600a80546001600160a01b0319166001600160a01b0392909216918217905560405163c45a015560e01b815292839182905afa9081156200043357600091620003ec575b50600980546001600160a01b0319166001600160a01b0392909216919091179055600c55600e5560005b8151811015620003dc5760208160051b830101519060075460005260056020526040600020825180519060018060401b038211620003c6578190620002108454620006b3565b601f811162000384575b50602090601f83116001146200031a576000926200030e575b50508160011b916000199060031b1c19161781555b600e6101c060019460208101518685015560408101516002850155606081015160038501556080810151600485015560a0810151600585015560c0810151600685015560e0810151600785015561010081015160088501556101208101516009850155610140810151600a850155610160810151600b850155610180810151600c8501556101a0810151600d8501550151910155600754916000198314620002f8576001920160075501620001ca565b634e487b7160e01b600052601160045260246000fd5b01519050388062000233565b60008581526020812093505b601f19851681106200036b575083601f1981161062000351575b505050600190811b01815562000248565b015160001960f88460031b161c1916905538808062000340565b9192602060018192868501518155019401920162000326565b620003b490856000526020600020601f850160051c81019160208610620003bb575b601f0160051c0190620006f0565b386200021a565b9091508190620003a6565b634e487b7160e01b600052604160045260246000fd5b60405161298b90816200070a8239f35b90506020813d6020116200042a575b816200040a602093836200067a565b8101031262000425576200041e906200069e565b38620001a0565b600080fd5b3d9150620003fb565b6040513d6000823e3d90fd5b6200045d906003600052601f84600020910160051c810190620006f0565b3862000137565b604051631e4fbdf760e01b815260006004820152602490fd5b82516001600160401b03811162000425576101e0868401820188880103601f1901126200042557604051906001600160401b036101e083019081119083111762000665576101e082016040528684018101602001516001600160401b0381116200042557888801603f8284888c01010101121562000425578785018201810160200151906001600160401b03821162000665578860408383868a8f62000532601f8601601f19166020016101e08d016200067a565b846101e08c01528601950101010101116200042557859291899160005b82811062000641575050600090850161020001526101e0848101855290830182016040818101516020878101919091526060808401519288019290925260809283015191870191909152938a01830160a0818101519287019290925260c0808201519287019290925260e08082015192870192909252610100808201519287019290925261012080820151928701929092526101408082015192870192909252610160808201519287019290925261018080820151928701929092526101a080820151928701929092526101c09081015191860191909152868a019092010151908301529082529283019201620000b6565b9490920183018201840160400151858501610200015286938a92906020016200054f565b60246000634e487b7160e01b81526041600452fd5b601f909101601f19168101906001600160401b03821190821017620003c657604052565b51906001600160a01b03821682036200042557565b90600182811c92168015620006e5575b6020831014620006cf57565b634e487b7160e01b600052602260045260246000fd5b91607f1691620006c3565b818110620006fc575050565b60008155600101620006f056fe6080604052600436101561001257600080fd5b60003560e01c8063039af9eb146121b057806305f2770c1461218957806306fdde03146120a2578063144fa6d7146120625780631afd1a4b14612028578063247029441461200157806325e1606314611fb3578063260edaaa14611f985780633163e3a814611f7a5780633dd6d53314611f065780633e6c531114611ee057806343cd8f7e14611ec25780634a2bfc8b14611e535780634e71d92d14611ad95780634f062c5a146118e557806350c1b923146118a557806352a87c6b146117e75780635a849419146117735780635c975abb1461174d578063715018a6146116f4578063719ba03414611671578063739656db14611533578063808a54571461150c5780638a0beaa1146114ee5780638da5cb5b146114c75780638de93222146105535780639943d6ec146104fd578063b090488214610417578063b0cd390e146103f9578063cdac5f7c146103db578063d679677a146103bd578063d72b9da21461034a578063e63ea40814610295578063f2fde38b146101f6578063f311df8e146101d05763fab14b36146101a857600080fd5b346101cb5760003660031901126101cb5760206101c3612850565b604051908152f35b600080fd5b346101cb5760403660031901126101cb5760206101c36101ee612422565b6004356127eb565b346101cb5760203660031901126101cb5761020f61240c565b6102176128c9565b6001600160a01b0380911690811561026457600054826001600160a01b0319821617600055167f8be0079c531659141344cd1fd0a4f28419497f9722a3daafe3b4186f6b6457e0600080a3005b60246040517f1e4fbdf700000000000000000000000000000000000000000000000000000000815260006004820152fd5b346101cb5760603660031901126101cb576001600160a01b0360206103036102bb61240c565b6102c3612422565b6102cb6128c9565b600060405195868095819463a9059cbb60e01b83526044359060048401602090939291936001600160a01b0360408201951681520152565b0393165af1801561033e5761031457005b6103359060203d602011610337575b61032d8183612305565b810190612438565b005b503d610323565b6040513d6000823e3d90fd5b346101cb576020806003193601126101cb5761036461240c565b60075460009283926001600160a01b03165b82851061038857602084604051908152f35b9091926103b260019183600052600885526040600020876000528552826040600020015490612450565b940193929190610376565b346101cb5760003660031901126101cb576020600654604051908152f35b346101cb5760003660031901126101cb576020600d54604051908152f35b346101cb5760003660031901126101cb576020600754604051908152f35b346101cb5760403660031901126101cb5760c061043261240c565b600060a0604051610442816122cc565b82815282602082015282604082015282606082015282608082015201526001600160a01b038091166000526008602052604060002060243560005260205260406000209060405190610493826122cc565b825416918282526001810154602083019081526002820154604084019081526003830154916060850192835260a0600560048601549560808801968752015495019485526040519586525160208601525160408501525160608401525160808301525160a0820152f35b346101cb5760203660031901126101cb5761051661240c565b60008091600754905b81841061053157602083604051908152f35b909161054960019161054384876127eb565b90612450565b930192919061051f565b346101cb5760403660031901126101cb5761056c61240c565b61057461290d565b60065480600052600560205260406000209160405191610593836122e8565b61059c84612327565b83526001840154602084015260028401548060408501526003850154606085015260048501546080850152600e6005860154958660a0870152600681015460c0870152600781015460e087015260088101546101008701526009810154610120870152600a810154610140870152600b810154610160870152600c810154610180870152600d8101546101a087015201546101c085015242106114835760045461143f576001600160a01b03600254169384156113fb5760243511611391576001600160a01b03821615908115918261137e575b1561133a576040517fdd62ed3e000000000000000000000000000000000000000000000000000000008152336004820152306024820152602081604481895afa90811561033e57600091611308575b50670de0b6b3a76400006106d96060870151602435612581565b041161129e57336000526008602052604060002090600052602052604060002061075260405191610709836122cc565b6001600160a01b0381541683526005600182015491826020860152600281015460408601526003810154606086015260048101546080860152015460a084015260243590612450565b60e0850151106112345761076c6024356020830151612450565b60c0850151116111ca576001600160a01b03815116156111bb575b60006020670de0b6b3a76400006107a46060880151602435612581565b04966064604051809481937f23b872dd0000000000000000000000000000000000000000000000000000000083523360048401523060248401528b60448401525af190811561033e5760009161119c575b501561115857600060a08201526108126024356020830151612450565b6020820152610825856060830151612450565b606082015261083a60243560a0860151612594565b60a085015261085b620f4240610852600c5488612581565b04600d54612450565b600d553360005260086020526040600020600654600052602052600560a06040600020926001600160a01b038151166001600160a01b0319855416178455602081015160018501556040810151600285015560608101516003850155608081015160048501550151910155610fc5575b506006546000526005602052604060002091815180519067ffffffffffffffff8211610faf576108fb8554612292565b601f8111610f6b575b50602090601f8311600114610edd5791807f5f5252e81556cf80e49da97ac40f17af2fb3b00e318b675ae93089f555bfa380949260a094600092610ed2575b50508160011b916000199060031b1c19161785555b60208401516001860155604084015160028601556060840151948560038201556080850151600482015582850151600582015560c0850151600682015560e0850151600782015561010085015160088201556101208501516009820155610140850151600a820155610160850151600b820155610180850151600c8201556101a0850151600d820155600e6101c08601519101556006549460405191338352866020840152602435604084015260608301526080820152a160c060a08201519101511015610a2257005b610a2a61290d565b60018101808211610b18576007541115610b2e5750600654806000526005602052610a5d60016040600020015442612450565b9060018101809111610b18576000526005602052600260406000200155600654806000526005604060002001549060018101809111610b18576000526005602052610ab16004604060002001918254612450565b90556006546000526005602052600060056040822001557f41c47b6bed4d40d2448edc8ee49698c39cb72f97f8a1af6397daab1d1ff3e23e6040610af6600654612946565b80600655806000526005602052600282600020015482519182526020820152a1005b634e487b7160e01b600052601160045260246000fd5b80610b55916000526005602052610b4d60016040600020015442612450565b600455612946565b600655600254600a54600d546040517f095ea7b3000000000000000000000000000000000000000000000000000000008082526001600160a01b039384166004830152602482019290925292909160209184916044918391600091165af190811561033e57610c1092602092610eb5575b506001600160a01b03600154166001600160a01b03600a54166000600e549360405196879586948593845260048401602090939291936001600160a01b0360408201951681520152565b03925af1801561033e57610e96575b506001600160a01b03600a541660606001600160a01b03600254166101046001600160a01b0360015416916000600d5495600e5460405197889687957fe8e3370000000000000000000000000000000000000000000000000000000000875260048701526024860152806044860152816064860152608485015260a48401523060c48401524260e48401525af1801561033e57610e6b575b506009546002546001546040517fe6a439050000000000000000000000000000000000000000000000000000000081526001600160a01b03928316600482015290821660248201529160209183916044918391165afa801561033e57600090610e22575b6001600160a01b03915016806001600160a01b0319600b541617600b556040516370a0823160e01b8152306004820152602081602481855afa90811561033e57600091610def575b506000916044602092604051948593849263a9059cbb60e01b845282600485015260248401525af1801561033e57610dd0575b506000600d556000600e557fef75b5a390479d0727b87d3987ed96018984bdd53fa4946005292453ec3ff76d6020600454604051908152a1005b610de89060203d6020116103375761032d8183612305565b5080610d96565b90506020813d602011610e1a575b81610e0a60209383612305565b810103126101cb57516000610d63565b3d9150610dfd565b506020813d602011610e63575b81610e3c60209383612305565b810103126101cb57516001600160a01b03811681036101cb576001600160a01b0390610d1b565b3d9150610e2f565b606090813d8311610e8f575b610e818183612305565b810103126101cb5780610cb7565b503d610e77565b610eae9060203d6020116103375761032d8183612305565b5080610c1f565b610ecb90833d85116103375761032d8183612305565b5083610bc6565b015190508780610943565b908560005260206000209160005b601f1985168110610f535750927f5f5252e81556cf80e49da97ac40f17af2fb3b00e318b675ae93089f555bfa380949260019260a09583601f19811610610f3a575b505050811b018555610958565b015160001960f88460031b161c19169055878080610f2d565b91926020600181928685015181550194019201610eeb565b856000526020600020601f840160051c810160208510610fa8575b601f830160051c82018110610f9c575050610904565b60008155600101610f86565b5080610f86565b634e487b7160e01b600052604160045260246000fd5b6001600160a01b0381166000526008602052604060002060065490816000526020526001600160a01b0360406000209260405193611002856122cc565b600483825416918287526001810154602088015260028101546040880152600381015460608801520154608086015215611147575b600060a08501527f02a6a2be713fedf52f113c0a759f1c1a23a113476d9b1b1a2a453c910660de4e6060620f4240611076610140890151602435612581565b0461012088015181811061113f575b808211611137575b5061109c816020890151612450565b60208801526110b0816101208a0151612594565b6101208901526040519085851682528660208301526040820152a1166000526008602052604060002090600052602052600560a06040600020926001600160a01b038151166001600160a01b0319855416178455602081015160018501556040810151600285015560608101516003850155608081015160048501550151910155826108cb565b90508961108d565b905080611085565b818116845260006080850152611037565b606460405162461bcd60e51b815260206004820152600f60248201527f7472616e73666572206661696c656400000000000000000000000000000000006044820152fd5b6111b5915060203d6020116103375761032d8183612305565b866107f5565b33815260006080820152610787565b608460405162461bcd60e51b815260206004820152602960248201527f616c6c6f636174696f6e20646f6573206e6f74206d6565742073616c654d696e60448201527f50657257616c6c657400000000000000000000000000000000000000000000006064820152fd5b608460405162461bcd60e51b815260206004820152602860248201527f616c6c6f636174696f6e20776f756c64206578636565642073616c654d61785060448201527f657257616c6c65740000000000000000000000000000000000000000000000006064820152fd5b608460405162461bcd60e51b815260206004820152602160248201527f73616c652070726963652065786365656473207573647420616c6c6f77616e6360448201527f65000000000000000000000000000000000000000000000000000000000000006064820152fd5b90506020813d602011611332575b8161132360209383612305565b810103126101cb5751866106bf565b3d9150611316565b606460405162461bcd60e51b815260206004820152601e60248201527f616666696c696174652063616e6e6f74206265206d73672e73656e64657200006044820152fd5b50336001600160a01b0384161415610670565b608460405162461bcd60e51b815260206004820152602960248201527f616c6c6f636174696f6e20776f756c64206578636565642072656d61696e696e60448201527f672062616c616e636500000000000000000000000000000000000000000000006064820152fd5b606460405162461bcd60e51b815260206004820152601460248201527f75736474206e6f7420696e697469616c697a65640000000000000000000000006044820152fd5b606460405162461bcd60e51b815260206004820152601160248201527f73616c65206861732066696e69736865640000000000000000000000000000006044820152fd5b606460405162461bcd60e51b815260206004820152601860248201527f73616c6520686173206e6f7420796574207374617274656400000000000000006044820152fd5b346101cb5760003660031901126101cb5760206001600160a01b0360005416604051908152f35b346101cb5760003660031901126101cb576020600c54604051908152f35b346101cb5760003660031901126101cb5760206001600160a01b03600b5416604051908152f35b346101cb5760403660031901126101cb5761154c61240c565b611554612422565b9061155d6128c9565b6001600160a01b038060015416911690811461162d576040516370a0823160e01b81523060048201526020928382602481865afa90811561033e5784926000926115fa575b5060405163a9059cbb60e01b81526001600160a01b039091166004820152602481019190915291829081600081604481015b03925af1801561033e576115e457005b8161033592903d106103375761032d8183612305565b8381949293503d8311611626575b6116128183612305565b810103126101cb57905183916115d46115a2565b503d611608565b606460405162461bcd60e51b815260206004820152601560248201527f63616e6e6f7420776974686472617720746f6b656e00000000000000000000006044820152fd5b346101cb5760403660031901126101cb5760c061168c61240c565b6001600160a01b03809116600052600860205260406000206024356000526020526040600020908154169060018101549060028101546003820154906005600484015493015493604051958652602086015260408501526060840152608083015260a0820152f35b346101cb5760003660031901126101cb5761170d6128c9565b60006001600160a01b0381546001600160a01b031981168355167f8be0079c531659141344cd1fd0a4f28419497f9722a3daafe3b4186f6b6457e08280a3005b346101cb5760003660031901126101cb57602060ff60005460a01c166040519015158152f35b346101cb576020806003193601126101cb5761178d61240c565b60075460009283926001600160a01b03165b8285106117b157602084604051908152f35b9091926117dc6001918360005260088552604060002087600052855260026040600020015490612450565b94019392919061179f565b346101cb5760403660031901126101cb5761180061240c565b6024359061180c6128c9565b611814612850565b82116118615760025460405163a9059cbb60e01b81526001600160a01b039283166004820152602481019390935260209183911681600081604481015b03925af1801561033e5761031457005b606460405162461bcd60e51b815260206004820152601b60248201527f616d6f756e7420657863656564732073616c652062616c616e636500000000006044820152fd5b346101cb5760203660031901126101cb576001600160a01b036118c661240c565b6118ce6128c9565b166001600160a01b03196002541617600255600080f35b346101cb5760203660031901126101cb5760006101c0604051611907816122e8565b606081528260208201528260408201528260608201528260808201528260a08201528260c08201528260e08201528261010082015282610120820152826101408201528261016082015282610180820152826101a0820152015260043560005260056020526040600020600e60405191611980836122e8565b61198981612327565b835260018101546020840152600281015460408401526003810154606084015260048101546080840152600581015460a0840152600681015460c0840152600781015460e084015260088101546101008401526009810154610120840152600a810154610140840152600b810154610160840152600c810154610180840152600d8101546101a084015201546101c08201526040518091602082526101c0611a3f82516101e060208601526102008501906123cc565b91602081015160408501526040810151606085015260608101516080850152608081015160a085015260a081015160c085015260c081015160e085015260e08101516101008501526101008101516101208501526101208101516101408501526101408101516101608501526101608101516101808501526101808101516101a08501526101a08101518285015201516101e08301520390f35b346101cb5760003660031901126101cb5760045415611e0f576000805b600754821015611d62573360005260086020526040600020826000526020526040600020611b7060405191611b2a836122cc565b60056001600160a01b038254169182855260018101546020860152600281015460408601526003810154606086015260048101546080860152015460a0840152846127eb565b906020810151611b84836040840151612450565b11611d1e5781611b9b575b50509060010190611af6565b6001600160a01b03600154166040516370a0823160e01b8152306004820152602081602481855afa90811561033e57600091611cec575b508311611c7e575b509060019282611bf1836040611c6c960151612450565b806040830152602082015114611c73575b336000526008602052604060002086600052602052600560a06040600020926001600160a01b038151166001600160a01b03198554161784556020810151888501556040810151600285015560608101516003850155608081015160048501550151910155612450565b9083611b8f565b4260a0820152611c02565b6024919250602090604051928380926370a0823160e01b82523060048301525afa90811561033e57600091611cb7575b50906001611bda565b9190506020823d602011611ce4575b81611cd360209383612305565b810103126101cb5790516001611cae565b3d9150611cc6565b90506020813d602011611d16575b81611d0760209383612305565b810103126101cb575186611bd2565b3d9150611cfa565b606460405162461bcd60e51b815260206004820152601460248201527f746f6b656e20706f6f6c206578686175737465640000000000000000000000006044820152fd5b80611d6957005b60015460405163a9059cbb60e01b8152336004820152602481018390529190602090839060449082906000906001600160a01b03165af190811561033e577fd8138f8a3f377c5259ca548e70e4c2de94f129f5a11036a15b69513cba2b426a92611deb92611df0575b5060408051338152602081019290925290918291820190565b0390a1005b611e089060203d6020116103375761032d8183612305565b5083611dd2565b606460405162461bcd60e51b815260206004820152601c60248201527f74676554696d6520686173206e6f74206265656e2072656163686564000000006044820152fd5b346101cb5760203660031901126101cb576118516020611e7161240c565b611e796128c9565b6001600160a01b0360025416611e8d612850565b91600060405180968195829463a9059cbb60e01b845260048401602090939291936001600160a01b0360408201951681520152565b346101cb5760003660031901126101cb576020600e54604051908152f35b346101cb5760403660031901126101cb5760206101c3611efe612422565b6004356125a1565b346101cb576020806003193601126101cb57611f2061240c565b60075460009283926001600160a01b03165b828510611f4457602084604051908152f35b909192611f6f6001918360005260088552604060002087600052855260036040600020015490612450565b940193929190611f32565b346101cb5760003660031901126101cb576020600454604051908152f35b346101cb5760003660031901126101cb5760206101c361245d565b346101cb5760203660031901126101cb576004356001600160a01b0381168091036101cb57600080808093611fe66128c9565b4790828215611ff8575bf11561033e57005b506108fc611ff0565b346101cb5760003660031901126101cb5760206001600160a01b03600a5416604051908152f35b346101cb5760203660031901126101cb57611851602061204661240c565b61204e6128c9565b6001600160a01b0360015416611e8d61245d565b346101cb5760203660031901126101cb576001600160a01b0361208361240c565b61208b6128c9565b166001600160a01b03196001541617600155600080f35b346101cb5760003660031901126101cb576040516003546000826120c583612292565b918282526020936001908560018216918260001461216957505060011461210c575b506120f492500383612305565b6121086040519282849384528301906123cc565b0390f35b84915060036000527fc2575a0e9e593c00f959f8c92f12db2869c3395a3b0502d05e2516446f71f85b906000915b8583106121515750506120f49350820101856120e7565b8054838901850152879450869390920191810161213a565b60ff1916858201526120f495151560051b85010192508791506120e79050565b346101cb5760003660031901126101cb5760206001600160a01b0360095416604051908152f35b346101cb5760203660031901126101cb57600435600052600560205260406000206121da81612327565b90600181015460028201549160038101549060048101546005820154600683015460078401546008850154600986015491600a87015493600b88015495600c89015497600d8a015499600e01549a6040519e8f9e8f916101e08084528301612241916123cc565b9e602083015260408201526060015260808d015260a08c015260c08b015260e08a01526101008901526101208801526101408701526101608601526101808501526101a08401526101c08301520390f35b90600182811c921680156122c2575b60208310146122ac57565b634e487b7160e01b600052602260045260246000fd5b91607f16916122a1565b60c0810190811067ffffffffffffffff821117610faf57604052565b6101e0810190811067ffffffffffffffff821117610faf57604052565b90601f8019910116810190811067ffffffffffffffff821117610faf57604052565b9060405191826000825461233a81612292565b908184526020946001916001811690816000146123aa575060011461236b575b50505061236992500383612305565b565b600090815285812095935091905b818310612392575050612369935082010138808061235a565b85548884018501529485019487945091830191612379565b9250505061236994925060ff191682840152151560051b82010138808061235a565b919082519283825260005b8481106123f8575050826000602080949584010152601f8019910116010190565b6020818301810151848301820152016123d7565b600435906001600160a01b03821682036101cb57565b602435906001600160a01b03821682036101cb57565b908160209103126101cb575180151581036101cb5790565b91908201809211610b1857565b6004541561257c576000806007545b80821061254b5750506001600160a01b036001541690604051916370a0823160e01b8084523060048501526020938481602481865afa90811561033e5760009161251e575b5083116124c0575b5050905090565b8391925060246040518094819382523060048301525afa91821561033e576000926124f0575b50508038806124b9565b90809250813d8311612517575b6125078183612305565b810103126101cb575138806124e6565b503d6124fd565b90508481813d8311612544575b6125358183612305565b810103126101cb5751386124b1565b503d61252b565b909161257460019184600052610543600580602052600960406000209182015491015490612450565b92019061246c565b600090565b81810292918115918404141715610b1857565b91908203918211610b1857565b906001600160a01b038060015416156127e3576004549182156127da578160009116815260086020526040808220858352602052808220938151936125e5856122cc565b8554168452600185015495602085019687526002860154838601526003860154606086015260a0600560048801549760808801988952015495019485528352600560205281832090825192612639846122e8565b61264283612327565b8452600183015460208501526002830154908401526003820154606084015260048201546080840152600582015460a0840152600682015460c0840152600782015460e084015260088201546101008401526009820154610120840152600a820154610140840152600b820154906101608401918252600c8301549061018085019182526101c0600e600d860154956101a08801968752015495019485526126eb818951612450565b42106127ce579061271561271d928a519461270d620f42409687925190612581565b049951612450565b905190612450565b948542106127c357516127b957612735835186612450565b4210156127b95761274d612773928851905190612581565b049361276d61276686612761898b51612594565b612594565b9142612594565b90612581565b90519182156127a557509161278e9161279394930492612450565b612450565b90518082116127a0575090565b905090565b80634e487b7160e01b602492526012600452fd5b5050505050505190565b505050505050905090565b50505050509250505090565b50505050600090565b505050600090565b906001600160a01b036127fe82846125a1565b9116916000928084526008602052604084208285526020526002604085200154831061284a57836002926040926128479652600860205282822090825260205220015490612594565b90565b50505090565b602460206001600160a01b0360025416604051928380926370a0823160e01b82523060048301525afa801561033e57600090612895575b6128479150600d5490612594565b506020813d6020116128c1575b816128af60209383612305565b810103126101cb576128479051612887565b3d91506128a2565b6001600160a01b036000541633036128dd57565b60246040517f118cdaa7000000000000000000000000000000000000000000000000000000008152336004820152fd5b60ff60005460a01c1661291c57565b60046040517fd93c0665000000000000000000000000000000000000000000000000000000008152fd5b6000198114610b18576001019056fea2646970667358221220ce6624c8b08f2eaa4a3b2429e1c6195a1c670700124ccaf3d784179dc0545d2a64736f6c63430008180033",
          "opcodes": "PUSH1 0x80 DUP1 PUSH1 0x40 MSTORE CALLVALUE PUSH3 0x425 JUMPI PUSH3 0x3095 DUP1 CODESIZE SUB DUP1 SWAP2 PUSH3 0x20 DUP3 DUP6 PUSH3 0x67A JUMP JUMPDEST DUP4 CODECOPY PUSH1 0x80 DUP3 DUP3 DUP2 ADD SUB SLT PUSH3 0x425 JUMPI PUSH3 0x3A DUP3 PUSH3 0x69E JUMP JUMPDEST PUSH1 0x20 DUP4 ADD MLOAD SWAP1 PUSH1 0x40 DUP5 ADD MLOAD SWAP3 PUSH1 0x60 DUP6 ADD MLOAD SWAP5 PUSH1 0x1 DUP1 PUSH1 0x40 SHL SUB DUP7 GT PUSH3 0x425 JUMPI DUP2 DUP2 ADD PUSH1 0x1F DUP8 DUP4 ADD ADD SLT ISZERO PUSH3 0x425 JUMPI DUP1 DUP7 ADD MLOAD SWAP6 PUSH1 0x1 PUSH1 0x1 PUSH1 0x40 SHL SUB DUP8 GT PUSH3 0x3C6 JUMPI DUP7 PUSH1 0x5 SHL SWAP1 PUSH1 0x40 MLOAD SWAP8 PUSH3 0x96 PUSH1 0x20 DUP5 ADD DUP11 PUSH3 0x67A JUMP JUMPDEST DUP9 MSTORE PUSH1 0x20 DUP9 ADD SWAP1 DUP5 DUP5 ADD PUSH1 0x20 DUP5 DUP4 DUP8 ADD ADD ADD GT PUSH3 0x425 JUMPI PUSH1 0x20 DUP2 DUP6 ADD ADD SWAP2 JUMPDEST PUSH1 0x20 DUP5 DUP4 DUP8 ADD ADD ADD DUP4 LT PUSH3 0x47D JUMPI POP POP POP POP POP POP CALLER ISZERO PUSH3 0x464 JUMPI PUSH1 0x20 PUSH1 0x4 SWAP2 PUSH1 0x0 SLOAD CALLER PUSH1 0x1 DUP1 PUSH1 0xA0 SHL SUB DUP3 AND PUSH32 0x8BE0079C531659141344CD1FD0A4F28419497F9722A3DAAFE3B4186F6B6457E0 PUSH1 0x0 DUP1 LOG3 PUSH1 0x1 PUSH1 0x1 PUSH1 0xA8 SHL SUB NOT AND CALLER PUSH1 0xFF PUSH1 0xA0 SHL NOT AND OR PUSH1 0x0 SSTORE PUSH1 0x3 SLOAD PUSH3 0x12D SWAP1 PUSH3 0x6B3 JUMP JUMPDEST PUSH1 0x1F DUP2 GT PUSH3 0x43F JUMPI JUMPDEST POP PUSH32 0x5371756967676C652053616C6520436F6E74726163740000000000000000002C PUSH1 0x3 SSTORE PUSH1 0xA DUP1 SLOAD PUSH1 0x1 PUSH1 0x1 PUSH1 0xA0 SHL SUB NOT AND PUSH1 0x1 PUSH1 0x1 PUSH1 0xA0 SHL SUB SWAP3 SWAP1 SWAP3 AND SWAP2 DUP3 OR SWAP1 SSTORE PUSH1 0x40 MLOAD PUSH4 0xC45A0155 PUSH1 0xE0 SHL DUP2 MSTORE SWAP3 DUP4 SWAP2 DUP3 SWAP1 GAS STATICCALL SWAP1 DUP2 ISZERO PUSH3 0x433 JUMPI PUSH1 0x0 SWAP2 PUSH3 0x3EC JUMPI JUMPDEST POP PUSH1 0x9 DUP1 SLOAD PUSH1 0x1 PUSH1 0x1 PUSH1 0xA0 SHL SUB NOT AND PUSH1 0x1 PUSH1 0x1 PUSH1 0xA0 SHL SUB SWAP3 SWAP1 SWAP3 AND SWAP2 SWAP1 SWAP2 OR SWAP1 SSTORE PUSH1 0xC SSTORE PUSH1 0xE SSTORE PUSH1 0x0 JUMPDEST DUP2 MLOAD DUP2 LT ISZERO PUSH3 0x3DC JUMPI PUSH1 0x20 DUP2 PUSH1 0x5 SHL DUP4 ADD ADD MLOAD SWAP1 PUSH1 0x7 SLOAD PUSH1 0x0 MSTORE PUSH1 0x5 PUSH1 0x20 MSTORE PUSH1 0x40 PUSH1 0x0 KECCAK256 DUP3 MLOAD DUP1 MLOAD SWAP1 PUSH1 0x1 DUP1 PUSH1 0x40 SHL SUB DUP3 GT PUSH3 0x3C6 JUMPI DUP2 SWAP1 PUSH3 0x210 DUP5 SLOAD PUSH3 0x6B3 JUMP JUMPDEST PUSH1 0x1F DUP2 GT PUSH3 0x384 JUMPI JUMPDEST POP PUSH1 0x20 SWAP1 PUSH1 0x1F DUP4 GT PUSH1 0x1 EQ PUSH3 0x31A JUMPI PUSH1 0x0 SWAP3 PUSH3 0x30E JUMPI JUMPDEST POP POP DUP2 PUSH1 0x1 SHL SWAP2 PUSH1 0x0 NOT SWAP1 PUSH1 0x3 SHL SHR NOT AND OR DUP2 SSTORE JUMPDEST PUSH1 0xE PUSH2 0x1C0 PUSH1 0x1 SWAP5 PUSH1 0x20 DUP2 ADD MLOAD DUP7 DUP6 ADD SSTORE PUSH1 0x40 DUP2 ADD MLOAD PUSH1 0x2 DUP6 ADD SSTORE PUSH1 0x60 DUP2 ADD MLOAD PUSH1 0x3 DUP6 ADD SSTORE PUSH1 0x80 DUP2 ADD MLOAD PUSH1 0x4 DUP6 ADD SSTORE PUSH1 0xA0 DUP2 ADD MLOAD PUSH1 0x5 DUP6 ADD SSTORE PUSH1 0xC0 DUP2 ADD MLOAD PUSH1 0x6 DUP6 ADD SSTORE PUSH1 0xE0 DUP2 ADD MLOAD PUSH1 0x7 DUP6 ADD SSTORE PUSH2 0x100 DUP2 ADD MLOAD PUSH1 0x8 DUP6 ADD SSTORE PUSH2 0x120 DUP2 ADD MLOAD PUSH1 0x9 DUP6 ADD SSTORE PUSH2 0x140 DUP2 ADD MLOAD PUSH1 0xA DUP6 ADD SSTORE PUSH2 0x160 DUP2 ADD MLOAD PUSH1 0xB DUP6 ADD SSTORE PUSH2 0x180 DUP2 ADD MLOAD PUSH1 0xC DUP6 ADD SSTORE PUSH2 0x1A0 DUP2 ADD MLOAD PUSH1 0xD DUP6 ADD SSTORE ADD MLOAD SWAP2 ADD SSTORE PUSH1 0x7 SLOAD SWAP2 PUSH1 0x0 NOT DUP4 EQ PUSH3 0x2F8 JUMPI PUSH1 0x1 SWAP3 ADD PUSH1 0x7 SSTORE ADD PUSH3 0x1CA JUMP JUMPDEST PUSH4 0x4E487B71 PUSH1 0xE0 SHL PUSH1 0x0 MSTORE PUSH1 0x11 PUSH1 0x4 MSTORE PUSH1 0x24 PUSH1 0x0 REVERT JUMPDEST ADD MLOAD SWAP1 POP CODESIZE DUP1 PUSH3 0x233 JUMP JUMPDEST PUSH1 0x0 DUP6 DUP2 MSTORE PUSH1 0x20 DUP2 KECCAK256 SWAP4 POP JUMPDEST PUSH1 0x1F NOT DUP6 AND DUP2 LT PUSH3 0x36B JUMPI POP DUP4 PUSH1 0x1F NOT DUP2 AND LT PUSH3 0x351 JUMPI JUMPDEST POP POP POP PUSH1 0x1 SWAP1 DUP2 SHL ADD DUP2 SSTORE PUSH3 0x248 JUMP JUMPDEST ADD MLOAD PUSH1 0x0 NOT PUSH1 0xF8 DUP5 PUSH1 0x3 SHL AND SHR NOT AND SWAP1 SSTORE CODESIZE DUP1 DUP1 PUSH3 0x340 JUMP JUMPDEST SWAP2 SWAP3 PUSH1 0x20 PUSH1 0x1 DUP2 SWAP3 DUP7 DUP6 ADD MLOAD DUP2 SSTORE ADD SWAP5 ADD SWAP3 ADD PUSH3 0x326 JUMP JUMPDEST PUSH3 0x3B4 SWAP1 DUP6 PUSH1 0x0 MSTORE PUSH1 0x20 PUSH1 0x0 KECCAK256 PUSH1 0x1F DUP6 ADD PUSH1 0x5 SHR DUP2 ADD SWAP2 PUSH1 0x20 DUP7 LT PUSH3 0x3BB JUMPI JUMPDEST PUSH1 0x1F ADD PUSH1 0x5 SHR ADD SWAP1 PUSH3 0x6F0 JUMP JUMPDEST CODESIZE PUSH3 0x21A JUMP JUMPDEST SWAP1 SWAP2 POP DUP2 SWAP1 PUSH3 0x3A6 JUMP JUMPDEST PUSH4 0x4E487B71 PUSH1 0xE0 SHL PUSH1 0x0 MSTORE PUSH1 0x41 PUSH1 0x4 MSTORE PUSH1 0x24 PUSH1 0x0 REVERT JUMPDEST PUSH1 0x40 MLOAD PUSH2 0x298B SWAP1 DUP2 PUSH3 0x70A DUP3 CODECOPY RETURN JUMPDEST SWAP1 POP PUSH1 0x20 DUP2 RETURNDATASIZE PUSH1 0x20 GT PUSH3 0x42A JUMPI JUMPDEST DUP2 PUSH3 0x40A PUSH1 0x20 SWAP4 DUP4 PUSH3 0x67A JUMP JUMPDEST DUP2 ADD SUB SLT PUSH3 0x425 JUMPI PUSH3 0x41E SWAP1 PUSH3 0x69E JUMP JUMPDEST CODESIZE PUSH3 0x1A0 JUMP JUMPDEST PUSH1 0x0 DUP1 REVERT JUMPDEST RETURNDATASIZE SWAP2 POP PUSH3 0x3FB JUMP JUMPDEST PUSH1 0x40 MLOAD RETURNDATASIZE PUSH1 0x0 DUP3 RETURNDATACOPY RETURNDATASIZE SWAP1 REVERT JUMPDEST PUSH3 0x45D SWAP1 PUSH1 0x3 PUSH1 0x0 MSTORE PUSH1 0x1F DUP5 PUSH1 0x0 KECCAK256 SWAP2 ADD PUSH1 0x5 SHR DUP2 ADD SWAP1 PUSH3 0x6F0 JUMP JUMPDEST CODESIZE PUSH3 0x137 JUMP JUMPDEST PUSH1 0x40 MLOAD PUSH4 0x1E4FBDF7 PUSH1 0xE0 SHL DUP2 MSTORE PUSH1 0x0 PUSH1 0x4 DUP3 ADD MSTORE PUSH1 0x24 SWAP1 REVERT JUMPDEST DUP3 MLOAD PUSH1 0x1 PUSH1 0x1 PUSH1 0x40 SHL SUB DUP2 GT PUSH3 0x425 JUMPI PUSH2 0x1E0 DUP7 DUP5 ADD DUP3 ADD DUP9 DUP9 ADD SUB PUSH1 0x1F NOT ADD SLT PUSH3 0x425 JUMPI PUSH1 0x40 MLOAD SWAP1 PUSH1 0x1 PUSH1 0x1 PUSH1 0x40 SHL SUB PUSH2 0x1E0 DUP4 ADD SWAP1 DUP2 GT SWAP1 DUP4 GT OR PUSH3 0x665 JUMPI PUSH2 0x1E0 DUP3 ADD PUSH1 0x40 MSTORE DUP7 DUP5 ADD DUP2 ADD PUSH1 0x20 ADD MLOAD PUSH1 0x1 PUSH1 0x1 PUSH1 0x40 SHL SUB DUP2 GT PUSH3 0x425 JUMPI DUP9 DUP9 ADD PUSH1 0x3F DUP3 DUP5 DUP9 DUP13 ADD ADD ADD ADD SLT ISZERO PUSH3 0x425 JUMPI DUP8 DUP6 ADD DUP3 ADD DUP2 ADD PUSH1 0x20 ADD MLOAD SWAP1 PUSH1 0x1 PUSH1 0x1 PUSH1 0x40 SHL SUB DUP3 GT PUSH3 0x665 JUMPI DUP9 PUSH1 0x40 DUP4 DUP4 DUP7 DUP11 DUP16 PUSH3 0x532 PUSH1 0x1F DUP7 ADD PUSH1 0x1F NOT AND PUSH1 0x20 ADD PUSH2 0x1E0 DUP14 ADD PUSH3 0x67A JUMP JUMPDEST DUP5 PUSH2 0x1E0 DUP13 ADD MSTORE DUP7 ADD SWAP6 ADD ADD ADD ADD ADD GT PUSH3 0x425 JUMPI DUP6 SWAP3 SWAP2 DUP10 SWAP2 PUSH1 0x0 JUMPDEST DUP3 DUP2 LT PUSH3 0x641 JUMPI POP POP PUSH1 0x0 SWAP1 DUP6 ADD PUSH2 0x200 ADD MSTORE PUSH2 0x1E0 DUP5 DUP2 ADD DUP6 MSTORE SWAP1 DUP4 ADD DUP3 ADD PUSH1 0x40 DUP2 DUP2 ADD MLOAD PUSH1 0x20 DUP8 DUP2 ADD SWAP2 SWAP1 SWAP2 MSTORE PUSH1 0x60 DUP1 DUP5 ADD MLOAD SWAP3 DUP9 ADD SWAP3 SWAP1 SWAP3 MSTORE PUSH1 0x80 SWAP3 DUP4 ADD MLOAD SWAP2 DUP8 ADD SWAP2 SWAP1 SWAP2 MSTORE SWAP4 DUP11 ADD DUP4 ADD PUSH1 0xA0 DUP2 DUP2 ADD MLOAD SWAP3 DUP8 ADD SWAP3 SWAP1 SWAP3 MSTORE PUSH1 0xC0 DUP1 DUP3 ADD MLOAD SWAP3 DUP8 ADD SWAP3 SWAP1 SWAP3 MSTORE PUSH1 0xE0 DUP1 DUP3 ADD MLOAD SWAP3 DUP8 ADD SWAP3 SWAP1 SWAP3 MSTORE PUSH2 0x100 DUP1 DUP3 ADD MLOAD SWAP3 DUP8 ADD SWAP3 SWAP1 SWAP3 MSTORE PUSH2 0x120 DUP1 DUP3 ADD MLOAD SWAP3 DUP8 ADD SWAP3 SWAP1 SWAP3 MSTORE PUSH2 0x140 DUP1 DUP3 ADD MLOAD SWAP3 DUP8 ADD SWAP3 SWAP1 SWAP3 MSTORE PUSH2 0x160 DUP1 DUP3 ADD MLOAD SWAP3 DUP8 ADD SWAP3 SWAP1 SWAP3 MSTORE PUSH2 0x180 DUP1 DUP3 ADD MLOAD SWAP3 DUP8 ADD SWAP3 SWAP1 SWAP3 MSTORE PUSH2 0x1A0 DUP1 DUP3 ADD MLOAD SWAP3 DUP8 ADD SWAP3 SWAP1 SWAP3 MSTORE PUSH2 0x1C0 SWAP1 DUP2 ADD MLOAD SWAP2 DUP7 ADD SWAP2 SWAP1 SWAP2 MSTORE DUP7 DUP11 ADD SWAP1 SWAP3 ADD ADD MLOAD SWAP1 DUP4 ADD MSTORE SWAP1 DUP3 MSTORE SWAP3 DUP4 ADD SWAP3 ADD PUSH3 0xB6 JUMP JUMPDEST SWAP5 SWAP1 SWAP3 ADD DUP4 ADD DUP3 ADD DUP5 ADD PUSH1 0x40 ADD MLOAD DUP6 DUP6 ADD PUSH2 0x200 ADD MSTORE DUP7 SWAP4 DUP11 SWAP3 SWAP1 PUSH1 0x20 ADD PUSH3 0x54F JUMP JUMPDEST PUSH1 0x24 PUSH1 0x0 PUSH4 0x4E487B71 PUSH1 0xE0 SHL DUP2 MSTORE PUSH1 0x41 PUSH1 0x4 MSTORE REVERT JUMPDEST PUSH1 0x1F SWAP1 SWAP2 ADD PUSH1 0x1F NOT AND DUP2 ADD SWAP1 PUSH1 0x1 PUSH1 0x1 PUSH1 0x40 SHL SUB DUP3 GT SWAP1 DUP3 LT OR PUSH3 0x3C6 JUMPI PUSH1 0x40 MSTORE JUMP JUMPDEST MLOAD SWAP1 PUSH1 0x1 PUSH1 0x1 PUSH1 0xA0 SHL SUB DUP3 AND DUP3 SUB PUSH3 0x425 JUMPI JUMP JUMPDEST SWAP1 PUSH1 0x1 DUP3 DUP2 SHR SWAP3 AND DUP1 ISZERO PUSH3 0x6E5 JUMPI JUMPDEST PUSH1 0x20 DUP4 LT EQ PUSH3 0x6CF JUMPI JUMP JUMPDEST PUSH4 0x4E487B71 PUSH1 0xE0 SHL PUSH1 0x0 MSTORE PUSH1 0x22 PUSH1 0x4 MSTORE PUSH1 0x24 PUSH1 0x0 REVERT JUMPDEST SWAP2 PUSH1 0x7F AND SWAP2 PUSH3 0x6C3 JUMP JUMPDEST DUP2 DUP2 LT PUSH3 0x6FC JUMPI POP POP JUMP JUMPDEST PUSH1 0x0 DUP2 SSTORE PUSH1 0x1 ADD PUSH3 0x6F0 JUMP INVALID PUSH1 0x80 PUSH1 0x40 MSTORE PUSH1 0x4 CALLDATASIZE LT ISZERO PUSH2 0x12 JUMPI PUSH1 0x0 DUP1 REVERT JUMPDEST PUSH1 0x0 CALLDATALOAD PUSH1 0xE0 SHR DUP1 PUSH4 0x39AF9EB EQ PUSH2 0x21B0 JUMPI DUP1 PUSH4 0x5F2770C EQ PUSH2 0x2189 JUMPI DUP1 PUSH4 0x6FDDE03 EQ PUSH2 0x20A2 JUMPI DUP1 PUSH4 0x144FA6D7 EQ PUSH2 0x2062 JUMPI DUP1 PUSH4 0x1AFD1A4B EQ PUSH2 0x2028 JUMPI DUP1 PUSH4 0x24702944 EQ PUSH2 0x2001 JUMPI DUP1 PUSH4 0x25E16063 EQ PUSH2 0x1FB3 JUMPI DUP1 PUSH4 0x260EDAAA EQ PUSH2 0x1F98 JUMPI DUP1 PUSH4 0x3163E3A8 EQ PUSH2 0x1F7A JUMPI DUP1 PUSH4 0x3DD6D533 EQ PUSH2 0x1F06 JUMPI DUP1 PUSH4 0x3E6C5311 EQ PUSH2 0x1EE0 JUMPI DUP1 PUSH4 0x43CD8F7E EQ PUSH2 0x1EC2 JUMPI DUP1 PUSH4 0x4A2BFC8B EQ PUSH2 0x1E53 JUMPI DUP1 PUSH4 0x4E71D92D EQ PUSH2 0x1AD9 JUMPI DUP1 PUSH4 0x4F062C5A EQ PUSH2 0x18E5 JUMPI DUP1 PUSH4 0x50C1B923 EQ PUSH2 0x18A5 JUMPI DUP1 PUSH4 0x52A87C6B EQ PUSH2 0x17E7 JUMPI DUP1 PUSH4 0x5A849419 EQ PUSH2 0x1773 JUMPI DUP1 PUSH4 0x5C975ABB EQ PUSH2 0x174D JUMPI DUP1 PUSH4 0x715018A6 EQ PUSH2 0x16F4 JUMPI DUP1 PUSH4 0x719BA034 EQ PUSH2 0x1671 JUMPI DUP1 PUSH4 0x739656DB EQ PUSH2 0x1533 JUMPI DUP1 PUSH4 0x808A5457 EQ PUSH2 0x150C JUMPI DUP1 PUSH4 0x8A0BEAA1 EQ PUSH2 0x14EE JUMPI DUP1 PUSH4 0x8DA5CB5B EQ PUSH2 0x14C7 JUMPI DUP1 PUSH4 0x8DE93222 EQ PUSH2 0x553 JUMPI DUP1 PUSH4 0x9943D6EC EQ PUSH2 0x4FD JUMPI DUP1 PUSH4 0xB0904882 EQ PUSH2 0x417 JUMPI DUP1 PUSH4 0xB0CD390E EQ PUSH2 0x3F9 JUMPI DUP1 PUSH4 0xCDAC5F7C EQ PUSH2 0x3DB JUMPI DUP1 PUSH4 0xD679677A EQ PUSH2 0x3BD JUMPI DUP1 PUSH4 0xD72B9DA2 EQ PUSH2 0x34A JUMPI DUP1 PUSH4 0xE63EA408 EQ PUSH2 0x295 JUMPI DUP1 PUSH4 0xF2FDE38B EQ PUSH2 0x1F6 JUMPI DUP1 PUSH4 0xF311DF8E EQ PUSH2 0x1D0 JUMPI PUSH4 0xFAB14B36 EQ PUSH2 0x1A8 JUMPI PUSH1 0x0 DUP1 REVERT JUMPDEST CALLVALUE PUSH2 0x1CB JUMPI PUSH1 0x0 CALLDATASIZE PUSH1 0x3 NOT ADD SLT PUSH2 0x1CB JUMPI PUSH1 0x20 PUSH2 0x1C3 PUSH2 0x2850 JUMP JUMPDEST PUSH1 0x40 MLOAD SWAP1 DUP2 MSTORE RETURN JUMPDEST PUSH1 0x0 DUP1 REVERT JUMPDEST CALLVALUE PUSH2 0x1CB JUMPI PUSH1 0x40 CALLDATASIZE PUSH1 0x3 NOT ADD SLT PUSH2 0x1CB JUMPI PUSH1 0x20 PUSH2 0x1C3 PUSH2 0x1EE PUSH2 0x2422 JUMP JUMPDEST PUSH1 0x4 CALLDATALOAD PUSH2 0x27EB JUMP JUMPDEST CALLVALUE PUSH2 0x1CB JUMPI PUSH1 0x20 CALLDATASIZE PUSH1 0x3 NOT ADD SLT PUSH2 0x1CB JUMPI PUSH2 0x20F PUSH2 0x240C JUMP JUMPDEST PUSH2 0x217 PUSH2 0x28C9 JUMP JUMPDEST PUSH1 0x1 PUSH1 0x1 PUSH1 0xA0 SHL SUB DUP1 SWAP2 AND SWAP1 DUP2 ISZERO PUSH2 0x264 JUMPI PUSH1 0x0 SLOAD DUP3 PUSH1 0x1 PUSH1 0x1 PUSH1 0xA0 SHL SUB NOT DUP3 AND OR PUSH1 0x0 SSTORE AND PUSH32 0x8BE0079C531659141344CD1FD0A4F28419497F9722A3DAAFE3B4186F6B6457E0 PUSH1 0x0 DUP1 LOG3 STOP JUMPDEST PUSH1 0x24 PUSH1 0x40 MLOAD PUSH32 0x1E4FBDF700000000000000000000000000000000000000000000000000000000 DUP2 MSTORE PUSH1 0x0 PUSH1 0x4 DUP3 ADD MSTORE REVERT JUMPDEST CALLVALUE PUSH2 0x1CB JUMPI PUSH1 0x60 CALLDATASIZE PUSH1 0x3 NOT ADD SLT PUSH2 0x1CB JUMPI PUSH1 0x1 PUSH1 0x1 PUSH1 0xA0 SHL SUB PUSH1 0x20 PUSH2 0x303 PUSH2 0x2BB PUSH2 0x240C JUMP JUMPDEST PUSH2 0x2C3 PUSH2 0x2422 JUMP JUMPDEST PUSH2 0x2CB PUSH2 0x28C9 JUMP JUMPDEST PUSH1 0x0 PUSH1 0x40 MLOAD SWAP6 DUP7 DUP1 SWAP6 DUP2 SWAP5 PUSH4 0xA9059CBB PUSH1 0xE0 SHL DUP4 MSTORE PUSH1 0x44 CALLDATALOAD SWAP1 PUSH1 0x4 DUP5 ADD PUSH1 0x20 SWAP1 SWAP4 SWAP3 SWAP2 SWAP4 PUSH1 0x1 PUSH1 0x1 PUSH1 0xA0 SHL SUB PUSH1 0x40 DUP3 ADD SWAP6 AND DUP2 MSTORE ADD MSTORE JUMP JUMPDEST SUB SWAP4 AND GAS CALL DUP1 ISZERO PUSH2 0x33E JUMPI PUSH2 0x314 JUMPI STOP JUMPDEST PUSH2 0x335 SWAP1 PUSH1 0x20 RETURNDATASIZE PUSH1 0x20 GT PUSH2 0x337 JUMPI JUMPDEST PUSH2 0x32D DUP2 DUP4 PUSH2 0x2305 JUMP JUMPDEST DUP2 ADD SWAP1 PUSH2 0x2438 JUMP JUMPDEST STOP JUMPDEST POP RETURNDATASIZE PUSH2 0x323 JUMP JUMPDEST PUSH1 0x40 MLOAD RETURNDATASIZE PUSH1 0x0 DUP3 RETURNDATACOPY RETURNDATASIZE SWAP1 REVERT JUMPDEST CALLVALUE PUSH2 0x1CB JUMPI PUSH1 0x20 DUP1 PUSH1 0x3 NOT CALLDATASIZE ADD SLT PUSH2 0x1CB JUMPI PUSH2 0x364 PUSH2 0x240C JUMP JUMPDEST PUSH1 0x7 SLOAD PUSH1 0x0 SWAP3 DUP4 SWAP3 PUSH1 0x1 PUSH1 0x1 PUSH1 0xA0 SHL SUB AND JUMPDEST DUP3 DUP6 LT PUSH2 0x388 JUMPI PUSH1 0x20 DUP5 PUSH1 0x40 MLOAD SWAP1 DUP2 MSTORE RETURN JUMPDEST SWAP1 SWAP2 SWAP3 PUSH2 0x3B2 PUSH1 0x1 SWAP2 DUP4 PUSH1 0x0 MSTORE PUSH1 0x8 DUP6 MSTORE PUSH1 0x40 PUSH1 0x0 KECCAK256 DUP8 PUSH1 0x0 MSTORE DUP6 MSTORE DUP3 PUSH1 0x40 PUSH1 0x0 KECCAK256 ADD SLOAD SWAP1 PUSH2 0x2450 JUMP JUMPDEST SWAP5 ADD SWAP4 SWAP3 SWAP2 SWAP1 PUSH2 0x376 JUMP JUMPDEST CALLVALUE PUSH2 0x1CB JUMPI PUSH1 0x0 CALLDATASIZE PUSH1 0x3 NOT ADD SLT PUSH2 0x1CB JUMPI PUSH1 0x20 PUSH1 0x6 SLOAD PUSH1 0x40 MLOAD SWAP1 DUP2 MSTORE RETURN JUMPDEST CALLVALUE PUSH2 0x1CB JUMPI PUSH1 0x0 CALLDATASIZE PUSH1 0x3 NOT ADD SLT PUSH2 0x1CB JUMPI PUSH1 0x20 PUSH1 0xD SLOAD PUSH1 0x40 MLOAD SWAP1 DUP2 MSTORE RETURN JUMPDEST CALLVALUE PUSH2 0x1CB JUMPI PUSH1 0x0 CALLDATASIZE PUSH1 0x3 NOT ADD SLT PUSH2 0x1CB JUMPI PUSH1 0x20 PUSH1 0x7 SLOAD PUSH1 0x40 MLOAD SWAP1 DUP2 MSTORE RETURN JUMPDEST CALLVALUE PUSH2 0x1CB JUMPI PUSH1 0x40 CALLDATASIZE PUSH1 0x3 NOT ADD SLT PUSH2 0x1CB JUMPI PUSH1 0xC0 PUSH2 0x432 PUSH2 0x240C JUMP JUMPDEST PUSH1 0x0 PUSH1 0xA0 PUSH1 0x40 MLOAD PUSH2 0x442 DUP2 PUSH2 0x22CC JUMP JUMPDEST DUP3 DUP2 MSTORE DUP3 PUSH1 0x20 DUP3 ADD MSTORE DUP3 PUSH1 0x40 DUP3 ADD MSTORE DUP3 PUSH1 0x60 DUP3 ADD MSTORE DUP3 PUSH1 0x80 DUP3 ADD MSTORE ADD MSTORE PUSH1 0x1 PUSH1 0x1 PUSH1 0xA0 SHL SUB DUP1 SWAP2 AND PUSH1 0x0 MSTORE PUSH1 0x8 PUSH1 0x20 MSTORE PUSH1 0x40 PUSH1 0x0 KECCAK256 PUSH1 0x24 CALLDATALOAD PUSH1 0x0 MSTORE PUSH1 0x20 MSTORE PUSH1 0x40 PUSH1 0x0 KECCAK256 SWAP1 PUSH1 0x40 MLOAD SWAP1 PUSH2 0x493 DUP3 PUSH2 0x22CC JUMP JUMPDEST DUP3 SLOAD AND SWAP2 DUP3 DUP3 MSTORE PUSH1 0x1 DUP2 ADD SLOAD PUSH1 0x20 DUP4 ADD SWAP1 DUP2 MSTORE PUSH1 0x2 DUP3 ADD SLOAD PUSH1 0x40 DUP5 ADD SWAP1 DUP2 MSTORE PUSH1 0x3 DUP4 ADD SLOAD SWAP2 PUSH1 0x60 DUP6 ADD SWAP3 DUP4 MSTORE PUSH1 0xA0 PUSH1 0x5 PUSH1 0x4 DUP7 ADD SLOAD SWAP6 PUSH1 0x80 DUP9 ADD SWAP7 DUP8 MSTORE ADD SLOAD SWAP6 ADD SWAP5 DUP6 MSTORE PUSH1 0x40 MLOAD SWAP6 DUP7 MSTORE MLOAD PUSH1 0x20 DUP7 ADD MSTORE MLOAD PUSH1 0x40 DUP6 ADD MSTORE MLOAD PUSH1 0x60 DUP5 ADD MSTORE MLOAD PUSH1 0x80 DUP4 ADD MSTORE MLOAD PUSH1 0xA0 DUP3 ADD MSTORE RETURN JUMPDEST CALLVALUE PUSH2 0x1CB JUMPI PUSH1 0x20 CALLDATASIZE PUSH1 0x3 NOT ADD SLT PUSH2 0x1CB JUMPI PUSH2 0x516 PUSH2 0x240C JUMP JUMPDEST PUSH1 0x0 DUP1 SWAP2 PUSH1 0x7 SLOAD SWAP1 JUMPDEST DUP2 DUP5 LT PUSH2 0x531 JUMPI PUSH1 0x20 DUP4 PUSH1 0x40 MLOAD SWAP1 DUP2 MSTORE RETURN JUMPDEST SWAP1 SWAP2 PUSH2 0x549 PUSH1 0x1 SWAP2 PUSH2 0x543 DUP5 DUP8 PUSH2 0x27EB JUMP JUMPDEST SWAP1 PUSH2 0x2450 JUMP JUMPDEST SWAP4 ADD SWAP3 SWAP2 SWAP1 PUSH2 0x51F JUMP JUMPDEST CALLVALUE PUSH2 0x1CB JUMPI PUSH1 0x40 CALLDATASIZE PUSH1 0x3 NOT ADD SLT PUSH2 0x1CB JUMPI PUSH2 0x56C PUSH2 0x240C JUMP JUMPDEST PUSH2 0x574 PUSH2 0x290D JUMP JUMPDEST PUSH1 0x6 SLOAD DUP1 PUSH1 0x0 MSTORE PUSH1 0x5 PUSH1 0x20 MSTORE PUSH1 0x40 PUSH1 0x0 KECCAK256 SWAP2 PUSH1 0x40 MLOAD SWAP2 PUSH2 0x593 DUP4 PUSH2 0x22E8 JUMP JUMPDEST PUSH2 0x59C DUP5 PUSH2 0x2327 JUMP JUMPDEST DUP4 MSTORE PUSH1 0x1 DUP5 ADD SLOAD PUSH1 0x20 DUP5 ADD MSTORE PUSH1 0x2 DUP5 ADD SLOAD DUP1 PUSH1 0x40 DUP6 ADD MSTORE PUSH1 0x3 DUP6 ADD SLOAD PUSH1 0x60 DUP6 ADD MSTORE PUSH1 0x4 DUP6 ADD SLOAD PUSH1 0x80 DUP6 ADD MSTORE PUSH1 0xE PUSH1 0x5 DUP7 ADD SLOAD SWAP6 DUP7 PUSH1 0xA0 DUP8 ADD MSTORE PUSH1 0x6 DUP2 ADD SLOAD PUSH1 0xC0 DUP8 ADD MSTORE PUSH1 0x7 DUP2 ADD SLOAD PUSH1 0xE0 DUP8 ADD MSTORE PUSH1 0x8 DUP2 ADD SLOAD PUSH2 0x100 DUP8 ADD MSTORE PUSH1 0x9 DUP2 ADD SLOAD PUSH2 0x120 DUP8 ADD MSTORE PUSH1 0xA DUP2 ADD SLOAD PUSH2 0x140 DUP8 ADD MSTORE PUSH1 0xB DUP2 ADD SLOAD PUSH2 0x160 DUP8 ADD MSTORE PUSH1 0xC DUP2 ADD SLOAD PUSH2 0x180 DUP8 ADD MSTORE PUSH1 0xD DUP2 ADD SLOAD PUSH2 0x1A0 DUP8 ADD MSTORE ADD SLOAD PUSH2 0x1C0 DUP6 ADD MSTORE TIMESTAMP LT PUSH2 0x1483 JUMPI PUSH1 0x4 SLOAD PUSH2 0x143F JUMPI PUSH1 0x1 PUSH1 0x1 PUSH1 0xA0 SHL SUB PUSH1 0x2 SLOAD AND SWAP4 DUP5 ISZERO PUSH2 0x13FB JUMPI PUSH1 0x24 CALLDATALOAD GT PUSH2 0x1391 JUMPI PUSH1 0x1 PUSH1 0x1 PUSH1 0xA0 SHL SUB DUP3 AND ISZERO SWAP1 DUP2 ISZERO SWAP2 DUP3 PUSH2 0x137E JUMPI JUMPDEST ISZERO PUSH2 0x133A JUMPI PUSH1 0x40 MLOAD PUSH32 0xDD62ED3E00000000000000000000000000000000000000000000000000000000 DUP2 MSTORE CALLER PUSH1 0x4 DUP3 ADD MSTORE ADDRESS PUSH1 0x24 DUP3 ADD MSTORE PUSH1 0x20 DUP2 PUSH1 0x44 DUP2 DUP10 GAS STATICCALL SWAP1 DUP2 ISZERO PUSH2 0x33E JUMPI PUSH1 0x0 SWAP2 PUSH2 0x1308 JUMPI JUMPDEST POP PUSH8 0xDE0B6B3A7640000 PUSH2 0x6D9 PUSH1 0x60 DUP8 ADD MLOAD PUSH1 0x24 CALLDATALOAD PUSH2 0x2581 JUMP JUMPDEST DIV GT PUSH2 0x129E JUMPI CALLER PUSH1 0x0 MSTORE PUSH1 0x8 PUSH1 0x20 MSTORE PUSH1 0x40 PUSH1 0x0 KECCAK256 SWAP1 PUSH1 0x0 MSTORE PUSH1 0x20 MSTORE PUSH1 0x40 PUSH1 0x0 KECCAK256 PUSH2 0x752 PUSH1 0x40 MLOAD SWAP2 PUSH2 0x709 DUP4 PUSH2 0x22CC JUMP JUMPDEST PUSH1 0x1 PUSH1 0x1 PUSH1 0xA0 SHL SUB DUP2 SLOAD AND DUP4 MSTORE PUSH1 0x5 PUSH1 0x1 DUP3 ADD SLOAD SWAP2 DUP3 PUSH1 0x20 DUP7 ADD MSTORE PUSH1 0x2 DUP2 ADD SLOAD PUSH1 0x40 DUP7 ADD MSTORE PUSH1 0x3 DUP2 ADD SLOAD PUSH1 0x60 DUP7 ADD MSTORE PUSH1 0x4 DUP2 ADD SLOAD PUSH1 0x80 DUP7 ADD MSTORE ADD SLOAD PUSH1 0xA0 DUP5 ADD MSTORE PUSH1 0x24 CALLDATALOAD SWAP1 PUSH2 0x2450 JUMP JUMPDEST PUSH1 0xE0 DUP6 ADD MLOAD LT PUSH2 0x1234 JUMPI PUSH2 0x76C PUSH1 0x24 CALLDATALOAD PUSH1 0x20 DUP4 ADD MLOAD PUSH2 0x2450 JUMP JUMPDEST PUSH1 0xC0 DUP6 ADD MLOAD GT PUSH2 0x11CA JUMPI PUSH1 0x1 PUSH1 0x1 PUSH1 0xA0 SHL SUB DUP2 MLOAD AND ISZERO PUSH2 0x11BB JUMPI JUMPDEST PUSH1 0x0 PUSH1 0x20 PUSH8 0xDE0B6B3A7640000 PUSH2 0x7A4 PUSH1 0x60 DUP9 ADD MLOAD PUSH1 0x24 CALLDATALOAD PUSH2 0x2581 JUMP JUMPDEST DIV SWAP7 PUSH1 0x64 PUSH1 0x40 MLOAD DUP1 SWAP5 DUP2 SWAP4 PUSH32 0x23B872DD00000000000000000000000000000000000000000000000000000000 DUP4 MSTORE CALLER PUSH1 0x4 DUP5 ADD MSTORE ADDRESS PUSH1 0x24 DUP5 ADD MSTORE DUP12 PUSH1 0x44 DUP5 ADD MSTORE GAS CALL SWAP1 DUP2 ISZERO PUSH2 0x33E JUMPI PUSH1 0x0 SWAP2 PUSH2 0x119C JUMPI JUMPDEST POP ISZERO PUSH2 0x1158 JUMPI PUSH1 0x0 PUSH1 0xA0 DUP3 ADD MSTORE PUSH2 0x812 PUSH1 0x24 CALLDATALOAD PUSH1 0x20 DUP4 ADD MLOAD PUSH2 0x2450 JUMP JUMPDEST PUSH1 0x20 DUP3 ADD MSTORE PUSH2 0x825 DUP6 PUSH1 0x60 DUP4 ADD MLOAD PUSH2 0x2450 JUMP JUMPDEST PUSH1 0x60 DUP3 ADD MSTORE PUSH2 0x83A PUSH1 0x24 CALLDATALOAD PUSH1 0xA0 DUP7 ADD MLOAD PUSH2 0x2594 JUMP JUMPDEST PUSH1 0xA0 DUP6 ADD MSTORE PUSH2 0x85B PUSH3 0xF4240 PUSH2 0x852 PUSH1 0xC SLOAD DUP9 PUSH2 0x2581 JUMP JUMPDEST DIV PUSH1 0xD SLOAD PUSH2 0x2450 JUMP JUMPDEST PUSH1 0xD SSTORE CALLER PUSH1 0x0 MSTORE PUSH1 0x8 PUSH1 0x20 MSTORE PUSH1 0x40 PUSH1 0x0 KECCAK256 PUSH1 0x6 SLOAD PUSH1 0x0 MSTORE PUSH1 0x20 MSTORE PUSH1 0x5 PUSH1 0xA0 PUSH1 0x40 PUSH1 0x0 KECCAK256 SWAP3 PUSH1 0x1 PUSH1 0x1 PUSH1 0xA0 SHL SUB DUP2 MLOAD AND PUSH1 0x1 PUSH1 0x1 PUSH1 0xA0 SHL SUB NOT DUP6 SLOAD AND OR DUP5 SSTORE PUSH1 0x20 DUP2 ADD MLOAD PUSH1 0x1 DUP6 ADD SSTORE PUSH1 0x40 DUP2 ADD MLOAD PUSH1 0x2 DUP6 ADD SSTORE PUSH1 0x60 DUP2 ADD MLOAD PUSH1 0x3 DUP6 ADD SSTORE PUSH1 0x80 DUP2 ADD MLOAD PUSH1 0x4 DUP6 ADD SSTORE ADD MLOAD SWAP2 ADD SSTORE PUSH2 0xFC5 JUMPI JUMPDEST POP PUSH1 0x6 SLOAD PUSH1 0x0 MSTORE PUSH1 0x5 PUSH1 0x20 MSTORE PUSH1 0x40 PUSH1 0x0 KECCAK256 SWAP2 DUP2 MLOAD DUP1 MLOAD SWAP1 PUSH8 0xFFFFFFFFFFFFFFFF DUP3 GT PUSH2 0xFAF JUMPI PUSH2 0x8FB DUP6 SLOAD PUSH2 0x2292 JUMP JUMPDEST PUSH1 0x1F DUP2 GT PUSH2 0xF6B JUMPI JUMPDEST POP PUSH1 0x20 SWAP1 PUSH1 0x1F DUP4 GT PUSH1 0x1 EQ PUSH2 0xEDD JUMPI SWAP2 DUP1 PUSH32 0x5F5252E81556CF80E49DA97AC40F17AF2FB3B00E318B675AE93089F555BFA380 SWAP5 SWAP3 PUSH1 0xA0 SWAP5 PUSH1 0x0 SWAP3 PUSH2 0xED2 JUMPI JUMPDEST POP POP DUP2 PUSH1 0x1 SHL SWAP2 PUSH1 0x0 NOT SWAP1 PUSH1 0x3 SHL SHR NOT AND OR DUP6 SSTORE JUMPDEST PUSH1 0x20 DUP5 ADD MLOAD PUSH1 0x1 DUP7 ADD SSTORE PUSH1 0x40 DUP5 ADD MLOAD PUSH1 0x2 DUP7 ADD SSTORE PUSH1 0x60 DUP5 ADD MLOAD SWAP5 DUP6 PUSH1 0x3 DUP3 ADD SSTORE PUSH1 0x80 DUP6 ADD MLOAD PUSH1 0x4 DUP3 ADD SSTORE DUP3 DUP6 ADD MLOAD PUSH1 0x5 DUP3 ADD SSTORE PUSH1 0xC0 DUP6 ADD MLOAD PUSH1 0x6 DUP3 ADD SSTORE PUSH1 0xE0 DUP6 ADD MLOAD PUSH1 0x7 DUP3 ADD SSTORE PUSH2 0x100 DUP6 ADD MLOAD PUSH1 0x8 DUP3 ADD SSTORE PUSH2 0x120 DUP6 ADD MLOAD PUSH1 0x9 DUP3 ADD SSTORE PUSH2 0x140 DUP6 ADD MLOAD PUSH1 0xA DUP3 ADD SSTORE PUSH2 0x160 DUP6 ADD MLOAD PUSH1 0xB DUP3 ADD SSTORE PUSH2 0x180 DUP6 ADD MLOAD PUSH1 0xC DUP3 ADD SSTORE PUSH2 0x1A0 DUP6 ADD MLOAD PUSH1 0xD DUP3 ADD SSTORE PUSH1 0xE PUSH2 0x1C0 DUP7 ADD MLOAD SWAP2 ADD SSTORE PUSH1 0x6 SLOAD SWAP5 PUSH1 0x40 MLOAD SWAP2 CALLER DUP4 MSTORE DUP7 PUSH1 0x20 DUP5 ADD MSTORE PUSH1 0x24 CALLDATALOAD PUSH1 0x40 DUP5 ADD MSTORE PUSH1 0x60 DUP4 ADD MSTORE PUSH1 0x80 DUP3 ADD MSTORE LOG1 PUSH1 0xC0 PUSH1 0xA0 DUP3 ADD MLOAD SWAP2 ADD MLOAD LT ISZERO PUSH2 0xA22 JUMPI STOP JUMPDEST PUSH2 0xA2A PUSH2 0x290D JUMP JUMPDEST PUSH1 0x1 DUP2 ADD DUP1 DUP3 GT PUSH2 0xB18 JUMPI PUSH1 0x7 SLOAD GT ISZERO PUSH2 0xB2E JUMPI POP PUSH1 0x6 SLOAD DUP1 PUSH1 0x0 MSTORE PUSH1 0x5 PUSH1 0x20 MSTORE PUSH2 0xA5D PUSH1 0x1 PUSH1 0x40 PUSH1 0x0 KECCAK256 ADD SLOAD TIMESTAMP PUSH2 0x2450 JUMP JUMPDEST SWAP1 PUSH1 0x1 DUP2 ADD DUP1 SWAP2 GT PUSH2 0xB18 JUMPI PUSH1 0x0 MSTORE PUSH1 0x5 PUSH1 0x20 MSTORE PUSH1 0x2 PUSH1 0x40 PUSH1 0x0 KECCAK256 ADD SSTORE PUSH1 0x6 SLOAD DUP1 PUSH1 0x0 MSTORE PUSH1 0x5 PUSH1 0x40 PUSH1 0x0 KECCAK256 ADD SLOAD SWAP1 PUSH1 0x1 DUP2 ADD DUP1 SWAP2 GT PUSH2 0xB18 JUMPI PUSH1 0x0 MSTORE PUSH1 0x5 PUSH1 0x20 MSTORE PUSH2 0xAB1 PUSH1 0x4 PUSH1 0x40 PUSH1 0x0 KECCAK256 ADD SWAP2 DUP3 SLOAD PUSH2 0x2450 JUMP JUMPDEST SWAP1 SSTORE PUSH1 0x6 SLOAD PUSH1 0x0 MSTORE PUSH1 0x5 PUSH1 0x20 MSTORE PUSH1 0x0 PUSH1 0x5 PUSH1 0x40 DUP3 KECCAK256 ADD SSTORE PUSH32 0x41C47B6BED4D40D2448EDC8EE49698C39CB72F97F8A1AF6397DAAB1D1FF3E23E PUSH1 0x40 PUSH2 0xAF6 PUSH1 0x6 SLOAD PUSH2 0x2946 JUMP JUMPDEST DUP1 PUSH1 0x6 SSTORE DUP1 PUSH1 0x0 MSTORE PUSH1 0x5 PUSH1 0x20 MSTORE PUSH1 0x2 DUP3 PUSH1 0x0 KECCAK256 ADD SLOAD DUP3 MLOAD SWAP2 DUP3 MSTORE PUSH1 0x20 DUP3 ADD MSTORE LOG1 STOP JUMPDEST PUSH4 0x4E487B71 PUSH1 0xE0 SHL PUSH1 0x0 MSTORE PUSH1 0x11 PUSH1 0x4 MSTORE PUSH1 0x24 PUSH1 0x0 REVERT JUMPDEST DUP1 PUSH2 0xB55 SWAP2 PUSH1 0x0 MSTORE PUSH1 0x5 PUSH1 0x20 MSTORE PUSH2 0xB4D PUSH1 0x1 PUSH1 0x40 PUSH1 0x0 KECCAK256 ADD SLOAD TIMESTAMP PUSH2 0x2450 JUMP JUMPDEST PUSH1 0x4 SSTORE PUSH2 0x2946 JUMP JUMPDEST PUSH1 0x6 SSTORE PUSH1 0x2 SLOAD PUSH1 0xA SLOAD PUSH1 0xD SLOAD PUSH1 0x40 MLOAD PUSH32 0x95EA7B300000000000000000000000000000000000000000000000000000000 DUP1 DUP3 MSTORE PUSH1 0x1 PUSH1 0x1 PUSH1 0xA0 SHL SUB SWAP4 DUP5 AND PUSH1 0x4 DUP4 ADD MSTORE PUSH1 0x24 DUP3 ADD SWAP3 SWAP1 SWAP3 MSTORE SWAP3 SWAP1 SWAP2 PUSH1 0x20 SWAP2 DUP5 SWAP2 PUSH1 0x44 SWAP2 DUP4 SWAP2 PUSH1 0x0 SWAP2 AND GAS CALL SWAP1 DUP2 ISZERO PUSH2 0x33E JUMPI PUSH2 0xC10 SWAP3 PUSH1 0x20 SWAP3 PUSH2 0xEB5 JUMPI JUMPDEST POP PUSH1 0x1 PUSH1 0x1 PUSH1 0xA0 SHL SUB PUSH1 0x1 SLOAD AND PUSH1 0x1 PUSH1 0x1 PUSH1 0xA0 SHL SUB PUSH1 0xA SLOAD AND PUSH1 0x0 PUSH1 0xE SLOAD SWAP4 PUSH1 0x40 MLOAD SWAP7 DUP8 SWAP6 DUP7 SWAP5 DUP6 SWAP4 DUP5 MSTORE PUSH1 0x4 DUP5 ADD PUSH1 0x20 SWAP1 SWAP4 SWAP3 SWAP2 SWAP4 PUSH1 0x1 PUSH1 0x1 PUSH1 0xA0 SHL SUB PUSH1 0x40 DUP3 ADD SWAP6 AND DUP2 MSTORE ADD MSTORE JUMP JUMPDEST SUB SWAP3 GAS CALL DUP1 ISZERO PUSH2 0x33E JUMPI PUSH2 0xE96 JUMPI JUMPDEST POP PUSH1 0x1 PUSH1 0x1 PUSH1 0xA0 SHL SUB PUSH1 0xA SLOAD AND PUSH1 0x60 PUSH1 0x1 PUSH1 0x1 PUSH1 0xA0 SHL SUB PUSH1 0x2 SLOAD AND PUSH2 0x104 PUSH1 0x1 PUSH1 0x1 PUSH1 0xA0 SHL SUB PUSH1 0x1 SLOAD AND SWAP2 PUSH1 0x0 PUSH1 0xD SLOAD SWAP6 PUSH1 0xE SLOAD PUSH1 0x40 MLOAD SWAP8 DUP9 SWAP7 DUP8 SWAP6 PUSH32 0xE8E3370000000000000000000000000000000000000000000000000000000000 DUP8 MSTORE PUSH1 0x4 DUP8 ADD MSTORE PUSH1 0x24 DUP7 ADD MSTORE DUP1 PUSH1 0x44 DUP7 ADD MSTORE DUP2 PUSH1 0x64 DUP7 ADD MSTORE PUSH1 0x84 DUP6 ADD MSTORE PUSH1 0xA4 DUP5 ADD MSTORE ADDRESS PUSH1 0xC4 DUP5 ADD MSTORE TIMESTAMP PUSH1 0xE4 DUP5 ADD MSTORE GAS CALL DUP1 ISZERO PUSH2 0x33E JUMPI PUSH2 0xE6B JUMPI JUMPDEST POP PUSH1 0x9 SLOAD PUSH1 0x2 SLOAD PUSH1 0x1 SLOAD PUSH1 0x40 MLOAD PUSH32 0xE6A4390500000000000000000000000000000000000000000000000000000000 DUP2 MSTORE PUSH1 0x1 PUSH1 0x1 PUSH1 0xA0 SHL SUB SWAP3 DUP4 AND PUSH1 0x4 DUP3 ADD MSTORE SWAP1 DUP3 AND PUSH1 0x24 DUP3 ADD MSTORE SWAP2 PUSH1 0x20 SWAP2 DUP4 SWAP2 PUSH1 0x44 SWAP2 DUP4 SWAP2 AND GAS STATICCALL DUP1 ISZERO PUSH2 0x33E JUMPI PUSH1 0x0 SWAP1 PUSH2 0xE22 JUMPI JUMPDEST PUSH1 0x1 PUSH1 0x1 PUSH1 0xA0 SHL SUB SWAP2 POP AND DUP1 PUSH1 0x1 PUSH1 0x1 PUSH1 0xA0 SHL SUB NOT PUSH1 0xB SLOAD AND OR PUSH1 0xB SSTORE PUSH1 0x40 MLOAD PUSH4 0x70A08231 PUSH1 0xE0 SHL DUP2 MSTORE ADDRESS PUSH1 0x4 DUP3 ADD MSTORE PUSH1 0x20 DUP2 PUSH1 0x24 DUP2 DUP6 GAS STATICCALL SWAP1 DUP2 ISZERO PUSH2 0x33E JUMPI PUSH1 0x0 SWAP2 PUSH2 0xDEF JUMPI JUMPDEST POP PUSH1 0x0 SWAP2 PUSH1 0x44 PUSH1 0x20 SWAP3 PUSH1 0x40 MLOAD SWAP5 DUP6 SWAP4 DUP5 SWAP3 PUSH4 0xA9059CBB PUSH1 0xE0 SHL DUP5 MSTORE DUP3 PUSH1 0x4 DUP6 ADD MSTORE PUSH1 0x24 DUP5 ADD MSTORE GAS CALL DUP1 ISZERO PUSH2 0x33E JUMPI PUSH2 0xDD0 JUMPI JUMPDEST POP PUSH1 0x0 PUSH1 0xD SSTORE PUSH1 0x0 PUSH1 0xE SSTORE PUSH32 0xEF75B5A390479D0727B87D3987ED96018984BDD53FA4946005292453EC3FF76D PUSH1 0x20 PUSH1 0x4 SLOAD PUSH1 0x40 MLOAD SWAP1 DUP2 MSTORE LOG1 STOP JUMPDEST PUSH2 0xDE8 SWAP1 PUSH1 0x20 RETURNDATASIZE PUSH1 0x20 GT PUSH2 0x337 JUMPI PUSH2 0x32D DUP2 DUP4 PUSH2 0x2305 JUMP JUMPDEST POP DUP1 PUSH2 0xD96 JUMP JUMPDEST SWAP1 POP PUSH1 0x20 DUP2 RETURNDATASIZE PUSH1 0x20 GT PUSH2 0xE1A JUMPI JUMPDEST DUP2 PUSH2 0xE0A PUSH1 0x20 SWAP4 DUP4 PUSH2 0x2305 JUMP JUMPDEST DUP2 ADD SUB SLT PUSH2 0x1CB JUMPI MLOAD PUSH1 0x0 PUSH2 0xD63 JUMP JUMPDEST RETURNDATASIZE SWAP2 POP PUSH2 0xDFD JUMP JUMPDEST POP PUSH1 0x20 DUP2 RETURNDATASIZE PUSH1 0x20 GT PUSH2 0xE63 JUMPI JUMPDEST DUP2 PUSH2 0xE3C PUSH1 0x20 SWAP4 DUP4 PUSH2 0x2305 JUMP JUMPDEST DUP2 ADD SUB SLT PUSH2 0x1CB JUMPI MLOAD PUSH1 0x1 PUSH1 0x1 PUSH1 0xA0 SHL SUB DUP2 AND DUP2 SUB PUSH2 0x1CB JUMPI PUSH1 0x1 PUSH1 0x1 PUSH1 0xA0 SHL SUB SWAP1 PUSH2 0xD1B JUMP JUMPDEST RETURNDATASIZE SWAP2 POP PUSH2 0xE2F JUMP JUMPDEST PUSH1 0x60 SWAP1 DUP2 RETURNDATASIZE DUP4 GT PUSH2 0xE8F JUMPI JUMPDEST PUSH2 0xE81 DUP2 DUP4 PUSH2 0x2305 JUMP JUMPDEST DUP2 ADD SUB SLT PUSH2 0x1CB JUMPI DUP1 PUSH2 0xCB7 JUMP JUMPDEST POP RETURNDATASIZE PUSH2 0xE77 JUMP JUMPDEST PUSH2 0xEAE SWAP1 PUSH1 0x20 RETURNDATASIZE PUSH1 0x20 GT PUSH2 0x337 JUMPI PUSH2 0x32D DUP2 DUP4 PUSH2 0x2305 JUMP JUMPDEST POP DUP1 PUSH2 0xC1F JUMP JUMPDEST PUSH2 0xECB SWAP1 DUP4 RETURNDATASIZE DUP6 GT PUSH2 0x337 JUMPI PUSH2 0x32D DUP2 DUP4 PUSH2 0x2305 JUMP JUMPDEST POP DUP4 PUSH2 0xBC6 JUMP JUMPDEST ADD MLOAD SWAP1 POP DUP8 DUP1 PUSH2 0x943 JUMP JUMPDEST SWAP1 DUP6 PUSH1 0x0 MSTORE PUSH1 0x20 PUSH1 0x0 KECCAK256 SWAP2 PUSH1 0x0 JUMPDEST PUSH1 0x1F NOT DUP6 AND DUP2 LT PUSH2 0xF53 JUMPI POP SWAP3 PUSH32 0x5F5252E81556CF80E49DA97AC40F17AF2FB3B00E318B675AE93089F555BFA380 SWAP5 SWAP3 PUSH1 0x1 SWAP3 PUSH1 0xA0 SWAP6 DUP4 PUSH1 0x1F NOT DUP2 AND LT PUSH2 0xF3A JUMPI JUMPDEST POP POP POP DUP2 SHL ADD DUP6 SSTORE PUSH2 0x958 JUMP JUMPDEST ADD MLOAD PUSH1 0x0 NOT PUSH1 0xF8 DUP5 PUSH1 0x3 SHL AND SHR NOT AND SWAP1 SSTORE DUP8 DUP1 DUP1 PUSH2 0xF2D JUMP JUMPDEST SWAP2 SWAP3 PUSH1 0x20 PUSH1 0x1 DUP2 SWAP3 DUP7 DUP6 ADD MLOAD DUP2 SSTORE ADD SWAP5 ADD SWAP3 ADD PUSH2 0xEEB JUMP JUMPDEST DUP6 PUSH1 0x0 MSTORE PUSH1 0x20 PUSH1 0x0 KECCAK256 PUSH1 0x1F DUP5 ADD PUSH1 0x5 SHR DUP2 ADD PUSH1 0x20 DUP6 LT PUSH2 0xFA8 JUMPI JUMPDEST PUSH1 0x1F DUP4 ADD PUSH1 0x5 SHR DUP3 ADD DUP2 LT PUSH2 0xF9C JUMPI POP POP PUSH2 0x904 JUMP JUMPDEST PUSH1 0x0 DUP2 SSTORE PUSH1 0x1 ADD PUSH2 0xF86 JUMP JUMPDEST POP DUP1 PUSH2 0xF86 JUMP JUMPDEST PUSH4 0x4E487B71 PUSH1 0xE0 SHL PUSH1 0x0 MSTORE PUSH1 0x41 PUSH1 0x4 MSTORE PUSH1 0x24 PUSH1 0x0 REVERT JUMPDEST PUSH1 0x1 PUSH1 0x1 PUSH1 0xA0 SHL SUB DUP2 AND PUSH1 0x0 MSTORE PUSH1 0x8 PUSH1 0x20 MSTORE PUSH1 0x40 PUSH1 0x0 KECCAK256 PUSH1 0x6 SLOAD SWAP1 DUP2 PUSH1 0x0 MSTORE PUSH1 0x20 MSTORE PUSH1 0x1 PUSH1 0x1 PUSH1 0xA0 SHL SUB PUSH1 0x40 PUSH1 0x0 KECCAK256 SWAP3 PUSH1 0x40 MLOAD SWAP4 PUSH2 0x1002 DUP6 PUSH2 0x22CC JUMP JUMPDEST PUSH1 0x4 DUP4 DUP3 SLOAD AND SWAP2 DUP3 DUP8 MSTORE PUSH1 0x1 DUP2 ADD SLOAD PUSH1 0x20 DUP9 ADD MSTORE PUSH1 0x2 DUP2 ADD SLOAD PUSH1 0x40 DUP9 ADD MSTORE PUSH1 0x3 DUP2 ADD SLOAD PUSH1 0x60 DUP9 ADD MSTORE ADD SLOAD PUSH1 0x80 DUP7 ADD MSTORE ISZERO PUSH2 0x1147 JUMPI JUMPDEST PUSH1 0x0 PUSH1 0xA0 DUP6 ADD MSTORE PUSH32 0x2A6A2BE713FEDF52F113C0A759F1C1A23A113476D9B1B1A2A453C910660DE4E PUSH1 0x60 PUSH3 0xF4240 PUSH2 0x1076 PUSH2 0x140 DUP10 ADD MLOAD PUSH1 0x24 CALLDATALOAD PUSH2 0x2581 JUMP JUMPDEST DIV PUSH2 0x120 DUP9 ADD MLOAD DUP2 DUP2 LT PUSH2 0x113F JUMPI JUMPDEST DUP1 DUP3 GT PUSH2 0x1137 JUMPI JUMPDEST POP PUSH2 0x109C DUP2 PUSH1 0x20 DUP10 ADD MLOAD PUSH2 0x2450 JUMP JUMPDEST PUSH1 0x20 DUP9 ADD MSTORE PUSH2 0x10B0 DUP2 PUSH2 0x120 DUP11 ADD MLOAD PUSH2 0x2594 JUMP JUMPDEST PUSH2 0x120 DUP10 ADD MSTORE PUSH1 0x40 MLOAD SWAP1 DUP6 DUP6 AND DUP3 MSTORE DUP7 PUSH1 0x20 DUP4 ADD MSTORE PUSH1 0x40 DUP3 ADD MSTORE LOG1 AND PUSH1 0x0 MSTORE PUSH1 0x8 PUSH1 0x20 MSTORE PUSH1 0x40 PUSH1 0x0 KECCAK256 SWAP1 PUSH1 0x0 MSTORE PUSH1 0x20 MSTORE PUSH1 0x5 PUSH1 0xA0 PUSH1 0x40 PUSH1 0x0 KECCAK256 SWAP3 PUSH1 0x1 PUSH1 0x1 PUSH1 0xA0 SHL SUB DUP2 MLOAD AND PUSH1 0x1 PUSH1 0x1 PUSH1 0xA0 SHL SUB NOT DUP6 SLOAD AND OR DUP5 SSTORE PUSH1 0x20 DUP2 ADD MLOAD PUSH1 0x1 DUP6 ADD SSTORE PUSH1 0x40 DUP2 ADD MLOAD PUSH1 0x2 DUP6 ADD SSTORE PUSH1 0x60 DUP2 ADD MLOAD PUSH1 0x3 DUP6 ADD SSTORE PUSH1 0x80 DUP2 ADD MLOAD PUSH1 0x4 DUP6 ADD SSTORE ADD MLOAD SWAP2 ADD SSTORE DUP3 PUSH2 0x8CB JUMP JUMPDEST SWAP1 POP DUP10 PUSH2 0x108D JUMP JUMPDEST SWAP1 POP DUP1 PUSH2 0x1085 JUMP JUMPDEST DUP2 DUP2 AND DUP5 MSTORE PUSH1 0x0 PUSH1 0x80 DUP6 ADD MSTORE PUSH2 0x1037 JUMP JUMPDEST PUSH1 0x64 PUSH1 0x40 MLOAD PUSH3 0x461BCD PUSH1 0xE5 SHL DUP2 MSTORE PUSH1 0x20 PUSH1 0x4 DUP3 ADD MSTORE PUSH1 0xF PUSH1 0x24 DUP3 ADD MSTORE PUSH32 0x7472616E73666572206661696C65640000000000000000000000000000000000 PUSH1 0x44 DUP3 ADD MSTORE REVERT JUMPDEST PUSH2 0x11B5 SWAP2 POP PUSH1 0x20 RETURNDATASIZE PUSH1 0x20 GT PUSH2 0x337 JUMPI PUSH2 0x32D DUP2 DUP4 PUSH2 0x2305 JUMP JUMPDEST DUP7 PUSH2 0x7F5 JUMP JUMPDEST CALLER DUP2 MSTORE PUSH1 0x0 PUSH1 0x80 DUP3 ADD MSTORE PUSH2 0x787 JUMP JUMPDEST PUSH1 0x84 PUSH1 0x40 MLOAD PUSH3 0x461BCD PUSH1 0xE5 SHL DUP2 MSTORE PUSH1 0x20 PUSH1 0x4 DUP3 ADD MSTORE PUSH1 0x29 PUSH1 0x24 DUP3 ADD MSTORE PUSH32 0x616C6C6F636174696F6E20646F6573206E6F74206D6565742073616C654D696E PUSH1 0x44 DUP3 ADD MSTORE PUSH32 0x50657257616C6C65740000000000000000000000000000000000000000000000 PUSH1 0x64 DUP3 ADD MSTORE REVERT JUMPDEST PUSH1 0x84 PUSH1 0x40 MLOAD PUSH3 0x461BCD PUSH1 0xE5 SHL DUP2 MSTORE PUSH1 0x20 PUSH1 0x4 DUP3 ADD MSTORE PUSH1 0x28 PUSH1 0x24 DUP3 ADD MSTORE PUSH32 0x616C6C6F636174696F6E20776F756C64206578636565642073616C654D617850 PUSH1 0x44 DUP3 ADD MSTORE PUSH32 0x657257616C6C6574000000000000000000000000000000000000000000000000 PUSH1 0x64 DUP3 ADD MSTORE REVERT JUMPDEST PUSH1 0x84 PUSH1 0x40 MLOAD PUSH3 0x461BCD PUSH1 0xE5 SHL DUP2 MSTORE PUSH1 0x20 PUSH1 0x4 DUP3 ADD MSTORE PUSH1 0x21 PUSH1 0x24 DUP3 ADD MSTORE PUSH32 0x73616C652070726963652065786365656473207573647420616C6C6F77616E63 PUSH1 0x44 DUP3 ADD MSTORE PUSH32 0x6500000000000000000000000000000000000000000000000000000000000000 PUSH1 0x64 DUP3 ADD MSTORE REVERT JUMPDEST SWAP1 POP PUSH1 0x20 DUP2 RETURNDATASIZE PUSH1 0x20 GT PUSH2 0x1332 JUMPI JUMPDEST DUP2 PUSH2 0x1323 PUSH1 0x20 SWAP4 DUP4 PUSH2 0x2305 JUMP JUMPDEST DUP2 ADD SUB SLT PUSH2 0x1CB JUMPI MLOAD DUP7 PUSH2 0x6BF JUMP JUMPDEST RETURNDATASIZE SWAP2 POP PUSH2 0x1316 JUMP JUMPDEST PUSH1 0x64 PUSH1 0x40 MLOAD PUSH3 0x461BCD PUSH1 0xE5 SHL DUP2 MSTORE PUSH1 0x20 PUSH1 0x4 DUP3 ADD MSTORE PUSH1 0x1E PUSH1 0x24 DUP3 ADD MSTORE PUSH32 0x616666696C696174652063616E6E6F74206265206D73672E73656E6465720000 PUSH1 0x44 DUP3 ADD MSTORE REVERT JUMPDEST POP CALLER PUSH1 0x1 PUSH1 0x1 PUSH1 0xA0 SHL SUB DUP5 AND EQ ISZERO PUSH2 0x670 JUMP JUMPDEST PUSH1 0x84 PUSH1 0x40 MLOAD PUSH3 0x461BCD PUSH1 0xE5 SHL DUP2 MSTORE PUSH1 0x20 PUSH1 0x4 DUP3 ADD MSTORE PUSH1 0x29 PUSH1 0x24 DUP3 ADD MSTORE PUSH32 0x616C6C6F636174696F6E20776F756C64206578636565642072656D61696E696E PUSH1 0x44 DUP3 ADD MSTORE PUSH32 0x672062616C616E63650000000000000000000000000000000000000000000000 PUSH1 0x64 DUP3 ADD MSTORE REVERT JUMPDEST PUSH1 0x64 PUSH1 0x40 MLOAD PUSH3 0x461BCD PUSH1 0xE5 SHL DUP2 MSTORE PUSH1 0x20 PUSH1 0x4 DUP3 ADD MSTORE PUSH1 0x14 PUSH1 0x24 DUP3 ADD MSTORE PUSH32 0x75736474206E6F7420696E697469616C697A6564000000000000000000000000 PUSH1 0x44 DUP3 ADD MSTORE REVERT JUMPDEST PUSH1 0x64 PUSH1 0x40 MLOAD PUSH3 0x461BCD PUSH1 0xE5 SHL DUP2 MSTORE PUSH1 0x20 PUSH1 0x4 DUP3 ADD MSTORE PUSH1 0x11 PUSH1 0x24 DUP3 ADD MSTORE PUSH32 0x73616C65206861732066696E6973686564000000000000000000000000000000 PUSH1 0x44 DUP3 ADD MSTORE REVERT JUMPDEST PUSH1 0x64 PUSH1 0x40 MLOAD PUSH3 0x461BCD PUSH1 0xE5 SHL DUP2 MSTORE PUSH1 0x20 PUSH1 0x4 DUP3 ADD MSTORE PUSH1 0x18 PUSH1 0x24 DUP3 ADD MSTORE PUSH32 0x73616C6520686173206E6F742079657420737461727465640000000000000000 PUSH1 0x44 DUP3 ADD MSTORE REVERT JUMPDEST CALLVALUE PUSH2 0x1CB JUMPI PUSH1 0x0 CALLDATASIZE PUSH1 0x3 NOT ADD SLT PUSH2 0x1CB JUMPI PUSH1 0x20 PUSH1 0x1 PUSH1 0x1 PUSH1 0xA0 SHL SUB PUSH1 0x0 SLOAD AND PUSH1 0x40 MLOAD SWAP1 DUP2 MSTORE RETURN JUMPDEST CALLVALUE PUSH2 0x1CB JUMPI PUSH1 0x0 CALLDATASIZE PUSH1 0x3 NOT ADD SLT PUSH2 0x1CB JUMPI PUSH1 0x20 PUSH1 0xC SLOAD PUSH1 0x40 MLOAD SWAP1 DUP2 MSTORE RETURN JUMPDEST CALLVALUE PUSH2 0x1CB JUMPI PUSH1 0x0 CALLDATASIZE PUSH1 0x3 NOT ADD SLT PUSH2 0x1CB JUMPI PUSH1 0x20 PUSH1 0x1 PUSH1 0x1 PUSH1 0xA0 SHL SUB PUSH1 0xB SLOAD AND PUSH1 0x40 MLOAD SWAP1 DUP2 MSTORE RETURN JUMPDEST CALLVALUE PUSH2 0x1CB JUMPI PUSH1 0x40 CALLDATASIZE PUSH1 0x3 NOT ADD SLT PUSH2 0x1CB JUMPI PUSH2 0x154C PUSH2 0x240C JUMP JUMPDEST PUSH2 0x1554 PUSH2 0x2422 JUMP JUMPDEST SWAP1 PUSH2 0x155D PUSH2 0x28C9 JUMP JUMPDEST PUSH1 0x1 PUSH1 0x1 PUSH1 0xA0 SHL SUB DUP1 PUSH1 0x1 SLOAD AND SWAP2 AND SWAP1 DUP2 EQ PUSH2 0x162D JUMPI PUSH1 0x40 MLOAD PUSH4 0x70A08231 PUSH1 0xE0 SHL DUP2 MSTORE ADDRESS PUSH1 0x4 DUP3 ADD MSTORE PUSH1 0x20 SWAP3 DUP4 DUP3 PUSH1 0x24 DUP2 DUP7 GAS STATICCALL SWAP1 DUP2 ISZERO PUSH2 0x33E JUMPI DUP5 SWAP3 PUSH1 0x0 SWAP3 PUSH2 0x15FA JUMPI JUMPDEST POP PUSH1 0x40 MLOAD PUSH4 0xA9059CBB PUSH1 0xE0 SHL DUP2 MSTORE PUSH1 0x1 PUSH1 0x1 PUSH1 0xA0 SHL SUB SWAP1 SWAP2 AND PUSH1 0x4 DUP3 ADD MSTORE PUSH1 0x24 DUP2 ADD SWAP2 SWAP1 SWAP2 MSTORE SWAP2 DUP3 SWAP1 DUP2 PUSH1 0x0 DUP2 PUSH1 0x44 DUP2 ADD JUMPDEST SUB SWAP3 GAS CALL DUP1 ISZERO PUSH2 0x33E JUMPI PUSH2 0x15E4 JUMPI STOP JUMPDEST DUP2 PUSH2 0x335 SWAP3 SWAP1 RETURNDATASIZE LT PUSH2 0x337 JUMPI PUSH2 0x32D DUP2 DUP4 PUSH2 0x2305 JUMP JUMPDEST DUP4 DUP2 SWAP5 SWAP3 SWAP4 POP RETURNDATASIZE DUP4 GT PUSH2 0x1626 JUMPI JUMPDEST PUSH2 0x1612 DUP2 DUP4 PUSH2 0x2305 JUMP JUMPDEST DUP2 ADD SUB SLT PUSH2 0x1CB JUMPI SWAP1 MLOAD DUP4 SWAP2 PUSH2 0x15D4 PUSH2 0x15A2 JUMP JUMPDEST POP RETURNDATASIZE PUSH2 0x1608 JUMP JUMPDEST PUSH1 0x64 PUSH1 0x40 MLOAD PUSH3 0x461BCD PUSH1 0xE5 SHL DUP2 MSTORE PUSH1 0x20 PUSH1 0x4 DUP3 ADD MSTORE PUSH1 0x15 PUSH1 0x24 DUP3 ADD MSTORE PUSH32 0x63616E6E6F7420776974686472617720746F6B656E0000000000000000000000 PUSH1 0x44 DUP3 ADD MSTORE REVERT JUMPDEST CALLVALUE PUSH2 0x1CB JUMPI PUSH1 0x40 CALLDATASIZE PUSH1 0x3 NOT ADD SLT PUSH2 0x1CB JUMPI PUSH1 0xC0 PUSH2 0x168C PUSH2 0x240C JUMP JUMPDEST PUSH1 0x1 PUSH1 0x1 PUSH1 0xA0 SHL SUB DUP1 SWAP2 AND PUSH1 0x0 MSTORE PUSH1 0x8 PUSH1 0x20 MSTORE PUSH1 0x40 PUSH1 0x0 KECCAK256 PUSH1 0x24 CALLDATALOAD PUSH1 0x0 MSTORE PUSH1 0x20 MSTORE PUSH1 0x40 PUSH1 0x0 KECCAK256 SWAP1 DUP2 SLOAD AND SWAP1 PUSH1 0x1 DUP2 ADD SLOAD SWAP1 PUSH1 0x2 DUP2 ADD SLOAD PUSH1 0x3 DUP3 ADD SLOAD SWAP1 PUSH1 0x5 PUSH1 0x4 DUP5 ADD SLOAD SWAP4 ADD SLOAD SWAP4 PUSH1 0x40 MLOAD SWAP6 DUP7 MSTORE PUSH1 0x20 DUP7 ADD MSTORE PUSH1 0x40 DUP6 ADD MSTORE PUSH1 0x60 DUP5 ADD MSTORE PUSH1 0x80 DUP4 ADD MSTORE PUSH1 0xA0 DUP3 ADD MSTORE RETURN JUMPDEST CALLVALUE PUSH2 0x1CB JUMPI PUSH1 0x0 CALLDATASIZE PUSH1 0x3 NOT ADD SLT PUSH2 0x1CB JUMPI PUSH2 0x170D PUSH2 0x28C9 JUMP JUMPDEST PUSH1 0x0 PUSH1 0x1 PUSH1 0x1 PUSH1 0xA0 SHL SUB DUP2 SLOAD PUSH1 0x1 PUSH1 0x1 PUSH1 0xA0 SHL SUB NOT DUP2 AND DUP4 SSTORE AND PUSH32 0x8BE0079C531659141344CD1FD0A4F28419497F9722A3DAAFE3B4186F6B6457E0 DUP3 DUP1 LOG3 STOP JUMPDEST CALLVALUE PUSH2 0x1CB JUMPI PUSH1 0x0 CALLDATASIZE PUSH1 0x3 NOT ADD SLT PUSH2 0x1CB JUMPI PUSH1 0x20 PUSH1 0xFF PUSH1 0x0 SLOAD PUSH1 0xA0 SHR AND PUSH1 0x40 MLOAD SWAP1 ISZERO ISZERO DUP2 MSTORE RETURN JUMPDEST CALLVALUE PUSH2 0x1CB JUMPI PUSH1 0x20 DUP1 PUSH1 0x3 NOT CALLDATASIZE ADD SLT PUSH2 0x1CB JUMPI PUSH2 0x178D PUSH2 0x240C JUMP JUMPDEST PUSH1 0x7 SLOAD PUSH1 0x0 SWAP3 DUP4 SWAP3 PUSH1 0x1 PUSH1 0x1 PUSH1 0xA0 SHL SUB AND JUMPDEST DUP3 DUP6 LT PUSH2 0x17B1 JUMPI PUSH1 0x20 DUP5 PUSH1 0x40 MLOAD SWAP1 DUP2 MSTORE RETURN JUMPDEST SWAP1 SWAP2 SWAP3 PUSH2 0x17DC PUSH1 0x1 SWAP2 DUP4 PUSH1 0x0 MSTORE PUSH1 0x8 DUP6 MSTORE PUSH1 0x40 PUSH1 0x0 KECCAK256 DUP8 PUSH1 0x0 MSTORE DUP6 MSTORE PUSH1 0x2 PUSH1 0x40 PUSH1 0x0 KECCAK256 ADD SLOAD SWAP1 PUSH2 0x2450 JUMP JUMPDEST SWAP5 ADD SWAP4 SWAP3 SWAP2 SWAP1 PUSH2 0x179F JUMP JUMPDEST CALLVALUE PUSH2 0x1CB JUMPI PUSH1 0x40 CALLDATASIZE PUSH1 0x3 NOT ADD SLT PUSH2 0x1CB JUMPI PUSH2 0x1800 PUSH2 0x240C JUMP JUMPDEST PUSH1 0x24 CALLDATALOAD SWAP1 PUSH2 0x180C PUSH2 0x28C9 JUMP JUMPDEST PUSH2 0x1814 PUSH2 0x2850 JUMP JUMPDEST DUP3 GT PUSH2 0x1861 JUMPI PUSH1 0x2 SLOAD PUSH1 0x40 MLOAD PUSH4 0xA9059CBB PUSH1 0xE0 SHL DUP2 MSTORE PUSH1 0x1 PUSH1 0x1 PUSH1 0xA0 SHL SUB SWAP3 DUP4 AND PUSH1 0x4 DUP3 ADD MSTORE PUSH1 0x24 DUP2 ADD SWAP4 SWAP1 SWAP4 MSTORE PUSH1 0x20 SWAP2 DUP4 SWAP2 AND DUP2 PUSH1 0x0 DUP2 PUSH1 0x44 DUP2 ADD JUMPDEST SUB SWAP3 GAS CALL DUP1 ISZERO PUSH2 0x33E JUMPI PUSH2 0x314 JUMPI STOP JUMPDEST PUSH1 0x64 PUSH1 0x40 MLOAD PUSH3 0x461BCD PUSH1 0xE5 SHL DUP2 MSTORE PUSH1 0x20 PUSH1 0x4 DUP3 ADD MSTORE PUSH1 0x1B PUSH1 0x24 DUP3 ADD MSTORE PUSH32 0x616D6F756E7420657863656564732073616C652062616C616E63650000000000 PUSH1 0x44 DUP3 ADD MSTORE REVERT JUMPDEST CALLVALUE PUSH2 0x1CB JUMPI PUSH1 0x20 CALLDATASIZE PUSH1 0x3 NOT ADD SLT PUSH2 0x1CB JUMPI PUSH1 0x1 PUSH1 0x1 PUSH1 0xA0 SHL SUB PUSH2 0x18C6 PUSH2 0x240C JUMP JUMPDEST PUSH2 0x18CE PUSH2 0x28C9 JUMP JUMPDEST AND PUSH1 0x1 PUSH1 0x1 PUSH1 0xA0 SHL SUB NOT PUSH1 0x2 SLOAD AND OR PUSH1 0x2 SSTORE PUSH1 0x0 DUP1 RETURN JUMPDEST CALLVALUE PUSH2 0x1CB JUMPI PUSH1 0x20 CALLDATASIZE PUSH1 0x3 NOT ADD SLT PUSH2 0x1CB JUMPI PUSH1 0x0 PUSH2 0x1C0 PUSH1 0x40 MLOAD PUSH2 0x1907 DUP2 PUSH2 0x22E8 JUMP JUMPDEST PUSH1 0x60 DUP2 MSTORE DUP3 PUSH1 0x20 DUP3 ADD MSTORE DUP3 PUSH1 0x40 DUP3 ADD MSTORE DUP3 PUSH1 0x60 DUP3 ADD MSTORE DUP3 PUSH1 0x80 DUP3 ADD MSTORE DUP3 PUSH1 0xA0 DUP3 ADD MSTORE DUP3 PUSH1 0xC0 DUP3 ADD MSTORE DUP3 PUSH1 0xE0 DUP3 ADD MSTORE DUP3 PUSH2 0x100 DUP3 ADD MSTORE DUP3 PUSH2 0x120 DUP3 ADD MSTORE DUP3 PUSH2 0x140 DUP3 ADD MSTORE DUP3 PUSH2 0x160 DUP3 ADD MSTORE DUP3 PUSH2 0x180 DUP3 ADD MSTORE DUP3 PUSH2 0x1A0 DUP3 ADD MSTORE ADD MSTORE PUSH1 0x4 CALLDATALOAD PUSH1 0x0 MSTORE PUSH1 0x5 PUSH1 0x20 MSTORE PUSH1 0x40 PUSH1 0x0 KECCAK256 PUSH1 0xE PUSH1 0x40 MLOAD SWAP2 PUSH2 0x1980 DUP4 PUSH2 0x22E8 JUMP JUMPDEST PUSH2 0x1989 DUP2 PUSH2 0x2327 JUMP JUMPDEST DUP4 MSTORE PUSH1 0x1 DUP2 ADD SLOAD PUSH1 0x20 DUP5 ADD MSTORE PUSH1 0x2 DUP2 ADD SLOAD PUSH1 0x40 DUP5 ADD MSTORE PUSH1 0x3 DUP2 ADD SLOAD PUSH1 0x60 DUP5 ADD MSTORE PUSH1 0x4 DUP2 ADD SLOAD PUSH1 0x80 DUP5 ADD MSTORE PUSH1 0x5 DUP2 ADD SLOAD PUSH1 0xA0 DUP5 ADD MSTORE PUSH1 0x6 DUP2 ADD SLOAD PUSH1 0xC0 DUP5 ADD MSTORE PUSH1 0x7 DUP2 ADD SLOAD PUSH1 0xE0 DUP5 ADD MSTORE PUSH1 0x8 DUP2 ADD SLOAD PUSH2 0x100 DUP5 ADD MSTORE PUSH1 0x9 DUP2 ADD SLOAD PUSH2 0x120 DUP5 ADD MSTORE PUSH1 0xA DUP2 ADD SLOAD PUSH2 0x140 DUP5 ADD MSTORE PUSH1 0xB DUP2 ADD SLOAD PUSH2 0x160 DUP5 ADD MSTORE PUSH1 0xC DUP2 ADD SLOAD PUSH2 0x180 DUP5 ADD MSTORE PUSH1 0xD DUP2 ADD SLOAD PUSH2 0x1A0 DUP5 ADD MSTORE ADD SLOAD PUSH2 0x1C0 DUP3 ADD MSTORE PUSH1 0x40 MLOAD DUP1 SWAP2 PUSH1 0x20 DUP3 MSTORE PUSH2 0x1C0 PUSH2 0x1A3F DUP3 MLOAD PUSH2 0x1E0 PUSH1 0x20 DUP7 ADD MSTORE PUSH2 0x200 DUP6 ADD SWAP1 PUSH2 0x23CC JUMP JUMPDEST SWAP2 PUSH1 0x20 DUP2 ADD MLOAD PUSH1 0x40 DUP6 ADD MSTORE PUSH1 0x40 DUP2 ADD MLOAD PUSH1 0x60 DUP6 ADD MSTORE PUSH1 0x60 DUP2 ADD MLOAD PUSH1 0x80 DUP6 ADD MSTORE PUSH1 0x80 DUP2 ADD MLOAD PUSH1 0xA0 DUP6 ADD MSTORE PUSH1 0xA0 DUP2 ADD MLOAD PUSH1 0xC0 DUP6 ADD MSTORE PUSH1 0xC0 DUP2 ADD MLOAD PUSH1 0xE0 DUP6 ADD MSTORE PUSH1 0xE0 DUP2 ADD MLOAD PUSH2 0x100 DUP6 ADD MSTORE PUSH2 0x100 DUP2 ADD MLOAD PUSH2 0x120 DUP6 ADD MSTORE PUSH2 0x120 DUP2 ADD MLOAD PUSH2 0x140 DUP6 ADD MSTORE PUSH2 0x140 DUP2 ADD MLOAD PUSH2 0x160 DUP6 ADD MSTORE PUSH2 0x160 DUP2 ADD MLOAD PUSH2 0x180 DUP6 ADD MSTORE PUSH2 0x180 DUP2 ADD MLOAD PUSH2 0x1A0 DUP6 ADD MSTORE PUSH2 0x1A0 DUP2 ADD MLOAD DUP3 DUP6 ADD MSTORE ADD MLOAD PUSH2 0x1E0 DUP4 ADD MSTORE SUB SWAP1 RETURN JUMPDEST CALLVALUE PUSH2 0x1CB JUMPI PUSH1 0x0 CALLDATASIZE PUSH1 0x3 NOT ADD SLT PUSH2 0x1CB JUMPI PUSH1 0x4 SLOAD ISZERO PUSH2 0x1E0F JUMPI PUSH1 0x0 DUP1 JUMPDEST PUSH1 0x7 SLOAD DUP3 LT ISZERO PUSH2 0x1D62 JUMPI CALLER PUSH1 0x0 MSTORE PUSH1 0x8 PUSH1 0x20 MSTORE PUSH1 0x40 PUSH1 0x0 KECCAK256 DUP3 PUSH1 0x0 MSTORE PUSH1 0x20 MSTORE PUSH1 0x40 PUSH1 0x0 KECCAK256 PUSH2 0x1B70 PUSH1 0x40 MLOAD SWAP2 PUSH2 0x1B2A DUP4 PUSH2 0x22CC JUMP JUMPDEST PUSH1 0x5 PUSH1 0x1 PUSH1 0x1 PUSH1 0xA0 SHL SUB DUP3 SLOAD AND SWAP2 DUP3 DUP6 MSTORE PUSH1 0x1 DUP2 ADD SLOAD PUSH1 0x20 DUP7 ADD MSTORE PUSH1 0x2 DUP2 ADD SLOAD PUSH1 0x40 DUP7 ADD MSTORE PUSH1 0x3 DUP2 ADD SLOAD PUSH1 0x60 DUP7 ADD MSTORE PUSH1 0x4 DUP2 ADD SLOAD PUSH1 0x80 DUP7 ADD MSTORE ADD SLOAD PUSH1 0xA0 DUP5 ADD MSTORE DUP5 PUSH2 0x27EB JUMP JUMPDEST SWAP1 PUSH1 0x20 DUP2 ADD MLOAD PUSH2 0x1B84 DUP4 PUSH1 0x40 DUP5 ADD MLOAD PUSH2 0x2450 JUMP JUMPDEST GT PUSH2 0x1D1E JUMPI DUP2 PUSH2 0x1B9B JUMPI JUMPDEST POP POP SWAP1 PUSH1 0x1 ADD SWAP1 PUSH2 0x1AF6 JUMP JUMPDEST PUSH1 0x1 PUSH1 0x1 PUSH1 0xA0 SHL SUB PUSH1 0x1 SLOAD AND PUSH1 0x40 MLOAD PUSH4 0x70A08231 PUSH1 0xE0 SHL DUP2 MSTORE ADDRESS PUSH1 0x4 DUP3 ADD MSTORE PUSH1 0x20 DUP2 PUSH1 0x24 DUP2 DUP6 GAS STATICCALL SWAP1 DUP2 ISZERO PUSH2 0x33E JUMPI PUSH1 0x0 SWAP2 PUSH2 0x1CEC JUMPI JUMPDEST POP DUP4 GT PUSH2 0x1C7E JUMPI JUMPDEST POP SWAP1 PUSH1 0x1 SWAP3 DUP3 PUSH2 0x1BF1 DUP4 PUSH1 0x40 PUSH2 0x1C6C SWAP7 ADD MLOAD PUSH2 0x2450 JUMP JUMPDEST DUP1 PUSH1 0x40 DUP4 ADD MSTORE PUSH1 0x20 DUP3 ADD MLOAD EQ PUSH2 0x1C73 JUMPI JUMPDEST CALLER PUSH1 0x0 MSTORE PUSH1 0x8 PUSH1 0x20 MSTORE PUSH1 0x40 PUSH1 0x0 KECCAK256 DUP7 PUSH1 0x0 MSTORE PUSH1 0x20 MSTORE PUSH1 0x5 PUSH1 0xA0 PUSH1 0x40 PUSH1 0x0 KECCAK256 SWAP3 PUSH1 0x1 PUSH1 0x1 PUSH1 0xA0 SHL SUB DUP2 MLOAD AND PUSH1 0x1 PUSH1 0x1 PUSH1 0xA0 SHL SUB NOT DUP6 SLOAD AND OR DUP5 SSTORE PUSH1 0x20 DUP2 ADD MLOAD DUP9 DUP6 ADD SSTORE PUSH1 0x40 DUP2 ADD MLOAD PUSH1 0x2 DUP6 ADD SSTORE PUSH1 0x60 DUP2 ADD MLOAD PUSH1 0x3 DUP6 ADD SSTORE PUSH1 0x80 DUP2 ADD MLOAD PUSH1 0x4 DUP6 ADD SSTORE ADD MLOAD SWAP2 ADD SSTORE PUSH2 0x2450 JUMP JUMPDEST SWAP1 DUP4 PUSH2 0x1B8F JUMP JUMPDEST TIMESTAMP PUSH1 0xA0 DUP3 ADD MSTORE PUSH2 0x1C02 JUMP JUMPDEST PUSH1 0x24 SWAP2 SWAP3 POP PUSH1 0x20 SWAP1 PUSH1 0x40 MLOAD SWAP3 DUP4 DUP1 SWAP3 PUSH4 0x70A08231 PUSH1 0xE0 SHL DUP3 MSTORE ADDRESS PUSH1 0x4 DUP4 ADD MSTORE GAS STATICCALL SWAP1 DUP2 ISZERO PUSH2 0x33E JUMPI PUSH1 0x0 SWAP2 PUSH2 0x1CB7 JUMPI JUMPDEST POP SWAP1 PUSH1 0x1 PUSH2 0x1BDA JUMP JUMPDEST SWAP2 SWAP1 POP PUSH1 0x20 DUP3 RETURNDATASIZE PUSH1 0x20 GT PUSH2 0x1CE4 JUMPI JUMPDEST DUP2 PUSH2 0x1CD3 PUSH1 0x20 SWAP4 DUP4 PUSH2 0x2305 JUMP JUMPDEST DUP2 ADD SUB SLT PUSH2 0x1CB JUMPI SWAP1 MLOAD PUSH1 0x1 PUSH2 0x1CAE JUMP JUMPDEST RETURNDATASIZE SWAP2 POP PUSH2 0x1CC6 JUMP JUMPDEST SWAP1 POP PUSH1 0x20 DUP2 RETURNDATASIZE PUSH1 0x20 GT PUSH2 0x1D16 JUMPI JUMPDEST DUP2 PUSH2 0x1D07 PUSH1 0x20 SWAP4 DUP4 PUSH2 0x2305 JUMP JUMPDEST DUP2 ADD SUB SLT PUSH2 0x1CB JUMPI MLOAD DUP7 PUSH2 0x1BD2 JUMP JUMPDEST RETURNDATASIZE SWAP2 POP PUSH2 0x1CFA JUMP JUMPDEST PUSH1 0x64 PUSH1 0x40 MLOAD PUSH3 0x461BCD PUSH1 0xE5 SHL DUP2 MSTORE PUSH1 0x20 PUSH1 0x4 DUP3 ADD MSTORE PUSH1 0x14 PUSH1 0x24 DUP3 ADD MSTORE PUSH32 0x746F6B656E20706F6F6C20657868617573746564000000000000000000000000 PUSH1 0x44 DUP3 ADD MSTORE REVERT JUMPDEST DUP1 PUSH2 0x1D69 JUMPI STOP JUMPDEST PUSH1 0x1 SLOAD PUSH1 0x40 MLOAD PUSH4 0xA9059CBB PUSH1 0xE0 SHL DUP2 MSTORE CALLER PUSH1 0x4 DUP3 ADD MSTORE PUSH1 0x24 DUP2 ADD DUP4 SWAP1 MSTORE SWAP2 SWAP1 PUSH1 0x20 SWAP1 DUP4 SWAP1 PUSH1 0x44 SWAP1 DUP3 SWAP1 PUSH1 0x0 SWAP1 PUSH1 0x1 PUSH1 0x1 PUSH1 0xA0 SHL SUB AND GAS CALL SWAP1 DUP2 ISZERO PUSH2 0x33E JUMPI PUSH32 0xD8138F8A3F377C5259CA548E70E4C2DE94F129F5A11036A15B69513CBA2B426A SWAP3 PUSH2 0x1DEB SWAP3 PUSH2 0x1DF0 JUMPI JUMPDEST POP PUSH1 0x40 DUP1 MLOAD CALLER DUP2 MSTORE PUSH1 0x20 DUP2 ADD SWAP3 SWAP1 SWAP3 MSTORE SWAP1 SWAP2 DUP3 SWAP2 DUP3 ADD SWAP1 JUMP JUMPDEST SUB SWAP1 LOG1 STOP JUMPDEST PUSH2 0x1E08 SWAP1 PUSH1 0x20 RETURNDATASIZE PUSH1 0x20 GT PUSH2 0x337 JUMPI PUSH2 0x32D DUP2 DUP4 PUSH2 0x2305 JUMP JUMPDEST POP DUP4 PUSH2 0x1DD2 JUMP JUMPDEST PUSH1 0x64 PUSH1 0x40 MLOAD PUSH3 0x461BCD PUSH1 0xE5 SHL DUP2 MSTORE PUSH1 0x20 PUSH1 0x4 DUP3 ADD MSTORE PUSH1 0x1C PUSH1 0x24 DUP3 ADD MSTORE PUSH32 0x74676554696D6520686173206E6F74206265656E207265616368656400000000 PUSH1 0x44 DUP3 ADD MSTORE REVERT JUMPDEST CALLVALUE PUSH2 0x1CB JUMPI PUSH1 0x20 CALLDATASIZE PUSH1 0x3 NOT ADD SLT PUSH2 0x1CB JUMPI PUSH2 0x1851 PUSH1 0x20 PUSH2 0x1E71 PUSH2 0x240C JUMP JUMPDEST PUSH2 0x1E79 PUSH2 0x28C9 JUMP JUMPDEST PUSH1 0x1 PUSH1 0x1 PUSH1 0xA0 SHL SUB PUSH1 0x2 SLOAD AND PUSH2 0x1E8D PUSH2 0x2850 JUMP JUMPDEST SWAP2 PUSH1 0x0 PUSH1 0x40 MLOAD DUP1 SWAP7 DUP2 SWAP6 DUP3 SWAP5 PUSH4 0xA9059CBB PUSH1 0xE0 SHL DUP5 MSTORE PUSH1 0x4 DUP5 ADD PUSH1 0x20 SWAP1 SWAP4 SWAP3 SWAP2 SWAP4 PUSH1 0x1 PUSH1 0x1 PUSH1 0xA0 SHL SUB PUSH1 0x40 DUP3 ADD SWAP6 AND DUP2 MSTORE ADD MSTORE JUMP JUMPDEST CALLVALUE PUSH2 0x1CB JUMPI PUSH1 0x0 CALLDATASIZE PUSH1 0x3 NOT ADD SLT PUSH2 0x1CB JUMPI PUSH1 0x20 PUSH1 0xE SLOAD PUSH1 0x40 MLOAD SWAP1 DUP2 MSTORE RETURN JUMPDEST CALLVALUE PUSH2 0x1CB JUMPI PUSH1 0x40 CALLDATASIZE PUSH1 0x3 NOT ADD SLT PUSH2 0x1CB JUMPI PUSH1 0x20 PUSH2 0x1C3 PUSH2 0x1EFE PUSH2 0x2422 JUMP JUMPDEST PUSH1 0x4 CALLDATALOAD PUSH2 0x25A1 JUMP JUMPDEST CALLVALUE PUSH2 0x1CB JUMPI PUSH1 0x20 DUP1 PUSH1 0x3 NOT CALLDATASIZE ADD SLT PUSH2 0x1CB JUMPI PUSH2 0x1F20 PUSH2 0x240C JUMP JUMPDEST PUSH1 0x7 SLOAD PUSH1 0x0 SWAP3 DUP4 SWAP3 PUSH1 0x1 PUSH1 0x1 PUSH1 0xA0 SHL SUB AND JUMPDEST DUP3 DUP6 LT PUSH2 0x1F44 JUMPI PUSH1 0x20 DUP5 PUSH1 0x40 MLOAD SWAP1 DUP2 MSTORE RETURN JUMPDEST SWAP1 SWAP2 SWAP3 PUSH2 0x1F6F PUSH1 0x1 SWAP2 DUP4 PUSH1 0x0 MSTORE PUSH1 0x8 DUP6 MSTORE PUSH1 0x40 PUSH1 0x0 KECCAK256 DUP8 PUSH1 0x0 MSTORE DUP6 MSTORE PUSH1 0x3 PUSH1 0x40 PUSH1 0x0 KECCAK256 ADD SLOAD SWAP1 PUSH2 0x2450 JUMP JUMPDEST SWAP5 ADD SWAP4 SWAP3 SWAP2 SWAP1 PUSH2 0x1F32 JUMP JUMPDEST CALLVALUE PUSH2 0x1CB JUMPI PUSH1 0x0 CALLDATASIZE PUSH1 0x3 NOT ADD SLT PUSH2 0x1CB JUMPI PUSH1 0x20 PUSH1 0x4 SLOAD PUSH1 0x40 MLOAD SWAP1 DUP2 MSTORE RETURN JUMPDEST CALLVALUE PUSH2 0x1CB JUMPI PUSH1 0x0 CALLDATASIZE PUSH1 0x3 NOT ADD SLT PUSH2 0x1CB JUMPI PUSH1 0x20 PUSH2 0x1C3 PUSH2 0x245D JUMP JUMPDEST CALLVALUE PUSH2 0x1CB JUMPI PUSH1 0x20 CALLDATASIZE PUSH1 0x3 NOT ADD SLT PUSH2 0x1CB JUMPI PUSH1 0x4 CALLDATALOAD PUSH1 0x1 PUSH1 0x1 PUSH1 0xA0 SHL SUB DUP2 AND DUP1 SWAP2 SUB PUSH2 0x1CB JUMPI PUSH1 0x0 DUP1 DUP1 DUP1 SWAP4 PUSH2 0x1FE6 PUSH2 0x28C9 JUMP JUMPDEST SELFBALANCE SWAP1 DUP3 DUP3 ISZERO PUSH2 0x1FF8 JUMPI JUMPDEST CALL ISZERO PUSH2 0x33E JUMPI STOP JUMPDEST POP PUSH2 0x8FC PUSH2 0x1FF0 JUMP JUMPDEST CALLVALUE PUSH2 0x1CB JUMPI PUSH1 0x0 CALLDATASIZE PUSH1 0x3 NOT ADD SLT PUSH2 0x1CB JUMPI PUSH1 0x20 PUSH1 0x1 PUSH1 0x1 PUSH1 0xA0 SHL SUB PUSH1 0xA SLOAD AND PUSH1 0x40 MLOAD SWAP1 DUP2 MSTORE RETURN JUMPDEST CALLVALUE PUSH2 0x1CB JUMPI PUSH1 0x20 CALLDATASIZE PUSH1 0x3 NOT ADD SLT PUSH2 0x1CB JUMPI PUSH2 0x1851 PUSH1 0x20 PUSH2 0x2046 PUSH2 0x240C JUMP JUMPDEST PUSH2 0x204E PUSH2 0x28C9 JUMP JUMPDEST PUSH1 0x1 PUSH1 0x1 PUSH1 0xA0 SHL SUB PUSH1 0x1 SLOAD AND PUSH2 0x1E8D PUSH2 0x245D JUMP JUMPDEST CALLVALUE PUSH2 0x1CB JUMPI PUSH1 0x20 CALLDATASIZE PUSH1 0x3 NOT ADD SLT PUSH2 0x1CB JUMPI PUSH1 0x1 PUSH1 0x1 PUSH1 0xA0 SHL SUB PUSH2 0x2083 PUSH2 0x240C JUMP JUMPDEST PUSH2 0x208B PUSH2 0x28C9 JUMP JUMPDEST AND PUSH1 0x1 PUSH1 0x1 PUSH1 0xA0 SHL SUB NOT PUSH1 0x1 SLOAD AND OR PUSH1 0x1 SSTORE PUSH1 0x0 DUP1 RETURN JUMPDEST CALLVALUE PUSH2 0x1CB JUMPI PUSH1 0x0 CALLDATASIZE PUSH1 0x3 NOT ADD SLT PUSH2 0x1CB JUMPI PUSH1 0x40 MLOAD PUSH1 0x3 SLOAD PUSH1 0x0 DUP3 PUSH2 0x20C5 DUP4 PUSH2 0x2292 JUMP JUMPDEST SWAP2 DUP3 DUP3 MSTORE PUSH1 0x20 SWAP4 PUSH1 0x1 SWAP1 DUP6 PUSH1 0x1 DUP3 AND SWAP2 DUP3 PUSH1 0x0 EQ PUSH2 0x2169 JUMPI POP POP PUSH1 0x1 EQ PUSH2 0x210C JUMPI JUMPDEST POP PUSH2 0x20F4 SWAP3 POP SUB DUP4 PUSH2 0x2305 JUMP JUMPDEST PUSH2 0x2108 PUSH1 0x40 MLOAD SWAP3 DUP3 DUP5 SWAP4 DUP5 MSTORE DUP4 ADD SWAP1 PUSH2 0x23CC JUMP JUMPDEST SUB SWAP1 RETURN JUMPDEST DUP5 SWAP2 POP PUSH1 0x3 PUSH1 0x0 MSTORE PUSH32 0xC2575A0E9E593C00F959F8C92F12DB2869C3395A3B0502D05E2516446F71F85B SWAP1 PUSH1 0x0 SWAP2 JUMPDEST DUP6 DUP4 LT PUSH2 0x2151 JUMPI POP POP PUSH2 0x20F4 SWAP4 POP DUP3 ADD ADD DUP6 PUSH2 0x20E7 JUMP JUMPDEST DUP1 SLOAD DUP4 DUP10 ADD DUP6 ADD MSTORE DUP8 SWAP5 POP DUP7 SWAP4 SWAP1 SWAP3 ADD SWAP2 DUP2 ADD PUSH2 0x213A JUMP JUMPDEST PUSH1 0xFF NOT AND DUP6 DUP3 ADD MSTORE PUSH2 0x20F4 SWAP6 ISZERO ISZERO PUSH1 0x5 SHL DUP6 ADD ADD SWAP3 POP DUP8 SWAP2 POP PUSH2 0x20E7 SWAP1 POP JUMP JUMPDEST CALLVALUE PUSH2 0x1CB JUMPI PUSH1 0x0 CALLDATASIZE PUSH1 0x3 NOT ADD SLT PUSH2 0x1CB JUMPI PUSH1 0x20 PUSH1 0x1 PUSH1 0x1 PUSH1 0xA0 SHL SUB PUSH1 0x9 SLOAD AND PUSH1 0x40 MLOAD SWAP1 DUP2 MSTORE RETURN JUMPDEST CALLVALUE PUSH2 0x1CB JUMPI PUSH1 0x20 CALLDATASIZE PUSH1 0x3 NOT ADD SLT PUSH2 0x1CB JUMPI PUSH1 0x4 CALLDATALOAD PUSH1 0x0 MSTORE PUSH1 0x5 PUSH1 0x20 MSTORE PUSH1 0x40 PUSH1 0x0 KECCAK256 PUSH2 0x21DA DUP2 PUSH2 0x2327 JUMP JUMPDEST SWAP1 PUSH1 0x1 DUP2 ADD SLOAD PUSH1 0x2 DUP3 ADD SLOAD SWAP2 PUSH1 0x3 DUP2 ADD SLOAD SWAP1 PUSH1 0x4 DUP2 ADD SLOAD PUSH1 0x5 DUP3 ADD SLOAD PUSH1 0x6 DUP4 ADD SLOAD PUSH1 0x7 DUP5 ADD SLOAD PUSH1 0x8 DUP6 ADD SLOAD PUSH1 0x9 DUP7 ADD SLOAD SWAP2 PUSH1 0xA DUP8 ADD SLOAD SWAP4 PUSH1 0xB DUP9 ADD SLOAD SWAP6 PUSH1 0xC DUP10 ADD SLOAD SWAP8 PUSH1 0xD DUP11 ADD SLOAD SWAP10 PUSH1 0xE ADD SLOAD SWAP11 PUSH1 0x40 MLOAD SWAP15 DUP16 SWAP15 DUP16 SWAP2 PUSH2 0x1E0 DUP1 DUP5 MSTORE DUP4 ADD PUSH2 0x2241 SWAP2 PUSH2 0x23CC JUMP JUMPDEST SWAP15 PUSH1 0x20 DUP4 ADD MSTORE PUSH1 0x40 DUP3 ADD MSTORE PUSH1 0x60 ADD MSTORE PUSH1 0x80 DUP14 ADD MSTORE PUSH1 0xA0 DUP13 ADD MSTORE PUSH1 0xC0 DUP12 ADD MSTORE PUSH1 0xE0 DUP11 ADD MSTORE PUSH2 0x100 DUP10 ADD MSTORE PUSH2 0x120 DUP9 ADD MSTORE PUSH2 0x140 DUP8 ADD MSTORE PUSH2 0x160 DUP7 ADD MSTORE PUSH2 0x180 DUP6 ADD MSTORE PUSH2 0x1A0 DUP5 ADD MSTORE PUSH2 0x1C0 DUP4 ADD MSTORE SUB SWAP1 RETURN JUMPDEST SWAP1 PUSH1 0x1 DUP3 DUP2 SHR SWAP3 AND DUP1 ISZERO PUSH2 0x22C2 JUMPI JUMPDEST PUSH1 0x20 DUP4 LT EQ PUSH2 0x22AC JUMPI JUMP JUMPDEST PUSH4 0x4E487B71 PUSH1 0xE0 SHL PUSH1 0x0 MSTORE PUSH1 0x22 PUSH1 0x4 MSTORE PUSH1 0x24 PUSH1 0x0 REVERT JUMPDEST SWAP2 PUSH1 0x7F AND SWAP2 PUSH2 0x22A1 JUMP JUMPDEST PUSH1 0xC0 DUP2 ADD SWAP1 DUP2 LT PUSH8 0xFFFFFFFFFFFFFFFF DUP3 GT OR PUSH2 0xFAF JUMPI PUSH1 0x40 MSTORE JUMP JUMPDEST PUSH2 0x1E0 DUP2 ADD SWAP1 DUP2 LT PUSH8 0xFFFFFFFFFFFFFFFF DUP3 GT OR PUSH2 0xFAF JUMPI PUSH1 0x40 MSTORE JUMP JUMPDEST SWAP1 PUSH1 0x1F DUP1 NOT SWAP2 ADD AND DUP2 ADD SWAP1 DUP2 LT PUSH8 0xFFFFFFFFFFFFFFFF DUP3 GT OR PUSH2 0xFAF JUMPI PUSH1 0x40 MSTORE JUMP JUMPDEST SWAP1 PUSH1 0x40 MLOAD SWAP2 DUP3 PUSH1 0x0 DUP3 SLOAD PUSH2 0x233A DUP2 PUSH2 0x2292 JUMP JUMPDEST SWAP1 DUP2 DUP5 MSTORE PUSH1 0x20 SWAP5 PUSH1 0x1 SWAP2 PUSH1 0x1 DUP2 AND SWAP1 DUP2 PUSH1 0x0 EQ PUSH2 0x23AA JUMPI POP PUSH1 0x1 EQ PUSH2 0x236B JUMPI JUMPDEST POP POP POP PUSH2 0x2369 SWAP3 POP SUB DUP4 PUSH2 0x2305 JUMP JUMPDEST JUMP JUMPDEST PUSH1 0x0 SWAP1 DUP2 MSTORE DUP6 DUP2 KECCAK256 SWAP6 SWAP4 POP SWAP2 SWAP1 JUMPDEST DUP2 DUP4 LT PUSH2 0x2392 JUMPI POP POP PUSH2 0x2369 SWAP4 POP DUP3 ADD ADD CODESIZE DUP1 DUP1 PUSH2 0x235A JUMP JUMPDEST DUP6 SLOAD DUP9 DUP5 ADD DUP6 ADD MSTORE SWAP5 DUP6 ADD SWAP5 DUP8 SWAP5 POP SWAP2 DUP4 ADD SWAP2 PUSH2 0x2379 JUMP JUMPDEST SWAP3 POP POP POP PUSH2 0x2369 SWAP5 SWAP3 POP PUSH1 0xFF NOT AND DUP3 DUP5 ADD MSTORE ISZERO ISZERO PUSH1 0x5 SHL DUP3 ADD ADD CODESIZE DUP1 DUP1 PUSH2 0x235A JUMP JUMPDEST SWAP2 SWAP1 DUP3 MLOAD SWAP3 DUP4 DUP3 MSTORE PUSH1 0x0 JUMPDEST DUP5 DUP2 LT PUSH2 0x23F8 JUMPI POP POP DUP3 PUSH1 0x0 PUSH1 0x20 DUP1 SWAP5 SWAP6 DUP5 ADD ADD MSTORE PUSH1 0x1F DUP1 NOT SWAP2 ADD AND ADD ADD SWAP1 JUMP JUMPDEST PUSH1 0x20 DUP2 DUP4 ADD DUP2 ADD MLOAD DUP5 DUP4 ADD DUP3 ADD MSTORE ADD PUSH2 0x23D7 JUMP JUMPDEST PUSH1 0x4 CALLDATALOAD SWAP1 PUSH1 0x1 PUSH1 0x1 PUSH1 0xA0 SHL SUB DUP3 AND DUP3 SUB PUSH2 0x1CB JUMPI JUMP JUMPDEST PUSH1 0x24 CALLDATALOAD SWAP1 PUSH1 0x1 PUSH1 0x1 PUSH1 0xA0 SHL SUB DUP3 AND DUP3 SUB PUSH2 0x1CB JUMPI JUMP JUMPDEST SWAP1 DUP2 PUSH1 0x20 SWAP2 SUB SLT PUSH2 0x1CB JUMPI MLOAD DUP1 ISZERO ISZERO DUP2 SUB PUSH2 0x1CB JUMPI SWAP1 JUMP JUMPDEST SWAP2 SWAP1 DUP3 ADD DUP1 SWAP3 GT PUSH2 0xB18 JUMPI JUMP JUMPDEST PUSH1 0x4 SLOAD ISZERO PUSH2 0x257C JUMPI PUSH1 0x0 DUP1 PUSH1 0x7 SLOAD JUMPDEST DUP1 DUP3 LT PUSH2 0x254B JUMPI POP POP PUSH1 0x1 PUSH1 0x1 PUSH1 0xA0 SHL SUB PUSH1 0x1 SLOAD AND SWAP1 PUSH1 0x40 MLOAD SWAP2 PUSH4 0x70A08231 PUSH1 0xE0 SHL DUP1 DUP5 MSTORE ADDRESS PUSH1 0x4 DUP6 ADD MSTORE PUSH1 0x20 SWAP4 DUP5 DUP2 PUSH1 0x24 DUP2 DUP7 GAS STATICCALL SWAP1 DUP2 ISZERO PUSH2 0x33E JUMPI PUSH1 0x0 SWAP2 PUSH2 0x251E JUMPI JUMPDEST POP DUP4 GT PUSH2 0x24C0 JUMPI JUMPDEST POP POP SWAP1 POP SWAP1 JUMP JUMPDEST DUP4 SWAP2 SWAP3 POP PUSH1 0x24 PUSH1 0x40 MLOAD DUP1 SWAP5 DUP2 SWAP4 DUP3 MSTORE ADDRESS PUSH1 0x4 DUP4 ADD MSTORE GAS STATICCALL SWAP2 DUP3 ISZERO PUSH2 0x33E JUMPI PUSH1 0x0 SWAP3 PUSH2 0x24F0 JUMPI JUMPDEST POP POP DUP1 CODESIZE DUP1 PUSH2 0x24B9 JUMP JUMPDEST SWAP1 DUP1 SWAP3 POP DUP2 RETURNDATASIZE DUP4 GT PUSH2 0x2517 JUMPI JUMPDEST PUSH2 0x2507 DUP2 DUP4 PUSH2 0x2305 JUMP JUMPDEST DUP2 ADD SUB SLT PUSH2 0x1CB JUMPI MLOAD CODESIZE DUP1 PUSH2 0x24E6 JUMP JUMPDEST POP RETURNDATASIZE PUSH2 0x24FD JUMP JUMPDEST SWAP1 POP DUP5 DUP2 DUP2 RETURNDATASIZE DUP4 GT PUSH2 0x2544 JUMPI JUMPDEST PUSH2 0x2535 DUP2 DUP4 PUSH2 0x2305 JUMP JUMPDEST DUP2 ADD SUB SLT PUSH2 0x1CB JUMPI MLOAD CODESIZE PUSH2 0x24B1 JUMP JUMPDEST POP RETURNDATASIZE PUSH2 0x252B JUMP JUMPDEST SWAP1 SWAP2 PUSH2 0x2574 PUSH1 0x1 SWAP2 DUP5 PUSH1 0x0 MSTORE PUSH2 0x543 PUSH1 0x5 DUP1 PUSH1 0x20 MSTORE PUSH1 0x9 PUSH1 0x40 PUSH1 0x0 KECCAK256 SWAP2 DUP3 ADD SLOAD SWAP2 ADD SLOAD SWAP1 PUSH2 0x2450 JUMP JUMPDEST SWAP3 ADD SWAP1 PUSH2 0x246C JUMP JUMPDEST PUSH1 0x0 SWAP1 JUMP JUMPDEST DUP2 DUP2 MUL SWAP3 SWAP2 DUP2 ISZERO SWAP2 DUP5 DIV EQ OR ISZERO PUSH2 0xB18 JUMPI JUMP JUMPDEST SWAP2 SWAP1 DUP3 SUB SWAP2 DUP3 GT PUSH2 0xB18 JUMPI JUMP JUMPDEST SWAP1 PUSH1 0x1 PUSH1 0x1 PUSH1 0xA0 SHL SUB DUP1 PUSH1 0x1 SLOAD AND ISZERO PUSH2 0x27E3 JUMPI PUSH1 0x4 SLOAD SWAP2 DUP3 ISZERO PUSH2 0x27DA JUMPI DUP2 PUSH1 0x0 SWAP2 AND DUP2 MSTORE PUSH1 0x8 PUSH1 0x20 MSTORE PUSH1 0x40 DUP1 DUP3 KECCAK256 DUP6 DUP4 MSTORE PUSH1 0x20 MSTORE DUP1 DUP3 KECCAK256 SWAP4 DUP2 MLOAD SWAP4 PUSH2 0x25E5 DUP6 PUSH2 0x22CC JUMP JUMPDEST DUP6 SLOAD AND DUP5 MSTORE PUSH1 0x1 DUP6 ADD SLOAD SWAP6 PUSH1 0x20 DUP6 ADD SWAP7 DUP8 MSTORE PUSH1 0x2 DUP7 ADD SLOAD DUP4 DUP7 ADD MSTORE PUSH1 0x3 DUP7 ADD SLOAD PUSH1 0x60 DUP7 ADD MSTORE PUSH1 0xA0 PUSH1 0x5 PUSH1 0x4 DUP9 ADD SLOAD SWAP8 PUSH1 0x80 DUP9 ADD SWAP9 DUP10 MSTORE ADD SLOAD SWAP6 ADD SWAP5 DUP6 MSTORE DUP4 MSTORE PUSH1 0x5 PUSH1 0x20 MSTORE DUP2 DUP4 KECCAK256 SWAP1 DUP3 MLOAD SWAP3 PUSH2 0x2639 DUP5 PUSH2 0x22E8 JUMP JUMPDEST PUSH2 0x2642 DUP4 PUSH2 0x2327 JUMP JUMPDEST DUP5 MSTORE PUSH1 0x1 DUP4 ADD SLOAD PUSH1 0x20 DUP6 ADD MSTORE PUSH1 0x2 DUP4 ADD SLOAD SWAP1 DUP5 ADD MSTORE PUSH1 0x3 DUP3 ADD SLOAD PUSH1 0x60 DUP5 ADD MSTORE PUSH1 0x4 DUP3 ADD SLOAD PUSH1 0x80 DUP5 ADD MSTORE PUSH1 0x5 DUP3 ADD SLOAD PUSH1 0xA0 DUP5 ADD MSTORE PUSH1 0x6 DUP3 ADD SLOAD PUSH1 0xC0 DUP5 ADD MSTORE PUSH1 0x7 DUP3 ADD SLOAD PUSH1 0xE0 DUP5 ADD MSTORE PUSH1 0x8 DUP3 ADD SLOAD PUSH2 0x100 DUP5 ADD MSTORE PUSH1 0x9 DUP3 ADD SLOAD PUSH2 0x120 DUP5 ADD MSTORE PUSH1 0xA DUP3 ADD SLOAD PUSH2 0x140 DUP5 ADD MSTORE PUSH1 0xB DUP3 ADD SLOAD SWAP1 PUSH2 0x160 DUP5 ADD SWAP2 DUP3 MSTORE PUSH1 0xC DUP4 ADD SLOAD SWAP1 PUSH2 0x180 DUP6 ADD SWAP2 DUP3 MSTORE PUSH2 0x1C0 PUSH1 0xE PUSH1 0xD DUP7 ADD SLOAD SWAP6 PUSH2 0x1A0 DUP9 ADD SWAP7 DUP8 MSTORE ADD SLOAD SWAP6 ADD SWAP5 DUP6 MSTORE PUSH2 0x26EB DUP2 DUP10 MLOAD PUSH2 0x2450 JUMP JUMPDEST TIMESTAMP LT PUSH2 0x27CE JUMPI SWAP1 PUSH2 0x2715 PUSH2 0x271D SWAP3 DUP11 MLOAD SWAP5 PUSH2 0x270D PUSH3 0xF4240 SWAP7 DUP8 SWAP3 MLOAD SWAP1 PUSH2 0x2581 JUMP JUMPDEST DIV SWAP10 MLOAD PUSH2 0x2450 JUMP JUMPDEST SWAP1 MLOAD SWAP1 PUSH2 0x2450 JUMP JUMPDEST SWAP5 DUP6 TIMESTAMP LT PUSH2 0x27C3 JUMPI MLOAD PUSH2 0x27B9 JUMPI PUSH2 0x2735 DUP4 MLOAD DUP7 PUSH2 0x2450 JUMP JUMPDEST TIMESTAMP LT ISZERO PUSH2 0x27B9 JUMPI PUSH2 0x274D PUSH2 0x2773 SWAP3 DUP9 MLOAD SWAP1 MLOAD SWAP1 PUSH2 0x2581 JUMP JUMPDEST DIV SWAP4 PUSH2 0x276D PUSH2 0x2766 DUP7 PUSH2 0x2761 DUP10 DUP12 MLOAD PUSH2 0x2594 JUMP JUMPDEST PUSH2 0x2594 JUMP JUMPDEST SWAP2 TIMESTAMP PUSH2 0x2594 JUMP JUMPDEST SWAP1 PUSH2 0x2581 JUMP JUMPDEST SWAP1 MLOAD SWAP2 DUP3 ISZERO PUSH2 0x27A5 JUMPI POP SWAP2 PUSH2 0x278E SWAP2 PUSH2 0x2793 SWAP5 SWAP4 DIV SWAP3 PUSH2 0x2450 JUMP JUMPDEST PUSH2 0x2450 JUMP JUMPDEST SWAP1 MLOAD DUP1 DUP3 GT PUSH2 0x27A0 JUMPI POP SWAP1 JUMP JUMPDEST SWAP1 POP SWAP1 JUMP JUMPDEST DUP1 PUSH4 0x4E487B71 PUSH1 0xE0 SHL PUSH1 0x24 SWAP3 MSTORE PUSH1 0x12 PUSH1 0x4 MSTORE REVERT JUMPDEST POP POP POP POP POP POP MLOAD SWAP1 JUMP JUMPDEST POP POP POP POP POP POP SWAP1 POP SWAP1 JUMP JUMPDEST POP POP POP POP POP SWAP3 POP POP POP SWAP1 JUMP JUMPDEST POP POP POP POP PUSH1 0x0 SWAP1 JUMP JUMPDEST POP POP POP PUSH1 0x0 SWAP1 JUMP JUMPDEST SWAP1 PUSH1 0x1 PUSH1 0x1 PUSH1 0xA0 SHL SUB PUSH2 0x27FE DUP3 DUP5 PUSH2 0x25A1 JUMP JUMPDEST SWAP2 AND SWAP2 PUSH1 0x0 SWAP3 DUP1 DUP5 MSTORE PUSH1 0x8 PUSH1 0x20 MSTORE PUSH1 0x40 DUP5 KECCAK256 DUP3 DUP6 MSTORE PUSH1 0x20 MSTORE PUSH1 0x2 PUSH1 0x40 DUP6 KECCAK256 ADD SLOAD DUP4 LT PUSH2 0x284A JUMPI DUP4 PUSH1 0x2 SWAP3 PUSH1 0x40 SWAP3 PUSH2 0x2847 SWAP7 MSTORE PUSH1 0x8 PUSH1 0x20 MSTORE DUP3 DUP3 KECCAK256 SWAP1 DUP3 MSTORE PUSH1 0x20 MSTORE KECCAK256 ADD SLOAD SWAP1 PUSH2 0x2594 JUMP JUMPDEST SWAP1 JUMP JUMPDEST POP POP POP SWAP1 JUMP JUMPDEST PUSH1 0x24 PUSH1 0x20 PUSH1 0x1 PUSH1 0x1 PUSH1 0xA0 SHL SUB PUSH1 0x2 SLOAD AND PUSH1 0x40 MLOAD SWAP3 DUP4 DUP1 SWAP3 PUSH4 0x70A08231 PUSH1 0xE0 SHL DUP3 MSTORE ADDRESS PUSH1 0x4 DUP4 ADD MSTORE GAS STATICCALL DUP1 ISZERO PUSH2 0x33E JUMPI PUSH1 0x0 SWAP1 PUSH2 0x2895 JUMPI JUMPDEST PUSH2 0x2847 SWAP2 POP PUSH1 0xD SLOAD SWAP1 PUSH2 0x2594 JUMP JUMPDEST POP PUSH1 0x20 DUP2 RETURNDATASIZE PUSH1 0x20 GT PUSH2 0x28C1 JUMPI JUMPDEST DUP2 PUSH2 0x28AF PUSH1 0x20 SWAP4 DUP4 PUSH2 0x2305 JUMP JUMPDEST DUP2 ADD SUB SLT PUSH2 0x1CB JUMPI PUSH2 0x2847 SWAP1 MLOAD PUSH2 0x2887 JUMP JUMPDEST RETURNDATASIZE SWAP2 POP PUSH2 0x28A2 JUMP JUMPDEST PUSH1 0x1 PUSH1 0x1 PUSH1 0xA0 SHL SUB PUSH1 0x0 SLOAD AND CALLER SUB PUSH2 0x28DD JUMPI JUMP JUMPDEST PUSH1 0x24 PUSH1 0x40 MLOAD PUSH32 0x118CDAA700000000000000000000000000000000000000000000000000000000 DUP2 MSTORE CALLER PUSH1 0x4 DUP3 ADD MSTORE REVERT JUMPDEST PUSH1 0xFF PUSH1 0x0 SLOAD PUSH1 0xA0 SHR AND PUSH2 0x291C JUMPI JUMP JUMPDEST PUSH1 0x4 PUSH1 0x40 MLOAD PUSH32 0xD93C066500000000000000000000000000000000000000000000000000000000 DUP2 MSTORE REVERT JUMPDEST PUSH1 0x0 NOT DUP2 EQ PUSH2 0xB18 JUMPI PUSH1 0x1 ADD SWAP1 JUMP INVALID LOG2 PUSH5 0x6970667358 0x22 SLT KECCAK256 0xCE PUSH7 0x24C8B08F2EAA4A EXTCODESIZE 0x24 0x29 0xE1 0xC6 NOT GAS SHR PUSH8 0x700124CCAF3D784 OR SWAP14 0xC0 SLOAD TSTORE 0x2A PUSH5 0x736F6C6343 STOP ADDMOD XOR STOP CALLER "
        },
        "methodIdentifiers": {
          "claim()": "4e71d92d",
          "claimableAmount(uint256,address)": "f311df8e",
          "claimableAmountAllTiers(address)": "9943d6ec",
          "countTiers()": "b0cd390e",
          "currentTier()": "d679677a",
          "emergencyWithdraw(address,address,uint256)": "e63ea408",
          "getMember(address,uint256)": "b0904882",
          "getTier(uint256)": "4f062c5a",
          "liquidityFactory()": "05f2770c",
          "liquidityPair()": "808a5457",
          "liquidityRouter()": "24702944",
          "liquidityToken()": "43cd8f7e",
          "liquidityUSDT()": "cdac5f7c",
          "liquidityUSDTPercent()": "8a0beaa1",
          "members(address,uint256)": "719ba034",
          "name()": "06fdde03",
          "owner()": "8da5cb5b",
          "paused()": "5c975abb",
          "purchase(address,uint256)": "8de93222",
          "remainingAmount(address)": "5a849419",
          "renounceOwnership()": "715018a6",
          "saleBalance()": "fab14b36",
          "setToken(address)": "144fa6d7",
          "setUSDT(address)": "50c1b923",
          "surplusTokens()": "260edaaa",
          "tgeTime()": "3163e3a8",
          "tiers(uint256)": "039af9eb",
          "totalAmount(address)": "d72b9da2",
          "totalPaid(address)": "3dd6d533",
          "transferOwnership(address)": "f2fde38b",
          "vestedAmount(uint256,address)": "3e6c5311",
          "withdrawErc20(address,address)": "739656db",
          "withdrawEth(address)": "25e16063",
          "withdrawPartialSaleBalance(address,uint256)": "52a87c6b",
          "withdrawSaleBalance(address)": "4a2bfc8b",
          "withdrawSurplusTokens(address)": "1afd1a4b"
        }
      }
    }
  }
}